:020000040000FA
:101000000AEF08F0FFFFFFFFD9CF01F0DACF02F0BF
:101010002DED1CF02EEF1DF000303132333435361B
:10102000373839414243444546A6729A090229009D
:1010300001010080320904000002030000000921C0
:1010400011010001221D0007058103400001070571
:1010500001034000010600FF0901A1011901294017
:10106000150026FF0075089540810019012940915F
:1010700000C0160348007900700065007800200069
:1010800042005600000000001201000200000008AB
:10109000D80489FF0100010200010C0344004C0048
:1010A000430050000000040309040000E8CF57F09B
:1010B00021EEEDF010EE4DF0070EDECFE6FFE82E4C
:1010C000FCD75750420A01E135D20001CB6B32D236
:1010D0001BC197F000019751090A14E1020E586EE6
:1010E00060DADF500AE05DDABE0E5824E16EE26A93
:1010F000020EE222DFCFE7FF01D057DA582A1F0E97
:101100005864EED7000197510A0A07E1020E586EA3
:101110004CDA582A1F0E5864FBD7030E0001C16F2A
:101120001BC1C2F0BD8B0AEC23F060EC23F0E9ECAC
:1011300010F034D201011B0518E11CC1B7F00ED02C
:10114000040EC16F010EC26FF0D71DC1B8F0040EBE
:10115000C16F010EC26F7F819489E7D70001B7513B
:10116000010AEEE0030AF1E019D21B51020A01E084
:1011700015D21EC1B5F0040E0001C16F020EC26F80
:10118000B551060A1DE1050E586E0BDADF500AE074
:1011900008DAFB0E5824E16EE26A000EE222DFCF8D
:1011A000E7FF07D0FB0E5824D96EDA6A000EDA2268
:1011B000DF68582A130E5864E8D70001BD89B3D7F9
:1011C000B551050AB2E0B551070AAFE0E7D11BC13E
:1011D00099F01FC171F020C170F021C16FF022C1E0
:1011E0006EF0010123B102D05E9801D05E8801014A
:1011F00024B103D00001A49102D00001A481010117
:1012000025B103D00001A49302D00001A483010101
:1012100026B103D00001A49502D00001A4850101EC
:1012200028B103D00001A49702D00001A4870101D6
:1012300029B103D00001A49902D00001A4890101C1
:101240002AB103D00001A49B02D00001A48B2CC1C1
:1012500060F02DC161F02EC162F02FC163F030C18A
:1012600064F031C165F032C15FF033C19BF034C12D
:101270009CF035C19DF036C19EF038C1B4F0B35139
:101280009919D8A494816951711908E168517019AC
:1012900005E167516F1902E166516E1902E07E8720
:1012A0009483AC519B1902E07E87BD87AD519C1998
:1012B00002E07E87BD87AE519D1902E07E87BD8723
:1012C000AF519E1902E07E87BD87010E5EA8000E19
:1012D0004C6E010E5EAA000E4C1A02E07E8B9487C3
:1012E000B051A419D8A47E8DB451B119D8A47F836C
:1012F0006051A56317D0A65120EE61F0DF6212D0D5
:10130000A75120EE62F0DF620DD0A85120EE63F00D
:10131000DF6208D0A95120EE64F0DF6203D065518E
:10132000AA19D8A47E8999C0B3F072EC23F05EA804
:1013300002D05E8A01D05E9AA4C0B0F060C0A5F071
:1013400061C0A6F062C0A7F063C0A8F064C0A9F0B5
:1013500065C0AAF0B4C0B1F09BC0ACF09CC0ADF0C9
:101360009DC0AEF09EC0AFF0050E06D001011B057A
:1013700006E169EC23F0060E0001C16FD8D61B51BF
:10138000020A01E00BD169EC23F0EED701011B51F9
:101390000F0AD8B45E8E5750070A08E101011B6797
:1013A00005D00001C56B560E836F826BAB985E80D3
:1013B0000001986BC76BC66BAAEC14F057C0C1F064
:1013C000B6D6A00E00016E6F6F6970697169010E6B
:1013D000996F030E5F6E606B616B626B010E636FE2
:1013E000646F656FB46F040EB86F9B6B9C6B9D6BE5
:1013F0009E6B586AC00E5824D96EDA6A020EDA2241
:10140000DF68582A1D0E5864F5D7586A000E582414
:101410007EDBDF68582A0E0E5864F8D70001BD81C4
:10142000BD8BBD89BD83BD85BD877E817BEC12F000
:10143000086A0768096A18EC22F034EF23F0AED08E
:101440000001CB674DD07C6B7D6B806B816B866BB5
:10145000876B846B856B0101010E046EC70E036EF2
:101460000A0E056E42EC22F00101010E046E9A0E86
:10147000036E2D0E056E42EC22F00101010E046E8A
:10148000D10E036E080E056E42EC22F0E0EC22F065
:10149000050E066EDC0E056E0101010E086ED10E02
:1014A000076E080E096EF1EC1BF04C6E050E4C5CDD
:1014B00016E3010ECB6F586A58504D0FD96EDA6A99
:1014C000DF504C6ED10E582422DBDF504C1802E066
:1014D0000001CB6B582A050E5864EED701D0CB6BB8
:1014E0000001CB5101E16AD768D868D71EC156F018
:1014F0001FC155F057C0C1F0E9EC10F07D515618EE
:1015000002E17C51551806E1E6EC21F0AA0E01013A
:101510005C6F44D0110E01015B6F0001846B856B21
:10152000806B816B866B876B7C6B7D6B37D0010129
:101530001A6B34D05750010A31E0030A2FE0010A38
:1015400001E1C6D5070A01E1F5D5010A01E13FD65F
:10155000030A01E10BD7010A01E11DD70F0A01E1DE
:101560001AD7010A01E117D7030A01E114D7010ACA
:1015700001E111D7070A01E109D74C0A01E121D79E
:10158000010AB4E0030A01E15BD7010A02E124EF9A
:1015900025F0070A02E15AEF25F0C9D701011A6BBD
:1015A00012001A0E5824B3DA1200BE0E5824D96E57
:1015B000DA6A020EDA22DF68120021EEE5F010EEA0
:1015C0001DF0080EDECFE6FFE82EFCD7020E496EB6
:1015D0001A0E49249CDADF504A6EC00E0001845D69
:1015E000770E85591AE24AC045F0486A7DAB03D0B0
:1015F000010E446E01D0446AD8907C377D3745B0E7
:101600007C81D8904532445004E0020E7C1B440E8D
:101610007D1B482A070E4864E9D7400E845D000E02
:10162000855901E236D1C00E845D770E855901E3FC
:1016300030D10F0E84158A6F8B6B8B1101E0DBD0DC
:101640008751861101E18ED086518027000E8123BB
:1016500087518027000E8123801D1B6E811D1C6E0B
:10166000F10E1B24806FFF0E1C20816F805199ECBE
:1016700020F00D0EF9EC22F00A0EF9EC22F080C0F9
:101680001BF01B3A0F0E1B161B161B500ED99A0E81
:101690004B243DDA0800F5CFDFFF80C01BF00F0EB2
:1016A0001B161B5002D99B0E4B2431DA0800F5CFD4
:1016B000DFFF9C0E4B242BDADF6A020E4B26000163
:1016C0009F6B066A0A0E056E0101010E086EC70EB9
:1016D000076E0A0E096EF1EC1BF0C8C103F00101A0
:1016E000C75187EC1EF00001801903E1010E436E23
:1016F00036D0436A196A1D0E186EF6EC21F000010F
:101700009FC012F0136A156A0A0E146E250EB7EC0C
:101710001FF01B6E196A1BC018F0F6EC21F0210EA9
:10172000F9EC22F0E6EC22F00D0EF9EC22F00A0EB4
:10173000F9EC22F0190E00019F5D0FE29F2B0101D1
:10174000010E196E9A0E186EF6EC21F00D0EF9ECE2
:1017500022F00A0EF9EC22F002D09F2BA0D04350C9
:1017600002E1AFD78E6BBF0E0001845D770E855905
:1017700042E2040E8E5D06E28E2B046A0A0E036EB0
:1017800003EC21F084C086F085C087F03A0E010199
:101790009A6F310E9B6F300E9C6F87C01BF01B3A07
:1017A0000F0E1B167DD8F5CF9DF187C01BF00F0ED5
:1017B00077D8F5CF9EF186C01BF01B3A0F0E1B1693
:1017C0006FD8F5CF9FF186C01BF00F0E69D8F5CF0B
:1017D000A0F1300EA16FA26FA36B090E4B6EE6EC69
:1017E00022F00101010E196E9A0E186EF6EC21F02E
:1017F0000001806B816BBF0E845D770E855947E2D7
:1018000084A13DD046C01BF01B3A0F0E1B1648D8D2
:10181000F5CF2FF046C01BF00F0E42D8F5CF30F0B9
:101820004AC01BF01B3A0F0E1B163AD8F5CF31F009
:101830004AC01BF00F0E34D8F5CF32F0336A196A64
:101840002F0E186EF6EC21F0476A0ED047502F0F7E
:10185000D96EDA6A9A0E4B24E16EE26A010EE22238
:10186000DFCFE7FF472A4B2A47502F0FD96EDA6A9E
:10187000DF50ECE19A0E4B244AD9DF6A02D04AC00D
:1018800046F04A5000018027000E812302D0806B71
:10189000816B844B852B492A1F0E496499D612000F
:1018A0001B161B5002D808001200190FF66E100EFE
:1018B000F76E1200E8CFFDF05EA620D17EA33ED0E9
:1018C0007E8726D0090E066E700E10D831D00A0E13
:1018D000066EB00E0BD82CD0080E066E300E06D851
:1018E00027D00B0E066EF00E01D822D00D6E0D0E15
:1018F00007EC22F00D50066E080E07EC22F027ECE4
:1019000023F0120047EC21F0010E84EC20F010D0FF
:101910009351F8E0010AD6E0030AD9E0010ADCE0BD
:10192000070ADFE0010AEEE0030AECE0010AEAE060
:10193000E6D800017E93BD810AEC23F000017EA76A
:101940005DD07EAB5E987E8DA46BA4C0B0F09A6B28
:101950000CD09BC09AF011D09CC09AF00ED09DC0C4
:101960009AF00BD09EC09AF008D09351F2E0050A8D
:10197000F3E0030AF4E0010AF5E09A516E250D6EDA
:10198000000E6F210E6E000E70210F6E000E712181
:10199000106EC2EC1DF00DC012F00EC013F00FC09F
:1019A00014F010C015F0470E166EC90E176EEB0E30
:1019B000186E3D0E196E2DEC14F012C0EDF013C030
:1019C000EEF014C0EFF015C0F0F0EDC02FF0EEC057
:1019D00030F0EFC031F0F0C032F0F7EC13F02FC070
:1019E00055F030C056F031C057F032C058F0F0EC2E
:1019F00023F085D80001BD810AEC23F05EAE14D03F
:101A00000201DE6BB190A092A192556A566A576AA4
:101A1000586A30EC21F076EC21F0AB885E9E000134
:101A20007EAB5EB801D07E8700017EAB0DD05EA894
:101A300007D0556A566A576A586A30EC21F001D0CF
:101A40007E875DD800017E9B7EAD3CD05F0E146E1C
:101A50000001A4B102D01C0E01D0080E136EBDEC23
:101A60001AF00001A4B302D0440E01D0300E136E60
:101A7000BDEC1AF00001A4B502D06C0E01D0580ED6
:101A8000136EBDEC1AF00001A4B702D0940E01D081
:101A9000800E136EBDEC1AF00001A4B902D0BC0E8A
:101AA00001D0A80E136EBDEC1AF00001A4BB02D049
:101AB000E40E01D0D00E136EBDEC1AF000D01FD88A
:101AC00000017E9D7EA90CD088DA00017E99BD833D
:101AD000050EC16FFD51D8A48CEC21F00AEC23F067
:101AE00000017FA104D07F91BD850AEC23F00001A5
:101AF0007FA304D07F93BD850AEC23F01200050E6E
:101B00000001C16FFD51D8A48CEC21F01200D96EF8
:101B1000DA6A010EDA221200096A5AD1ECEC22F0DC
:101B200001E158D1B6EC21F00A6E7F0E0A6421D093
:101B30000A50B00A04E1010E986F5E9014D00A506A
:101B4000B10A04E1010E986F5E800DD0986B5E9033
:101B50000AC005F0F00E05160550B00A04E10A505F
:101B6000BF0AD8A40A065EB037D10A50F9EC22F0B9
:101B700033D15EB006D0020E985D03E20A50F9EC54
:101B800022F000019851D8A4982B020E985D01E232
:101B900023D19851020A03E10AC0A2F01DD10AC064
:101BA000A3F00AC0BCF05E8C010E986FE0D0010E6D
:101BB0005EB6000E056E054605467E510518FB0B08
:101BC00005187E6F7EB55E86FDD05EA602D07E854E
:101BD00002D000017E957EB55E96F4D094B717D002
:101BE0005E880201DE67E2830001010E5EA8000E3E
:101BF000056E5EAA02D0010E01D0000E051AD8A40F
:101C00007E8B5EA802D05E8A01D05E9ADBD0020E87
:101C10005EA8030EBC6F9497D5D094B7F8D7020195
:101C2000DE67E2A103D0E2930001CCD000015E9810
:101C30000201DE67E2930001010E5EA8000E056E50
:101C40005EAADBD7010E051ADBE1DBD7A351BDE0AD
:101C5000010AADE0030AC2E0010ADFE0B3D067EC9D
:101C60001CF0B0D094B105D0A3C099F099C0B3F0E6
:101C7000A9D099C0BCF09491A5D094B321D0A00E66
:101C8000056E0668A351076E086A055007260650C0
:101C9000082207C06EF008C06FF0000E6FBFFF0E85
:101CA000706F716F691908E16851701905E167512A
:101CB0006F1902E166516E1901E184D07E8782D0EE
:101CC0006E51600FBC6F94937DD0A351290A7AE1C5
:101CD000BDEC22F077D0A3C060F0A551601972E08E
:101CE0007E8960C0A5F06ED0A3C061F06151A619D5
:101CF000D8A47E8961C0A6F065D0A3C062F062510D
:101D0000A719D8A47E8962C0A7F05CD0A3C063F0F5
:101D10006351A819D8A47E8963C0A8F053D0A3C08A
:101D200064F06451A919D8A47E8964C0A9F04AD08E
:101D3000A3C065F06551AA19D8A47E8965C0AAF030
:101D400041D094B907D0B851A3193CE0A3C0B8F072
:101D50007F8138D0B8C0BCF0949934D0A3C0C3F010
:101D6000B251C319D8A4BD81C3C0B2F02BD0A251C7
:101D7000030A01E16BD7070A01E171D7020A01E109
:101D800071D7010A01E179D7170A9FE0070AA3E09A
:101D90000F0AAAE0010AB1E0030AB8E0010ABFE0B5
:101DA000070AC6E0010ACDE0030AD8E03E0AD8B42B
:101DB0006DEF24F0010AD8B4D4EF23F0030AD8B4AD
:101DC000DBEF23F05EAC08D00001BC51F9EC22F04F
:101DD0005E9C02D0010E096E0950D8A412009ED656
:101DE000046A036AF0EC22F00001716F010EE9D879
:101DF000706F020EE6D86F6F030EE3D86E6F040E9D
:101E0000E0D8996F070EDDD8606F080EDAD8616FE1
:101E1000090ED7D8626F0A0ED4D8636F0B0ED1D8D3
:101E2000646F0C0ECED8656F046A0D0E036EF0EC75
:101E300022F05F6E140EC5D8C36F7151800A800FF7
:101E400008E1000E705D05E1000E6F5D02E1130E0A
:101E50006E5D05E3A00E6E6F6F6970697169080EA3
:101E6000996502D0010E996F030E606501D0606B19
:101E700020EE61F0030EDF6401D0616B20EE62F0B2
:101E8000030EDF6401D0626B20EE63F0030EDF64AB
:101E900002D0010E636F20EE64F0030EDF6402D007
:101EA000010E646F20EE65F0030EDF6402D0010EB8
:101EB000646F030E5F6401D05F6E040EC36502D0D1
:101EC000010EC36F72EC23F099C0B3F060C0A5F0AF
:101ED00061C0A6F062C0A7F063C0A8F064C0A9F01A
:101EE00065C0AAF0C3C0B2F00F0E6BD8B46FB429AE
:101EF000D8B4B491B4C0B1F00E0E63D8B86F030E6D
:101F0000B85D02E2030EB86F040EB86502D0030E8E
:101F1000B86F100E56D89B6F110E53D89C6F120ECF
:101F200050D89D6F130E4DD89E6F120E9B6501D039
:101F30009B6B120E9C6501D09C6B120E9D6501D0AF
:101F40009D6B120E9E6501D09E6B9BC0ACF09CC039
:101F5000ADF09DC0AEF09EC0AFF0500E0A6E010114
:101F6000B00E0A24D96EDA6A000EDA220AC003F033
:101F7000046AF0EC22F0DF6E0A2A5E0E0A64EFD7E4
:101F8000600E0A6E0201600E0A24D96EDA6A020E31
:101F9000DA220AC003F0046AF0EC22F0DF6E0A2AAB
:101FA0007D0E0A64EFD7086A800E076E020E096E76
:101FB00018EC22F0086A810E076E030E096E18EF06
:101FC00022F0036E046AF0EC22F000011200036EAE
:101FD000040E056E42EC22F01200046AD70EE7EC04
:101FE0000FF0046A0001DB0EE7EC0FF0046A000159
:101FF000DF0EE7EC0FF00101010E046ED90EE7ECE5
:102000000FF0046A0001E30EE7EC0FF00101010E8E
:10201000046EDD0EE7EC0FF00101010E046EE10E1F
:10202000E7EC0FF012EC23F0596A59500001600FF1
:10203000D96EDA6ADF50E8EC20F01ED0A0C0D7F0ED
:10204000B9C0D8F025D0A0C0DBF0B9C0DCF020D0FA
:10205000A0C0DFF0B9C0E0F01BD0A0C0D9F1B9C07A
:10206000DAF116D0A0C0E4F0B9C0E5F011D0A0C0FC
:10207000E0F1B9C0E1F10CD05950E0E0010AE3E031
:10208000030AE6E0010AE9E0070AECE0010AEFE0F2
:10209000592A050E5964C9D75A6A3FD0D7C06AF089
:1020A000D8C06BF0D9C06CF0DAC06DF044D0DBC0A2
:1020B0006AF0DCC06BF0DDC06CF0DEC06DF03BD0D0
:1020C000DFC06AF0E0C06BF0E1C06CF0E2C06DF020
:1020D00032D0D9C16AF0DAC16BF0DBC16CF0DCC17F
:1020E0006DF029D0E3C06AF0E4C06BF0E5C06CF09D
:1020F000E6C06DF020D0DDC16AF0DEC16BF0DFC15B
:102100006CF0E0C16DF017D0E1C16AF0E2C16BF094
:10211000E3C16CF0E4C16DF00ED05A50BFE0010A8B
:10212000C6E0030ACDE0010AD4E0070ADBE0010AB9
:10213000E2E0030AE9E0C580C5B0FED7680EF1EC25
:102140001DF001010F0E5A24E2DCDF50F1EC1DF00E
:102150005B6A5B5000016A0FD96EDA6A020EDF62B9
:1021600005D0556A566A576A3F0E0CD05B506A0F0D
:10217000D96EDA6A030EDF6207D0556A566A800E9E
:10218000576EBF0E586E0FD05B506A0FD96EDA6A69
:10219000DF50A1EC21F00DC055F00EC056F00FC07D
:1021A00057F010C058F055C049F056C04AF057C01B
:1021B0004BF058C04CF07BEC1BF05B2A030E5B64C9
:1021C000C8D7C584C5B4FED75A2A060E5A64A5D707
:1021D000060CC1C05AF1A2D0C2C05BF1020E036E60
:1021E000BE0E0324D96EDA6A020EB5D81F0E036440
:1021F000F7D7AED0C2C05BF1C20505E1B7C05CF154
:10220000B8C05DF1A5D0C251020A01E0A1D0B5C0AD
:102210005EF1050E036EFB0E0324D96EDA6A000E22
:102220009AD8130E0364F7D793D093C05BF199C08B
:102230005CF101015D6B5E6B71C05FF170C060F1BC
:102240006FC061F16EC062F1000E5EB8010E636F87
:10225000000E0001A4B1010E0101646F000E000127
:10226000A4B3010E0101656F000E0001A4B5010EBB
:102270000101666F000E0001A4B7010E0101686F35
:10228000000E0001A4B9010E0101696F000E0001EA
:10229000A4BB010E01016A6F60C06CF161C06DF1F9
:1022A00062C06EF163C06FF164C070F165C071F11E
:1022B000B4C078F14DD0030E01015B6F030E5C6F6B
:1022C000020E5D6F99C05EF15F6B606B616B5FC00A
:1022D00063F1060E646F0F0E656F666F676F686F50
:1022E000696F6A6F0A0E6B6F6C6F6D6F6E6F6F6FD9
:1022F000706F010E716F726F9BC073F19CC074F1AF
:102300009DC075F19EC076F123D01BC15BF120D03A
:1023100001015B6B5C6B5D6B5E6B1AD00001C151A0
:10232000030A01E159D7070A01E164D7010A01E173
:102330007CD7030AC0E0010AE8E00F0AE6E0010AE0
:10234000E4E0030AE2E0010AE0E0070ADEE0E0D7A9
:102350000001C16B1200DA225A0E0324E16EE26A18
:10236000010EE222DFCFE7FF032A120020C028F08F
:1023700021C029F022C02AF023C02BF0180E01D072
:10238000B4D8E82EFDD728502E6E24C028F025C0E2
:1023900029F026C02AF027C02BF0180E01D0A5D8AE
:1023A000E82EFDD728502D6E2E5009E02D502E5CC2
:1023B0000FE22E502D5C286E210E285C09E324C00C
:1023C00020F025C021F026C022F027C023F083D0C2
:1023D0002D5009E02E502D5C07E22D502E5C286E0A
:1023E000210E285C01E377D0060E2C6E23BE2C8EC6
:1023F00027BE2C8C228E236A268E276A2D502E5CB7
:102400001AE2D89024362536263627362D062D504A
:102410002E180DE02C062CC028F0070E281607E019
:10242000F0D7D89023322232213220322E2A2D505A
:102430002E62F7D71CD02E502D5C19E2D890203692
:102440002136223623362E062D502E180DE02C066E
:102450002CC028F0070E281607E0F0D7D8902732B6
:102460002632253224322D2A2D502E62F7D72CAE5B
:1024700009D0201E211E221E231E202A000E2122EA
:10248000222223222CAC02D0241E26D82C6A2050D3
:10249000242621502522225026222350272227AEEF
:1024A00004D0241E19D8010E2C6E24C003F025C0C0
:1024B00004F026C005F027C006F02EC007F02CC09F
:1024C00008F037EC17F003C020F004C021F005C07D
:1024D00022F006C023F01200251E261E271E242AE5
:1024E000000E252226222722000CD8902B322A32D9
:1024F00029322832120000017EA1B1D0BDA132D014
:10250000086A030E076E6EC009F018EC22F0086A24
:10251000020E076E6FC009F018EC22F0086A010E77
:10252000076E70C009F018EC22F0086A076A71C0E3
:1025300009F018EC22F0086A040E076E99C009F041
:1025400018EC22F0086A0D0E076E5FC009F018EC57
:1025500022F0086A140E076EC3C009F018EC22F0CE
:102560000001BD91BDA32CD0086A070E076E60C0A4
:1025700009F018EC22F0086A080E076E61C009F035
:1025800018EC22F0086A090E076E62C009F018EC18
:1025900022F0086A0A0E076E63C009F018EC22F0F8
:1025A000086A0B0E076E64C009F018EC22F0086A86
:1025B0000C0E076E65C009F018EC22F00001BD9307
:1025C000BDA510D0086A0F0E076EB4C009F018EC54
:1025D00022F0086A0E0E076EB8C009F018EC22F05F
:1025E0000001BD95BDA71ED0086A100E076E9BC0E6
:1025F00009F018EC22F0086A110E076E9CC009F071
:1026000018EC22F0086A120E076E9DC009F018EC53
:1026100022F0086A130E076E9EC009F018EC22F033
:102620000001BD97BDA916D0500E0A6E0AC007F072
:10263000086A0101B00E0A24D96EDA6A000EDA22A5
:10264000DF50096E18EC22F00A2A5E0E0A64EED7FB
:102650000001BD99BDAB02D07FEC24F07E91120049
:102660005EA6C4D0640E0001BB65BFD0BB6B55D065
:10267000B651080FBE6F63D0936B61D0010E936F9C
:102680005F505DE0050E47D0020E936F5F0402E1DC
:10269000010E936F010E5F6452D0060E3CD0030E04
:1026A000936F5F0402E1020E936F5F50020A02E132
:1026B000010E936F5F50030A42E1070E2CD0040E07
:1026C000936F5F0402E1030E936F5F50020A02E111
:1026D000020E936F5F50030A32E1010E1CD05F04BB
:1026E00002E1040E936F5F50020A02E1030E936F42
:1026F0005F50030A24E1020E0ED05F50020A02E18D
:10270000040E936F5F50030A1AE1030E04D05F506A
:10271000030A15E1040E936F12D09951A9E0010A42
:10272000ABE0030AABE0010AAFE0070AB8E0010A38
:10273000C6E0030AD4E0010AE0E00F0AE8E0996786
:1027400018D0BEC006F00D0E07EC22F0130EF9EC07
:102750001FF00001BE6FBE6710D0936B0A0EBA6502
:102760000AD0BA6B040EB65DD8A0B62BB651040AD7
:102770002DE1B66B2BD0BA2B29D0B66702D0030E51
:10278000936FB60502E1010E936FB651020A02E1A2
:10279000020E936FB651030A02E1040E936F120EFC
:1027A000F9EC1FF00001BF6FBF51D8A45E88010E85
:1027B0005EA8000E086E010E5EAA000E081AD8A4CC
:1027C0007E8B5EA802D05E8A01D05E9A0001935192
:1027D000020AD8B482B002D0C3C093F0AB519319AF
:1027E000D8A47E8393C0ABF001D0BB2B1200116A3A
:1027F000126A800E136E440E146E2FC00DF030C09E
:102800000EF031C00FF032C010F018D90DC020F01A
:102810000EC021F00FC022F010C023F0246A256AF8
:10282000800E266E3F0E276EA1DD20C02FF021C046
:1028300030F022C031F023C032F00A0E116E2FC0EA
:1028400025F030C026F031C027F032C028F02F0E1E
:102850002DEC1EF0112EF3D7120012C01AF013C087
:102860001BF014C01CF015C01DF0180E01D06CD860
:10287000E82EFDD71A501E6E1E6601D011D016C06C
:102880001AF017C01BF018C01CF019C01DF0180E6C
:1028900001D05AD8E82EFDD71A50246E246605D0F0
:1028A000126A136A146A156A3FD024507B0F1E26E1
:1028B00015C024F01950241A800E2416148E188E78
:1028C000196A1F6A206A216A226A070E236E12A003
:1028D00002D016502AD831D816361736183619367F
:1028E000232EF5D7110E236E12A002D016501DD83C
:1028F00024D82232213220321F32232EF5D71FC096
:1029000003F020C004F021C005F022C006F01EC074
:1029100007F024C008F0ABDA03C012F004C013F0D3
:1029200005C014F006C015F012001F261750202213
:1029300018502122195022221200D8901532143238
:1029400013321232D8901200D8901D321C321B3232
:102950001A321200C5670FD082C003F083C004F0A2
:10296000056A066A086AC00E076E0301030E0A6E46
:10297000096ADFEC1EF001011B5104E01D6A020E22
:102980001C6E02D01C6A1D6A1CC01EF0040E1F6E55
:102990001A0E186E010E196E1F501826000E1922FD
:1029A0001E50185CD96E1950D8A01904DA6E1A6A34
:1029B000030E1B6E0001C5511A26000E1B221F506C
:1029C0001A24E16E000E1B20E26EDFCFE7FF1F2A04
:1029D000170E1F64DDD7180EC527BF0EC5652DD095
:1029E000C56B3F0E825D5F0E835927E282C003F004
:1029F00083C004F0056A066ABF0E8225186E000EB9
:102A00008321196E18C007F019C008F0096A0A6A14
:102A10007CEC1DF082C003F083C004F0056A066AF6
:102A2000086AC00E076E0301030E0A6E096AE5D834
:102A3000C00E00018227000E832312000DC015F086
:102A40000EC016F00FC017F010C018F0180E01D00D
:102A500060D8E82EFDD715501E6E1E6601D011D02D
:102A600011C015F012C016F013C017F014C018F002
:102A7000180E01D04ED8E82EFDD715501F6E1F66D8
:102A800005D00D6A0E6A0F6A106A42D01F50890F76
:102A90001E5E10C01FF014501F1A800E1F160F8EDE
:102AA000106A138E146A200E1D6ED89019361A36CD
:102AB0001B361C3611500D5C12500E5813500F5817
:102AC0001450105809E311500D5E12500E5A135055
:102AD0000F5A1450105A1980D8900D360E360F36F2
:102AE00010361D2EE2D719C003F01AC004F01BC027
:102AF00005F01CC006F01EC007F01FC008F0B7D9D3
:102B000003C00DF004C00EF005C00FF006C010F0B9
:102B10001200D89018321732163215321200F29E77
:102B20008A940001886B896BC282046A0A0E036E64
:102B300003EC21F0C2B20BD0C4505D6E5C6AC3508E
:102B40005C240001886F000E5D20896FC282360E02
:102B50000001885D020E8959E8E3046A460E036E9F
:102B600003EC21F0B06A7F0EAF6ED3928A98899CF5
:102B70008A96C69A93829380046A640E036E03EC6D
:102B800021F08A88050E046EDC0E036E03EC21F042
:102B900093829380046A010E036E03EC21F0800E91
:102BA000036E080E84EC22F0898C556A566A576AC7
:102BB000586A30EC21F076EC21F08A8669EC23F03B
:102BC00059DA69EC23F000017E837E877E897F815C
:102BD0007F83000E5AEC0CF0010E066E1B0E07EC04
:102BE00022F0F29AD59EA40ED76E710ED66E000119
:102BF000A16B9495F28E56EF23F05EA40BD0065095
:102C0000051008E1560E045C05E3600E045C02E268
:102C10000A0E045E106A03C014F004C015F005C06B
:102C200016F006C017F0050E0B6ED890063205326E
:102C3000043203320B2EF9D7050ED8900336043632
:102C400005360636E82EF9D7200E0326000E04229C
:102C5000052206221450035C0F6E47D016C013F0F5
:102C600015C012F014C011F019D009C0D9FF0AC064
:102C7000DAFFDF5011C0F6FF12C0F7FF13C0F8FFF4
:102C8000F56E0C00094A0A2A112A000E122213229C
:102C90000706D8A008060850071003E00F060F2803
:102CA000E4E113C00EF012C00DF011C00CF016C01C
:102CB00013F015C012F014C011F0A68EA69CA684C5
:102CC000F2AE03D0F29E010E106EC7EC20F0A69477
:102CD000105002E0F28E106A200E0F6E0C50146E2F
:102CE0000D50156E0E50166E176A08500710D8B4A6
:102CF0001200B4D751EC22F0CD6701D060D068B497
:102D0000D8EC22F06DB25BD068B043EC1FF068B82D
:102D100035EC22F0030E0001CD5D51E3C46B68A6D3
:102D20004ED06C506CCF06F07C0E06163BE16CB2B8
:102D300005D0040E00017B6F000E03D0040E0001CD
:102D40007B6F00017A6F68967AC0D9FF7BC0DAFF8B
:102D5000DF30E8320F0B0D0A2DE1906B20EE02F010
:102D60007A51D9267B51DA22DECF06F0DDCF07F08B
:102D700006C0D9FF07C0DAFF9051CF0FE16EE26ABB
:102D8000DFCFE7FF20EE02F07A51D9267B51DA221D
:102D9000DE2A000EDD22902B070E9065DFD74AEC6D
:102DA00020F008D06C50040A04E16896CDEC20F0C5
:102DB00001D068960001C42B030EC465B0D7120081
:102DC00025C029F026C02AF027C02BF028C02CF0FF
:102DD000180E01D046D8E82EFDD729502E6E2E664B
:102DE00005D0256A266A276A286A3AD025C029F0C4
:102DF00026C02AF027C02BF028C02CF0200E01D0CE
:102E000030D8E82EFDD729502D6E278E286A960ED1
:102E10002E5E2EAE0FD02E50800A296EE90E800A4B
:102E2000295CDFE3D89028322732263225322E3E25
:102E3000F9D70CD01F0E2E6407D0D3D7D8902536E3
:102E40002636273628362E062E66F8D72D5008E06F
:102E5000281E271E261E256C000E26222722282229
:102E60001200D8902C322B322A322932120007500D
:102E700005E0065003100410051007E1036A046A18
:102E8000056A066A43D0072A42D8096A0A6A0B6AA9
:102E9000FE0E06140C6E0C5009100A100B1008E000
:102EA000F2D7072A032A000E0422052206222FD871
:102EB000096A0A6A0B6A06500C6E0C5009100A1057
:102EC0000B1007E0EED70706D89003360436053618
:102ED000063605AEF8D707B002D07F0E0516D8909B
:102EE000073207C009F00A6A0B6A0C6A09C00CF0C5
:102EF0000B6A0A6A096A095003120A5004120B503D
:102F000005120C5006120850D8A4068E1200D89054
:102F100006320532043203321200CF511F0B036E0A
:102F2000030452E1D35150E1D051060A18E01ED0FB
:102F3000020EC86F100E766F3E0E756FE86B090EAD
:102F40000CD0020EC86FEB0504E1100E766F550E23
:102F5000756FEB050AE1E86B1D0EE76F06D0D251E5
:102F6000210AE6E0030AEDE0010ACE83CF39E83218
:102F7000030B036E030428E11AD026D025D0020EDD
:102F8000C86F766BEA0E756FCE93010EE76F1CD09B
:102F9000020EC86FD2C0EAF017D0020EC86F766B6F
:102FA000E90EF1D7020EC86FD1C0E9F00DD0D051B3
:102FB000010AE3E0030AE3E0010AEFE00A0ADEE0C7
:102FC000030AE6E0010AEEE01200C86714D0040E1E
:102FD0000401086F088F0101166F0001960505E1D5
:102FE000010E18EC1FF0966B44D0000E18EC1FF089
:102FF000010E966F3ED0CFAF1BD0010EC96FE751C7
:10300000D55DE851D65904E2D5C0E7F0D6C0E8F066
:10301000A4D9480E0101166F010E18EC1FF0000E26
:1030200018EC1FF00401040E0B6F240E0A6F1ED063
:10303000020EC96F040E0101166F0001D651D511A1
:1030400003E1480E0101166F0001960505E1010E2E
:1030500018EC1FF0966B05D0000E18EC1FF0010E57
:10306000966FD651D51105E10401096B480E086F22
:10307000088F120012EC23F03F0E066E010E07ECD3
:1030800022F0300E066E030E07EC22F0010E066EE3
:10309000040E07EC22F0080E066E050E07EC22F077
:1030A000010E066E060E07EC22F0340E066E070EB9
:1030B00007EC22F0300E066E080E07EC22F0080E28
:1030C000066E0D0E07EC22F0080E066E0E0E07ECD3
:1030D00022F0220E066E0F0E07EC22F0066A100E8A
:1030E00007EC22F0066A110E07EC22F0010E066EC4
:1030F0001C0E07EC22F0010E066E1D0E07EC22F0EE
:10310000020E066E2D0E07EC22F0200E066E2E0E1D
:1031100007EF22F02FC003F030C004F031C005F0FB
:1031200032C006F0370E076EFBEC1CF03850800AF8
:10313000F36E800EF35C000ED8B4375C05E22F6AA4
:10314000306A316A326A29D01D0E375C000E385859
:1031500001E323D02FC025F030C026F031C027F086
:1031600032C028F02DDE25C00DF026C00EF027C09D
:103170000FF028C010F0C2EC1DF00DC033F00EC0EF
:1031800034F00FC035F010C036F033C02FF034C02B
:1031900030F035C031F036C032F01200D1050BE10D
:1031A000CF511F0B08E1010EC86FD051030A02E195
:1031B000CE8101D0CE91D1673BD0CF511F0B020AF7
:1031C00037E1D3510F0B34E0010EC86FD3510F0B11
:1031D000080D040E036E046EF3500326F45004220F
:1031E000010ED3AF000E040DF3500324726FF450A0
:1031F0000420736FD051030A06E172C0D9FF73C077
:10320000DAFF040E0ED0D3AF07D072C0D9FF73C05F
:10321000DAFF400EDF6E0CD072C0D9FF73C0DAFF48
:10322000080EDF6E72C0D9FF73C0DAFF000EDB8EAE
:103230001200E8CF11F00AC00EF00BC00FF00EC064
:1032400003F00FC004F00CC005F00DC006F068ECF0
:103250001FF003C00EF004C00FF0112A0F500E1023
:10326000EEE11150D96EDA6ADF6A11060AC003F086
:103270000BC004F00CC005F00DC006F013EC20F0FC
:103280000350106E0AC003F00BC004F00CC005F030
:103290000DC006F068EC1FF003C00AF004C00BF08C
:1032A000090E106402D0070E1026300E10261150A1
:1032B000D96EDA6A10C0DFFF11060B500A10D6E192
:1032C000112A1200F26A9D6AA06A9E6AA16A806A47
:1032D000816A826A070E926E936A870E946E700EF0
:1032E000D36E380EC66E010EC26E0C0EC16EB50ED8
:1032F000C06E070ED56E800ECD6E770EC86E010EB5
:103300000001FE6F046AFF0E0368F0EC22F0770AFA
:1033100009E0046AFF0E0368F0EC22F0880A02E07C
:103320000001FE6B0001FE51D8A42EEC20F0086ACB
:103330000768020E096E18EC22F0818C9CD9030EEE
:10334000046EE80E036E03EC21F0F0EC0EF09D8AA3
:103350005E8600017E8F8FEF15F0080E8F6FE75DA0
:10336000000EE8590AE2E7C08FF0CC6702D0010EE8
:1033700003D0CC0502E1020ECC6F8FC009F48F514F
:10338000E75F000EE85B040E0001736F240E726F9E
:10339000CEB309D013D015D8F76403D00800F55088
:1033A00001D0E5D819D88F67F6D70AD00AD8F764C4
:1033B00003D00800F55001D0DAD80ED88F67F6D7C1
:1033C000120075C0F6FF76C0F7FFF86A72C0D9FF29
:1033D00073C0DAFF070E1200DF6E0001724B732B11
:1033E000754B762B8F071200CF39E832030B3FE184
:1033F00029D0010EC86F040ECD6F39D07CD837D0DC
:10340000DBEC1FF034D0010EC86F766BEB0E756FDE
:10341000CE93010EE76F2BD02BD829D0BFDE27D05B
:10342000010EC86FD351EC0F056E766B05C075F0B9
:10343000EFD7010EC86FD351EC0FD96EDA6AD1C045
:10344000DFFF15D0D051E8E0010AE8E0020AE6E02B
:10345000060ACFE0030AD2E0010A09E00F0AD3E02E
:10346000010ACEE0030ADCE0010AE3E0070A1200E9
:103470000401246B256B2CD0010EC86FCEA130D077
:10348000040124832DD0010EC86F2AD0010EC86F0D
:10349000D3510F0B080D040E036E046EF350032678
:1034A000F4500422010ED3AF000E040DF350032498
:1034B000726FF4500420736F72C0D9FF73C0DAFFCB
:1034C000DF50036E03A40CD0010E0401246F08D05A
:1034D0000001CF511F0BD0E0010AD5E0030AD6E06E
:1034E0000001C80507E1040E766F240E756FCE93B8
:1034F000020EE76F1200CF51800A30E037D0010E84
:10350000C86F100E766F880E756F120E0AD0D167D5
:103510002CD0010EC86F100E766F2C0E756FE86BF5
:10352000290EE76F22D0010EC86FD151290FF66E18
:10353000100EF76E0900F5CF75F0766F75C0F6FFC7
:1035400076C0F7FFF86A070EF76403D00800F5505D
:1035500001D00DD80001E76FE86B07D0D251010A06
:10356000CEE0030AD4E0010ADEE0CE831200F6CFFB
:10357000E1FFF7CFE2FFE750120013C003F014C0E1
:1035800004F0056A066A086A040E076E0A6A170ED6
:10359000096EDFEC1EF018C02FF019C031F0190EC3
:1035A000315C29E2040E1324156E000E1420166EF1
:1035B00015C003F016C004F0056A066A31C007F0B2
:1035C000086A0A6A170E096EFADBC580C5B0FED715
:1035D000680E07DB2F5005DB306A07D03050170F1D
:1035E000D96EDA6ADF50FDDA302A3150305CF6E30A
:1035F000C584C5B4FED7120041C039F042C03AF0CC
:1036000043C03BF044C03CF041C02FF042C030F01A
:1036100043C031F044C032F07DDD2FC03DF030C0FA
:103620003EF031C03FF032C040F067EC20F039C0CE
:1036300045F03AC046F03BC047F03CC048F045C0BA
:103640002FF046C030F047C031F048C032F0410E94
:1036500031DB41C02FF042C030F043C031F044C0F4
:1036600032F058DD2FC041F030C042F031C043F09D
:1036700032C044F0120082A406D08A84B06A3F0EA1
:10368000AF6ED38205D08A94B06A7F0EAF6ED392AC
:103690008A988A9A8A96899C89968998899A8A9E14
:1036A00065EC23F0F28EF28C936B93C0ABF0F09844
:1036B000F092F294D59EF29AA46BB06BB66BBA6B93
:1036C0007E6B7F6BBD6B5E6ABB6BBC6BA16B886BEB
:1036D000896BC292946B200E01010F6F210E106F47
:1036E000220E116F230E126F250E136F270E146F0B
:1036F000280E156F280C166A176A186A4B0E196E79
:1037000049C012F04AC013F04BC014F04CC015F081
:103710002DEC14F012C041F013C042F014C043F07D
:1037200015C044F069DF41C04DF042C04EF043C0C7
:103730004FF044C050F04DC025F04EC026F04FC0B1
:1037400027F050C028F0E0EC16F025C051F026C05C
:1037500052F027C053F028C054F054500F0B41DAF8
:1037600053503FDA52503DDA5150F1EF1DF0000155
:10377000CD51060AD8B46DB204D05EA602D082B094
:1037800002D0AB882DD0C0671AD004010CBF28D05E
:103790000101010E046E1A0E036E400E056EF8D87C
:1037A000010E0001C06F596A01015A0E592487ECBD
:1037B0000DF0DF6A592A3F0E5964F6D711D0010186
:1037C0001A5156EC08F0040110BF0AD00101010E95
:1037D000046E5A0E036E400E056EC5DA0001C06B12
:1037E00012000E6A0D6A0F6A0B6A05C003F006C06C
:1037F00004F05EEC22F0ECEC22F023E00FC00AF0C3
:10380000B6EC21F00F6E0D500AE00E500724D96E71
:10381000000E0820DA6E0FC0DFFF0E2A05D00F5011
:103820003A0A02E1010E0D6E0C6A0D5008E00A50D2
:103830000D0A05E10F500A0A02E1010E0C6E0CC0E0
:103840000BF050EC23F005E209500E5C02E20B5045
:10385000D2E06EEC23F00E5012000600A1AA02D0B6
:10386000A19AA09AF2A405D000017E81F294F29A66
:10387000D59EA1A211D0B190F80EB36E300EB26EEB
:10388000B180A19200018D518C1104E08C07D8A069
:103890008D0702D0B190A0929EAA14D00001C7510A
:1038A000D96E020EDA6EAECFDFFFC72BBF0EC76533
:1038B00001D0C76BABA206D0AB9800F0AB885E809E
:1038C0000001986B02C0DAFF01C0D9FF1100050E9C
:1038D00019D85F501ED8070E15D800016E51600F21
:1038E00018D8030E0FD8010E5EA6000E12D8060ED1
:1038F00009D8000199510DD81D0E04D80001B85106
:10390000F9EF22F00D6EBF0EF9EC22F00D50F9EF39
:1039100022F0F9EC22F060EF23F0066A1B0E07ECB0
:1039200022F0066A1C0E07EC22F0066A1D0E07EC58
:1039300022F082A406D08A84B06A3F0EAF6ED38292
:1039400005D08A94B06A7F0EAF6ED3928A98899C14
:1039500089968998899A280E0001885D020E8959F6
:1039600012E2086A096A08C006F01C0E07EC22F091
:10397000010E081A046AFA0E036E03EC21F0092AFC
:10398000040E0964F0D78A96D59EF29A2DEF23F0A3
:103990000001CA6B04010CBF2DD005500D5DD8A0ED
:1039A0000DC405F00001CA6B10D02C0E0001CA2511
:1039B000D96EDA6A040EDA22CA510324E16E000ECF
:1039C0000420E26EDFCFE7FFCA2B0550CA5DEDE3AE
:1039D000400E04010D6F0C17010E0CBD000E066E9B
:1039E000063A064606460C510618BF0B06180C6F21
:1039F0000C870C8F120020EE03F0DE50DE10DE107C
:103A0000DE1007E10750D96EDA6A000EDE6EDD6E59
:103A100024D006507F0B086ED8900834096E0A6ACD
:103A20000A360750D96EDA6A09C0DEFF0AC0DDFF28
:103A30000750D96EDA6A010E05AE000EDE12000ED6
:103A4000DD120750D96EDA6A820EDE26FF0EDD2205
:103A50000650800B3F09066E059E120003EE00F033
:103A6000C00EEE6AE806FDE102EE00F0DE0EEE6A40
:103A7000E806FDE101EE00F0E50EEE6AE806FDE184
:103A800000EE60F08D0EEE6AE806FDE10201E56BE6
:103A9000E66BE76BE86BE96BEA6BEB6BEC6BED6B82
:103AA000EE6BEF6BF06B010ED0A206D0D0A006D06B
:103AB000D0A606D0F06F05D0ED6F03D0EE6F01D029
:103AC000EF6FD080D082D086D0885F6A5E6A640E45
:103AD000F66E450EF76E000EF86E01EEE5F010EE94
:103AE00016F00900F5CFEEFFE550E150FAE1000EC7
:103AF000F86E00011AEF23F05EA416D006500510F0
:103B000008E1560E045C05E3600E045C02E20A0E56
:103B1000045E0A50091008E1560E085C05E3600EC9
:103B2000085C02E20A0E085E0B6A03C00CF004C0D7
:103B30000DF005C00EF006C00FF019D00EC0F8FF52
:103B40000DC0F7FF0CC0F6FFA68EA69CA684A68823
:103B5000F2AE03D0F29E010E0B6E19DB0B50D8A40F
:103B6000F28E400E0C26000E0D220E220F22075060
:103B70000C5C08500D5809500E580A500F58D8B018
:103B80001200DCD7116A1050800A800F08E1000E85
:103B90000F5C05E1000E0E5C02E1000E0D5C0AE216
:103BA000101E0F1E0E1E0D6C000E0E220F22102274
:103BB000010E116E0DC003F00EC004F00FC005F031
:103BC00010C006F0960E076E11C008F037EC17F023
:103BD00003C00DF004C00EF005C00FF006C010F0D9
:103BE0001200E8CF05F005C0C9FFC6BE35D0C6CF6C
:103BF00004F00F0E04160450080A0DE0C6CF04F0BE
:103C00000F0E041604500B0A06E0C6889EA6FED7C7
:103C1000C7A4C75021D0C6CF04F00F0E041604501D
:103C2000080A07E0C6CF04F00F0E041604500B0A72
:103C300013E198EC23F010E212EC23F0E0CF0EF049
:103C40000001C5AC06D07F8502010F0EE56101D0F1
:103C5000E52B0EC0E0FFC5501200E8CF2DF02D502F
:103C6000D96EDA6ADECF12F0DECF13F0DECF14F0B9
:103C7000DECF15F025C016F026C017F027C018F0CB
:103C800028C019F02DEC14F012C029F013C02AF04E
:103C900014C02BF015C02CF02D50D96EDA6A29C053
:103CA000DEFF2AC0DEFF2BC0DEFF2CC0DDFFD90601
:103CB000D9061200E8CF37F03750D96EDA6ADECF76
:103CC00020F0DECF21F0DECF22F0DECF23F02FC0B8
:103CD00024F030C025F031C026F032C027F0B6EC19
:103CE00011F020C033F021C034F022C035F023C0E1
:103CF00036F03750D96EDA6A33C0DEFF34C0DEFFEB
:103D000035C0DEFF36C0DDFFD906D9061200E8CF88
:103D100005F0046A2F0E056406D03A0E055C03E236
:103D20000550D00F08D0400E056406D0470E055C44
:103D300003E20550C90F046E043AF00E04162F0E6C
:103D4000036406D03A0E035C03E20350D00F08D0A0
:103D5000400E036406D0470E035C03E20350C90F14
:103D6000042604501200400E056401D0056E076A57
:103D70000FD007500324D96E000E0420DA6E6C0EAB
:103D80000724E16EE26A040EE222DFCFE7FF072A92
:103D90000550075CEEE305C011F4400E0401101756
:103DA000010E10BD000E066E063A0646064610517C
:103DB0000618BF0B0618106F1087108F12005EA434
:103DC0000BD00650051008E1560E045C05E3600EAA
:103DD000045C02E20A0E045E03C00BF004C00CF0A7
:103DE00005C00DF006C00EF0F8CF11F0F7CF10F0BF
:103DF000F6CF0FF00DC0F8FF0CC0F7FF0BC0F6FFB9
:103E000009D0090009C0D9FF0AC0DAFFF5CFDFFFEA
:103E1000094A0A2A0706D8A008060728D8B408289D
:103E2000F0E111C0F8FF10C0F7FF0FC0F6FF12005D
:103E3000E8CF03F0080E0101176F040E196F1C0E76
:103E4000186F036609D0040E196F140E186F040E54
:103E50000001796F000E03D0040E0001796F786FB6
:103E600078C0D9FF79C0DAFF16C1DEFF17C1DEFFC7
:103E700018C1DEFF19C1DEFF78C0D9FF79C0DAFFB3
:103E80000001DF8E1200030E0001CD6F6B6A686ABD
:103E90007B0E696E6E6A716A726A736A746A756A99
:103EA000766A776A160E706E6D8C02D06896040082
:103EB00068B6FCD76D9C6D98040E0101166F000E5C
:103EC000B7DF010E966FCE6BEB6B000E4AEF23F05F
:103ED000076A086A065005101BE0010E096E04D03F
:103EE000D89005360636092A06AEFAD7D890073696
:103EF00008360550035C0650045805E30550035E80
:103F00000650045A0780D89006320532092EEED7A3
:103F100007C003F008C004F012005EA627D0A1512C
:103F2000640A23E1C2B21FD0C450046E036AC350B6
:103F30000324886F000E0420896F290E885D020E0D
:103F40008959D8B09485C28294A50DD0280E885D79
:103F5000020E895908E25E967E8502010F0EEA6123
:103F600001D0EA2B0001A16B01D0A12B1200E8CFF8
:103F700017F017C016F01350800AF36E800EF35C32
:103F8000000ED8B4125C0AE21750D96EDA6A2D0E10
:103F9000DF6E172A126C131ED8B0132A12C00AF053
:103FA00013C00BF014C00CF015C00DF0175019EC35
:103FB00019F016501200010EC86F716A726A736AA6
:103FC000746A756A766A776A916B9151EC0FD96E53
:103FD000DA6ADF6A912B9151F8E0D1C0EBF0EB5136
:103FE00059DB0001D16702D0050E01D0060ECD6F5E
:103FF0001200E8CF06F016DBC580C5B0FED7E20E92
:10400000F0DD0650EEDDC582C5B2FED7E30EE9DD78
:10401000D2D9076EC58AC588C5B8FED7C584C5B4D0
:10402000FED7075012000650051017E0010E076E6C
:1040300004D0D89005360636072A06AEFAD70550C2
:10404000035C0650045804E30550035E0650045A0E
:10405000D89006320532072EF2D71200F29E300EAB
:10406000F86EF76A0B0EF66EA00EF56E0C00C40E1D
:10407000A66E8DD8A6B2FED7300EF86EF76AF66A35
:104080003A0EF56E0C00C40EA66E81D8A6B2FED70D
:10409000A69412000401086B0001CC6B040100AF70
:1040A00003D0006B0001966B040104AF04D0046BD5
:1040B000010E0001966F0001C96BC86BE76BE86BDE
:1040C0006D98F4EC19F08DEC17F0E5EF17F0800E19
:1040D000401A39C020F03AC021F03BC022F03CC069
:1040E00023F03DC024F03EC025F03FC026F040C084
:1040F00027F0B6EC11F020C039F021C03AF022C010
:104100003BF023C03CF01200E8CF06F08BDAC5800C
:1041100003DB0EE2680E65DD1F0E63DD000E61DD60
:10412000000E5FDD000E5DDD06505BDDC584FADA52
:104130001200E8CF06F006C004F0043A0F0E041691
:1041400009D857DA056E06C004F00F0E03D851DA0D
:10415000051A12000416045055EC0CF00800F55036
:10416000120003C0A9FF05C0A8FFA69EA69CA684B6
:10417000000EF2BE010E066EF29E09D8A6B2FED760
:1041800006B002D0F29E01D0F28EA6941200550E17
:10419000A76EAA0EA76EA682AA0CCD51040A07E14B
:1041A000D1C06EFF6E50050ED8B4030ECD6FC90599
:1041B0000EE1ADEC19F0CC51020A03E1040E04014A
:1041C00004D00401480E08BD080E086F088F1200C5
:1041D000E8CF03F00FD0010EA06FB96B13D0A06B26
:1041E000010E06D0020EA06F03D0010EA06F030EC9
:1041F000B96F08D00350EFE0010AF1E0030AF2E0E2
:10420000010AF3E01200A092980EB16EB18010D0B6
:10421000D3A204D0FC0EB36E180E03D0F80EB36E0A
:10422000300EB26EA192A1A2FED70306D8A004065A
:1042300004500310EDE1B1901200E8CF1BF00D0E19
:10424000D8D90A0ED6D90C0ED4D93A0ED2D9196AB9
:104250001BC018F0CBD80D0ECCD90A0EF9EF22F006
:10426000E1D9C580C5B0FED7680EBBDC300EB9DC25
:1042700055C049F056C04AF057C04BF058C04CF0FA
:104280007BEC1BF0C584C5A401D0FDD712005F668E
:104290000DD0899601D089868998899A0FD0899600
:1042A000899802D089968988898A08D09351F1E04B
:1042B000050AF1E0030AF3E0010AF4E01200AB9E04
:1042C000D09E0001C66BC76B060EAC6E800EAB6E47
:1042D000480EB86E948E948C9D989E989E9A9D9A46
:1042E000B06A7F0EAF6EAC8AAB887F0C560E336E11
:1042F000326A346A32C013F033C014F0BDEC1AF0E5
:10430000180E3226000E3322342A5F0E3464F2D7A0
:10431000146E136ABDEF1AF0E9EC10F0CD51060AE5
:10432000D8B46DB20DD082A00BD0040110BF08D05C
:104330000101010E046E5A0E036E400E056E13DD70
:104340001200E8CF11F01150036E046A056A066A84
:10435000960E076E086A37EC17F003C00DF004C024
:104360000EF005C00FF006C010F01200046A34D938
:104370000CE00001C651D96E020EDA6EDF50046EF9
:10438000C62BBF0EC66501D0C66B04501200CA6BA7
:104390001E0E716E400E04010D6F040E0F6F2C0E79
:1043A0000E6F080E0C6F0C8F040E136F6C0E126FD5
:1043B000400E106F400CC6500F0B080A02E00B0AAB
:1043C000D8B4C586C7A0FED7C950120021EEF4F0BC
:1043D00010EE1CF0070EDECFE6FFE82EFCD71C0E19
:1043E0002CDF1C0E2ADF1C0E1DEF21F01A6A03D0F1
:1043F00006D8FFD81A2A03D8D8B41200F9D71A5011
:104400001824D96E000E1920DA6EDF501200E8CFA2
:1044100007F0C58081D90BE2E20EF1EC1DF00750E8
:10442000F1EC1DF00650F1EC1DF0C5847BD91200B3
:1044300007C003F008C004F0D3D8091807E007C08C
:1044400003F008C004F009C005F08BDE12009505EA
:10445000D8B4A5D86D6A150E6F6E696A6D8613DDC6
:10446000010E0001CD6F956B120069CF92F0040E22
:10447000696E68986D82A19AA08AA09A00019251F3
:1044800069121200066A08D006500324D96E000E85
:104490000420DA6EDF6A062A0550065CD8B01200E6
:1044A000F3D70001950509E082A003D06DA6CFDF08
:1044B00004D06DA602D0D1D8956B1200980EB16EC3
:1044C000F80EB36E300EB26E03C08CF004C08DF0E7
:1044D000A192B180A082300C00017EA512D05EA610
:1044E00008D002010F0EE86101D0E82B8FEC15F027
:1044F00007D002010F0EE76101D0E72B8DEC1CF015
:104500007E95010E5AEF0CF0E8CF04F03F0EC7166F
:10451000C66AC56A0450C6120350C71293829380BC
:10452000C68A1200B7EC1BF08CEC0DF012DA30ECFE
:1045300013F0D2DF7BEC12F002D88DEF1FF0E0CF4A
:104540000EF002018050020BEC19D8B408D0805054
:10455000020BEC6F02010F0EEB6101D0EB2B0EC0D2
:10456000E0FF12002D204641494C200046575F5580
:1045700070640030303030303000BF0E3AD8290E31
:1045800038D8010E5EA2000E34D004D00400030619
:10459000D8A0040604500310D8B41200F7D76D92C7
:1045A0006D6AFF0E04680368F0DF0001CD6B120036
:1045B00082D86D92699401D0689468A41200FCD7E7
:1045C000BF0E17D8180E15D8010E13D001D0CEDEAD
:1045D00003D8D8B41200FBD70001C751C619120086
:1045E00003C0A9FFA69CA69EA68000F000F0A850DC
:1045F0001200E8CF03F08AD804E203C0ADFF0350F5
:1046000012005DDE83D804E203C0ADFF0350120048
:1046100020EF23F0A40ED76E710ED66EF294F28ABC
:10462000D58E710CC5CF03F01F0E0316D8B4C7B4D6
:10463000F9D71F0C62EC19F07AEC16F073DFFCD797
:10464000F26A00F000F0FF0000F000F01200020E2D
:104650005BDD89968998899A12006D926D6A0001D6
:10466000CD6B010E956F010C6AD9066A1B0ECFDE69
:10467000066A1C0ECCDE066A1D0EC9DE8A98899C6D
:1046800089968998899A046A640E036EBCDD8A96BD
:1046900020EF23F0E8CF03F00304D8B478DE120053
:1046A000B1A002D0D89001D0D88012006DB677DFCB
:1046B000956B51EF22F0030E046E036ACAEF22F0ED
:1046C000046A010E036E03EF21F0F9DD5E90986B32
:1046D0001200046A020E036E03EF21F0B190A19262
:1046E000A09212006EC066F06FC067F070C068F0F4
:1046F00071C069F012000B6A100E0C6ED890120097
:104700000B2E12000C2E1200D8801200F4DFACB277
:1047100015D0F6DFFCE31200EEDFC5A00FD0F0DF0E
:10472000FCE31200E8DFC5A409D0EADFFCE31200D5
:10473000E2DFC7A003D0E4DFFCE31200D890120050
:10474000C69A93829380090E0B6E93928A92000010
:10475000000093820000000081B002D00B2EF5D73C
:1047600093908A9000009382000000009380280EAE
:10477000C66E1200C580D0DF0AE2680EF1EC1DF0B3
:10478000C584D0DFC5AC7F9DC5BC01D012007F8D34
:10479000120000017F51440B0D6EBF0E2ADF080E80
:1047A00028DF0D5026DF1200280E046E210E586EF1
:1047B00002EEE5F007D02C0E046E280E586E02EEC5
:1047C000EDF000D0BF0E15DF585013DFEE500F0B89
:1047D00010DF582A04505862F5D75E9CE2EF0EF0C5
:1047E00000017F953DDD7FB509D000017E977E8F6A
:1047F00079DF7F9DC70E7F17CCDF1200080E7F2761
:104800007F51380B280819E2C5B407D002010F0EFA
:10481000E96101D0E92B94DFADDF00017FBD05D058
:1048200002010F0EE66101D0E62B00017F8DB1DFA2
:1048300000017E97C70E7F1712001200800E036ED4
:10484000080E62DE7DDF000195DFD880120013C004
:1048500003F014C004F0056A066A086A040E076EC5
:104860000A6A170E096EDFEC1EF018C02FF019C08F
:1048700031F0190E315C2DE2040E1324156E000E7A
:104880001420166E15C003F016C004F0056A066AFF
:1048900031C007F0086A0A6A170E096EDFEC1EF0D5
:1048A000C5803ADF18E2680EF1EC1DF02F50F1ECF4
:1048B0001DF0306A08D03050170FD96EDA6ADF5019
:1048C000F1EC1DF0302A3150305CF5E3C5842ADF6D
:1048D00002E2D8901200B2DF12000001A351010BD6
:1048E0000201DF6FDE5109E1DF515EB4010A05E02C
:1048F000010EDE6FE26B5EB8E283E2EF0EF0600E57
:104900005EB4830E076E086A22EEC0F01E0E0A6EB9
:10491000DECF09F08DDD072A0A2EFAD7BD9B1200E3
:10492000600E5EB4830E036E046A22EEC0F01E0EAB
:104930000A6E56DEDE6E032A0A2EFBD71200000135
:104940005E885E8A7E9B556A566A576A586A88DC1A
:1049500012000201DE510FE05EA669D05EBE67D094
:104960000201DE51010A08E0030A18E0010A2CE006
:10497000070A46E05CD012000001BDBBC0DF0201A7
:104980005EB803D0E281DBDF01D0E291046A960ECB
:10499000036E94DD0201020EDE6F120000018D51E4
:1049A0008C1111E10201DF515EB4010A33E05E7443
:1049B000B7DF00017E810201E06BE36B560EE46F0E
:1049C000030EDE6F120012000201600EE0610FD0D4
:1049D000E3C213F0E4C214F03ADF07E20201180E5A
:1049E000E327000EE423E02B120002011200136AF9
:1049F0005F0E146E2CDFF9E20201040EDE6F12006E
:104A00000201E2A106D0E2B304D05E985E9A0001F2
:104A10007E8717D0B190A092A1920201E2A111D09D
:104A2000E2B30FD05E985E9A00017E870AD0B19003
:104A3000A092A1920201E2A104D05E9AE2B301D059
:104A40005E980201DE6B1200010121EE5AF0430E66
:104A5000DE6EDE6A1E51DE6E03E03D0E1E6502D084
:104A6000020E25D01B5104E0010A13E0010E1FD0F5
:104A70001CC103F01DC104F0056A066A1EC107F0DF
:104A8000086A5D0E096E010E0A6EDFEC1EF0CEEFB5
:104A90000AF01C51036E046A1E510A6E21EE5DF08D
:104AA0009FDDDE6E032A0A2EFBD7CEEF0AF05B6F86
:104AB000CEEF0AF021EE5AF0440EDE6EDE6A0B0EE7
:104AC000DE6E02EEE5F0070E586EEE50DE6E582EEA
:104AD000FCD7E92A040E586EEE50DE6E582EFCD735
:044AE000CEEF0AF01B
:104C000001C80400000000000000000000000000D7
:104C10000000000000000000013714000000000048
:104C20000000000000000000000000000000000084
:104C30000138140000000000000000000000000027
:104C40000000000000000000013914000000000016
:104C50000000000000000000000000000000000054
:104C6000013A1400000000000000000000000000F5
:104C70000000000000000000013B140000000000E4
:104C80000000000000000000000000000000000024
:104C9000013C1400000000000000000000000000C3
:104CA0000000000000000000013D140000000000B2
:104CB00000000000000000000000000000000000F4
:104CC000013E140000000000000000000000000091
:104CD0000000000000000000013F14000000000080
:104CE00000000000000000000000000000000000C4
:104CF000014014000000000000000000000000005F
:104D0000000000000000000001411400000000004D
:104D10000000000000000000000000000000000093
:104D2000014214000000000000000000000000002C
:104D3000000000000000000001431400000000001B
:104D40000000000000000000000000000000000063
:104D500001441400000000000000000000000000FA
:104D600000000000000000000145140000000000E9
:104D70000000000000000000000000000000000033
:104D800001C9040000000000000000000000000055
:104D900000000000000000000146140000000000B8
:104DA0000000000000000000000000000000000003
:104DB0000147140000000000000000000000000097
:104DC0000000000000000000014814000000000086
:104DD00000000000000000000000000000000000D3
:104DE0000149140000000000000000000000000065
:104DF0000000000000000000014A14000000000054
:104E000000000000000000000000000000000000A2
:104E1000014B140000000000000000000000000032
:104E20000000000000000000014C14000000000021
:104E30000000000000000000000000000000000072
:104E4000014D140000000000000000000000000000
:104E50000000000000000000014E140000000000EF
:104E60000000000000000000000000000000000042
:104E7000014F1400000000000000000000000000CE
:104E800000000000000000000150140000000000BD
:104E90000000000000000000000000000000000012
:104EA000015114000000000000000000000000009C
:104EB000000000000000000001521400000000008B
:104EC00000000000000000000000000000000000E2
:104ED000015314000000000000000000000000006A
:104EE0000000000000000000015414000000000059
:104EF00000000000000000000000000000000000B2
:104F000001CA0400000000000000000000000000D2
:104F10000000000000000000015514000000000027
:104F20000000000000000000000000000000000081
:104F30000156140000000000000000000000000006
:104F400000000000000000000157140000000000F5
:104F50000000000000000000000000000000000051
:104F600001581400000000000000000000000000D4
:104F700000000000000000000159140000000000C3
:104F80000000000000000000000000000000000021
:104F9000015A1400000000000000000000000000A2
:104FA0000000000000000000015B14000000000091
:104FB00000000000000000000000000000000000F1
:104FC000015C140000000000000000000000000070
:104FD0000000000000000000015D1400000000005F
:104FE00000000000000000000000000000000000C1
:104FF000015E14000000000000000000000000003E
:105000000000000000000000015F1400000000002C
:105010000000000000000000000000000000000090
:10502000016014000000000000000000000000000B
:1050300000000000000000000161140000000000FA
:105040000000000000000000000000000000000060
:1050500001621400000000000000000000000000D9
:1050600000000000000000000163140000000000C8
:105070000000000000000000000000000000000030
:1050800001CB040000000000000000000000000050
:105090000000000000000000016414000000000097
:1050A0000000000000000000000000000000000000
:1050B0000165140000000000000000000000000076
:1050C0000000000000000000016614000000000065
:1050D00000000000000000000000000000000000D0
:1050E0000167140000000000000000000000000044
:1050F0000000000000000000016814000000000033
:10510000000000000000000000000000000000009F
:105110000169140000000000000000000000000011
:105120000000000000000000016A14000000000000
:10513000000000000000000000000000000000006F
:10514000016B1400000000000000000000000000DF
:105150000000000000000000016C140000000000CE
:10516000000000000000000000000000000000003F
:10517000016D1400000000000000000000000000AD
:105180000000000000000000016E1400000000009C
:10519000000000000000000000000000000000000F
:1051A000016F14000000000000000000000000007B
:1051B000000000000000000001701400000000006A
:1051C00000000000000000000000000000000000DF
:1051D0000171140000000000000000000000000049
:1051E0000000000000000000017214000000000038
:1051F00000000000000000000000000000000000AF
:1052000001CC0400000000000000000000000000CD
:105210000000000000000000017314000000000006
:10522000000000000000000000000000000000007E
:1052300001741400000000000000000000000000E5
:1052400000000000000000000175140000000000D4
:10525000000000000000000000000000000000004E
:1052600001761400000000000000000000000000B3
:1052700000000000000000000177140000000000A2
:10528000000000000000000000000000000000001E
:105290000178140000000000000000000000000081
:1052A0000000000000000000017914000000000070
:1052B00000000000000000000000000000000000EE
:1052C000017A14000000000000000000000000004F
:1052D0000000000000000000017B1400000000003E
:1052E00000000000000000000000000000000000BE
:1052F000017C14000000000000000000000000001D
:105300000000000000000000017D1400000000000B
:10531000000000000000000000000000000000008D
:10532000017E1400000000000000000000000000EA
:105330000000000000000000017F140000000000D9
:10534000000000000000000000000000000000005D
:1053500001801400000000000000000000000000B8
:1053600000000000000000000181140000000000A7
:10537000000000000000000000000000000000002D
:1053800001CD04000000000000000000000000004B
:105390000000000000000000018214000000000076
:1053A00000000000000000000000000000000000FD
:1053B0000183140000000000000000000000000055
:1053C0000000000000000000018414000000000044
:1053D00000000000000000000000000000000000CD
:1053E0000185140000000000000000000000000023
:1053F0000000000000000000018614000000000012
:10540000000000000000000000000000000000009C
:1054100001871400000000000000000000000000F0
:1054200000000000000000000188140000000000DF
:10543000000000000000000000000000000000006C
:1054400001891400000000000000000000000000BE
:105450000000000000000000018A140000000000AD
:10546000000000000000000000000000000000003C
:10547000018B14000000000000000000000000008C
:105480000000000000000000018C1400000000007B
:10549000000000000000000000000000000000000C
:1054A000018D14000000000000000000000000005A
:1054B0000000000000000000018E14000000000049
:1054C00000000000000000000000000000000000DC
:1054D000018F140000000000000000000000000028
:1054E0000000000000000000019014000000000017
:1054F00000000000000000000000000000000000AC
:1055000001D404000000000101311000000000007F
:105510000000000000000000000000000131100049
:1055200000800000000000000000000000000000FB
:105530000132100000000000000000000000000028
:105540000000000001321000008000000000000098
:105550000000000000000000013310000000000007
:1055600000000000000000000000000001331000F7
:1055700000800000000000000000000000000000AB
:1055800001341000000000000000000000000000D6
:105590000000000001341000008000000000000046
:1055A00000000000000000000135100000000000B5
:1055B00000000000000000000000000001351000A5
:1055C000008000000000000000000000000000005B
:1055D0000136100000000000000000000000000084
:1055E00000000000013610000080000000000000F4
:1055F0000000000000000000FFFFFFFFFFFFFFFFB3
:1056000001C80400000000000000000000000000CD
:10561000000000000000000001371400000000003E
:10562000000000000000000000000000000000007A
:10563000013814000000000000000000000000001D
:10564000000000000000000001391400000000000C
:10565000000000000000000000000000000000004A
:10566000013A1400000000000000000000000000EB
:105670000000000000000000013B140000000000DA
:10568000000000000000000000000000000000001A
:10569000013C1400000000000000000000000000B9
:1056A0000000000000000000013D140000000000A8
:1056B00000000000000000000000000000000000EA
:1056C000013E140000000000000000000000000087
:1056D0000000000000000000013F14000000000076
:1056E00000000000000000000000000000000000BA
:1056F0000140140000000000000000000000000055
:105700000000000000000000014114000000000043
:105710000000000000000000000000000000000089
:105720000142140000000000000000000000000022
:105730000000000000000000014314000000000011
:105740000000000000000000000000000000000059
:1057500001441400000000000000000000000000F0
:1057600000000000000000000145140000000000DF
:105770000000000000000000000000000000000029
:1057800001C904000000000000000000000000004B
:1057900000000000000000000146140000000000AE
:1057A00000000000000000000000000000000000F9
:1057B000014714000000000000000000000000008D
:1057C000000000000000000001481400000000007C
:1057D00000000000000000000000000000000000C9
:1057E000014914000000000000000000000000005B
:1057F0000000000000000000014A1400000000004A
:105800000000000000000000000000000000000098
:10581000014B140000000000000000000000000028
:105820000000000000000000014C14000000000017
:105830000000000000000000000000000000000068
:10584000014D1400000000000000000000000000F6
:105850000000000000000000014E140000000000E5
:105860000000000000000000000000000000000038
:10587000014F1400000000000000000000000000C4
:1058800000000000000000000150140000000000B3
:105890000000000000000000000000000000000008
:1058A0000151140000000000000000000000000092
:1058B0000000000000000000015214000000000081
:1058C00000000000000000000000000000000000D8
:1058D0000153140000000000000000000000000060
:1058E000000000000000000001541400000000004F
:1058F00000000000000000000000000000000000A8
:1059000001CA0400000000000000000000000000C8
:10591000000000000000000001551400000000001D
:105920000000000000000000000000000000000077
:1059300001561400000000000000000000000000FC
:1059400000000000000000000157140000000000EB
:105950000000000000000000000000000000000047
:1059600001581400000000000000000000000000CA
:1059700000000000000000000159140000000000B9
:105980000000000000000000000000000000000017
:10599000015A140000000000000000000000000098
:1059A0000000000000000000015B14000000000087
:1059B00000000000000000000000000000000000E7
:1059C000015C140000000000000000000000000066
:1059D0000000000000000000015D14000000000055
:1059E00000000000000000000000000000000000B7
:1059F000015E140000000000000000000000000034
:105A00000000000000000000015F14000000000022
:105A10000000000000000000000000000000000086
:105A20000160140000000000000000000000000001
:105A300000000000000000000161140000000000F0
:105A40000000000000000000000000000000000056
:105A500001621400000000000000000000000000CF
:105A600000000000000000000163140000000000BE
:105A70000000000000000000000000000000000026
:105A800001CB040000000000000000000000000046
:105A9000000000000000000001641400000000008D
:105AA00000000000000000000000000000000000F6
:105AB000016514000000000000000000000000006C
:105AC000000000000000000001661400000000005B
:105AD00000000000000000000000000000000000C6
:105AE000016714000000000000000000000000003A
:105AF0000000000000000000016814000000000029
:105B00000000000000000000000000000000000095
:105B10000169140000000000000000000000000007
:105B20000000000000000000016A140000000000F6
:105B30000000000000000000000000000000000065
:105B4000016B1400000000000000000000000000D5
:105B50000000000000000000016C140000000000C4
:105B60000000000000000000000000000000000035
:105B7000016D1400000000000000000000000000A3
:105B80000000000000000000016E14000000000092
:105B90000000000000000000000000000000000005
:105BA000016F140000000000000000000000000071
:105BB0000000000000000000017014000000000060
:105BC00000000000000000000000000000000000D5
:105BD000017114000000000000000000000000003F
:105BE000000000000000000001721400000000002E
:105BF00000000000000000000000000000000000A5
:105C000001CC0400000000000000000000000000C3
:105C100000000000000000000173140000000000FC
:105C20000000000000000000000000000000000074
:105C300001741400000000000000000000000000DB
:105C400000000000000000000175140000000000CA
:105C50000000000000000000000000000000000044
:105C600001761400000000000000000000000000A9
:105C70000000000000000000017714000000000098
:105C80000000000000000000000000000000000014
:105C90000178140000000000000000000000000077
:105CA0000000000000000000017914000000000066
:105CB00000000000000000000000000000000000E4
:105CC000017A140000000000000000000000000045
:105CD0000000000000000000017B14000000000034
:105CE00000000000000000000000000000000000B4
:105CF000017C140000000000000000000000000013
:105D00000000000000000000017D14000000000001
:105D10000000000000000000000000000000000083
:105D2000017E1400000000000000000000000000E0
:105D30000000000000000000017F140000000000CF
:105D40000000000000000000000000000000000053
:105D500001801400000000000000000000000000AE
:105D6000000000000000000001811400000000009D
:105D70000000000000000000000000000000000023
:105D800001CD040000000000000000000000000041
:105D9000000000000000000001821400000000006C
:105DA00000000000000000000000000000000000F3
:105DB000018314000000000000000000000000004B
:105DC000000000000000000001841400000000003A
:105DD00000000000000000000000000000000000C3
:105DE0000185140000000000000000000000000019
:105DF0000000000000000000018614000000000008
:105E00000000000000000000000000000000000092
:105E100001871400000000000000000000000000E6
:105E200000000000000000000188140000000000D5
:105E30000000000000000000000000000000000062
:105E400001891400000000000000000000000000B4
:105E50000000000000000000018A140000000000A3
:105E60000000000000000000000000000000000032
:105E7000018B140000000000000000000000000082
:105E80000000000000000000018C14000000000071
:105E90000000000000000000000000000000000002
:105EA000018D140000000000000000000000000050
:105EB0000000000000000000018E1400000000003F
:105EC00000000000000000000000000000000000D2
:105ED000018F14000000000000000000000000001E
:105EE000000000000000000001901400000000000D
:105EF00000000000000000000000000000000000A2
:105F000001D4040000000001013110000000000075
:105F1000000000000000000000000000013110003F
:105F200000800000000000000000000000000000F1
:105F3000013210000000000000000000000000001E
:105F4000000000000132100000800000000000008E
:105F500000000000000000000133100000000000FD
:105F600000000000000000000000000001331000ED
:105F700000800000000000000000000000000000A1
:105F800001341000000000000000000000000000CC
:105F9000000000000134100000800000000000003C
:105FA00000000000000000000135100000000000AB
:105FB000000000000000000000000000013510009B
:105FC0000080000000000000000000000000000051
:105FD000013610000000000000000000000000007A
:105FE00000000000013610000080000000000000EA
:105FF0000000000000000000FFFFFFFFFFFFFFFFA9
:020000040030CA
:0E0000003A463E1EFF0080FF0FC00FA00F40CB
:0200000400F00A
:10000000FFFFFFA001000000000001010103040147
:100010000000000001FFFFFFFFFFFFFFFFFFFFFFEA
:10002000FFFFFFFFFFFFFFFFFFFFFFFFFFFFFFFFE0
:10003000FFFFFFFFFFFFFFFFFFFFFFFFFFFFFFFFD0
:1000400003FFFFFFFFFFFFFFFFFFFFFFFFFFFFFFBC
:10005000FFFFFFFFFFFFFFFFFFFFFFFFFFFFFFFFB0
:10006000FFFFFFFFFFFFFFFFFFFFFFFFFFFFFFFFA0
:10007000FFFFFFFFFFFFFFFFFFFFFFFFFFFFFFFF90
:10008000030237FFFFFFFFFFFFFFFFFFFFFFFFFF41
:10009000FFFFFFFFFFFFFFFFFFFFFFFFFFFFFFFF70
:1000A000FFFFFFFFFFFFFFFFFFFFFFFFFFFFFFFF60
:1000B000FFFFFFFFFFFFFFFFFFFFFFFFFFFFFFFF50
:1000C000FFFFFFFFFFFFFFFFFFFFFFFFFFFFFFFF40
:1000D000FFFFFFFFFFFFFFFFFFFFFFFFFFFFFFFF30
:1000E000FFFFFFFFFFFFFFFFFFFFFFFFFFFFFFFF20
:1000F000FFFFFFFFFFFFFFFFFFFFFFFFFFFFFF020D
:00000001FF
