:020000040000FA
:1000000000EF3CF0FFFFFFFFD5EF01F0800E016E27
:10001000FE0ECAEC00F0010ECAEC00F0750E0D6E7B
:10002000FFD7FFFFFFFFFFFFFFFFFFFFFFFFFFFF08
:10003000FFFFFFFFFFFFFFFFFFFFFFFFFFFFFFFFD0
:10004000B5EF01F0FFFFFFFFD5EF01F05BEC09F02A
:10005000800E016EFE0ECAEC00F0010ECAEC00F03C
:10006000750E0D6E300EEEEF00F0016A018E176E08
:10007000FE0ECAEC00F01750CAEF00F0076A106ECF
:10008000116A00960750D8B40086050E066E270E3A
:100090000F6E100E0CD8030E0F6EE80E08D80F6A04
:1000A000640E05D80F6A0A0E02D8105008D00E6EE2
:1000B00011500D6E10500C6EFAEC00F00C500C6EDE
:1000C000064E0096075003E0065CD8B008D00C50EE
:1000D000D8A4009600B603D0300FCAEF00F012008B
:1000E000A66AA68E0900F55002E002D8FBD71200DE
:1000F000156E8A98899A9398929AF00E93161550D5
:1001000000B2A5EF00F03A0E0D6E980EEEEC00F086
:10011000330E146E2ED8130E0D6E880EEEEC00F01A
:1001200028D8640EEDEC00F024D8640EEDEC00F05D
:10013000220E146E1ED8280E07D80C0E05D8060EF7
:1001400003D80082155001D00080146E00A00BD09F
:10015000899A03080CE30BD8070E0D6ED00EEEEC57
:1001600000F0D88012000080FE0812E0898A143A5C
:1001700000A000908A88F00E811614500F0B811297
:100180008A98143A00B0F5D7320EEDEC00F0D88022
:100190001550120001BE78EF00F0A96EA66AA68085
:1001A000A850A92A1200A86EA66AA684550EA76EAA
:1001B000AA0EA76EA682A6B2FED7A694A92A1200FE
:1001C0000F6A0E6EFF0E0E260F2200D0D8A012006E
:1001D000030E0D6EE50E02D8F5D70D6AFA0F0C6E00
:1001E000000003E300D00C06FEE20C060D06FBE265
:1001F00000001200116A106A100EF36E0D341036F2
:1002000011360E50105C0F50115805E30E50105E61
:100210000F50115AD8800C360D36F32EEFD70C50F4
:100220001200938A156A146A00EE10F0010E0D6E2A
:10023000BA0EEEEC00F081BA57D0030E0D6E760EBA
:10024000EEEC00F0152A200E156401D00AD0D880FB
:1002500081BAD890EF36142A14A602D0EE52146A4E
:10026000ECD700EE10F0056A146A0E6A0D6A0C6A8B
:10027000EF360536EF360536142A3BD809B434D0AC
:10028000056AEF360536EF360536142A32D809B43A
:100290002BD009320E36050E086E056AEF3605368C
:1002A000EF360536142A14A402D0EE52146A21D86F
:1002B00009B41AD009320D36082EEFD7060E086E93
:1002C000056AEF360536EF360536142A14A402D037
:1002D000EE52146A0ED809B407D009320C36082E33
:1002E000EFD70C50D8901200FF0E0C6E0D6ED88018
:1002F0001200096A052C02D009801200020E056264
:1003000001D01200098412004669726D776172652E
:100310002056000057616974696E6720666F72200D
:10032000444C435000005A7A7A2E2E2E2020202052
:10033000202020202020000057616974696E67200A
:10034000666F7220444C43500000644220202020FD
:1003500020202020202020004D75746520202020A2
:1003600020202020202020200000F86A006AAB6AAC
:100370000001DF0E926E3C0E936EBD0E946E7B6A92
:100380007A6A7E6A7F6A0F0EC16E7D9E7D9C7D9823
:10039000050EAF6EAC94B896AC98AB8ED09E9D987F
:1003A0009D9AAC8AAB881FEF13F0D8CF19F01A6E64
:1003B000E0CF02F0E9CF03F0EACF04F00001E86AF1
:1003C0009DB8010E186EE86A9EB8010E1816D8B4D2
:1003D000FDEF01F096519763F1EF01F09D98FDEF6D
:1003E00001F000EE36F09651EB50AD6E962B300ECC
:1003F000965DD8A0FDEF01F0966B9EAA17EF02F074
:1004000000EE66F09951AECFEBFF992B300E995D5F
:10041000D8A00CEF02F0996B9951986317EF02F096
:100420009907FF0E996317EF02F02F0E996FF2A054
:1004300054EF02F01C501B10D8A453EF02F01FA081
:1004400053EF02F005C060F208C061F20CC062F226
:100450000DC063F20EC064F210C065F211C066F206
:1004600012C067F213C068F214C069F215C06AF2D4
:10047000D8DE1D6E0DC01EF060C205F061C208F02E
:1004800062C20CF063C20DF064C20EF065C210F0DF
:1004900066C211F067C212F068C213F069C214F0AC
:1004A0006AC215F01F90F29003C0E9FF04C0EAFF92
:1004B00002C0E0FF1A5019C0D8FF10000001ABA223
:1004C0006EEF02F0AB98AE50AE50AB880001966B69
:1004D000976B986B996BA66B2F6A306A99519863EA
:1004E00073EF02F0120000EE66F09851EB50B66F19
:1004F000982B300E985DD8A07FEF02F0986BFE0E1F
:10050000B66388EF02F0B6C027F0AFEC04F0D6D7A0
:10051000800EB65DD8A0AEEF02F0F10EB6150A6EF1
:100520000B6A0A50B10A0B10D8A499EF02F0B10E71
:10053000B66FB00EB663A2EF02F0010EA66F1F8475
:10054000ADEF02F0B10EB663ABEF02F0010EA66F95
:100550001F84ADEF02F0A66B1F94B0D7A653D8B49A
:10056000B3EF02F0A62B020EA661B8EF02F0A6D7F9
:10057000020EA663BFEF02F0B6C02FF09FD7B6C041
:1005800030F0010EA66F030E2F62EFEF02F0302C59
:10059000CEEF02F01F82AA83EDEF02F03052D8A412
:1005A000D5EF02F01F92EDEF02F0020E3062E4EFA1
:1005B00002F01FBAE2EF02F02F0EB46F750EB56FA6
:1005C0001F8A1F86EDEF02F0030E3062EDEF02F09E
:1005D0001FAAEDEF02F01F9A1F869BEF04F0040E96
:1005E0002F62F5EF02F09BEF04F0050E2F6202EF91
:1005F00003F0040E306000EF03F030C0A1F0AA81D8
:100600009BEF04F0060E2F6223EF03F0010E325C25
:10061000D8B421EF03F0090E306021EF03F001019F
:10062000BAA102D0BAA50CD00001B851305CD8B440
:1006300021EF03F030C0B8F01F86DDEC04F001D0EC
:1006400000019BEF04F0070E2F6235EF03F0730EED
:10065000306033EF03F0B951305CD8B431EF03F0C0
:100660001F8630C0B9F09BEF04F01D0E2F6243EFE0
:1006700003F0A751305CD8B49BEF04F030C0A7F072
:10068000A2EC12F058D1080E2F6255EF03F030C0E3
:10069000ABF030BC08D01FAE4ED11F9E01019F6B46
:1006A000A06B000148D11F8E46D14F0E2F6001D0A4
:1006B00076D0560E2F60E8D002014EA16ED0515177
:1006C0002F1807E04F0E516367D04F0E2F6265D091
:1006D00009D04F0E516307D04D51301803E1500E31
:1006E000516F5BD05AD0100E306056D0500E51630F
:1006F00005D03050526F510E516F4FD0510E516393
:1007000005D03050536F520E516F47D0520E516387
:1007100005D03050546F530E516F3FD0530E51637C
:100720000FD05439F00B30106E6F030E526306D0A9
:10073000040E536303D0540E516F2FD0546B0FD05F
:10074000540E516305D03050546F550E516F25D063
:10075000550E516321D05439F00B3010546F4EB305
:100760000BD06E51476F54516C6F5251456F5351BE
:10077000466F4B814C810AD06E514A6F54516D6F58
:100780005251486F5351496F4B834C834E914E9554
:1007900001019C81020101D04E910001CCD02D0EAF
:1007A0002F6001D071D04F0E2F606ED0020140A398
:1007B00068D01FA466D02E0E2F6201D003D02F0E5A
:1007C0002F620ED04251301858E14089409D40912F
:1007D0003E6B3F6B409B2E0E2F6253D0408B51D00F
:1007E00040A94FD02D0E2F620CD040BD43D03E53B8
:1007F00041E1425130183F6F1F0E3F613BD0408DA9
:1008000040D04E0E2F6221D04251301833E140AD1E
:1008100031D03E513F192EE140815D6B40934099AC
:100820004095409F576B586B436B110E3E6101D052
:1008300005D040AB03D03E51F00F436F060E446F1E
:10084000556B566BA5EC0FF01CD040AD13D0300E9D
:100850002F5C3E190FE1200E306001D00BD07F0ECF
:10086000306008D002EE20F03E51E9263050EF6EA5
:100870003E2B07D0DAEC0FF004D04099409D3E6B40
:100880003F6B00011F9457D02C0E2F6201D036D041
:10089000210E2F6001D04FD02C0E2F604CD0210E96
:1008A0002F5C046E0101AE51B86F070E046001D0D9
:1008B00002D09E51B86F800EB8B18B0E0424E96E41
:1008C000010EEA6E30C0EFFF0101060E04620BD08C
:1008D000010EB8B1020E97138EEC04F001019C9347
:1008E0009671000128D00A0E046206D0010EB8B13C
:1008F000020E9D139C819C9500011DD00101B3A1A6
:100900000BD0B391B66BB385B471B3B303D0B06BF6
:10091000B28102D0B16BB28300010DD00101B38569
:100920009C81B8B104D0B06BB28100011200B16BF0
:10093000B28300011200C2D500019651975DD8A084
:10094000300F030F2D6E300E2D6002D0D8901200A4
:100950000101AD3F01D0AD690001D880120000EE69
:1009600036F0975127C0EBFF9729276E300E275C92
:10097000D8A0BCEF04F0276A9DA8CDEF04F02D6845
:100980002750965DD8A409D02D2EFAD70101AD3F8E
:1009900001D0AD690001D880120027C097F09D8872
:1009A000D8901200A1C02DF00001030EA165120025
:1009B000A16F12002DC0A1F01200D2EC04F0B76BB1
:1009C0003052D8A4E7EF04F0B76B86EF05F0302C77
:1009D000EEEF04F0050EB76F86EF05F0020E306201
:1009E000FEEF04F0A153D8B4FAEF04F0060EB76F8F
:1009F000FCEF04F0010EB76F86EF05F0030E3062D6
:100A000015EF05F0A153D8B411EF05F0A12D0DEFAE
:100A100005F0010EB76F0FEF05F0070EB76F13EF7C
:100A200005F0020EB76F86EF05F0040E306234EF6A
:100A300005F0A153D8B430EF05F0A12D22EF05F059
:100A4000020EB76F020EA16328EF05F0010EB76F1B
:100A5000030EA1632EEF05F0080EB76F32EF05F01D
:100A6000030EB76F86EF05F0050E306253EF05F009
:100A7000A153D8B44FEF05F0A12D41EF05F0030EBF
:100A8000B76F020EA16347EF05F0020EB76F030EBA
:100A9000A1634DEF05F0010EB76F51EF05F0040EA5
:100AA000B76F86EF05F0060E30626AEF05F0A12DF4
:100AB0005CEF05F0040EB76F020EA16362EF05F064
:100AC000030EB76F030EA16368EF05F0020EB76F58
:100AD00086EF05F0070E30627CEF05F0020EA16391
:100AE00074EF05F0040EB76F030EA1637AEF05F003
:100AF000030EB76F86EF05F0080E306286EF05F043
:100B0000030EA16386EF05F0040EB76FDAEC04F074
:100B10001200D2EC04F0B753D8A492EF05F0276A84
:100B20002BEF06F0B72DB0EF05F0A153D8B4ACEF22
:100B300005F0A12D9EEF05F0030E276E020EA163B6
:100B4000A4EF05F0040E276E030EA163AAEF05F0D3
:100B5000050E276EAEEF05F0020E276E2BEF06F0A6
:100B6000020EB763CFEF05F0A153D8B4CBEF05F079
:100B7000A12DBDEF05F0040E276E020EA163C3EF99
:100B800005F0050E276E030EA163C9EF05F0060EF2
:100B9000276ECDEF05F0030E276E2BEF06F0030E48
:100BA000B763EEEF05F0A153D8B4EAEF05F0A12D3D
:100BB000DCEF05F0050E276E020EA163E2EF05F0F3
:100BC000060E276E030EA163E8EF05F0070E276EF1
:100BD000ECEF05F0040E276E2BEF06F0040EB76362
:100BE0000DEF06F0A153D8B409EF06F0A12DFBEFED
:100BF00005F0060E276E020EA16301EF06F0070E48
:100C0000276E030EA16307EF06F0080E276E0BEFA9
:100C100006F0050E276E2BEF06F0050EB76315EFF5
:100C200006F0010E276E2BEF06F0060EB7631DEFE0
:100C300006F0020E276E2BEF06F0070EB76325EFC6
:100C400006F0030E276E2BEF06F0080EB7632BEFAE
:100C500006F0040E276EDAEC04F01200000127689B
:100C6000278080A62790278282A02792278480A4AD
:100C70002794278680A22796278882AA2798278AE2
:100C800080A8279AFF0E271A2750BC5DD8B44EEFD4
:100C900006F0BB6B27C0BCF057EF06F0040EBB613B
:100CA00055EF06F0BB2B57EF06F0BCC0BEF09A6BB9
:100CB000BE51BD5DD8B465EF06F0BEC0BDF09B6B04
:100CC0009C6BBEC09AF06BEF06F0BE31D8B06BEFF4
:100CD00006F09B4B9C2BC90E9B5D320E9C59D8A0F5
:100CE00078EF06F0280E9B6F230E9C6FBEC09AF023
:100CF000120027C02BF02C6A2C50100DF3CF2CF0D3
:100D00002B50100DF3CF2BF0F4502C262B5029260E
:100D10002C502A22276A100E2760A0EF06F02750D9
:100D20002924F66E000E2A20F76EA66AA68E080009
:100D3000F5CF28F0285078EC00F0272AD8A4EBD77C
:100D40001200A96ABF51276E0101BAA10CD000019F
:100D5000030E276002D027500DD0070E276009D060
:100D60002706275007D00001060E276002D0275023
:100D700001D0020E0001D3EC00F0010EA96EBA51B1
:100D8000D3EC00F0020EA96EC051D3EC00F0276A3C
:100D9000060E27600EEF07F0030E2724A96E00EE63
:100DA000C1F02750EB50D3EC00F0090E2724A96EB8
:100DB00000EEC7F02750EB50D3EC00F00F0E2724C5
:100DC000A96E00EECDF02750EB50D3EC00F0150EDD
:100DD0002724A96E00EED3F02750EB50D3EC00F09F
:100DE0001B0E2724A96E00EED9F02750EB50D3EC50
:100DF00000F0210E2724A96E00EEDFF02750EB5003
:100E0000D3EC00F0270E2724A96E00EEE5F0275062
:100E1000EB50D3EC00F0272AD8A4BAD7730EA96EF2
:100E2000EB51D3EC00F089EC07F012005E0ECDEC34
:100E300000F0276E0101BA9DBA9FBE6B00012750DA
:100E4000F00BC00A0CE127500F0B0101BE6F090E19
:100E5000BE6102D0BA8D02D0BE6BBA9D0001000106
:100E600012005F0ECDEC00F0276E0101BA97BA991F
:100E7000BA9BBD6B00012750A00A10E02750F00B71
:100E8000B00A0CE127500F0B0101BD6F090EBD61C7
:100E900002D0BA8702D0BD6BBA97000100011200E0
:100EA0000101BAB507D0090EBB6104D0BB51B0092E
:100EB00000011200A00E000112000101BAA90FD01A
:100EC00050EC07F00A6E5F0ECDEC00F00A1805E05A
:100ED0005F0EA96E0A50D3EC00F00101BA9900012F
:100EE00012000101BAAF13D00001090EB8610DD094
:100EF000B851C0090A6E5E0ECDEC00F00A1805E08C
:100F00005E0EA96E0A50D3EC00F00101BA9F0001F9
:100F1000120071EC07F05DEC07F012000101BAADB0
:100F200007D0BEC1B8F0BA9D0001A2EC08F01200D3
:100F300000011200000ECDEC00F0276E060E2760B7
:100F400003D027C0BFF002D0020EBF6F010ECDEC60
:100F500000F0BA6F020ECDEC00F0C06F276A060EEB
:100F60002760FCEF07F0030E2724CDEC00F00A6E9B
:100F700000EEC1F027500AC0EBFF090E2724CDEC8C
:100F800000F00A6E00EEC7F027500AC0EBFF0F0E0C
:100F90002724CDEC00F00A6E00EECDF027500AC0F9
:100FA000EBFF150E2724CDEC00F00A6E00EED3F017
:100FB00027500AC0EBFF1B0E2724CDEC00F00A6E71
:100FC00000EED9F027500AC0EBFF210E2724CDEC0C
:100FD00000F00A6E00EEDFF027500AC0EBFF270E8C
:100FE0002724CDEC00F00A6E00EEE5F027500AC091
:100FF000EBFF272AD8A4B3D7730ECDEC00F0EB6F2C
:10100000050EEB5DD8A007EF08F0010EEB6F38EC92
:1010100016F016EC07F031EC07F012008DDC10E250
:10102000B00E3324276EAFEC04F034C027F0AFECE1
:1010300004F035C027F0AFEC04F09F6BA06B1200FA
:1010400012000101702B060E706502D0010E706F48
:1010500070510001FF0F02E107EF09F0FF0F02E1FD
:10106000C1EF08F0FF0F02E144EF09F0FF0F02E1CA
:101070001AEF09F0FF0F02E1A1EF09F09DEF0BF06D
:101080005BDC0CE2B10E276EAFEC04F0040E276EB1
:10109000AFEC04F0276AAFEC04F01200120028282D
:1010A000336E170E346E00EEC1F02850EB50356EE3
:1010B000B5DF12002828336E180E346E00EEC7F02C
:1010C0002850EB50356EAADF12002828336E190E17
:1010D000346E00EECDF02850EB50356E9FDF1200DD
:1010E0002828336E1A0E346E00EED3F02850EB50E1
:1010F000356E94DF12002828336E1B0E346E00EE1E
:10110000D9F02850EB50356E89DF12002828336E55
:101110001C0E346E00EEDFF02850EB50356E7EDF93
:1011200012002828336E1E0E346E00EEE5F02850B3
:10113000EB50356E3552D8A4A0EF08F0030E356E93
:101140006DDF12000101BAA102D0BAA514D00001CE
:101150009CEC04F00FE2B00E276EAFEC04F0060E2C
:10116000276EAFEC04F0B8C027F0AFEC04F09F6B33
:10117000A06B120012000101BC9122D00101BC81C0
:101180001FD00101BAA10BD0BAB509D0BC91BAB336
:10119000BC8116D802E20101BA73000112000001FD
:1011A000A2EF08F00001030EBF63A2EF08F00101F7
:1011B000BAA1A2EF08F0BAB5A2EF08F0BEEF08F0AE
:1011C00000019CEC04F021E2B10E0101BCB1B20EB1
:1011D0000001276EAFEC04F0060E276EAFEC04F0B2
:1011E0000101BCB103D00001B85107D0090EBB61A9
:1011F00002D0BB5102D0BB6B000E0001276EAFECDA
:1012000004F09F6BA06BD8901200000112009CECC0
:1012100004F00FE2B00E276EAFEC04F0070E276E5D
:10122000AFEC04F0B9C027F0AFEC04F09F6BA06BFB
:10123000120012009CEC04F00FE2B00E276EAFEC2F
:1012400004F01D0E276EAFEC04F0A7C027F0AFEC42
:1012500004F09F6BA06B120012000001A653D8B4DB
:101260000ED09951986308D0AC5303E1800EAC6F57
:101270001200AC4B06D01200800EAC6F1200AC6BAB
:101280001200A66BAC6B1200336A030E346E1FAAF9
:101290004EEF09F0020E356E50EF09F0030E356E79
:1012A000BDDE12001FAA12001F9A44EF09F01FB002
:1012B00012001F80120002015B8F4091000112009A
:1012C000800E016E800E35EC00F0500E78EC00F0D0
:1012D000720E78EC00F0650E78EC00F0730E78EC8E
:1012E00000F0650E78EC00F0740E78EC00F0200E43
:1012F00078EC00F0200E78EC00F0200E78EC00F096
:10130000200E78EC00F0200E78EC00F0200E78EC47
:1013100000F0200E78EC00F0200E78EC00F0200EAB
:1013200078EC00F0200E78EC00F00201FF0E5B6F0D
:101330000001ACEC10F0ACEC10F002015B9F00017E
:101340001200336A030E346E1FB2AAEF09F0356A39
:10135000ACEF09F0010E356E61DE01E21200120001
:10136000F2862EEC06F000015EEC02F02DEC09F0A6
:1013700085EC11F04AEC11F0E0EC0FF013EC12F0F8
:101380009E51EA0A600ED8B49D19D8A4C9EF09F09D
:10139000D8DC610E9D5DEA0E9E59D8B0D2EF09F0FF
:1013A0009D4B9E2B59EC0AF0A0514E0A200ED8B44A
:1013B0009F19D8A4E1EF09F044DE9F6BA06BE3EF27
:1013C00009F09F4BA02B1FB2EAEF09F094928B9289
:1013D0001FEF0AF0EB53D8B41DEF0AF0EC51B05DEB
:1013E000ED51B159EE51B259EF51B359B351EF1913
:1013F000D8B0800AD8A801EF0AF094928B921BEF24
:101400000AF01FAA14EF0AF0B44BB52BB551750AB8
:10141000300ED8B4B419D8A412EF0AF082729492A4
:10142000B46BB56B16EF0AF094928B82B02B000E62
:10143000B123B223B3231FEF0AF094928B82000EE4
:101440009A53D8A4010E186EE86A1FB6010E18123E
:101450000001030EBF630BD00101BAA107D0010147
:10146000B3A504D00001010E181201D000011852DA
:10147000D8B477D7000E9A53D8A4010E186EE86A34
:101480001FB8010E1812D8B44AEF0AF0B36BB26B52
:10149000B16BB06B1F989A31D8A056EF0AF0D8966E
:1014A0009AA1D886D8B656EF0AF01F729D6B9E6B34
:1014B00012001B52D8A461EF0AF01C52D8B464EF9A
:1014C0000AF01B06000E1C5A1FA068EF0AF012005B
:1014D0001E5020622DEF0BF01D50216278EF0AF0B4
:1014E000500E1B6EC30E1C6E1F721F862DEF0BF06D
:1014F0001D5022628CEF0AF0D00E1B6E070E1C6E80
:10150000720EB9618AEF0AF0B92B52EC09F07FDE56
:101510001F861F882DEF0BF01D502362A0EF0AF0ED
:10152000D00E1B6E070E1C6EB953D8B49EEF0AF096
:10153000B90752EC09F06BDE1F861F882DEF0BF008
:101540001D502662B2EF0AF02F0EB46F750EB56F04
:101550001F7A200E1B6E4E0E1C6E1F861F8894DE97
:101560002DEF0BF01D502562F0EF0AF0A153D8A427
:10157000BEEF0AF0050E276ED7EF0AF0A12DC5EFDA
:101580000AF0060E276ED7EF0AF0020EA163CDEF28
:101590000AF0070E276ED7EF0AF0030EA163D5EF0E
:1015A0000AF0080E276ED7EF0AF0080E276EB75321
:1015B000D8B4DEEF0AF0B707E0EF0AF027C0B7F0C3
:1015C0001F861F88580E1B6E1B0E1C6E89EC05F0C3
:1015D00027C0B8F00101BA8F0001B4DD2DEF0BF088
:1015E0001D5024622FEF0BF0A153D8A4FCEF0AF09A
:1015F000050E276E15EF0BF0A12D03EF0BF0060E75
:10160000276E15EF0BF0020EA1630BEF0BF0070E28
:10161000276E15EF0BF0030EA16313EF0BF0080E0E
:10162000276E15EF0BF0080E276E2750B7611CEFE1
:101630000BF0B72B1DEF0BF0B76B1F861F88580EF2
:101640001B6E1B0E1C6E89EC05F027C0B8F0010163
:10165000BA8F000177DD2DEF0BF01F8012001D50B7
:10166000380A2CE01D50390A32E01D503A0A39E0A0
:101670001D503B0A3BE01D503D0A05E01D503F0A4E
:1016800005E01F8012001FBC19D021D00001080EF8
:10169000B86302D0050E01D0080E306EDDEC04F008
:1016A00030C0B8F00101BA8F00011F861F88580EA4
:1016B0001B6E1B0E1C6E46DD1F8012001FAC0FD070
:1016C0001F9C4ED802E21F860AD01F8C08D01FBC78
:1016D00006D01F8C45D802E21F8601D01F9C1F80B8
:1016E00012000AD807E21F921F8604D015D802E222
:1016F0001F821F861F8012009CEC04F00CE2B00ECB
:10170000276EAFEC04F0030E276EAFEC04F0276AEF
:10171000AFEC04F0120012009CEC04F00DE2B00EED
:10172000276EAFEC04F0030E276EAFEC04F0010E51
:10173000276EAFEC04F0120012009CEC04F00FE2F4
:10174000B00E276EAFEC04F0200E276EAFEC04F065
:10175000E86A1FBC010E276EAFEC04F01200120005
:10176000ECDF08E2740EA96EE86A1FBC010ED3EC30
:1017700000F01200120003D00201408F000160EC63
:1017800009F0C00E35EC00F0100E186E200E78EC4B
:1017900000F0182EFBD702015D6B40B101D014D0D0
:1017A0004251010B5C6F00011FBC07D002015C536A
:1017B0000BE1A5EC0FF0000111D002015C5304E035
:1017C000A5EC0FF000010AD0020140BF04D00001D7
:1017D000B7EC0FF003D00001C2EC0FF00101726B07
:1017E0001FBC722B00019A6B1F960001B0EC09F030
:1017F00000011FB61F96E86A1FBC010E0101721995
:10180000000102E0BCEF0BF09AA312EF0CF01FAC4A
:10181000F5EF0BF01F9CA4DF02E2BCEF0BF01F8C76
:10182000F5EF0BF09AA520EF0CF01FBCF5EF0BF0D5
:101830001F8C96DF02E2BCEF0BF01F9CF5EF0BF064
:101840001F96E86A9ABB010E186EE86A9AB9010EF3
:101850001812010E1FB2E86A1812D8B4C6D70201D6
:101860005B8F40B109D00001ABEC0FF01FAC120050
:101870000201408F00011200000112000101010B62
:10188000CD6F000101019D6B9C6B9E6B9F6BAE6BDE
:10189000AF6B986B996B97519A6FCDB104D00201E1
:1018A0004B914C9103D002014B934C934E914E952A
:1018B0004F6B516B0001800E35EC00F0500E78EC50
:1018C00000F0420E78EC00F00101CD51310F000123
:1018D00078EC00F00101010ECDB1020E971501E187
:1018E0004AD081EC12F0045214E10101CE6BD46BAA
:1018F000D06B0B0ED0610AD0D05110D905E0CE2BA1
:10190000080ED06101D0D42BD02BF3D7D4534AE0AA
:1019100072D019EC0FF00001200E78EC00F0020EEE
:10192000046212D06C0E78EC00F06F0E78EC00F0D0
:10193000730E78EC00F0740E78EC00F00101080EE4
:101940009B6F000144D90ED06F0E78EC00F06C0E46
:1019500078EC00F0640E78EC00F00101090E9B6F4A
:10196000000135D9C00E35EC00F00101100E9B6F5F
:1019700000012DD942D101010D0E9B6F000127D925
:10198000C00E35EC00F06E0E78EC00F02F0E78EC07
:1019900000F0610E78EC00F001010D0E9B6F00016C
:1019A00016D92BD1200E78EC00F04F0E78EC00F019
:1019B0004B0E78EC00F0A8EC0EF0C00E35EC00F009
:1019C0000101CF6B080ED06F0B0ED06107D0D05144
:1019D000A5D8D16F01E0A9D8D02BF6D7CF5302E11B
:1019E000100E04D0CF51E824CF25110801019B6FC0
:1019F0000001EDD802D1210E78EC00F00101CF6B8F
:101A0000D06B0B0ED06119D0040ECF6116D0D0511F
:101A100085D8D16F10E00001200E78EC00F00101B4
:101A2000D351A0D8000178EC00F00101D1510001A0
:101A300074D90101CF2BD02BE4D7CF51E824CF2587
:101A40000C089B6F0001C3D8C00E35EC00F00101FB
:101A5000050ECE6105D0100E9B6F0001B8D8CDD019
:101A60000101CF6BD26BD06B0B0ED0610FD0050E86
:101A7000CF610CD0D05152D8D16F06E0040ED261A4
:101A800002D0D22B01D051D8D02BEED70A0ECE6186
:101A900008D0CF51E824CF2511089B6F000197D8BB
:101AA000ACD000012E0E78EC00F02E0E78EC00F099
:101AB000A4D00101D36F000ED36701D01200D30769
:101AC000010ED36701D01200D307040ED36701D0F3
:101AD0001200D307050ED36701D01200D307060EFC
:101AE000D36701D01200D307080ED36701D01200CC
:101AF000D307090ED36701D01200D3070A0ED367AC
:101B000001D01200D307020ED36701D01200D30711
:101B1000030ED36701D01200070E1200CADFD36F85
:101B200018D8D351E350010112000101CF5304E052
:101B30000001200E78EC00F00101D35113D8000110
:101B400078EC00F00101D1510001E7D80101CF2B61
:101B500012000101CDB103D011EE80F0120011EEA0
:101B60008BF012000101D36F490ED36701D0120030
:101B7000D307440ED36701D01200D307530ED367A7
:101B800001D01200D307420ED36701D01200D30751
:101B9000520ED36701D01200D307410ED36701D094
:101BA0001200D307500ED36701D01200D3074F0E97
:101BB000D36701D01200D307560ED36701D01200AD
:101BC000D307570ED36701D01200580E120001013F
:101BD0009B5307E00001200E78EC00F001019B2FE1
:101BE000F9D700011200C00E35EC00F00101100E13
:101BF0009B6F0001E7EC0DF01200F2862EEC06F070
:101C000000015EEC02F05EEC02F05EEC02F05EECD5
:101C100002F02DEC09F085EC11F059EC0AF000010E
:101C200001019851991150E101019CA317D0AF0710
:101C300005E1C5EC11F001019C9310D09CA508D0E2
:101C40009F0706E1010E9EB1020E9D139C9500D0E8
:101C5000000E986F5A0E996F00013BD00101CD51D3
:101C6000010B966F2BEC0FF028E201019CA508D028
:101C70009F0714E1010E9EB1020E9D139C950ED09C
:101C8000010E96B1020E9D1509E19651010B9E6F52
:101C9000040E9F6F9C850001DADA01019651010B59
:101CA000AE6F100EAF6F9C830001CFDA0101000E02
:101CB000986F5A0E996F00010CD00101000E986FB9
:101CC0005A0E996F000105D0985101E199079807C4
:101CD000000101019CB105D0B3B503D097519A1909
:101CE00007E097519A6F9C91B39500015BEF0CF060
:101CF00000011F96E86A9ABB010E186EE86A9AB94D
:101D0000010E1812010E1FB2E86A1812D8B475D766
:101D10000001120078EC00F012000F0B046E10E0CE
:101D20000F0E046011D00A0E046005D0300E04249A
:101D300078EC00F01200370E042478EC00F012006A
:101D4000200E78EC00F012002B0E78EC00F0120060
:101D50000101CDB12CD002014BA155D0200E78EC61
:101D600000F0760E78EC00F002014551000152D8E7
:101D70002E0E78EC00F00201465100014BD8200EE7
:101D800078EC00F002016C51546F5439000142D8D4
:101D900002016C5100013ED802014751546F543981
:101DA000000138D802014751000134D81200020165
:101DB0004BA329D0200E78EC00F0760E78EC00F0E2
:101DC00002014851000126D82E0E78EC00F00201E5
:101DD000495100011FD8200E78EC00F002016D512E
:101DE000546F5439000116D802016D51000112D808
:101DF00002014A51546F543900010CD802014A5172
:101E0000000108D8120001010A0E9B6F0001E7ECE7
:101E10000DF012000F0B046E0A0E046005D0300E98
:101E2000042478EC00F01200370E042478EC00F063
:101E300012000101CDB107D002014B914C914EB37C
:101E400008D04E9106D002014B934C934EA301D083
:101E50004E910001120002014EB12FD001019CB33E
:101E60003FD09CB53DD096B109D097A139D00201A1
:101E70004BB136D04CB134D04E9308D097A330D06C
:101E800002014BB32DD04CB32BD04E8350511F0BBE
:101E9000E8244D6F4EB34D8173EC0FF021E2020147
:101EA0004F0E516F040E4F6F4E81502B200E50631A
:101EB00001D0506B0001D88012004F5305E04F074E
:101EC00003E00001D88012004EA508D04EB302D026
:101ED0004C8101D04C834E914E9502D04E854E914F
:101EE0000001D89012009CEC04F017E2B10E020140
:101EF0004EB3B20E0001276EAFEC04F00EE2250ED9
:101F0000276EAFEC04F009E202014D510001276E8B
:101F1000AFEC04F002E2D89012000001D880120069
:101F200002EE20F0250E0F6EEE6A0F2EFDD702EEA8
:101F300055F0080E0F6EEE6A0F2EFDD7000112004D
:101F40000201596B5A6B408712000201596B4351D1
:101F50005A6F408712000201406B3E6B3F6B576B1C
:101F6000586B436B446B556B566BEADF1200F3DF23
:101F70000001010EBF6312001FA212000201408582
:101F800000011200E8DF0001010EBF6312001FA272
:101F900012000201408F000E576F00011FBC05D0D8
:101FA0000201300E586F000112000201400E586FFE
:101FB0000001120002015D2B030E5D61CCD7E2D758
:101FC0000001010EBF63120002015BAF06D00001E9
:101FD0001FA2120060EC09F012005E2B5EAB07D06E
:101FE0005E6B00011FA2120060EC09F012000001FC
:101FF00005EC10F045EC10F071EC10F0ACEC10F0CA
:1020000002E2FEEC10F000011200020140A51200F5
:1020100040B31200412B200E416301D0416B41516E
:10202000426F42474247429300011FBC03D0020166
:10203000429102D0020142812CEC10F00BE202012D
:10204000408340954099409D3E6B3F6B000E576F1B
:10205000400E586F000112009CEC04F013E2B10E28
:10206000276EAFEC04F00EE2260E276EAFEC04F004
:1020700009E2020142510001276EAFEC04F002E2D6
:10208000D89012000001D8801200020140B303D0A2
:1020900040AF12000BD0575305E1585305E05807E5
:1020A000570712005707120085DF1200575305E14A
:1020B000585305E058075707120057071200000150
:1020C000010EBF630AD01FA208D00101B3B11200F4
:1020D0000201409F408500011200ABEC0FF00001AF
:1020E0001200020140A11200110E3E6101D0120047
:1020F00040B71200555305E1565305E05607550702
:10210000120055071200000E556F080E566F44530B
:1021100002E0440712003E51F00F5C6F40BB0ED04E
:1021200043515C6304D0436B060E446F13D0432BC2
:1021300043515C630FD0030E446F0CD0435305E151
:102140005C51436F060E446F05D04307435302E1D1
:10215000030E446FFADE120002015C6B0101030EF4
:10216000B06104D0030EB16101D002D002015C81E4
:1021700000011FBC01D002D002015C8300011FBE20
:1021800001D002D002015C8502015C515B19010B98
:1021900014E000018E0E35EC00F00201200E5CB15F
:1021A0002A0E000178EC00F002015B915CB15B81CA
:1021B000870E5B170001D88012005C515B19060B7B
:1021C0001AE000018F0E35EC00F00201210E5CB523
:1021D00003D0410E5CB3420E000178EC00F0020126
:1021E0005B935B955CB35B835CB55B85870E5B172C
:1021F0000001D88012000001D8901200020140A70F
:1022000012000001C00E02015925000135EC00F05A
:102210000201200E40A10DD05A5159255C6F3E514C
:102220005C6106D002EE20F05C51E926EF5001D04F
:10223000200E000178EC00F00201592B100E5963BA
:1022400002D0596B409700011200210E03D0220EDC
:1022500001D0FBD71C6E9CEC04F013E2B10E01011F
:1022600096B1B20E0001276EAFEC04F00AE21C50EA
:10227000276EAFEC04F005E2276AAFEC04F001E250
:10228000120001011C50210A02E09C9501D09C9390
:10229000000112000101BAB136D0B2B302D097A347
:1022A00032D0BA93BAA721D0BDC130F00001DDEC25
:1022B00004F0E5EC18F0A451B76501D00FD089EC1B
:1022C00005F00101BD510001271801E007D001010F
:1022D000BA81BA95BA9BBDC1BBF10CD00101BA81DC
:1022E000BA85BA8BB8C0BBF105D0BA81BA85BA9BA2
:1022F000B8C0BBF10001030EBF6101D004D0060ECF
:10230000BF6101D0BF2B000112000101B52B02E01B
:10231000000112001FA248D00001040EBF6101D0CD
:1023200006D0040EBF6312000101BAA145D001011D
:10233000B3B114D0020140BF3FD040B33DD040B54F
:102340003BD00101DEEC11F037E20101B381200E38
:10235000B66FB393B4B1B38300011200B65303E078
:10236000B6070001120006D8B391B66BB385B471FD
:10237000000112000101B3B304D00F0EB063B02B03
:1023800012000F0EB163B12B12000101B3859C81C5
:10239000CDB105D00F0EB063B02B000112000F0EAF
:1023A000B163B12B000112000101B06BB16BB26BD4
:1023B000B36BB46BB56BB66B0001120000019751A3
:1023C00096632FD09CEC04F02AE2B10E0101B4B167
:1023D000B20E0001276EAFEC04F0230E276EAFECB7
:1023E00004F0276AAFEC04F01FAA19D01FA217D07F
:1023F00002016B2B6BA112D000019CEC04F00CE2EB
:10240000B00E276EAFEC04F0030E276EAFEC04F0B5
:10241000020E276EAFEC04F0D89001D0000100014D
:102420001200D88012000101B3B502D000011200E1
:1024300000011FA21200010EBF6301D01200030EA3
:10244000BF6101D014D0030EBF6305D00101BAB142
:102450000CD0000107D0040EBF6312000101BAA125
:1024600004D00001A45303E0120000011200010196
:10247000B76B030EB061B781030EB161B783B7A12B
:1024800003D0B15301E0B783800E016ECC0E35EC62
:1024900000F00101030EB7630ED00001210E78ECAD
:1024A00000F0310E78EC00F0200E78EC00F0320EE7
:1024B00078EC00F022D00101B75312E00001200EA9
:1024C00078EC00F0200E78EC00F0210E78EC00F0B3
:1024D0000101310EB7B3320E000178EC00F00DD0DF
:1024E0000001200E78EC00F0200E78EC00F0200EB9
:1024F00078EC00F0200E78EC00F00101B3950001BB
:102500001200046A0101CDB102D0B0510AD0030E0D
:10251000B06102D0B15105D0B15302E0B05101D049
:10252000B151B96F0A0EB96109D0030EB96102D079
:1025300000011200010E046E00011200020E046E72
:1025400000011200040EA763B6EF12F0100E206E09
:10255000320E216E330E226E340E236E350E266E31
:10256000360E246E370E256EC7EF12F0030EA763EA
:10257000C7EF12F0206A0C0E216E100E226E110EA3
:10258000236E200E246E210E256E0D0E266E120077
:10259000A2C029F0A3C02AF0A5C027F0800E016ECA
:1025A000C00E35EC00F079EC06F0B0EC09F0000E4E
:1025B0009A53D8A4010E186EE86A1FB6010E1812BD
:1025C000D8B4F3D79A31E832D8A0EFEF12F0A55182
:1025D000A463EEEF12F0A56BEFEF12F0A52BD896E7
:1025E0009AA5D886D8B6FEEF12F0A553D8A4FDEF71
:1025F00012F0A4C0A5F0FEEF12F0A5071200000033
:102600000000000000000000000000000000566F05
:102610006C756D653A202020202020202020496EF6
:102620007075743A2020202020202020202053651F
:10263000747570202020202020202020202001EEF2
:1026400080F0180E0F6EEE6A0F2EFDD701019D6B04
:102650009C6B9E6B9F6BAE6BAF6BB06BB16BB26BD9
:10266000B36BB46BB56BBA6BBB6BBC6BBD6BBE6B4A
:1026700090EC0FF0000194928B920A0E1B6E1C6A74
:102680007D8AF290F2969D8AF28EF28C966B976B11
:10269000986B996B1F94A66B1D6A1D6A1E6A9B6BD3
:1026A0009C6B00EEC1F0060EEE6AE82EFDD700EE40
:1026B000C7F0060EEE6AE82EFDD700EECDF0060E4E
:1026C000EE6AE82EFDD700EED3F0060EEE6AE82E95
:1026D000FDD700EED9F0060EEE6AE82EFDD700EE2B
:1026E000DFF0060EEE6AE82EFDD7326A1F961F98BD
:1026F000A968020ED3EC00F0700ECDEC00F0276E4E
:10270000010E275CD8B48AEF13F0700EA96E010E8B
:10271000D3EC00F0710ECDEC00F0276E070E275CB5
:10272000D8B498EF13F0710EA96E070ED3EC00F039
:10273000BC6BBE6BBD6BB46BB56BB36BB26BB16B8B
:10274000B06B02EE45F0100E046EEE6A042EFDD75B
:1027500002EE6CF0030E046EEE6A042EFDD7010E3D
:102760000F6E2C0EE1EC00F026EC00F0C80EE0EC51
:1027700000F09AEC07F00001BA5106E0BA6B010EC6
:10278000A96EE86AD3EC00F0740ECDEC00F01F9C4B
:10279000010A01E11F8C010E0F6EF40EE1EC00F056
:1027A000800E016E35EC00F0340EF76E660EF66E9C
:1027B00070EC00F0800E016EC00E35EC00F0800E63
:1027C000016E340EF76E760EF66E70EC00F0030EAE
:1027D0000F6EE80EE1EC00F0800EB86FB96FA76FD6
:1027E000A16FA86BA96B016E35EC00F0030EF76EBC
:1027F000140EF66E70EC00F0F3EC0DF094928B82F8
:102800005BEC09F02EEC06F00001040EA96103D088
:10281000A84BA92B04D09ABBFF009AB9FF0040EC4B
:1028200008F0C80EE0EC00F05EEC02F02DEC09F0D0
:1028300057EC09F0800EB85DD8A4010E186E800E1A
:10284000B95DD8A4010E1816800EA75DD8A4010E9C
:102850001816800EA15DD8A4010E1816D8B4D0D7D2
:10286000610E9D6FEA0E9E6F9F6BA06B8EEC07F062
:102870001F9A010E326E1FA2BAEF14F01F96BF53BB
:10288000D8A447EF14F046EC15F094EF14F00001D3
:10289000BF2D4FEF14F0BBEC0BF094EF14F0020ED1
:1028A000BF6357EF14F04CEC19F094EF14F0030EE3
:1028B000BF6368EF14F00101BAA105D000014CEC30
:1028C00019F094EF14F00001F4EC15F094EF14F00B
:1028D000040EBF637AEF14F00101BAA105D0000124
:1028E000F4EC15F094EF14F00001000E3EEC0CF047
:1028F00094EF14F0050EBF638DEF14F00101BAB12F
:1029000006D00001010E3EEC0CF094EF14F0000133
:10291000000E3EEC0CF094EF14F0060EBF6394EF43
:1029200014F0010E3EEC0CF00001D8969AABD8865C
:10293000D8B6A4EF14F040EC15F0BF63A3EF14F089
:10294000BF6BA4EF14F0BF2BD8969AA9D886D8B63F
:10295000B4EF14F0BF53D8A4B3EF14F040EC15F06B
:10296000BF6FB4EF14F0BF072EEC06F01FB286D78E
:1029700032EF15F01F925BEC09F0A1EC09F026ECA8
:1029800000F0800E016E35EC00F0030EF76E260E9F
:10299000F66E70EC00F0B0EC09F01F96000E9A5342
:1029A000D8A4010E186EE86A1FB2010E1812D8B42E
:1029B000F2D7B36BB26BB16BB06B1F82A1EC09F0B5
:1029C000800E016E35EC00F0030EF76E380EF66ED9
:1029D00070EC00F0F3EC0DF094928B821F920101E9
:1029E000736B0001A86BA96BAA6B5BEC09F02EEC72
:1029F00006F00001040EA96103D0A84BA92B04D056
:102A00009ABBFF009AB9FF00000140EC08F0C80E25
:102A1000E0EC00F05EEC02F02DEC09F057EC09F070
:102A2000AAB114D00101732B080E7363E0D7736B46
:102A3000AB98AE50AE50AB880001966B976B986B1D
:102A4000996BA66BAC6B2F6A306AD1D70101736B9F
:102A5000B06BB16BB26BB36BB46BB56B00011F8223
:102A60008EEC07F0A1EC09F001E3B9D7610E9D6F80
:102A7000EA0E9E6F9F6BA06B1F9A010E326EFBD603
:102A8000050E0101BAB1060E00011200800E016EA2
:102A900035EC00F0BFC027F0260E2A6E0E0E296E10
:102AA00079EC06F0800E016E870E35EC00F01FBA4F
:102AB00088EF15F0600EB96166EF15F02D0E78EC19
:102AC00000F0B9516008276E75EF15F0600EB9631C
:102AD0006FEF15F0600EB95D276E75EF15F02B0ED8
:102AE00078EC00F0600EB95D276E800E016E275005
:102AF0003EEC00F02E0E78EC00F0300E78EC00F09A
:102B0000030EF76E4A0EF66E70EC00F08EEF15F0C5
:102B1000030EF76E580EF66E70EC00F0B8C030F091
:102B2000DDEC04F0B7C027F0300E2A6E7C0E296E63
:102B3000800E016EC00E35EC00F079EC06F0800ED0
:102B4000016E8F0E35EC00F0410E1FBC420E1FBE11
:102B5000210E78EC00F0B0EC09F000019ABB1200F5
:102B60009AB912009A31E832D8A0C0EF15F0720E6F
:102B7000B961BCEF15F0B92B52EC09F007EC09F084
:102B8000D8969AA5D886D8B6CFEF15F0B953D8B451
:102B9000CBEF15F0B90752EC09F007EC09F0D89625
:102BA0009AA7D886D8B6DCEF15F01F7A2F0EB46F2F
:102BB000750EB56F44EC09F01F96E86A9ABB010EDA
:102BC000186EE86A9AB9010E1812010E1FB2E86A6F
:102BD0001812D8B467D71200424C2054696D656F43
:102BE0007574202020202020800E016E35EC00F02E
:102BF000020E276E260E2A6E0E0E296E79EC06F056
:102C0000BAC027F02B0E2A6ED80E296EBAC0A5F0D6
:102C10000001A46B800E016EC00E35EC00F079EC63
:102C200006F0B0EC09F000019ABB12009AB912004C
:102C30001FA61CEF16F01F960001D8969AA7D886FB
:102C4000D8B625EF16F083EC16F0010E1FB2E86A35
:102C5000186EE86A9AB7010E1812E86A9ABB010E5C
:102C60001812E86A9AB9010E1812D8B4BDD712002A
:102C7000EB2D44EF16F0EF6B080EEE6F910EED6F3B
:102C80003A0EEC6F62EF16F0020EEB6351EF16F0A6
:102C9000EF6B220EEE6F440EED6FEB0EEC6F62EFFA
:102CA00016F0030EEB635EEF16F0EF6B550EEE6F52
:102CB000AC0EED6F440EEC6F62EF16F0EF6BEE6B47
:102CC000ED6BEC6B12004F666620286E6F20746906
:102CD0006D656F7574293330207365632020202063
:102CE00020202020202032206D696E2020202020EE
:102CF00020202020202035206D696E2020202020DB
:102D0000202020202020BAC027F02B0E2A6ED80EBB
:102D1000296E800E016E35EC00F079EC06F00001B2
:102D2000030EA46F2C0EA36FC60EA26FEBC0A5F00E
:102D3000C8EC12F01F96E86A9AB3010E186EE86AA2
:102D40009AB5010E1812D8B4A9EF16F0A5C0EBF091
:102D50008FDFE86A9AB7010E186E010E1FB2E86A9B
:102D60001812D8B4E3D72EEC06F01200536F757228
:102D70006365204348313A2020202020536F75722C
:102D80006365204348323A2020202020536F75721B
:102D90006365204348333A2020202020536F75720A
:102DA0006365204348343A2020202020536F7572F9
:102DB0006365204348353A2020202020536F7572E8
:102DC0006365204348363A20202020205553426135
:102DD0007564696F3A202020202020204C6566749D
:102DE00020202020202020202020202052696768D9
:102DF0007420202020202020202020204C2B522016
:102E00002020202020202020202020204C2D522057
:102E10002020202020202020202020204341542F2B
:102E2000414553202020202020202020532F504493
:102E3000494620202020202020202020800E016EC6
:102E400035EC00F0BAC027F02B0E2A6ED80E296E92
:102E500079EC06F0C0C027F02D0E2A6E6C0E296E9C
:102E6000800E016EC00E35EC00F079EC06F0060E17
:102E7000C06189EF17F0C053D8A446EF17F000EEF9
:102E8000C1F0BA51EB50A56F7AEF17F0C02D50EF9B
:102E900017F000EEC7F0BA51EB50A56F7AEF17F0BC
:102EA000020EC0635BEF17F000EECDF0BA51EB50AD
:102EB000A56F7AEF17F0030EC06366EF17F000EE10
:102EC000D3F0BA51EB50A56F7AEF17F0040EC06340
:102ED00071EF17F000EED9F0BA51EB50A56F7AEF11
:102EE00017F0050EC0637AEF17F000EEDFF0BA516D
:102EF000EB50A56F030EA46FA5C027F02D0E2A6E10
:102F0000DC0E296E800E016ECB0E35EC00F09BEFCF
:102F100017F000EEE5F0BA51EB50A56F010EA46F6B
:102F2000A5C027F02E0E2A6E1C0E296E800E016E93
:102F3000C90E35EC00F079EC06F0B0EC09F01FA6F4
:102F4000A7EF17F01F961FA2A7EF17F077D79A31B8
:102F5000E832D8A0B6EF17F0A551A463B3EF17F08D
:102F6000A56BB4EF17F0A52BF1EC17F0D8969AA546
:102F7000D886D8B6C7EF17F0A553D8A4C4EF17F07A
:102F8000A4C0A5F0C5EF17F0A507F1EC17F0D8968F
:102F90009AABD886D8B6D5EF17F0060EC063D4EF3B
:102FA00017F0C06BD5EF17F0C02BD8969AA9D8862A
:102FB000D8B6E4EF17F0C053D8A4E3EF17F0060E2D
:102FC000C06FE4EF17F0C007E86A9AB7010E186EF9
:102FD000010E1FB2E86A1812D8B43CD72EEC06F0E6
:102FE00012002EEC06F0060EC06138EF18F0C05348
:102FF000D8A402EF18F000EEC1F0BA51A5C0EBFF63
:1030000036EF18F0C02D0CEF18F000EEC7F0BA51F3
:10301000A5C0EBFF36EF18F0020EC06317EF18F0F3
:1030200000EECDF0BA51A5C0EBFF36EF18F0030E5D
:10303000C06322EF18F000EED3F0BA51A5C0EBFF49
:1030400036EF18F0040EC0632DEF18F000EED9F043
:10305000BA51A5C0EBFF36EF18F0050EC06336EF8E
:1030600018F000EEDFF0BA51A5C0EBFF3DEF18F00D
:1030700000EEE5F0BA51A5C0EBFF12004175746F88
:10308000204465746563742020202020532F504411
:103090004946202020202020202020205553422057
:1030A000417564696F202020202020204145532055
:1030B0002020202020202020202020204F707469F4
:1030C00063616C202020202020202020416E616C34
:1030D0006F6775652031202020202020416E616CB3
:1030E0006F6775652032202020202020416E616CA2
:1030F0006F6775652033202020202020416E616C91
:103100006F67756520342020202020200001030EE9
:10311000BF6311D00101BAA10CD0BAB507D0BBC1B1
:1031200030F00001DDEC04F0B72B12000001B76BAA
:103130001200000100D00001B8C030F0DDEC04F056
:10314000000112000001030EBF6315D00101BAA1F6
:103150001ED0CD8181EC12F0045207E0010E046212
:1031600002D0020E03D0030E01D0010E0101B3956F
:103170000001276E05D00101BAA109D00001276A1C
:10318000340E2A6E160E296E79EC06F0120000013C
:10319000010E276E260E2A6E0E0E296E79EC06F0B1
:1031A00012000001030EBF630AD00101BAA105D0CD
:1031B000BA9527C0BBF100011200000100D027C062
:1031C000B8F00101BA8F000112000001030EA165E1
:1031D00002D0080E0FD0A153D8A402D0050E0AD0F9
:1031E000A12D02D0060E06D0020EA16302D0070E5A
:1031F00001D0080EA46F40EC19F012000001A45198
:10320000B7651200A4C0B7F012000001030EBF633F
:103210001AD00101BAA116D00001B753D8A40AD020
:103220000101BA85BA97BA9BBA89B8C0BBF100014F
:10323000D8801200B7070101BA95BA9BBA8900017C
:10324000D89012000001D89012000001B7C027F0FA
:10325000300E2A6E7C0E296E030EBF631200010130
:10326000BAA10CD00001B753D8A406D0276A340EF7
:103270002A6E560E296E1200270612000001120057
:103280000001030EBF6312000101BAA103D00001C7
:10329000A42B12000001120086EC18F0E5EC18F0E7
:1032A000FEEC18F0800E016E35EC00F0A2EC18F088
:1032B000E5EC18F0FEEC18F025EC19F0B7C0A5F01D
:1032C000A153D8A468EF19F0050EA46F81EF19F08F
:1032D000A12D6FEF19F0060EA46F81EF19F0020E09
:1032E000A16377EF19F0070EA46F81EF19F0030EB9
:1032F000A1637FEF19F0080EA46F81EF19F0080E9B
:10330000A46F40EC19F0800E016EC00E35EC00F099
:1033100079EC06F0B0EC09F000019ABB12009AB902
:1033200012000001020EBF6301D007D0030EBF637D
:1033300012000101BAA113D0000100019A53D8A4D0
:1033400010D00101B3A50DD00001030EBF6309D059
:103350000101BAA102D000019FD7000102D00001F3
:10336000120000011FA6BAEF19F01F961FA2BAEFB4
:1033700019F092D79A31E832D8A0DAEF19F0A551B6
:10338000A463C6EF19F0A56BC7EF19F0A52B2EECBF
:1033900006F0A5C0B7F0E5EC18F0FEEC18F0B7C0E9
:1033A000A5F005EC19F004E289EC05F0D1EC18F079
:1033B000D2EC08F0D8969AA5D886D8B6FCEF19F0CA
:1033C000A553D8A4E8EF19F0A4C0A5F0E9EF19F0CF
:1033D000A5072EEC06F0A5C0B7F0E5EC18F0FEEC62
:1033E00018F0B7C0A5F005EC19F004E289EC05F07F
:1033F000D1EC18F0D2EC08F0E86A9ABB010E186E16
:10340000E86A9AB9010E1812010E1FB2E86A181282
:10341000D8B44ED71200496E707574205042313ABC
:10342000202020202020496E707574205042323AAE
:10343000202020202020496E7075742050423220B8
:103440006F6C64202020496E7075742050423220C9
:103450006C6F7374202053616D652061732050423E
:103460003120202020204669726D776172652056D8
:10347000312E3733000052657620783538203230CF
:103480003236303632370000FFFFFFFFFFFFFFFF0D
:10349000FFFFFFFFFFFFFFFFFFFFFFFFFFFFFFFF3C
:1034A000FFFFFFFFFFFFFFFFFFFFFFFFFFFFFFFF2C
:1034B000FFFFFFFFFFFFFFFFFFFFFFFFFFFFFFFF1C
:1034C000FFFFFFFFFFFFFFFFFFFFFFFFFFFFFFFF0C
:1077B000444C43504354524C01073358202606276B
:1077C000FFFFFFFFFFFFFFFFFFFFFFFFFFFFFFFFC9
:1077D000FFFFFFFFFFFFFFFFFFFFFFFFFFFFFFFFB9
:1077E000FFFFFFFFFFFFFFFFFFFFFFFFFFFFFFFFA9
:1077F000FFFFFFFFFFFFFFFFFFFFFFFFFFFFFFFF99
:107800007FEF3DF00D6E030E02D00D6E040E076E7D
:107810000E500C5C02E10D500B5C040ED8B0010E52
:10782000D8B4020E0714D8A4010E1200800E016E07
:10783000FE0E00D9010EFED8750E0C6E300E41D131
:10784000016A018E166EFE0EF5D81650F3D0056A49
:10785000800E1B6E00D00F6A106A116A116A079AB7
:10786000EDD8D8A01200D30FD8B4078A2D0FC60FB9
:1078700003E20A0FF5E305D0F30FF2E2060FF0E39F
:107880000A0F0D6E040E0E6ED8900F36103611369C
:1078900012360E2EF9D70D500F1205060EE0CED877
:1078A000D8A01200C60F03E20A0F07E3EAD7F30FCE
:1078B00004E2060F02E30A0FE4D707AA0BD00F1E5B
:1078C000101E111E121E0F2AD8B4102AD8B4112A65
:1078D000D8B4122A0F50D8801200056A0F6E106AB1
:1078E00000960550D8B40086040E046E103805D8F2
:1078F000105003D80F3801D80F500F0BF60FD8B027
:10790000070F0A0F00D00B6E044E0096055003E0DF
:10791000045CD8B007D00B50D8A4009600B602D0B3
:10792000300F88D012000F6E0450D8B412000FC070
:10793000E9FF10C0EAFFEF50D8B412007BD80F4A1D
:10794000102A0406F1D7A66AA68E0900F55002E0B7
:1079500002D8FBD71200146E8A98899A9398929A4B
:10796000F00E9316145000B21ED03A0E0C6E980E04
:10797000A8D8330E136E2AD8130E0C6E880EA1D819
:1079800025D8640E9DD822D8640E9AD8220E136E84
:107990001DD8280E07D80C0E05D8060E03D8008275
:1079A000145001D00080136E00A00AD0899A0308F9
:1079B0000BE30AD8070E0C6ED00E83D8D8801200C5
:1079C0000080FE0811E0898A133A00A000908A889E
:1079D000F00E811613500F0B81128A98133A00B0E3
:1079E000F5D7320E6DD8D88014501200ABB2AB98D8
:1079F000AB8802C00BF006C00CF00D6A0E6A0000E6
:107A000000D000009EBA0ED0E8680D260E220B2290
:107A10000C22D8A012000D480E3CF1D7B70E0D6E07
:107A20000E6AEFD7AE50D88012009EA8FED7AD6E7A
:107A3000D880120001BE8FD701B4F7D71B52D6E011
:107A4000D8801BBEEE501200A96EA66AA680A85070
:107A5000A92A1200A86EA66AA684550EA76EAA0EC1
:107A6000A76EA682A6B2FED7A694A92A1200F56E2A
:107A70000C00F6281F0B09E1840EA66E550EA76EAA
:107A8000AA0EA76EA68200D0A694F64AF72A120084
:107A9000F66E940EA66E550EA76EAA0EA76EA6825F
:107AA0000000A69412000E6A0D6EFF0E0D260E2227
:107AB00000D0D8A01200030E0C6EE50E02D8F5D748
:107AC0000C6AFA0F0B6E000003E300D00B06FEE217
:107AD0000B060C06FBE200001200F34E02D0E65249
:107AE000FCD7E6CFEEFFE82EFCD71200426F6F7492
:107AF0006C6F61646572206D6F6465200000F86AC8
:107B0000006A050EAF6E200EAC6E900EAB6E0001DB
:107B1000DF0E926E3C0E936EBD0E946E7B6A7A6A97
:107B20007E6A7F6A0F0EC16E050EBDDF460E766F50
:107B3000570E776F5F0E786F550E796F700E7A6FF4
:107B4000640E7B6F939C8A9C8293DBD98231E832EE
:107B500015E2FF0E79DF1F6E1F2C06D0A968770E85
:107B600079DF20EF00F009D0020E1F6206D0FE0E72
:107B7000A96E010E6FDF20EF00F003D0A968000EA0
:107B800069DFAC8AAB88AB8E51DE94928B82800E1B
:107B9000016E56DE7A0EF76EEC0EF66ED4DE00EE57
:107BA00024F01F0EEE6AE82EFDD7F29E400E1D6EE9
:107BB0001E6A206A216A086A00EE76F00850EB50CF
:107BC000196E00EE7CF0085019C0EBFF082A08502F
:107BD0000608F2E145D900EE43F02E0EEE6AE82EDB
:107BE000FDD7F40E026E010E066E00DFE4E33A08E4
:107BF000FCE110EE43F0FADEDEE30D0802E1E66A96
:107C000004D0AE50E66E01E0F6D782911F6A060EF0
:107C10001F600BD000EE43F01F50EB50086E300E8B
:107C2000085C01E082811F2AF2E1823101E293D1F6
:107C3000226A236A1F6A140E1F601CD000EE71F0C6
:107C400010EE43F01F50020DF3CF19F0F4CF1AF0ED
:107C50001928F36E020E41DFEF6A00EE71F027EC97
:107C60003CF0196E10C01AF0195022261A50232227
:107C70001F2AE1E12250FF08196EFF0E23541A6EED
:107C8000010E1924226E000E1A20236E00EE71F0F0
:107C900010EE43F0290EF36E020E1FDFEF6A00EEC6
:107CA00071F027EC3CF0206E10C021F020502262D1
:107CB000D6D02166D4D000EE71F010EE43F0030E62
:107CC000F36E040E0ADFEF6A00EE71F027EC3CF071
:107CD0001D6E10C01EF03F0E1D14086E096A09507B
:107CE000081002E0000E01D0010E1C6E1DC00BF04A
:107CF0001EC00CF0770E0E6EC00E05EC3CF01C168C
:107D00001DC00BF01EC00CF00E6A400E02EC3CF0E1
:107D10001C1607E01E501D1004E01EC0F7FF1D508A
:107D2000B7DE1DC00BF01EC00CF0770E0E6EC00E3D
:107D300005EC3CF01C6E1DC00BF01EC00CF00E6A72
:107D4000400E02EC3CF01C162DE01F6A080E1F606E
:107D500029D000EE71F010EE43F01F50040DF3CF68
:107D600019F0F4CF1AF0090E1924F36E040EB5DEE3
:107D7000EF6A00EE71F027EC3CF0206E10C021F0AD
:107D80001F50020DF3CF19F0F4CF1AF019501D2433
:107D9000F66E1A501E20F76E215069DE205067DE05
:107DA0001F2AD4E13A0E41DE040E016E020E056E6A
:107DB00022506EEC3CF00D0E38DE0A0E36DE1D5001
:107DC000400A1E1024E1080E1F6E100E1F601CD00A
:107DD00000EE71F010EE43F01F50020DF3CF19F0DA
:107DE000F4CF1AF0090E1924F36E020E76DEEF6A54
:107DF00000EE71F027EC3CF0086E00EE24F01F500E
:107E000008C0EBFF1F2AE1E1A968000E23DE1D5028
:107E1000500A1E1024E11F6A100E1F601FD000EED2
:107E200071F010EE43F01F50020DF3CF19F0F4CFB4
:107E30001AF0090E1924F36E020E4FDEEF6A100ECF
:107E40001F24086E00EE71F027EC3CF00A6E00EE85
:107E500024F008500AC0EBFF1F2ADEE11BD8BBD676
:107E60000D0E15EC3DF00A0E15EC3DF00C0E15EC68
:107E70003DF03A0E15EC3DF0040E016E060E046E58
:107E8000106A7C0E93EC3CF00D0E15EC3DF00A0EE2
:107E900015EF3DF0F66AF76AFCDDF66AF76A000E48
:107EA00037EC3DF0EF0E37EC3DF0020EF66EF76A60
:107EB0003C0E37EC3DF0F00E37EC3DF0040EF66E64
:107EC000F76AFF0E37EC3DF0FF0E37EC3DF0060E83
:107ED000F66EF76AFF0E37EC3DF0FF0E37EC3DF023
:107EE000080E1F6E200E1F600BD01FC0F6FFF76A32
:107EF00000EE24F01F50EB5037EC3DF01F2AF2E16A
:107F000012001F6A0B0E1F6025D0010E82B0E86AB6
:107F10001C6E010E80B4E86A1C16E86A80B2010E7D
:107F20001C1613E0010E0E6EF40E54EC3DF0010E23
:107F300082B0E86A1C6E010E80B4E86A1C16E86A1A
:107F400080B2010E1C1601E082830A0E53EC3DF054
:107F50001F2AD8E112009EDF94928B92A968010E2D
:107F60002AEC3DF0010E0E6E2C0E54EC3DF0FF009D
:107F7000FFFFFFFFFFFFFFFFFFFFFFFFFFFFFFFF11
:107F8000FFFFFFFFFFFFFFFFFFFFFFFFFFFFFFFF01
:107F9000FFFFFFFFFFFFFFFFFFFFFFFFFFFFFFFFF1
:107FA000FFFFFFFFFFFFFFFFFFFFFFFFFFFFFFFFE1
:107FB000FFFFFFFFFFFFFFFFFFFFFFFFFFFFFFFFD1
:107FC000FFFFFFFFFFFFFFFFFFFFFFFFFFFFFFFFC1
:107FD000FFFFFFFFFFFFFFFFFFFFFFFFFFFFFFFFB1
:107FE000FFFFFFFFFFFFFFFFFFFFFFFFFFFFFFFFA1
:107FF000FFFFFFFFFFFFFFFFFFFFFFFFFFFFFFFF91
:020000040020DA
:08000000FFFFFFFFFFFFFFFF00
:020000040030CA
:0E000000FF011F00FF0080FFFFFFFFFFFFFF5B
:0200000400F00A
:1000000000000000000000000000000000000000F0
:1000100000000000000101010101010101010101D5
:1000200001010101010101000000000000000000C9
:10003000000000FFFFFFFFFFFFFFFFFFFFFFFFFFCD
:10004000FFFFFFFFFFFFFFFFFFFFFFFFFFFFFFFFC0
:10005000FFFFFFFFFFFFFFFFFFFFFFFFFFFFFFFFB0
:10006000FFFFFFFFFFFFFFFFFFFFFFFFFFFFFFFFA0
:1000700001073301FFFFFFFFFFFFFFFFFFFFFFFF50
:10008000FFFFFFFFFFFFFFFFFFFFFFFFFFFFFFFF80
:10009000FFFFFFFFFFFFFFFFFFFFFFFFFFFFFFFF70
:1000A000FFFFFFFFFFFFFFFFFFFFFFFFFFFFFFFF60
:1000B000FFFFFFFFFFFFFFFFFFFFFFFFFFFFFFFF50
:1000C000FFFFFFFFFFFFFFFFFFFFFFFFFFFFFFFF40
:1000D000FFFFFFFFFFFFFFFFFFFFFFFFFFFFFFFF30
:1000E000FFFFFFFFFFFFFFFFFFFFFFFFFFFFFFFF20
:1000F000FFFFFFFFFFFFFFFFFFFFFFFFFFFFFF020D
:00000001FF
