:020000040000FA
:1000000000EF3CF0FFFFFFFFD3EF01F0800E016E29
:10001000FE0EC8EC00F0010EC8EC00F0750E0D6E7F
:10002000FFD7FFFFFFFFFFFFFFFFFFFFFFFFFFFF08
:10003000FFFFFFFFFFFFFFFFFFFFFFFFFFFFFFFFD0
:10004000B3EF01F0FFFFFFFFD3EF01F0800E016E71
:10005000FE0EC8EC00F0010EC8EC00F0750E0D6E3F
:10006000300EECEF00F0016A018E176EFE0EC8EC48
:1000700000F01750C8EF00F0076A106E116A009682
:100080000750D8B40086050E066E270E0F6E100EB0
:100090000CD8030E0F6EE80E08D80F6A640E05D850
:1000A0000F6A0A0E02D8105008D00E6E11500D6E55
:1000B00010500C6EF8EC00F00C500C6E064E0096D2
:1000C000075003E0065CD8B008D00C50D8A40096C6
:1000D00000B603D0300FC8EF00F01200A66AA68E5B
:1000E0000900F55002E002D8FBD71200156E8A987D
:1000F000899A9398929AF00E9316155000B2A3EF36
:1001000000F03A0E0D6E980EECEC00F0330E146E0B
:100110002ED8130E0D6E880EECEC00F028D8640E6D
:10012000EBEC00F024D8640EEBEC00F0220E146E21
:100130001ED8280E07D80C0E05D8060E03D800824C
:10014000155001D00080146E00A00BD0899A0308CE
:100150000CE30BD8070E0D6ED00EECEC00F0D8803F
:1001600012000080FE0812E0898A143A00A0009074
:100170008A88F00E811614500F0B81128A98143A57
:1001800000B0F5D7320EEBEC00F0D880155012001D
:1001900001BE76EF00F0A96EA66AA680A850A92A33
:1001A0001200A86EA66AA684550EA76EAA0EA76EA8
:1001B000A682A6B2FED7A694A92A12000F6A0E6ED6
:1001C000FF0E0E260F2200D0D8A01200030E0D6ED7
:1001D000E50E02D8F5D70D6AFA0F0C6E000003E3A6
:1001E00000D00C06FEE20C060D06FBE20000120039
:1001F000116A106A100EF36E0D34103611360E505F
:10020000105C0F50115805E30E50105E0F50115A3C
:10021000D8800C360D36F32EEFD70C501200938A8F
:10022000156A146A00EE10F0010E0D6EBA0EECECB9
:1002300000F081BA57D0030E0D6E760EECEC00F094
:10024000152A200E156401D00AD0D88081BAD89022
:10025000EF36142A14A602D0EE52146AECD700EE40
:1002600010F0056A146A0E6A0D6A0C6AEF360536DC
:10027000EF360536142A3BD809B434D0056AEF3678
:100280000536EF360536142A32D809B42BD0093298
:100290000E36050E086E056AEF360536EF36053662
:1002A000142A14A402D0EE52146A21D809B41AD028
:1002B00009320D36082EEFD7060E086E056AEF36A6
:1002C0000536EF360536142A14A402D0EE52146A0D
:1002D0000ED809B407D009320C36082EEFD70C50CF
:1002E000D8901200FF0E0C6E0D6ED8801200096AB5
:1002F000052C02D009801200020E056201D0120006
:10030000098412004669726D77617265205600009B
:1003100057616974696E6720666F7220444C435060
:1003200000005A7A7A2E2E2E2020202020202020F5
:100330002020000057616974696E6720666F722023
:10034000444C4350000064422020202020202020E4
:10035000202020004D7574652020202020202020A2
:10036000202020200000F86A006AAB6A0001DF0E3E
:10037000926E3C0E936EBD0E946E7B6A7A6A7E6AB4
:100380007F6A0F0EC16E7D9E7D9C7D98050EAF6EBF
:10039000AC94B896AC98AB8ED09E9D989D9AAC8A42
:1003A000AB88A4EF0AF0D8CF19F01A6EE0CF02F0B4
:1003B000E9CF03F0EACF04F00001E86A9DB8010E2E
:1003C000186EE86A9EB8010E1816D8B4FBEF01F05B
:1003D00096519763EFEF01F09D98FBEF01F000EE6F
:1003E00036F09651EB50AD6E962B300E965DD8A040
:1003F000FBEF01F0966B9EAA0AEF02F000EE66F0AA
:100400009951AECFEBFF992B300E995DD8A00AEF32
:1004100002F0996BF2A01BEF02F01C501B10D8A445
:100420001AEF02F01FA01AEF02F0F9DE1D6E0DC0E8
:100430001EF01F90F29003C0E9FF04C0EAFF02C063
:10044000E0FF1A5019C0D8FF1000ABA234EF02F041
:10045000AB98AE50AE50AB880001966B976B986B23
:10046000996BA66B2F6A306A9951986339EF02F045
:10047000120000EE66F09851EB50B66F982B300EDC
:10048000985DD8A045EF02F0986BFE0EB6634EEF74
:1004900002F0B6C027F03DEC03F0D7D7800EB65D72
:1004A000D8A074EF02F0F10EB6150A6E0B6A0A506E
:1004B000B10A0B10D8A45FEF02F0B10EB66FB00E08
:1004C000B66368EF02F0010EA66F1F8473EF02F0AF
:1004D000B10EB66371EF02F0010EA66F1F8473EFC9
:1004E00002F0A66B1F84B1D7A653D8B479EF02F0FF
:1004F000A62B020EA6617EEF02F0A7D7020EA6631E
:1005000085EF02F0B6C02FF0A0D7B6C030F0010ED4
:10051000A66F030E2F62B4EF02F0302C93EF02F0BF
:100520001F82B2EF02F03052D8A49AEF02F01F926D
:10053000B2EF02F0020E3062A9EF02F01FBAA7EF8D
:1005400002F02F0EB46F750EB56F1F8A1F86B2EFC3
:1005500002F0030E3062B2EF02F01FAAB2EF02F017
:100560001F9A1F863CEF03F0040E2F62BAEF02F0D1
:100570003CEF03F0050E2F62C6EF02F0040E306070
:10058000C4EF02F030C0A1F03CEF03F0060E2F6282
:10059000DFEF02F0010E325CD8B4DDEF02F0090E9D
:1005A0003060DDEF02F0B851305CD8B4DDEF02F01E
:1005B00030C0B8F01F8660EC03F03CEF03F0070E8C
:1005C0002F62F1EF02F0730E3060EFEF02F0B951DD
:1005D000305CD8B4EDEF02F01F8630C0B9F03CEFCC
:1005E00003F01D0E2F62FFEF02F0A751305CD8B46C
:1005F0003CEF03F030C0A7F030EC0AF03DD0080E1D
:100600002F6211EF03F030C0ABF0305008E11FAEA5
:1006100033D01F9E01019F6BA06B00012DD01F8E58
:100620002BD0210E2F6001D027D02C0E2F6024D08C
:10063000210E2F5C046E0101800E96B18B0E0424F6
:10064000E96E010EEA6E30C0EFFF01019C81060EDB
:10065000046208D0010E96B1020E97139C93967116
:1006600000010AD00A0E046207D0010E96B1020EF4
:100670009D139C95000100D0E8D600EE36F097510E
:1006800027C0EBFF9729276E300E275CD8A04AEFD2
:1006900003F0276A9DA85BEF03F02D682750965D55
:1006A000D8A409D02D2EFAD70101AD3F01D0AD69F4
:1006B0000001D880120027C097F09D88D8901200C2
:1006C0003052D8A467EF03F0B76B06EF04F0302C7C
:1006D0006EEF03F0050EB76F06EF04F0020E306206
:1006E0007EEF03F0A153D8B47AEF03F0060EB76F94
:1006F0007CEF03F0010EB76F06EF04F0030E3062DB
:1007000095EF03F0A153D8B491EF03F0A12D8DEF35
:1007100003F0010EB76F8FEF03F0070EB76F93EF83
:1007200003F0020EB76F06EF04F0040E3062B4EF70
:1007300003F0A153D8B4B0EF03F0A12DA2EF03F062
:10074000020EB76F020EA163A8EF03F0010EB76FA0
:10075000030EA163AEEF03F0080EB76FB2EF03F024
:10076000030EB76F06EF04F0050E3062D3EF03F00F
:10077000A153D8B4CFEF03F0A12DC1EF03F0030EC6
:10078000B76F020EA163C7EF03F0020EB76F030E3F
:10079000A163CDEF03F0010EB76FD1EF03F0040EAC
:1007A000B76F06EF04F0060E3062EAEF03F0A12DFA
:1007B000DCEF03F0040EB76F020EA163E2EF03F06B
:1007C000030EB76F030EA163E8EF03F0020EB76FDD
:1007D00006EF04F0070E3062FCEF03F0020EA16397
:1007E000F4EF03F0040EB76F030EA163FAEF03F00A
:1007F000030EB76F06EF04F0080E306206EF04F048
:10080000030EA16306EF04F0040EB76F1200B75396
:10081000D8A40EEF04F0B86BA7EF04F0B72D2CEFBF
:1008200004F0A153D8B428EF04F0A12D1AEF04F07E
:10083000030EB86F020EA16320EF04F0040EB86F30
:10084000030EA16326EF04F0050EB86F2AEF04F043
:10085000020EB86FA7EF04F0020EB7634BEF04F07F
:10086000A153D8B447EF04F0A12D39EF04F0040EE2
:10087000B86F020EA1633FEF04F0050EB86F030ED0
:10088000A16345EF04F0060EB86F49EF04F0030EC4
:10089000B86FA7EF04F0030EB7636AEF04F0A1533B
:1008A000D8B466EF04F0A12D58EF04F0050EB86F30
:1008B000020EA1635EEF04F0060EB86F030EA16393
:1008C00064EF04F0070EB86F68EF04F0040EB86F21
:1008D000A7EF04F0040EB76389EF04F0A153D8B476
:1008E00085EF04F0A12D77EF04F0060EB86F020E2D
:1008F000A1637DEF04F0070EB86F030EA16383EFD1
:1009000004F0080EB86F87EF04F0050EB86FA7EF7C
:1009100004F0050EB76391EF04F0010EB86FA7EF76
:1009200004F0060EB76399EF04F0020EB86FA7EF5C
:1009300004F0070EB763A1EF04F0030EB86FA7EF42
:1009400004F0080EB763A7EF04F0040EB86F1200AE
:100950002768278080A62790278282A02792278455
:1009600080A42794278680A22796278882AA279882
:10097000278A80A8279AFF0E271A2750BC5DD8B473
:10098000C7EF04F0BB6B27C0BCF0D0EF04F0040E3F
:10099000BB61CEEF04F0BB2BD0EF04F0BCC0BEF0C7
:1009A0009A6BBE51BD5DD8B4DEEF04F0BEC0BDF0A1
:1009B0009B6B9C6BBEC09AF0E4EF04F0BE31D8B0E4
:1009C000E4EF04F09B4B9C2BC90E9B5D320E9C59AF
:1009D000D8A0F1EF04F0280E9B6F230E9C6FBEC0D1
:1009E0009AF0120027C02BF02C6A2C50100DF3CF78
:1009F0002CF02B50100DF3CF2BF0F4502C262B5055
:100A000029262C502A22276A100E276019EF05F09C
:100A100027502924F66E000E2A20F76EA66AA68EAD
:100A20000800F5CF28F0285076EC00F0272AD8A44B
:100A3000EBD71200A96ABF51D1EC00F0010EA96EEC
:100A4000BA51D1EC00F0020EA96EC051D1EC00F009
:100A5000276A060E27606FEF05F0030E2724A96EA4
:100A600000EEC1F02750EB50D1EC00F0090E272426
:100A7000A96E00EEC7F02750EB50D1EC00F00F0E3E
:100A80002724A96E00EECDF02750EB50D1EC00F0FA
:100A9000150E2724A96E00EED3F02750EB50D1ECB1
:100AA00000F01B0E2724A96E00EED9F02750EB5062
:100AB000D1EC00F0210E2724A96E00EEDFF02750C4
:100AC000EB50D1EC00F0270E2724A96E00EEE5F0E4
:100AD0002750EB50D1EC00F0272AD8A4BAD7730ED8
:100AE000A96EEB51D1EC00F01200000ECBEC00F03F
:100AF000BF6F010ECBEC00F0BA6F020ECBEC00F032
:100B0000C06F276A060E2760CFEF05F0030E27247B
:100B1000CBEC00F00A6E00EEC1F027500AC0EBFFEC
:100B2000090E2724CBEC00F00A6E00EEC7F0275028
:100B30000AC0EBFF0F0E2724CBEC00F00A6E00EE8C
:100B4000CDF027500AC0EBFF150E2724CBEC00F0A8
:100B50000A6E00EED3F027500AC0EBFF1B0E2724CD
:100B6000CBEC00F00A6E00EED9F027500AC0EBFF84
:100B7000210E2724CBEC00F00A6E00EEDFF02750A8
:100B80000AC0EBFF270E2724CBEC00F00A6E00EE24
:100B9000E5F027500AC0EBFF272AD8A4B3D7730E7D
:100BA000CBEC00F0EB6F050EEB5DD8A0DAEF05F0B3
:100BB000010EEB6F2AEC0DF01200B00E3324276EFD
:100BC0003DEC03F034C027F03DEC03F035C027F0D6
:100BD0003DEC03F09F6BA06B12000101702B060E21
:100BE000706502D0010E706F70510001FF0F02E1BD
:100BF0007AEF06F0FF0F02E16BEF06F0FF0F02E164
:100C000098EF06F0FF0F02E189EF06F0FF0F02E117
:100C1000A6EF06F03DEF08F0B10E276E3DEC03F0B5
:100C2000040E276E3DEC03F0276A3DEC03F0120042
:100C30002828336E170E346E00EEC1F02850EB50AA
:100C4000356EBBDF12002828336E180E346E00EEAE
:100C5000C7F02850EB50356EB0DF12002828336EF5
:100C6000190E346E00EECDF02850EB50356EA5DF36
:100C700012002828336E1A0E346E00EED3F028507E
:100C8000EB50356E9ADF12002828336E1B0E346E3F
:100C900000EED9F02850EB50356E8FDF1200282877
:100CA000336E1C0E346E00EEDFF02850EB50356EC4
:100CB00084DF12002828336E1E0E346E00EEE5F03D
:100CC0002850EB50356E3552D8A469EF06F0030E6C
:100CD000356E73DF1200B00E276E3DEC03F0060E8A
:100CE000276E3DEC03F0B8C027F03DEC03F09F6B9E
:100CF000A06B1200B00E276E3DEC03F0070E276EBE
:100D00003DEC03F0B9C027F03DEC03F09F6BA06B06
:100D10001200B00E276E3DEC03F01D0E276E3DEC69
:100D200003F0A7C027F03DEC03F09F6BA06B12000F
:100D3000336A030E346E1FAAA2EF06F0020E356E60
:100D4000A4EF06F0030E356E38DF1200336A030E8F
:100D5000346E1FB2AFEF06F0356AB1EF06F0010E48
:100D6000356E2BDF1200F286A8EC04F025EC02F0C1
:100D70009E51EA0A600ED8B49D19D8A4C1EF06F0BE
:100D800059DE610E9D5DEA0E9E59D8B0CAEF06F09D
:100D90009D4B9E2B41EC07F0A0514E0A200ED8B47B
:100DA0009F19D8A4D9EF06F018DF9F6BA06BDBEF7B
:100DB00006F09F4BA02B1FB2E2EF06F094928B92AD
:100DC00017EF07F0EB53D8B415EF07F0EC51B05D17
:100DD000ED51B159EE51B259EF51B359B351EF1929
:100DE000D8B0800AD8A8F9EF06F094928B9213EF4E
:100DF00007F01FAA0CEF07F0B44BB52BB551750ADD
:100E0000300ED8B4B419D8A40AEF07F082729492C5
:100E1000B46BB56B0EEF07F094928B82B02B000E83
:100E2000B123B223B32317EF07F094928B82000E05
:100E30009A53D8A4010E186EE86A1FB6010E181254
:100E4000D8B492D7000E9A53D8A4010E186EE86A4F
:100E50001FB8010E1812D8B432EF07F0B36BB26BA3
:100E6000B16BB06B1F989A31D8A03EEF07F0D896BF
:100E70009AA1D886D8B63EEF07F01F729D6B9E6B85
:100E800012001B52D8A449EF07F01C52D8B44CEF03
:100E900007F01B06000E1C5A1FA050EF07F01200AF
:100EA0001E50206202EF08F01D50216260EF07F033
:100EB000500E1B6EC30E1C6E1F721F8602EF08F0D1
:100EC0001D50226273EF07F0D00E1B6E070E1C6ED2
:100ED000720EB96171EF07F0B92B1F9A0BDF1F86F5
:100EE0001F8802EF08F01D50236286EF07F0D00E36
:100EF0001B6E070E1C6EB953D8B484EF07F0B90708
:100F00001F9AF8DE1F861F8802EF08F01D50266228
:100F100098EF07F02F0EB46F750EB56F1F7A200E85
:100F20001B6E4E0E1C6E1F861F8802DF02EF08F03C
:100F30001D502562CDEF07F0A153D8A4A4EF07F010
:100F4000050E276EB9EF07F0A12DABEF07F0060EE7
:100F5000276EB9EF07F0020EA163B3EF07F0070E9B
:100F6000276EB9EF07F0030EA163B9EF07F0080E83
:100F7000276EB753D8B4C0EF07F0B707C2EF07F03A
:100F800027C0B7F01F861F88580E1B6E1B0E1C6EE5
:100F900007EC04F0A0DE02EF08F01D50246201EF20
:100FA00008F0A153D8A4D9EF07F0050E276EEEEF95
:100FB00007F0A12DE0EF07F0060E276EEEEF07F029
:100FC000020EA163E8EF07F0070E276EEEEF07F0C1
:100FD000030EA163EEEF07F0080E276E2750B761EE
:100FE000F5EF07F0B72BF6EF07F0B76B1F861F88FA
:100FF000580E1B6E1B0E1C6E07EC04F06CDE02EF2D
:1010000008F01F801D50380A0BE01D50390A0EE011
:101010001D503A0A12E01D503B0A12E01F801200D8
:101020001FAC09D01F9C38D81F8605D01FBC03D029
:101030001F8C32D81F861F80120006D81F8602D050
:101040000FD81F861F801200B00E276E3DEC03F0F4
:10105000030E276E3DEC03F0276A3DEC03F012000F
:10106000B00E276E3DEC03F0030E276E3DEC03F04F
:10107000010E276E3DEC03F01200B00E276E3DEC22
:1010800003F0200E276E3DEC03F0E86A1FBC010E52
:10109000276E3DEC03F01200F0DF740EA96EE86AD3
:1010A0001FBC010ED1EC00F01200800E016E800E0C
:1010B00033EC00F0500E76EC00F0720E76EC00F09F
:1010C000650E76EC00F0730E76EC00F0650E76ECB3
:1010D00000F0740E76EC00F0200E76EC00F0200E9E
:1010E00076EC00F0200E76EC00F0200E76EC00F0AE
:1010F000200E76EC00F0200E76EC00F0200E76EC60
:1011000000F0200E76EC00F0200E76EC00F0200EC1
:1011100076EC00F0C00E33EC00F0410E76EC00F0FF
:10112000630E76EC00F0740E76EC00F0690E76EC4F
:1011300000F0760E76EC00F0650E76EC00F03A0EDC
:1011400076EC00F0200E76EC00F0410E1FBC420E53
:1011500076EC00F0200E76EC00F0200E76EC00F03D
:10116000200E76EC00F0200E76EC00F0200E76ECEF
:1011700000F0200E76EC00F0200E76EC00F001017D
:10118000726B1FBC722B0001B3EC06F000011FB69E
:101190001F96E86A1FBC010E01017219000102E0EE
:1011A00055EF08F09AA3DCEF08F01FACC3EF08F08E
:1011B0001F9C72DF55EF08F09AA5E6EF08F01FBC00
:1011C000C3EF08F01F8C68DF55EF08F01F96E86A40
:1011D0009ABB010E186EE86A9AB9010E1812010E38
:1011E0001FB2E86A1812D8B4CED70001120000D09E
:1011F00001019D6B975301E196910001800E33EC44
:1012000000F0310E76EC00F03A0E76EC00F00101C1
:1012100097A12CD00001490EE7D8010180510001AF
:10122000E6D8440EE1D8010181510001E0D8530E07
:10123000DBD8010182510001DAD8420ED5D8010174
:1012400083510001D4D8520ECFD80101845100013E
:10125000CED8410EC9D8010185510001C8D8500E21
:10126000C3D8010186510001C2D818D000016E0E0A
:1012700076EC00F02F0E76EC00F0610E76EC00F0CC
:1012800001010B0E9B6F0001200E76EC00F00101B6
:101290009B2F02D0000102D00001F6D7C00E33EC24
:1012A00000F0320E76EC00F03A0E76EC00F0010120
:1012B00097A32CD00001490E97D801018B51000152
:1012C00096D8440E91D801018C51000190D8530E4C
:1012D0008BD801018D5100018AD8420E85D80101B9
:1012E0008E51000184D8520E7FD801018F51000128
:1012F0007ED8410E79D801019051000178D8500E66
:1013000073D801019151000172D818D000016E0EFE
:1013100076EC00F02F0E76EC00F0610E76EC00F02B
:1013200001010B0E9B6F0001200E76EC00F0010115
:101330009B2F02D0000102D00001F6D70101986B6B
:10134000996B97519A6F0001B3EC06F0000101010F
:101350009851991126E101019CA301D096719CA599
:1013600008D09F0714E1010E9EB1020E9D139C95BB
:101370000ED0010E96B1020E9D1509E19651010B9A
:101380009E6F040E9F6F9C8500014ED801019C83C7
:10139000000148D80101800E986F000E996F00017E
:1013A00005D0985101E199079807000101019CB10E
:1013B00003D097519A1906E097519A6F9C910001BA
:1013C000FEEF08F000011F96E86A9ABB010E186E46
:1013D000E86A9AB9010E1812010E1FB2E86A1812D3
:1013E000D8B4B2D70001120076EC00F012000F0B57
:1013F000046E10E00F0E046011D00A0E046005D0D8
:10140000300E042476EC00F01200370E042476EC43
:1014100000F01200200E76EC00F012002B0E76EC9D
:1014200000F01200210E03D0220E01D0FBD71C6E5B
:10143000B10E010196B1B20E0001276E3DEC03F032
:101440000AE21C50276E3DEC03F005E2276A3DECF2
:1014500003F001E2120001019C939C95000112002F
:10146000040EA76344EF0AF0100E206E320E216EB8
:10147000330E226E340E236E350E266E360E246E1B
:10148000370E256E55EF0AF0030EA76355EF0AF0ED
:10149000206A0C0E216E100E226E110E236E200E8D
:1014A000246E210E256E0D0E266E1200A2C029F0AC
:1014B000A3C02AF0A5C027F0800E016EC00E33EC49
:1014C00000F0F2EC04F04FDC000E9A53D8A4010EA9
:1014D000186EE86A1FB6010E1812D8B4F4D79A3104
:1014E000E832D8A07CEF0AF0A551A4637BEF0AF0A4
:1014F000A56B7CEF0AF0A52BD8969AA5D886D8B60E
:101500008BEF0AF0A553D8A48AEF0AF0A4C0A5F087
:101510008BEF0AF0A5071200566F6C756D653A20C7
:101520002020202020202020496E7075743A202031
:10153000202020202020202053657475702020203A
:10154000202020202020202094928B920A0E1B6EB7
:101550001C6A7D8AF290F2969D8AF28EF28C966BCE
:10156000976B986B996B1F94A66B1D6A1D6A1E6A18
:101570009B6B9C6B00EEC1F0060EEE6AE82EFDD769
:1015800000EEC7F0060EEE6AE82EFDD700EECDF0B5
:10159000060EEE6AE82EFDD700EED3F0060EEE6AD8
:1015A000E82EFDD700EED9F0060EEE6AE82EFDD744
:1015B00000EEDFF0060EEE6AE82EFDD7326A1F96C7
:1015C0001F98A968020ED1EC00F0700ECBEC00F071
:1015D000276E010E275CD8B4F3EF0AF0700EA96EE7
:1015E000010ED1EC00F0710ECBEC00F0276E060E70
:1015F000275CD8B401EF0BF0710EA96E060ED1EC8A
:1016000000F0BC6BBE6BBD6BB46BB56BB36BB26BF8
:10161000B16BB06B010E0F6E2C0EDFEC00F026EC00
:1016200000F0C80EDEEC00F075EC05F0740ECBECAB
:1016300000F01F9C010A01E11F8C010E0F6EF40ED9
:10164000DFEC00F0800E016E33EC00F0030EF76E5D
:10165000040EF66E6EEC00F0800E016E010E3CEC96
:1016600000F02E0E76EC00F0800E016E060E3CECC3
:1016700000F0030E0F6EE80EDFEC00F0800EB86F86
:10168000B96FA76FA16F016E33EC00F0030EF76E18
:10169000100EF66E6EEC00F094928B820F0E0F6EB1
:1016A000A00EDFEC00F00CEC06F0C80EDEEC00F053
:1016B00025EC02F0800EB85DD8A4010E186E800EE5
:1016C000B95DD8A4010E1816800EA75DD8A4010E2E
:1016D0001816800EA15DD8A4010E1816D8B4E3D751
:1016E000610E9D6FEA0E9E6F9F6BA06B1F9A010E9D
:1016F000326E1FA2CDEF0BF01F96BF53D8A485EF1B
:101700000BF04AEC0CF0AAEF0BF00001BF2D8CEFB0
:101710000BF0CBDCAAEF0BF0020EBF6394EF0BF0E3
:1017200077EC0FF0AAEF0BF0030EBF639CEF0BF00A
:10173000EDEC0CF0AAEF0BF0040EBF63A4EF0BF07E
:10174000000E55DDAAEF0BF0050EBF63AAEF0BF0FC
:10175000010E4DDDD8969AABD886D8B6B8EF0BF00F
:10176000050EBF63B7EF0BF0BF6BB8EF0BF0BF2BED
:10177000D8969AA9D886D8B6C7EF0BF0BF53D8A48D
:10178000C6EF0BF0050EBF6FC7EF0BF0BF07A8EC5D
:1017900004F01FB2B1D73EEF0CF01F92A6EC06F09A
:1017A00026EC00F0800E016E33EC00F0030EF76EB5
:1017B000220EF66E6EEC00F0B3EC06F01F96000EF3
:1017C0009A53D8A4010E186EE86A1FB2010E1812BF
:1017D000D8B4F2D7B36BB26BB16BB06B1F82A6EC0F
:1017E00006F0800E016E33EC00F0030EF76E340E3F
:1017F000F66E6EEC00F094928B82130E0F6E880ED4
:10180000DFEC00F01F920101736B00010CEC06F09D
:10181000C80EDEEC00F025EC02F0800EB85CE86A41
:10182000D8A4010E186E800EB95CE86AD8A4010E27
:101830001816800EA75CE86AD8A4010E1816800E50
:10184000A15CE86AD8A4010E1816185213E1010130
:10185000732B080E7363D9D7736BAB98AE50AE5031
:10186000AB880001966B976B986B996BA66B2F6A90
:10187000306ACBD70101736B00011F82A6EC06F022
:10188000610E9D6FEA0E9E6F9F6BA06B1F9A010EFB
:10189000326E2FD7800E016E33EC00F0BFC027F000
:1018A000150E2A6E180E296EF2EC04F0800E016EF1
:1018B000870E33EC00F01FBA8CEF0CF0600EB961AC
:1018C0006AEF0CF02D0E76EC00F0B9516008276E2F
:1018D00079EF0CF0600EB96373EF0CF0600EB95D38
:1018E000276E79EF0CF02B0E76EC00F0600EB95DF0
:1018F000276E800E016E27503CEC00F02E0E76EC29
:1019000000F0300E76EC00F0030EF76E460EF66E29
:101910006EEC00F092EF0CF0030EF76E540EF66EC4
:101920006EEC00F0B7C027F01E0E2A6E5E0E296E18
:10193000800E016EC00E33EC00F0F2EC04F0800E6D
:10194000016E8F0E33EC00F0410E1FBC420E1FBE25
:10195000210E76EC00F0B3EC06F09A31E832D8A014
:10196000BAEF0CF0720EB961B7EF0CF0B92B1F9AF9
:101970007AEC06F0D8969AA5D886D8B6C8EF0CF0BF
:10198000B953D8B4C5EF0CF0B9071F9A7AEC06F03A
:10199000D8969AA7D886D8B6D5EF0CF01F7A2F0E16
:1019A000B46F750EB56F98EC06F01F96E86A9ABB97
:1019B000010E186EE86A9AB9010E1812010E1FB2D4
:1019C000E86A1812D8B472D71200424C2054696DDC
:1019D000656F7574202020202020800E016E33EC6E
:1019E00000F0BFC027F0150E2A6E180E296EF2EC1B
:1019F00004F0BAC027F0190E2A6ECA0E296EBAC0BA
:101A0000A5F0A46B800E016EC00E33EC00F0F2EC7A
:101A100004F0B3EC06F01FA60FEF0DF01F96D8965A
:101A20009AA7D886D8B617EF0DF075EC0DF0010E19
:101A30001FB2E86A186EE86A9AB7010E1812E86ACF
:101A40009ABB010E1812E86A9AB9010E1812D8B49E
:101A5000C4D71200EB2D36EF0DF0EF6B080EEE6FD2
:101A6000910EED6F3A0EEC6F54EF0DF0020EEB633A
:101A700043EF0DF0EF6B220EEE6F440EED6FEB0EA9
:101A8000EC6F54EF0DF0030EEB6350EF0DF0EF6BC6
:101A9000550EEE6FAC0EED6F440EEC6F54EF0DF083
:101AA000EF6BEE6BED6BEC6B12004F666620286EF1
:101AB0006F2074696D656F757429333020736563A9
:101AC0002020202020202020202032206D696E2020
:101AD0002020202020202020202035206D696E200D
:101AE00020202020202020202020BAC027F0190EFE
:101AF0002A6ECA0E296E800E016E33EC00F0F2ECF5
:101B000004F0030EA46F140EA36FCE0EA26FEBC0F1
:101B1000A5F056EC0AF01F96E86A9AB3010E186E0B
:101B2000E86A9AB5010E1812D8B49AEF0DF0A5C064
:101B3000EBF090DFE86A9AB7010E186E010E1FB243
:101B4000E86A1812D8B4E3D7A8EC04F01200536F77
:101B500075726365204348313A2020202020536F5E
:101B600075726365204348323A2020202020536F4D
:101B700075726365204348333A2020202020536F3C
:101B800075726365204348343A2020202020536F2B
:101B900075726365204348353A2020202020536F1A
:101BA00075726365204348363A2020202020555323
:101BB00042617564696F3A202020202020204C6506
:101BC0006674202020202020202020202020526900
:101BD00067687420202020202020202020204C2BEB
:101BE00052202020202020202020202020204C2D8A
:101BF000522020202020202020202020202043416F
:101C0000542F414553202020202020202020532FD6
:101C10005044494620202020202020202020800ED3
:101C2000016E33EC00F0BAC027F0190E2A6ECA0E0E
:101C3000296EF2EC04F0C0C027F01B0E2A6E4E0E87
:101C4000296E800E016EC00E33EC00F0F2EC04F051
:101C5000060EC0617AEF0EF0C053D8A437EF0EF035
:101C600000EEC1F0BA51EB50A56F6BEF0EF0C02D36
:101C700041EF0EF000EEC7F0BA51EB50A56F6BEFDD
:101C80000EF0020EC0634CEF0EF000EECDF0BA5134
:101C9000EB50A56F6BEF0EF0030EC06357EF0EF025
:101CA00000EED3F0BA51EB50A56F6BEF0EF0040EBF
:101CB000C06362EF0EF000EED9F0BA51EB50A56FA1
:101CC0006BEF0EF0050EC0636BEF0EF000EEDFF071
:101CD000BA51EB50A56F030EA46FA5C027F01B0EE1
:101CE0002A6EBE0E296E800E016ECB0E33EC00F014
:101CF0008CEF0EF000EEE5F0BA51EB50A56F010E3F
:101D0000A46FA5C027F01B0E2A6EFE0E296E800E52
:101D1000016EC90E33EC00F0F2EC04F0B3EC06F007
:101D20001FA698EF0EF01F961FA298EF0EF077D720
:101D30009A31E832D8A0A7EF0EF0A551A463A4EF22
:101D40000EF0A56BA5EF0EF0A52BE2EC0EF0D896E9
:101D50009AA5D886D8B6B8EF0EF0A553D8A4B5EF9B
:101D60000EF0A4C0A5F0B6EF0EF0A507E2EC0EF061
:101D7000D8969AABD886D8B6C6EF0EF0060EC063DA
:101D8000C5EF0EF0C06BC6EF0EF0C02BD8969AA927
:101D9000D886D8B6D5EF0EF0C053D8A4D4EF0EF045
:101DA000060EC06FD5EF0EF0C007E86A9AB7010EB5
:101DB000186E010E1FB2E86A1812D8B43CD7A8EC0E
:101DC00004F01200A8EC04F0060EC06129EF0FF039
:101DD000C053D8A4F3EF0EF000EEC1F0BA51A5C085
:101DE000EBFF27EF0FF0C02DFDEF0EF000EEC7F078
:101DF000BA51A5C0EBFF27EF0FF0020EC06308EF4A
:101E00000FF000EECDF0BA51A5C0EBFF27EF0FF0B9
:101E1000030EC06313EF0FF000EED3F0BA51A5C06C
:101E2000EBFF27EF0FF0040EC0631EEF0FF000EE84
:101E3000D9F0BA51A5C0EBFF27EF0FF0050EC06334
:101E400027EF0FF000EEDFF0BA51A5C0EBFF2EEF49
:101E50000FF000EEE5F0BA51A5C0EBFF120041759E
:101E6000746F204465746563742020202020532FF4
:101E70005044494620202020202020202020555357
:101E80004220417564696F20202020202020414598
:101E900053202020202020202020202020204F7090
:101EA000746963616C202020202020202020416E56
:101EB000616C6F6775652031202020202020416EE5
:101EC000616C6F6775652032202020202020416ED4
:101ED000616C6F6775652033202020202020416EC3
:101EE000616C6F6775652034202020202020800ED3
:101EF000016E33EC00F0BFC027F0150E2A6E180EED
:101F0000296EF2EC04F0B7C027F01E0E2A6E5E0EAA
:101F1000296EB7C0A5F0A153D8A493EF0FF0050E1A
:101F2000A46FA8EF0FF0A12D9AEF0FF0060EA46F8B
:101F3000A8EF0FF0020EA163A2EF0FF0070EA46F3F
:101F4000A8EF0FF0030EA163A8EF0FF0080EA46F27
:101F5000800E016EC00E33EC00F0F2EC04F0B3EC36
:101F600006F01FA6B9EF0FF01F961FA2B9EF0FF0F2
:101F7000BED79A31E832D8A0CEEF0FF0A551A463B6
:101F8000C5EF0FF0A56BC6EF0FF0A52BA8EC04F082
:101F9000A5C0B7F007EC04F06BEC06F0D8969AA554
:101FA000D886D8B6E5EF0FF0A553D8A4DCEF0FF034
:101FB000A4C0A5F0DDEF0FF0A507A8EC04F0A5C0C4
:101FC000B7F007EC04F06BEC06F0E86A9ABB010E80
:101FD000186EE86A9AB9010E1812010E1FB2E86A6B
:101FE0001812D8B490D71200FFFFFFFFFFFFFFFFCA
:101FF000FFFFFFFFFFFFFFFFFFFFFFFFFFFFFFFFF1
:10200000FFFFFFFFFFFFFFFFFFFFFFFFFFFFFFFFE0
:10201000FFFFFFFFFFFFFFFFFFFFFFFFFFFFFFFFD0
:10202000FFFFFFFFFFFFFFFFFFFFFFFFFFFFFFFFC0
:107800007FEF3DF00D6E030E02D00D6E040E076E7D
:107810000E500C5C02E10D500B5C040ED8B0010E52
:10782000D8B4020E0714D8A4010E1200800E016E07
:10783000FE0E00D9010EFED8750E0C6E300E41D131
:10784000016A018E166EFE0EF5D81650F3D0056A49
:10785000800E1B6E00D00F6A106A116A116A079AB7
:10786000EDD8D8A01200D30FD8B4078A2D0FC60FB9
:1078700003E20A0FF5E305D0F30FF2E2060FF0E39F
:107880000A0F0D6E040E0E6ED8900F36103611369C
:1078900012360E2EF9D70D500F1205060EE0CED877
:1078A000D8A01200C60F03E20A0F07E3EAD7F30FCE
:1078B00004E2060F02E30A0FE4D707AA0BD00F1E5B
:1078C000101E111E121E0F2AD8B4102AD8B4112A65
:1078D000D8B4122A0F50D8801200056A0F6E106AB1
:1078E00000960550D8B40086040E046E103805D8F2
:1078F000105003D80F3801D80F500F0BF60FD8B027
:10790000070F0A0F00D00B6E044E0096055003E0DF
:10791000045CD8B007D00B50D8A4009600B602D0B3
:10792000300F88D012000F6E0450D8B412000FC070
:10793000E9FF10C0EAFFEF50D8B412007BD80F4A1D
:10794000102A0406F1D7A66AA68E0900F55002E0B7
:1079500002D8FBD71200146E8A98899A9398929A4B
:10796000F00E9316145000B21ED03A0E0C6E980E04
:10797000A8D8330E136E2AD8130E0C6E880EA1D819
:1079800025D8640E9DD822D8640E9AD8220E136E84
:107990001DD8280E07D80C0E05D8060E03D8008275
:1079A000145001D00080136E00A00AD0899A0308F9
:1079B0000BE30AD8070E0C6ED00E83D8D8801200C5
:1079C0000080FE0811E0898A133A00A000908A889E
:1079D000F00E811613500F0B81128A98133A00B0E3
:1079E000F5D7320E6DD8D88014501200ABB2AB98D8
:1079F000AB8802C00BF006C00CF00D6A0E6A0000E6
:107A000000D000009EBA0ED0E8680D260E220B2290
:107A10000C22D8A012000D480E3CF1D7B70E0D6E07
:107A20000E6AEFD7AE50D88012009EA8FED7AD6E7A
:107A3000D880120001BE8FD701B4F7D71B52D6E011
:107A4000D8801BBEEE501200A96EA66AA680A85070
:107A5000A92A1200A86EA66AA684550EA76EAA0EC1
:107A6000A76EA682A6B2FED7A694A92A1200F56E2A
:107A70000C00F6281F0B09E1840EA66E550EA76EAA
:107A8000AA0EA76EA68200D0A694F64AF72A120084
:107A9000F66E940EA66E550EA76EAA0EA76EA6825F
:107AA0000000A69412000E6A0D6EFF0E0D260E2227
:107AB00000D0D8A01200030E0C6EE50E02D8F5D748
:107AC0000C6AFA0F0B6E000003E300D00B06FEE217
:107AD0000B060C06FBE200001200F34E02D0E65249
:107AE000FCD7E6CFEEFFE82EFCD71200426F6F7492
:107AF0006C6F61646572206D6F6465200000F86AC8
:107B0000006A050EAF6E200EAC6E900EAB6E0001DB
:107B1000DF0E926E3C0E936EBD0E946E7B6A7A6A97
:107B20007E6A7F6A0F0EC16E050EBDDF460E766F50
:107B3000570E776F5F0E786F550E796F700E7A6FF4
:107B4000640E7B6F939C8A9C8293DBD98231E832EE
:107B500015E2FF0E79DF1F6E1F2C06D0A968770E85
:107B600079DF20EF00F009D0020E1F6206D0FE0E72
:107B7000A96E010E6FDF20EF00F003D0A968000EA0
:107B800069DFAC8AAB88AB8E51DE94928B82800E1B
:107B9000016E56DE7A0EF76EEC0EF66ED4DE00EE57
:107BA00024F01F0EEE6AE82EFDD7F29E400E1D6EE9
:107BB0001E6A206A216A086A00EE76F00850EB50CF
:107BC000196E00EE7CF0085019C0EBFF082A08502F
:107BD0000608F2E145D900EE43F02E0EEE6AE82EDB
:107BE000FDD7F40E026E010E066E00DFE4E33A08E4
:107BF000FCE110EE43F0FADEDEE30D0802E1E66A96
:107C000004D0AE50E66E01E0F6D782911F6A060EF0
:107C10001F600BD000EE43F01F50EB50086E300E8B
:107C2000085C01E082811F2AF2E1823101E293D1F6
:107C3000226A236A1F6A140E1F601CD000EE71F0C6
:107C400010EE43F01F50020DF3CF19F0F4CF1AF0ED
:107C50001928F36E020E41DFEF6A00EE71F027EC97
:107C60003CF0196E10C01AF0195022261A50232227
:107C70001F2AE1E12250FF08196EFF0E23541A6EED
:107C8000010E1924226E000E1A20236E00EE71F0F0
:107C900010EE43F0290EF36E020E1FDFEF6A00EEC6
:107CA00071F027EC3CF0206E10C021F020502262D1
:107CB000D6D02166D4D000EE71F010EE43F0030E62
:107CC000F36E040E0ADFEF6A00EE71F027EC3CF071
:107CD0001D6E10C01EF03F0E1D14086E096A09507B
:107CE000081002E0000E01D0010E1C6E1DC00BF04A
:107CF0001EC00CF0770E0E6EC00E05EC3CF01C168C
:107D00001DC00BF01EC00CF00E6A400E02EC3CF0E1
:107D10001C1607E01E501D1004E01EC0F7FF1D508A
:107D2000B7DE1DC00BF01EC00CF0770E0E6EC00E3D
:107D300005EC3CF01C6E1DC00BF01EC00CF00E6A72
:107D4000400E02EC3CF01C162DE01F6A080E1F606E
:107D500029D000EE71F010EE43F01F50040DF3CF68
:107D600019F0F4CF1AF0090E1924F36E040EB5DEE3
:107D7000EF6A00EE71F027EC3CF0206E10C021F0AD
:107D80001F50020DF3CF19F0F4CF1AF019501D2433
:107D9000F66E1A501E20F76E215069DE205067DE05
:107DA0001F2AD4E13A0E41DE040E016E020E056E6A
:107DB00022506EEC3CF00D0E38DE0A0E36DE1D5001
:107DC000400A1E1024E1080E1F6E100E1F601CD00A
:107DD00000EE71F010EE43F01F50020DF3CF19F0DA
:107DE000F4CF1AF0090E1924F36E020E76DEEF6A54
:107DF00000EE71F027EC3CF0086E00EE24F01F500E
:107E000008C0EBFF1F2AE1E1A968000E23DE1D5028
:107E1000500A1E1024E11F6A100E1F601FD000EED2
:107E200071F010EE43F01F50020DF3CF19F0F4CFB4
:107E30001AF0090E1924F36E020E4FDEEF6A100ECF
:107E40001F24086E00EE71F027EC3CF00A6E00EE85
:107E500024F008500AC0EBFF1F2ADEE11BD8BBD676
:107E60000D0E15EC3DF00A0E15EC3DF00C0E15EC68
:107E70003DF03A0E15EC3DF0040E016E060E046E58
:107E8000106A7C0E93EC3CF00D0E15EC3DF00A0EE2
:107E900015EF3DF0F66AF76AFCDDF66AF76A000E48
:107EA00037EC3DF0EF0E37EC3DF0020EF66EF76A60
:107EB0003C0E37EC3DF0F00E37EC3DF0040EF66E64
:107EC000F76AFF0E37EC3DF0FF0E37EC3DF0060E83
:107ED000F66EF76AFF0E37EC3DF0FF0E37EC3DF023
:107EE000080E1F6E200E1F600BD01FC0F6FFF76A32
:107EF00000EE24F01F50EB5037EC3DF01F2AF2E16A
:107F000012001F6A0B0E1F6025D0010E82B0E86AB6
:107F10001C6E010E80B4E86A1C16E86A80B2010E7D
:107F20001C1613E0010E0E6EF40E54EC3DF0010E23
:107F300082B0E86A1C6E010E80B4E86A1C16E86A1A
:107F400080B2010E1C1601E082830A0E53EC3DF054
:107F50001F2AD8E112009EDF94928B92A968010E2D
:107F60002AEC3DF0010E0E6E2C0E54EC3DF0FF009D
:107F7000FFFFFFFFFFFFFFFFFFFFFFFFFFFFFFFF11
:107F8000FFFFFFFFFFFFFFFFFFFFFFFFFFFFFFFF01
:107F9000FFFFFFFFFFFFFFFFFFFFFFFFFFFFFFFFF1
:107FA000FFFFFFFFFFFFFFFFFFFFFFFFFFFFFFFFE1
:107FB000FFFFFFFFFFFFFFFFFFFFFFFFFFFFFFFFD1
:107FC000FFFFFFFFFFFFFFFFFFFFFFFFFFFFFFFFC1
:107FD000FFFFFFFFFFFFFFFFFFFFFFFFFFFFFFFFB1
:107FE000FFFFFFFFFFFFFFFFFFFFFFFFFFFFFFFFA1
:107FF000FFFFFFFFFFFFFFFFFFFFFFFFFFFFFFFF91
:020000040020DA
:08000000FFFFFFFFFFFFFFFF00
:020000040030CA
:0E000000FF011F00FF0080FFFFFFFFFFFFFF5B
:0200000400F00A
:1000000000000000000000000000000000000000F0
:1000100000000000000101010101010101010101D5
:1000200001010101010101000000000000000000C9
:10003000000000FFFFFFFFFFFFFFFFFFFFFFFFFFCD
:10004000FFFFFFFFFFFFFFFFFFFFFFFFFFFFFFFFC0
:10005000FFFFFFFFFFFFFFFFFFFFFFFFFFFFFFFFB0
:10006000FFFFFFFFFFFFFFFFFFFFFFFFFFFFFFFFA0
:1000700001073101FFFFFFFFFFFFFFFFFFFFFFFF52
:10008000FFFFFFFFFFFFFFFFFFFFFFFFFFFFFFFF80
:10009000FFFFFFFFFFFFFFFFFFFFFFFFFFFFFFFF70
:1000A000FFFFFFFFFFFFFFFFFFFFFFFFFFFFFFFF60
:1000B000FFFFFFFFFFFFFFFFFFFFFFFFFFFFFFFF50
:1000C000FFFFFFFFFFFFFFFFFFFFFFFFFFFFFFFF40
:1000D000FFFFFFFFFFFFFFFFFFFFFFFFFFFFFFFF30
:1000E000FFFFFFFFFFFFFFFFFFFFFFFFFFFFFFFF20
:1000F000FFFFFFFFFFFFFFFFFFFFFFFFFFFFFF020D
:00000001FF
