:020000040000FA
:101000000AEF08F0FFFFFFFFD9CF01F0DACF02F0BF
:1010100081ED1DF099EF1EF000303132333435365A
:10102000373839414243444546A6729A090229009D
:1010300001010080320904000002030000000921C0
:1010400011010001221D0007058103400001070571
:1010500001034000010600FF0901A1011901294017
:10106000150026FF0075089540810019012940915F
:1010700000C0160348007900700065007800200069
:1010800042005600000000001201000200000008AB
:10109000D80489FF0100010200010C0344004C0048
:1010A000430050000000040309040000E8CF57F09B
:1010B00021EEEDF010EE4DF0070EDECFE6FFE82E4C
:1010C000FCD75750420A01E142D20001CB6B3FD21C
:1010D0001BC197F000019751090A14E1020E586EE6
:1010E00065DADF500AE062DABE0E5824E16EE26A89
:1010F000020EE222DFCFE7FF01D05FDA582A1F0E8F
:101100005864EED7000197510A0A07E1020E586EA3
:1011100054DA582A1F0E5864FBD7030E0001C16F22
:101120001BC1C2F0BD8B72EC24F0B6EC24F08DEC48
:1011300011F039D201011B0518E11CC1B7F00ED026
:10114000040EC16F010EC26FF0D71DC1B8F0040EBE
:10115000C16F010EC26F7F819489E7D70001B7513B
:10116000010AEEE0030AF1E01ED21B51020A01E07F
:101170001AD21EC1B5F0040E0001C16F020EC26F7B
:10118000B551060A1DE1050E586E10DADF500AE06F
:101190000DDAFB0E5824E16EE26A000EE222DFCF88
:1011A000E7FF07D0FB0E5824D96EDA6A000EDA2268
:1011B000DF68582A130E5864E8D70001BD89B3D7F9
:1011C000B551050AB2E0B551070AAFE0ECD11BC139
:1011D00099F01FC171F020C170F021C16FF022C1E0
:1011E0006EF0010123B102D05E9801D05E8801014A
:1011F00024B103D00001A49102D00001A481010117
:1012000025B103D00001A49302D00001A483010101
:1012100026B103D00001A49502D00001A4850101EC
:1012200028B103D00001A49702D00001A4870101D6
:1012300029B103D00001A49902D00001A4890101C1
:101240002AB103D00001A49B02D00001A48B2CC1C1
:1012500060F02DC161F02EC162F02FC163F030C18A
:1012600064F031C165F032C15FF033C19BF034C12D
:101270009CF035C19DF036C19EF038C1B4F0B35139
:101280009919D8A494816951711908E168517019AC
:1012900005E167516F1902E166516E1902E07E8720
:1012A0009483AC519B1902E07E87BD87AD519C1998
:1012B00002E07E87BD87AE519D1902E07E87BD8723
:1012C000AF519E1902E07E87BD87010E5EA8000E19
:1012D0004C6E010E5EAA000E4C1A02E07E8B9487C3
:1012E000B051A419D8A47E8DB451B119D8A47F836C
:1012F0006051A56317D0A65120EE61F0DF6212D0D5
:10130000A75120EE62F0DF620DD0A85120EE63F00D
:10131000DF6208D0A95120EE64F0DF6203D065518E
:10132000AA19D8A47E8999C0B3F06EC066F06FC0C8
:1013300067F070C068F071C069F05EA802D05E8A84
:1013400001D05E9AA4C0B0F060C0A5F061C0A6F064
:1013500062C0A7F063C0A8F064C0A9F065C0AAF09D
:10136000B4C0B1F09BC0ACF09CC0ADF09DC0AEF07D
:101370009EC0AFF0050E06D001011B0506E1C0ECD2
:1013800024F0060E0001C16FD2D61B51020A01E003
:101390000AD1C0EC24F0EED701011B510F0AD8B4DA
:1013A0005E8E5750070A07E101010001C56B560E1A
:1013B000836F000E826BAB985E800001986BC76BE9
:1013C000C66BC1EC15F057C0C1F0B1D6A00E00013C
:1013D0006E6F6F6970697169010E996F030E5F6EB0
:1013E000606B616B626B010E636F646F656FB46FEE
:1013F000040EB86F9B6B9C6B9D6B9E6B586AC00E06
:101400005824D96EDA6A020EDA22DF68582A1D0ED5
:101410005864F5D7586A000E5824D96EDA6A010E5E
:10142000DA22DF68582A0E0E5864F5D70001BD8114
:10143000BD8BBD89BD83BD85BD877E8127EC13F043
:10144000086A0768000E096A89EC23F089EC24F029
:10145000AAD00001CB6750D07C6B7D6B806B816B19
:10146000866B876B846B856B0101010E046EC70E62
:10147000036E0A0E056EB7EC23F00101010E046E37
:101480009A0E036E2D0E056EB7EC23F00101010ECE
:10149000046ED10E036E080E056EB7EC23F03FEC20
:1014A00024F0050E066EDC0E056E0101010E086EBD
:1014B000D10E076E080E096E44EC1DF04C6E050E41
:1014C0004C5C19E3010ECB6F586A58504D0FD96E22
:1014D000DA6ADF504C6ED10E5824D96EDA6A010EEA
:1014E000DA22DF504C1802E00001CB6B582A050EBF
:1014F0005864EBD701D0CB6B0001CB5101E163D72E
:10150000E5EC0AF060D71EC156F01FC155F057C078
:10151000C1F08DEC11F07D51561802E17C51551847
:1015200006E152EC23F0AA0E01015C6F3CD0110ED3
:1015300001015B6F0001846B856B806B816B866B37
:10154000876B7C6B7D6B2FD001011A6B2CD05750B1
:10155000010A29E0030A27E0010A01E1B9D5070AD7
:1015600001E1E8D5010A01E132D6030A01E104D71D
:10157000010A01E116D70F0A01E113D7010A01E1BF
:1015800010D7030A01E10DD7010A01E10AD7070AC2
:1015900001E102D74C0A01E119D7010AB4E0030ABC
:1015A00001E157D7D1D701011A6B12001A0E582446
:1015B000D96EDA6A010EDA221200BE0E5824D96EF4
:1015C000DA6A020EDA22DF68120021EEE5F010EE90
:1015D0001DF0080EDECFE6FFE82EFCD7020E496EA6
:1015E0001A0E4924D96EDA6A010EDA22DF504A6EE9
:1015F000C00E0001845D770E85591AE24AC045F09D
:10160000486A7DAB03D0010E446E01D0446AD89085
:101610007C377D3745B07C81D8904532445004E01A
:10162000020E7C1B440E7D1B482A070E4864E9D736
:10163000400E845D000E855901E248D1C00E845DE4
:10164000770E855901E342D10F0E84158A6F8B6B9B
:101650008B1101E0EAD08751861101E19DD08651BE
:101660008027000E812387518027000E8123801D53
:101670001B6E811D1C6EF10E1B24806FFF0E1C2043
:10168000816F8051F1EC21F00D0E5EEC24F00A0E1A
:101690005EEC24F080C01BF01B3A0F0E1B161B16CD
:1016A0001B50190FF66E100EF76E9A0E4B24D96E62
:1016B000DA6A010EDA220800F5CFDFFF80C01BF0E6
:1016C0000F0E1B161B50190FF66E100EF76E9B0EA9
:1016D0004B24D96EDA6A010EDA220800F5CFDFFF5B
:1016E0009C0E4B24D96EDA6A010EDA22DF6A020EF2
:1016F0004B2600019F6B066A0A0E056E0101010E62
:10170000086EC70E076E0A0E096E44EC1DF0C8C1C4
:1017100003F00101C751CEEC1FF00001801903E175
:10172000010E436E36D0436A196A1D0E186E64ECC2
:1017300023F000019FC012F0136A156A0A0E146E9E
:10174000250EFAEC20F01B6E196A1BC018F064EC31
:1017500023F0210E5EEC24F048EC24F00D0E5EEC3C
:1017600024F00A0E5EEC24F0190E00019F5D0FE2DA
:101770009F2B0101010E196E9A0E186E64EC23F076
:101780000D0E5EEC24F00A0E5EEC24F002D09F2BCE
:10179000A3D0435002E1AFD78E6BBF0E0001845D32
:1017A000770E855942E2040E8E5D06E28E2B046AA6
:1017B0000A0E036E5FEC22F084C086F085C087F0CD
:1017C0003A0E01019A6F310E9B6F300E9C6F87C0ED
:1017D0001BF01B3A0F0E1B1680D8F5CF9DF187C06A
:1017E0001BF00F0E7AD8F5CF9EF186C01BF01B3A86
:1017F0000F0E1B1672D8F5CF9FF186C01BF00F0E8F
:101800006CD8F5CFA0F1300EA16FA26FA36B090EBB
:101810004B6E48EC24F00101010E196E9A0E186E01
:1018200064EC23F00001806B816BBF0E845D770E4A
:1018300085594AE284A140D046C01BF01B3A0F0EE6
:101840001B164BD8F5CF2FF046C01BF00F0E45D816
:10185000F5CF30F04AC01BF01B3A0F0E1B163DD8D7
:10186000F5CF31F04AC01BF00F0E37D8F5CF32F06C
:10187000336A196A2F0E186E64EC23F0476A0ED093
:1018800047502F0FD96EDA6A9A0E4B24E16EE26A46
:10189000010EE222DFCFE7FF472A4B2A47502F0FE6
:1018A000D96EDA6ADF50ECE19A0E4B24D96EDA6A0F
:1018B000010EDA22DF6A02D04AC046F04A50000127
:1018C0008027000E812302D0806B816B844B852B97
:1018D000492A1F0E496484D612001B161B50190F8B
:1018E000F66E100EF76E08001200E8CFFDF05EA64F
:1018F00076D17EA357D07E8739D0090E066E0D0EA5
:1019000076EC23F0700E066E080E76EC23F090EC69
:1019100024F03CD00A0E066E0D0E76EC23F0B00ECD
:10192000066E080E76EC23F090EC24F02FD0080E13
:10193000066E0D0E76EC23F0300E066E080E76EC79
:1019400023F090EC24F022D00B0E066E0D0E76ECF8
:1019500023F0F00E066E080E76EC23F090EC24F0E7
:1019600015D0ACEC22F0C9EC24F010D09351F9E082
:10197000010AC3E0030ACEE0010AD9E0070AE4E065
:10198000010AEFE0030AEDE0010AEBE0050E0001B9
:10199000C16FFD51D8A4F2EC22F000017E93BD810D
:1019A00072EC24F000017EA763D05E987E9B7E8D52
:1019B000A46BA4C0B0F09A6B0CD09BC09AF011D06D
:1019C0009CC09AF00ED09DC09AF00BD09EC09AF0A9
:1019D00008D09351F2E0050AF3E0030AF4E0010AAB
:1019E000F5E09A516E250D6E000E6F210E6E000E01
:1019F00070210F6E000E7121106E0FEC1FF00DC0E4
:101A000012F00EC013F00FC014F010C015F0470E06
:101A1000166EC90E176EEB0E186E3D0E196E43EC66
:101A200015F012C0EDF013C0EEF014C0EFF015C0C9
:101A3000F0F0EDC02FF0EEC030F0EFC031F0F0C0AC
:101A400032F0A4EC14F02FC055F030C056F031C085
:101A500057F032C058F039EC25F0050E0001C16F87
:101A6000FD51D8A4F2EC22F00001BD8172EC24F00B
:101A70005EAE11D0000E556A566A576A586A92ECEB
:101A800022F0DBEC22F0CCEC24F05E9E00017EAB79
:101A90005EB801D07E8700017EAB14D05EA808D06E
:101AA000000E556A566A576A586A92EC22F001D0C5
:101AB0007E87050E0001C16FFD51D8A4F2EC22F023
:101AC00000017E9B7EAD6ED0A4B104D05F0EF26F9C
:101AD0001C0E03D05F0EF26F080EF16FF1C013F011
:101AE000F2C014F000EC1CF00001A4B304D05F0EAF
:101AF000F46F440E03D05F0EF46F300EF36FF3C03B
:101B000013F0F4C014F000EC1CF00001A4B504D0F4
:101B10005F0EF66F6C0E03D05F0EF66F580EF56F0A
:101B2000F5C013F0F6C014F000EC1CF00001A4B7EF
:101B300004D05F0EF86F940E03D05F0EF86F800E26
:101B4000F76FF7C013F0F8C014F000EC1CF00001C0
:101B5000A4B904D05F0EFA6FBC0E03D05F0EFA6F0B
:101B6000A80EF96FF9C013F0FAC014F000EC1CF0E5
:101B70000001A4BB04D05F0EFC6FE40E03D05F0E27
:101B8000FC6FD00EFB6FFBC013F0FCC014F000EC38
:101B90001CF0050E0001C16FFD51D8A4F2EC22F03B
:101BA00000017E9D7EA90DD079EC10F000017E9998
:101BB000BD83050EC16FFD51D8A4F2EC22F072EC8A
:101BC00024F000017FA104D07F91BD8572EC24F048
:101BD00000017FA304D07F93BD8572EC24F0120036
:101BE000096A43D151EC24F0000901E140D11EEC17
:101BF00023F00A6E7F0E0A6421D00A50B00A04E175
:101C0000010E986F5E9014D00A50B10A04E1010EE3
:101C1000986F5E800DD0986B5E900AC005F0F00E54
:101C200005160550B00A04E10A50BF0AD8A40A06F6
:101C30005EB01FD10A505EEC24F01BD15EB006D01E
:101C4000020E985D03E20A505EEC24F00001985108
:101C5000D8A4982B020E985D01E20BD19851020A8C
:101C600003E10AC0A2F005D10AC0A3F00AC0BCF08B
:101C70005E8C010E986FD0D0010E5EB6000E056E20
:101C8000054605467E510518FB0B05187E6F7EB58F
:101C90005E86E5D05EA602D07E8502D000017E95EC
:101CA0007EB55E96DCD094B713D05E88010E5EA838
:101CB000000E056E5EAA02D0010E01D0000E051ABC
:101CC000D8A47E8B5EA802D05E8A01D05E9AC7D06F
:101CD000020E5EA8030EBC6F9497C1D094B7F8D7DC
:101CE0005E98010E5EA8000E056E5EAAE7D7010E93
:101CF000051AE7E1E7D7A351CDE0010ABDE0030AE9
:101D0000D2E0010AEBE0ABD0BDEC1DF0A8D094B15D
:101D100005D0A3C099F099C0B3F0A1D099C0BCF090
:101D200094919DD094B321D0A00E056E0668A35166
:101D3000076E086A055007260650082207C06EF095
:101D400008C06FF0000E6FBFFF0E706F716F6919E2
:101D500008E16851701905E167516F1902E1665198
:101D60006E1901E17CD07E877AD06E51600FBC6F16
:101D7000949375D0A351290A72E116EC24F06FD028
:101D8000A3C060F0A55160196AE07E8960C0A5F02B
:101D900066D0A3C061F06151A619D8A47E8961C044
:101DA000A6F05DD0A3C062F06251A719D8A47E89C5
:101DB00062C0A7F054D0A3C063F06351A819D8A49F
:101DC0007E8963C0A8F04BD0A3C064F06451A91908
:101DD000D8A47E8964C0A9F042D0A3C065F0655143
:101DE000AA19D8A47E8965C0AAF039D094B907D0C1
:101DF000B851A31934E0A3C0B8F07F8130D0B8C087
:101E0000BCF094992CD0A3C0C3F0B251C319D8A48C
:101E1000BD81C3C0B2F023D0A251030A01E16BD748
:101E2000070A01E171D7020A01E171D7010A01E154
:101E300079D7170A9FE0070AA3E00F0AAAE0010A70
:101E4000B1E0030AB8E0010ABFE0070AC6E0010AF0
:101E5000CDE0030AD8E03E0AD8B465EF25F05EACC9
:101E600008D00001BC515EEC24F05E9C02D0010E53
:101E7000096E0950D8A41200B5D6000E046A036A90
:101E800055EC24F00001716F046A010E036E55ECED
:101E900024F00001706F046A020E036E55EC24F00A
:101EA00000016F6F046A030E036E55EC24F000010D
:101EB0006E6F046A040E036E55EC24F00001996FF6
:101EC000046A070E036E55EC24F00001606F046A8B
:101ED000080E036E55EC24F00001616F046A090ED0
:101EE000036E55EC24F00001626F046A0A0E036E63
:101EF00055EC24F00001636F046A0B0E036E55EC81
:101F000024F00001646F046A0C0E036E55EC24F09B
:101F10000001656F046A0D0E036E55EC24F05F6ED0
:101F2000046A140E036E55EC24F00001C36F715166
:101F3000800A800F08E1000E705D05E1000E6F5D04
:101F400002E1130E6E5D05E3A00E6E6F6F6970699E
:101F50007169080E996502D0010E996F030E6065D4
:101F600001D0606B20EE61F0030EDF6401D0616B85
:101F700020EE62F0030EDF6401D0626B20EE63F0AE
:101F8000030EDF6402D0010E636F20EE64F0030ED7
:101F9000DF6402D0010E646F20EE65F0030EDF6493
:101FA00002D0010E646F030E5F6401D05F6E040EF9
:101FB000C36502D0010EC36F6EC066F06FC067F0DC
:101FC00070C068F071C069F099C0B3F060C0A5F04E
:101FD00061C0A6F062C0A7F063C0A8F064C0A9F019
:101FE00065C0AAF0C3C0B2F0046A0F0E036E55ECD0
:101FF00024F00001B46FB429D8B4B491B4C0B1F0E6
:10200000046A0E0E036E55EC24F00001B86F030E47
:10201000B85D02E2030EB86F040EB86502D0030E7D
:10202000B86F046A100E036E55EC24F000019B6F2C
:10203000046A110E036E55EC24F000019C6F046AD3
:10204000120E036E55EC24F000019D6F046A130E0E
:10205000036E55EC24F000019E6F120E9B6501D0BB
:102060009B6B120E9C6501D09C6B120E9D6501D07E
:102070009D6B120E9E6501D09E6B9BC0ACF09CC008
:10208000ADF09DC0AEF09EC0AFF0500E0A6E0101E3
:10209000B00E0A24D96EDA6A000EDA220AC003F002
:1020A000046A55EC24F0DF6E0A2A5E0E0A64EFD74C
:1020B000600E0A6E0201600E0A24D96EDA6A020E00
:1020C000DA220AC003F0046A55EC24F0DF6E0A2A13
:1020D0007D0E0A64EFD7086A800E076E020E096E45
:1020E00089EC23F0086A810E076E030E096E89EFF2
:1020F00023F0046AD70E036E040E056EB7EC23F0CE
:10210000046A0001DB0E036E040E056EB7EC23F0CB
:10211000046A0001DF0E036E040E056EB7EC23F0B7
:102120000101010E046ED90E036E040E056EB7ECAC
:1021300023F0046A0001E30E036E040E056EB7EC93
:1021400023F00101010E046EDD0E036E040E056E18
:10215000B7EC23F00101010E046EE10E036E040ED4
:10216000056EB7EC23F07AEC24F0596A595000015F
:10217000600FD96EDA6ADF5044EC22F01ED0A0C0A6
:10218000D7F0B9C0D8F025D0A0C0DBF0B9C0DCF0E2
:1021900020D0A0C0DFF0B9C0E0F01BD0A0C0D9F1C2
:1021A000B9C0DAF116D0A0C0E4F0B9C0E5F011D0A2
:1021B000A0C0E0F1B9C0E1F10CD05950E0E0010A53
:1021C000E3E0030AE6E0010AE9E0070AECE0010ABD
:1021D000EFE0592A050E5964C9D75A6A3FD0D7C0D3
:1021E0006AF0D8C06BF0D9C06CF0DAC06DF044D0A2
:1021F000DBC06AF0DCC06BF0DDC06CF0DEC06DF0FF
:102200003BD0DFC06AF0E0C06BF0E1C06CF0E2C030
:102210006DF032D0D9C16AF0DAC16BF0DBC16CF07D
:10222000DCC16DF029D0E3C06AF0E4C06BF0E5C01A
:102230006CF0E6C06DF020D0DDC16AF0DEC16BF05D
:10224000DFC16CF0E0C16DF017D0E1C16AF0E2C10E
:102250006BF0E3C16CF0E4C16DF00ED05A50BFE0FA
:10226000010AC6E0030ACDE0010AD4E0070ADBE078
:10227000010AE2E0030AE9E0C580C5B0FED7680EB6
:102280003EEC1FF001010F0E5A24D96EDA6A010EDE
:10229000DA22DF503EEC1FF05B6A5B5000016A0FF0
:1022A000D96EDA6A020EDF6205D0556A566A576A3D
:1022B0003F0E0CD05B506A0FD96EDA6A030EDF62F4
:1022C00007D0556A566A800E576EBF0E586E0FD0F3
:1022D0005B506A0FD96EDA6ADF5008EC23F00DC04C
:1022E00055F00EC056F00FC057F010C058F055C052
:1022F00049F056C04AF057C04BF058C04CF0C5ECFE
:102300001CF05B2A030E5B64C8D7C584C5B4FED736
:102310005A2A060E5A64A2D7060CC1C05AF1A2D09E
:10232000C2C05BF1020E036EBE0E0324D96EDA6AE0
:10233000020EB5D81F0E0364F7D7AED0C2C05BF152
:10234000C20505E1B7C05CF1B8C05DF1A5D0C251CE
:10235000020A01E0A1D0B5C05EF1050E036EFB0ECE
:102360000324D96EDA6A000E9AD8130E0364F7D7E5
:1023700093D093C05BF199C05CF101015D6B5E6B22
:1023800071C05FF170C060F16FC061F16EC062F149
:10239000000E5EB8010E636F000E0001A4B1010EC5
:1023A0000101646F000E0001A4B3010E0101656F0D
:1023B000000E0001A4B5010E0101666F000E0001C0
:1023C000A4B7010E0101686F000E0001A4B9010E4F
:1023D0000101696F000E0001A4BB010E01016A6FCB
:1023E00060C06CF161C06DF162C06EF163C06FF1ED
:1023F00064C070F165C071F1B4C078F14DD0030EC6
:1024000001015B6F030E5C6F010E5D6F99C05EF1A1
:102410005F6B606B616B5FC063F1060E646F0F0EE4
:10242000656F666F676F686F696F6A6F0A0E6B6FB3
:102430006C6F6D6F6E6F6F6F706F010E716F726F7B
:102440009BC073F19CC074F19DC075F19EC076F184
:1024500023D01BC15BF120D001015B6B5C6B5D6B1A
:102460005E6B1AD00001C151030A01E159D7070A76
:1024700001E164D7010A01E17CD7030AC0E0010A47
:10248000E8E00F0AE6E0010AE4E0030AE2E0010AFC
:10249000E0E0070ADEE0E0D70001C16B1200DA22BB
:1024A0005A0E0324E16EE26A010EE222DFCFE7FF5B
:1024B000032A120020C028F021C029F022C02AF0EF
:1024C00023C02BF0180E01D0BCD8E82EFDD7285021
:1024D0002E6E24C028F025C029F026C02AF027C07F
:1024E0002BF0180E01D0ADD8E82EFDD728502D6E58
:1024F0002E5009E02D502E5C0FE22E502D5C286EE0
:10250000210E285C09E324C020F025C021F026C05C
:1025100022F027C023F08BD02D5009E02E502D5CE7
:102520000FE22D502E5C286E210E285C09E320C09E
:1025300020F021C021F022C022F023C023F077D068
:10254000060E2C6E23BE2C8E27BE2C8C228E236A68
:10255000268E276A2D502E5C1AE2D8902436253616
:10256000263627362D062D502E180DE02C062CC0B1
:1025700028F0070E281607E0F0D7D8902332223231
:10258000213220322E2A2D502E62F7D71CD02E5009
:102590002D5C19E2D89020362136223623362E06BD
:1025A0002D502E180DE02C062CC028F0070E2816F2
:1025B00007E0F0D7D89027322632253224322D2A50
:1025C0002D502E62F7D72CAE09D0201E211E221EC0
:1025D000231E202A000E2122222223222CAC02D0EC
:1025E000241E26D82C6A2050242621502522225031
:1025F00026222350272227AE04D0241E19D8010EEC
:102600002C6E24C003F025C004F026C005F027C0BE
:1026100006F02EC007F02CC008F05EEC18F003C0E6
:1026200020F004C021F005C022F006C023F0120003
:10263000251E261E271E242A000E2522262227229A
:10264000000CD8902B322A32293228321200000195
:102650007EA1B2D0BDA133D0086A030E076E6EC052
:1026600009F089EC23F0086A020E076E6FC009F0CA
:1026700089EC23F0086A010E076E70C009F089EC3E
:1026800023F0000E086A076A71C009F089EC23F094
:10269000086A040E076E99C009F089EC23F0086AF5
:1026A0000D0E076E5FC009F089EC23F0086A140E66
:1026B000076EC3C009F089EC23F00001BD91BDA3F2
:1026C0002CD0086A070E076E60C009F089EC23F071
:1026D000086A080E076E61C009F089EC23F0086AE9
:1026E000090E076E62C009F089EC23F0086A0A0E31
:1026F000076E63C009F089EC23F0086A0B0E076EC1
:1027000064C009F089EC23F0086A0C0E076E65C0FE
:1027100009F089EC23F00001BD93BDA510D0086A33
:102720000F0E076EB4C009F089EC23F0086A0E0E94
:10273000076EB8C009F089EC23F00001BD95BDA774
:102740001ED0086A100E076E9BC009F089EC23F0BA
:10275000086A110E076E9CC009F089EC23F0086A24
:10276000120E076E9DC009F089EC23F0086A130E63
:10277000076E9EC009F089EC23F00001BD97BDA94A
:1027800016D0500E0A6E0AC007F0086A0101B00E9A
:102790000A24D96EDA6A000EDA22DF50096E89EC5B
:1027A00023F00A2A5E0E0A64EED70001BD99BDAB84
:1027B00002D069EC25F07E9112005EA6C4D0640EB2
:1027C0000001BB65BFD0BB6B55D0B651080FBE6FC3
:1027D00063D0936B61D0010E936F5F505DE0050E87
:1027E00047D0020E936F5F0402E1010E936F010E5A
:1027F0005F6452D0060E3CD0030E936F5F0402E17B
:10280000020E936F5F50020A02E1010E936F5F5058
:10281000030A42E1070E2CD0040E936F5F0402E11D
:10282000030E936F5F50020A02E1020E936F5F5036
:10283000030A32E1010E1CD05F0402E1040E936F23
:102840005F50020A02E1030E936F5F50030A24E116
:10285000020E0ED05F50020A02E1040E936F5F5029
:10286000030A1AE1030E04D05F50030A15E1040EB7
:10287000936F12D09951A9E0010AABE0030AABE0D3
:10288000010AAFE0070AB8E0010AC6E0030AD4E093
:10289000010AE0E00F0AE8E0996718D0BEC006F030
:1028A0000D0E76EC23F0130E3DEC21F00001BE6F0F
:1028B000BE6710D0936B0A0EBA650AD0BA6B040ECD
:1028C000B65DD8A0B62BB651040A2DE1B66B2BD05D
:1028D000BA2B29D0B66702D0030E936FB60502E17A
:1028E000010E936FB651020A02E1020E936FB651C8
:1028F000030A02E1040E936F120E3DEC21F0000179
:10290000BF6FBF51D8A45E88010E5EA8000E086E8E
:10291000010E5EAA000E081AD8A47E8B5EA802D013
:102920005E8A01D05E9A00019351020AD8B482B047
:1029300002D0C3C093F0AB519319D8A47E8393C047
:10294000ABF001D0BB2B1200116A126A800E136E1D
:10295000440E146E2FC00DF030C00EF031C00FF0D9
:1029600032C010F039EC16F00DC020F00EC021F08E
:102970000FC022F010C023F0246A256A800E266E54
:102980003F0E276E5AEC12F020C02FF021C030F01D
:1029900022C031F023C032F02FC025F030C026F025
:1029A00031C027F032C028F02F0E74EC1FF02FC07A
:1029B00025F030C026F031C027F032C028F02F0EAD
:1029C00074EC1FF02FC025F030C026F031C027F086
:1029D00032C028F02F0E74EC1FF02FC025F030C04D
:1029E00026F031C027F032C028F02F0E74EC1FF013
:1029F0002FC025F030C026F031C027F032C028F0BB
:102A00002F0E74EC1FF02FC025F030C026F031C01F
:102A100027F032C028F02F0E74EC1FF02FC025F0E5
:102A200030C026F031C027F032C028F02F0E74ECF1
:102A30001FF02FC025F030C026F031C027F032C083
:102A400028F02F0E74EC1FF02FC025F030C026F0B8
:102A500031C027F032C028F02F0E74EC1FF02FC0C9
:102A600025F030C026F031C027F032C028F02F0EFC
:102A700074EC1FF02FC02FF030C030F031C031F0B7
:102A800032C032F0120012C01AF013C01BF014C092
:102A90001CF015C01DF0180E01D06DD8E82EFDD722
:102AA0001A501E6E1E6601D011D016C01AF017C043
:102AB0001BF018C01CF019C01DF0180E01D05BD817
:102AC000E82EFDD71A50246E246605D0126A136AC8
:102AD000146A156A40D024507B0F1E2615C024F0BE
:102AE0001950241A800E2416148E188E196A1F6A23
:102AF000206A216A226A070E236E12A002D01650A5
:102B00002BD832D81636173618361936232EF5D765
:102B1000110E236E12A002D016501ED825D82232D4
:102B2000213220321F32232EF5D71FC003F020C0E0
:102B300004F021C005F022C006F01EC007F024C03A
:102B400008F05EEC18F003C012F004C013F005C0EA
:102B500014F006C015F012001F261750202218503E
:102B60002122195022221200D89015321432133229
:102B70001232D8901200D8901D321C321B321A32F9
:102B80001200C56710D082C003F083C004F0056A4C
:102B9000066A086AC00E076E0301030E0A6E000E75
:102BA000096E26EC20F001011B5104E01D6A020EA3
:102BB0001C6E02D01C6A1D6A1CC01EF0040E1F6E23
:102BC0001A0E186E010E196E1F501826000E1922CB
:102BD0001E50185CD96E1950D8A01904DA6E000E78
:102BE0001A6E030E1B6E0001C5511A26000E1B2221
:102BF0001F501A24E16E000E1B20E26EDFCFE7FFAC
:102C00001F2A170E1F64DCD7180EC527BF0EC56517
:102C10002FD0C56B3F0E825D5F0E835929E282C0C3
:102C200003F083C004F0056A066ABF0E8225186EA1
:102C3000000E8321196E18C007F019C008F0096A48
:102C40000A6AC8EC1EF082C003F083C004F0056A73
:102C5000066A086AC00E076E0301030E0A6E000EB4
:102C6000096E1CEC17F0C00E00018227000E8323B2
:102C700012000DC015F00EC016F00FC017F010C0F6
:102C800018F0180E01D061D8E82EFDD715501E6E31
:102C90001E6601D011D011C015F012C016F013C07D
:102CA00017F014C018F0180E01D04FD8E82EFDD739
:102CB00015501F6E1F6605D00D6A0E6A0F6A106AE6
:102CC00043D01F50890F1E5E10C01FF014501F1AF2
:102CD000800E1F160F8E106A138E146A200E1D6E42
:102CE000D89019361A361B361C3611500D5C12500E
:102CF0000E5813500F581450105809E311500D5E20
:102D000012500E5A13500F5A1450105A1980D8905E
:102D10000D360E360F3610361D2EE2D719C003F0D1
:102D20001AC004F01BC005F01CC006F01EC007F05E
:102D30001FC008F05EEC18F003C00DF004C00EF0E8
:102D400005C00FF006C010F01200D89018321732EC
:102D5000163215321200F29E8A940001886B896B3C
:102D6000C282046A0A0E036E5FEC22F0C2B20BD07C
:102D7000C4505D6E5C6AC3505C240001886F000E15
:102D80005D20896FC282360E0001885D020E89596E
:102D9000E8E3046A460E036E5FEC22F0B06A7F0E31
:102DA000AF6ED3928A98899C8A96D0EC24F0938255
:102DB0009380046A640E036E5FEC22F08A88050E2D
:102DC000046EDC0E036E5FEC22F093829380046A43
:102DD000010E036E5FEC22F0800E036E080EF1EC24
:102DE00023F0898C000E556A566A576A586A92EC2D
:102DF00022F0DBEC22F08A86C0EC24F06CEC19F0B7
:102E0000C0EC24F000017E837E877E897F817F83F2
:102E1000000E75EC0CF0010E066E1B0E76EC23F026
:102E2000F29AD59EA40ED76E710ED66E0001A16BDC
:102E30009495F28EABEF24F05EA40BD006500510F3
:102E400008E1560E045C05E3600E045C02E20A0E23
:102E5000045E106A03C014F004C015F005C016F03B
:102E600006C017F0050E0B6ED890063205320432FC
:102E700003320B2EF9D7050ED890033604360536EB
:102E80000636E82EF9D7200E0326000E042205226E
:102E900006221450035C0F6E47D016C013F015C005
:102EA00012F014C011F019D009C0D9FF0AC0DAFF1E
:102EB000DF5011C0F6FF12C0F7FF13C0F8FFF56E28
:102EC0000C00094A0A2A112A000E122213220706B0
:102ED000D8A008060850071003E00F060F28E4E109
:102EE00013C00EF012C00DF011C00CF016C013F09C
:102EF00015C012F014C011F0A68EA69CA684F2AEE6
:102F000003D0F29E010E106E23EC22F0A694105016
:102F100002E0F28E106A200E0F6E0C50146E0D50EF
:102F2000156E0E50166E176A08500710D8B41200AE
:102F3000B4D7C6EC23F0CD6701D060D068B436ECCE
:102F400024F06DB25BD068B08AEC20F068B8AAECCF
:102F500023F0030E0001CD5D51E3C46B68A64ED093
:102F60006C506CCF06F07C0E06163BE16CB205D0BF
:102F7000040E00017B6F000E03D0040E00017B6F76
:102F800000017A6F68967AC0D9FF7BC0DAFFDF3024
:102F9000E8320F0B0D0A2DE1906B20EE02F07A5112
:102FA000D9267B51DA22DECF06F0DDCF07F006C04E
:102FB000D9FF07C0DAFF9051CF0FE16EE26ADFCF91
:102FC000E7FF20EE02F07A51D9267B51DA22DE2A81
:102FD000000EDD22902B070E9065DFD799EC21F0D3
:102FE00008D06C50040A04E1689629EC22F001D064
:102FF00068960001C42B030EC465B0D7120025C02B
:1030000029F026C02AF027C02BF028C02CF0180E7B
:1030100001D04ED8E82EFDD729502E6E2E6605D051
:10302000256A266A276A286A42D025C029F026C068
:103030002AF027C02BF028C02CF0200E01D038D861
:10304000E82EFDD729502D6E278E286A960E2E5E0B
:103050002EAE0FD02E50800A296EE90E800A295C10
:10306000DFE3D89028322732263225322E3EF9D798
:103070000CD01F0E2E6407D0D3D7D8902536263615
:10308000273628362E062E66F8D72D5008E0281E43
:10309000271E261E256C000E26222722282225C048
:1030A00025F026C026F027C027F028C028F01200FF
:1030B000D8902C322B322A3229321200075005E0E8
:1030C000065003100410051007E1036A046A056A3C
:1030D000066A4BD0072A4AD8096A0A6A0B6AFE0EAA
:1030E00006140C6E0C5009100A100B1008E0F2D7F1
:1030F000072A032A000E04220522062237D8096A6D
:103100000A6A0B6A06500C6E0C5009100A100B105C
:1031100007E0EED70706D8900336043605360636A4
:1031200005AEF8D707B002D07F0E0516D89007324B
:1031300007C009F00A6A0B6A0C6A09C00CF00B6A36
:103140000A6A096A095003120A5004120B50051248
:103150000C5006120850D8A4068E03C003F004C019
:1031600004F005C005F006C006F01200D890063243
:103170000532043203321200CF511F0B036E0304D9
:1031800054E1D35152E1D051060A18E01ED0020E8C
:10319000C86F100E766F3E0E756FE86B090E0CD07F
:1031A000020EC86FEB0504E1100E766F550E756FB9
:1031B000EB050AE1E86B1D0EE76F06D0D251210A3C
:1031C000E6E0030AEDE0010ACE83CF39E832030BD3
:1031D000036E03042AE11CD028D0D2EC24F025D0C1
:1031E000020EC86F766BEA0E756FCE93010EE76F15
:1031F0001CD0020EC86FD2C0EAF017D0020EC86F02
:10320000766BE90EF1D7020EC86FD1C0E9F00DD090
:10321000D051010AE1E0030AE3E0010AEFE00A0A03
:10322000DCE0030AE6E0010AEEE01200C86714D011
:10323000040E0401086F088F0101166F0001960546
:1032400005E1010E5FEC20F0966B45D0000E5FECBF
:1032500020F0010E966F3FD0CFAF1CD0010EC96F8A
:10326000E751D55DE851D65904E2D5C0E7F0D6C0A4
:10327000E8F0EAEC1AF0480E0101166F010E5FEC5F
:1032800020F0000E5FEC20F00401040E0B6F240E02
:103290000A6F1ED0020EC96F040E0101166F0001E5
:1032A000D651D51103E1480E0101166F00019605B4
:1032B00005E1010E5FEC20F0966B05D0000E5FEC8F
:1032C00020F0010E966FD651D51105E10401096B6E
:1032D000480E086F088F12007AEC24F03F0E066E3D
:1032E000010E76EC23F0300E066E030E76EC23F022
:1032F000010E066E040E76EC23F0080E066E050E27
:1033000076EC23F0010E066E060E76EC23F0340EFA
:10331000066E070E76EC23F0300E066E080E76EC85
:1033200023F0080E066E0D0E76EC23F0080E066EE6
:103330000E0E76EC23F0220E066E0F0E76EC23F0C6
:10334000066A100E76EC23F0066A110E76EC23F076
:10335000010E066E1C0E76EC23F0010E066E1D0E9D
:1033600076EC23F0020E066E2D0E76EC23F0200E86
:10337000066E2E0E76EF23F02FC003F030C004F05F
:1033800031C005F032C006F0370E076E66EC1EF055
:103390003850800AF36E800EF35C000ED8B4375CB0
:1033A00005E22F6A306A316A326A32D01D0E375C0C
:1033B000000E385809E32FC02FF030C030F031C074
:1033C00031F032C032F024D02FC025F030C026F0CA
:1033D00031C027F032C028F0FFEC17F025C00DF007
:1033E00026C00EF027C00FF028C010F00FEC1FF021
:1033F0000DC033F00EC034F00FC035F010C036F001
:1034000033C02FF034C030F035C031F036C032F068
:103410001200D1050BE1CF511F0B08E1010EC86F5F
:10342000D051030A02E1CE8101D0CE91D1673BD0C9
:10343000CF511F0B020A37E1D3510F0B34E0010EBD
:10344000C86FD3510F0B080D040E036E046EF350BA
:103450000326F4500422010ED3AF000E040DF350E6
:103460000324726FF4500420736FD051030A06E1F5
:1034700072C0D9FF73C0DAFF040E0ED0D3AF07D0ED
:1034800072C0D9FF73C0DAFF400EDF6E0CD072C07D
:10349000D9FF73C0DAFF080EDF6E72C0D9FF73C0A8
:1034A000DAFF000EDB8E1200E8CF11F00AC00EF03A
:1034B0000BC00FF00EC003F00FC004F00CC005F0FD
:1034C0000DC006F0B1EC20F003C00EF004C00FF008
:1034D000112A0F500E10EEE11150D96EDA6A000E6B
:1034E000DF6A11060AC003F00BC004F00CC005F03F
:1034F0000DC006F05CEC21F00350106E0AC003F022
:103500000BC004F00CC005F00DC006F0B1EC20F0CB
:1035100003C00AF004C00BF0090E106402D0070EBD
:103520001026300E10261150D96EDA6A10C0DFFF57
:1035300011060B500A10D6E1112A1200F26A9D6A98
:10354000A06A9E6AA16A806A816A826A070E926E88
:10355000936A870E946E700ED36E380EC66E010E8F
:10356000C26E0C0EC16EB50EC06E070ED56E800E0B
:10357000CD6E770EC86E010E0001FE6F046AFF0E5D
:10358000036855EC24F0770A09E0046AFF0E03682B
:1035900055EC24F0880A02E00001FE6B0001FE51A8
:1035A000D8A47BEC21F0086A0768020E096E89EC4A
:1035B00023F0818C85EC1CF0030E046EE80E036E84
:1035C0005FEC22F03DEC0FF09D8A5E8600017E8F5D
:1035D000ABEF16F0080E8F6FE75D000EE8590AE2B8
:1035E000E7C08FF0CC6702D0010E03D0CC0502E11A
:1035F000020ECC6F8FC009F48F51E75F000EE85BBD
:10360000040E0001736F240E726FCEB30AD015D072
:1036100017D8F76403D00800F55002D0FAEC1BF07D
:103620001AD88F67F5D70BD00BD8F76403D00800F2
:10363000F55002D0FAEC1BF00ED88F67F5D71200C8
:1036400075C0F6FF76C0F7FFF86A72C0D9FF73C085
:10365000DAFF070E1200DF6E0001724B732B754B01
:10366000762B8F071200CF39E832030B42E12CD0C2
:10367000010EC86F040ECD6F3CD0BDEC1BF039D0ED
:103680001EEC21F036D0010EC86F766BEB0E756F15
:10369000CE93010EE76F2DD07AEC1BF02AD009EC07
:1036A0001AF027D0010EC86FD351EC0F056E766B60
:1036B00005C075F0EDD7010EC86FD351EC0FD96E70
:1036C000DA6AD1C0DFFF15D0D051E6E0010AE7E0A9
:1036D000020AE5E0060ACCE0030ACFE0010A09E0AD
:1036E0000F0AD1E0010ACCE0030ADCE0010AE3E0C2
:1036F000070A12000401246B256B2CD0010EC86F41
:10370000CEA130D0040124832DD0010EC86F2AD061
:10371000010EC86FD3510F0B080D040E036E046E1B
:10372000F3500326F4500422010ED3AF000E040D13
:10373000F3500324726FF4500420736F72C0D9FFEA
:1037400073C0DAFFDF50036E03A40CD0010E040136
:10375000246F08D00001CF511F0BD0E0010AD5E043
:10376000030AD6E00001C80507E1040E766F240EB7
:10377000756FCE93020EE76F1200CF51800A31E0D1
:1037800038D0010EC86F100E766F880E756F120E4E
:103790000BD0D1672DD0010EC86F100E766F2C0E96
:1037A000756F000EE86F290EE76F22D0010EC86F0B
:1037B000D151290FF66E100EF76E0900F5CF75F096
:1037C000766F75C0F6FF76C0F7FFF86A070EF764EC
:1037D00003D00800F55001D00DD80001E76FE86B69
:1037E00007D0D251010ACDE0030AD3E0010ADEE09E
:1037F000CE831200F6CFE1FFF7CFE2FFE7501200D1
:1038000013C003F014C004F0056A066A086A040EC7
:10381000076E0A6A170E096E26EC20F018C02FF00A
:1038200019C031F0190E315C2DE2040E1324156E0F
:10383000000E1420166E15C003F016C004F0056AC1
:10384000066A31C007F0086A0A6A170E096E26EC8C
:1038500020F0C580C5B0FED7680E3EEC1FF02F509B
:103860003EEC1FF0306A08D03050170FD96EDA6A7C
:10387000DF503EEC1FF0302A3150305CF5E3C58458
:10388000C5B4FED7120041C039F042C03AF043C07F
:103890003BF044C03CF041C02FF042C030F043C088
:1038A00031F044C032F0BCEC19F02FC03DF030C014
:1038B0003EF031C03FF032C040F0B6EC21F039C0EC
:1038C00045F03AC046F03BC047F03CC048F045C028
:1038D0002FF046C030F047C031F048C032F0410E02
:1038E000A1EC1FF041C02FF042C030F043C031F0D6
:1038F00044C032F0BCEC19F02FC041F030C042F0AF
:1039000031C043F032C044F0120082A406D08A8451
:10391000B06A3F0EAF6ED38205D08A94B06A7F0E34
:10392000AF6ED3928A988A9A8A96899C899689984A
:10393000899A8A9EBBEC24F0F28EF28C936B93C032
:10394000ABF0F098F092F294D59EF29AA46BB06B23
:10395000B66BBA6B7E6B7F6BBD6B5E6ABB6BBC6B11
:10396000A16B886B896BC292946B200E01010F6F63
:10397000210E106F220E116F230E126F250E136F82
:10398000270E146F280E156F280C166A176A186A0E
:103990004B0E196E49C012F04AC013F04BC014F020
:1039A0004CC015F043EC15F012C041F013C042F0CA
:1039B00014C043F015C044F043EC1CF041C04DF07E
:1039C00042C04EF043C04FF044C050F04DC025F00F
:1039D0004EC026F04FC027F050C028F0FFEC17F083
:1039E00025C051F026C052F027C053F028C054F033
:1039F00054500F0B3EEC1FF053503EEC1FF0525052
:103A00003EEC1FF051503EEF1FF00001CD51060A71
:103A1000D8B46DB204D05EA602D082B003D0CCEC94
:103A200024F031D0C0671DD004010CBF2CD001019F
:103A3000010E046E1A0E036E400E056E33EC1EF07E
:103A4000010E0001C06F596A01015A0E5924D96E46
:103A5000DA6A010EDA22DF6A592A3F0E5964F4D776
:103A600012D001011A5156EC08F0040110BF0BD01E
:103A70000101010E046E5A0E036E400E056EFAEC43
:103A80001FF00001C06B12000E6A0D6A0F6A0B6A0C
:103A900005C003F006C004F0D5EC23F051EC24F08F
:103AA000000923E00FC00AF01EEC23F00F6E0D504A
:103AB0000AE00E500724D96E000E0820DA6E0FC0FF
:103AC000DFFF0E2A05D00F503A0A02E1010E0D6EFB
:103AD0000C6A0D5008E00A500D0A05E10F500A0A61
:103AE00002E1010E0C6E0CC00BF0A5EC24F005E217
:103AF00009500E5C02E20B50D1E0C5EC24F00E50F0
:103B000012000600A1AA02D0A19AA09AF2A405D0A0
:103B100000017E81F294F29AD59EA1A211D0B190BB
:103B2000F80EB36E300EB26EB180A19200018D51CD
:103B30008C1104E08C07D8A08D0702D0B190A09220
:103B40009EAA16D0000E0001C725D96EDA6A020EB1
:103B5000DA22AECFDFFFC72BBF0EC76501D0C76B20
:103B6000ABA206D0AB9800F0AB885E800001986BEA
:103B700002C0DAFF01C0D9FF1100BF0E5EEC24F0D5
:103B8000050E5EEC24F05F505EEC24F0B6EC24F001
:103B9000BF0E5EEC24F0070E5EEC24F000016E51C7
:103BA000600F5EEC24F0B6EC24F0BF0E5EEC24F067
:103BB000030E5EEC24F0010E5EA6000E5EEC24F017
:103BC000B6EC24F0BF0E5EEC24F0060E5EEC24F0A2
:103BD000000199515EEC24F0B6EC24F0BF0E5EECCF
:103BE00024F01D0E5EEC24F00001B8515EEF24F0CD
:103BF000066A1B0E76EC23F0066A1C0E76EC23F0A8
:103C0000066A1D0E76EC23F082A406D08A84B06A80
:103C10003F0EAF6ED38205D08A94B06A7F0EAF6E2E
:103C2000D3928A98899C89968998899A280E00014E
:103C3000885D020E895912E2086A096A08C006F016
:103C40001C0E76EC23F0010E081A046AFA0E036EBD
:103C50005FEC22F0092A040E0964F0D78A96D59EFB
:103C6000F29A97EF24F00001CA6B04010CBF2DD02B
:103C700005500D5DD8A00DC405F00001CA6B10D031
:103C80002C0E0001CA25D96EDA6A040EDA22CA5156
:103C90000324E16E000E0420E26EDFCFE7FFCA2BA3
:103CA0000550CA5DEDE3400E04010D6F0C17010EC7
:103CB0000CBD000E066E063A064606460C51061866
:103CC000BF0B06180C6F0C870C8F120020EE03F050
:103CD000DE50DE10DE10DE1007E10750D96EDA6A22
:103CE000000EDE6EDD6E24D006507F0B086ED8907D
:103CF0000834096E0A6A0A360750D96EDA6A09C0B2
:103D0000DEFF0AC0DDFF0750D96EDA6A010E05AE8C
:103D1000000EDE12000EDD120750D96EDA6A820E36
:103D2000DE26FF0EDD220650800B3F09066E059E43
:103D3000120003EE00F0C00EEE6AE806FDE102EEAE
:103D400000F0DE0EEE6AE806FDE101EE00F0E50EA1
:103D5000EE6AE806FDE100EE60F08D0EEE6AE80620
:103D6000FDE15F6A5E6A160EF66E480EF76E000E93
:103D7000F86E01EEE5F010EE16F00900F5CFEEFF5B
:103D8000E550E150FAE1000EF86E000182EF24F0F8
:103D90005EA416D00650051008E1560E045C05E33B
:103DA000600E045C02E20A0E045E0A50091008E18B
:103DB000560E085C05E3600E085C02E20A0E085E1F
:103DC0000B6A03C00CF004C00DF005C00EF006C075
:103DD0000FF01AD00EC0F8FF0DC0F7FF0CC0F6FFB1
:103DE000A68EA69CA684A688F2AE03D0F29E010EF3
:103DF0000B6E23EC22F00B50D8A4F28E400E0C2652
:103E0000000E0D220E220F2207500C5C08500D5898
:103E100009500E580A500F58D8B01200DBD7116A5B
:103E20001050800A800F08E1000E0F5C05E1000EC3
:103E30000E5C02E1000E0D5C0AE2101E0F1E0E1E4B
:103E40000D6C000E0E220F221022010E116E0DC0FD
:103E500003F00EC004F00FC005F010C006F0960E7F
:103E6000076E11C008F05EEC18F003C00DF004C03E
:103E70000EF005C00FF006C010F01200E8CF05F0FC
:103E800005C0C9FFC6BE2FD0C6CF04F00F0E041662
:103E90000450080A0DE0C6CF04F00F0E04160450BB
:103EA0000B0A06E0C6889EA6FED7C7A4C7501BD043
:103EB000C6CF04F00F0E04160450080A07E0C6CF60
:103EC00004F00F0E041604500B0A0DE1F6EC24F07A
:103ED0000AE27AEC24F0E0CF0EF00001C5BC7F8549
:103EE0000EC0E0FFC5501200E8CF2DF02D50D96E66
:103EF000DA6ADECF12F0DECF13F0DECF14F0DECFC1
:103F000015F025C016F026C017F027C018F028C0FD
:103F100019F043EC15F012C029F013C02AF014C0B8
:103F20002BF015C02CF02D50D96EDA6A29C0DEFFB7
:103F30002AC0DEFF2BC0DEFF2CC0DDFFD906D9066C
:103F40001200E8CF37F03750D96EDA6ADECF20F0B2
:103F5000DECF21F0DECF22F0DECF23F02FC024F021
:103F600030C025F031C026F032C027F05AEC12F0F4
:103F700020C033F021C034F022C035F023C036F029
:103F80003750D96EDA6A33C0DEFF34C0DEFF35C089
:103F9000DEFF36C0DDFFD906D9061200E8CF05F0F6
:103FA000046A2F0E056406D03A0E055C03E2055044
:103FB000D00F08D0400E056406D0470E055C03E222
:103FC0000550C90F046E043AF00E04162F0E036458
:103FD00006D03A0E035C03E20350D00F08D0400E27
:103FE000036406D0470E035C03E20350C90F0426A6
:103FF00004501200400E056401D0056E076A0FD010
:1040000007500324D96E000E0420DA6E6C0E0724CC
:10401000E16EE26A040EE222DFCFE7FF072A0550D5
:10402000075CEEE305C011F4400E04011017010E09
:1040300010BD000E066E063A0646064610510618DA
:10404000BF0B0618106F1087108F12005EA40BD0E4
:104050000650051008E1560E045C05E3600E045C92
:1040600002E20A0E045E03C00BF004C00CF005C0AF
:104070000DF006C00EF0F8CF11F0F7CF10F0F6CF2C
:104080000FF00DC0F8FF0CC0F7FF0BC0F6FF09D012
:10409000090009C0D9FF0AC0DAFFF5CFDFFF094ADE
:1040A0000A2A0706D8A008060728D8B40828F0E18D
:1040B00011C0F8FF10C0F7FF0FC0F6FF1200E8CFE5
:1040C00003F0080E0101176F040E196F1C0E186F14
:1040D000036609D0040E196F140E186F040E000148
:1040E000796F000E03D0040E0001796F786F78C0ED
:1040F000D9FF79C0DAFF16C1DEFF17C1DEFF18C194
:10410000DEFF19C1DEFF78C0D9FF79C0DAFF0001F8
:10411000DF8E1200030E0001CD6F6B6A686A7B0EA2
:10412000696E6E6A716A726A736A746A756A766AAF
:10413000776A160E706E6D8C03D06896CEEC24F004
:1041400068B6FBD76D9C6D98040E0101166F000ECA
:104150005FEC20F0010E966FCE6BEB6B000E9EEFC6
:1041600024F0076A086A065005101BE0010E096E6C
:1041700004D0D89005360636092A06AEFAD7D8906C
:10418000073608360550035C0650045805E3055011
:10419000035E0650045A0780D89006320532092E75
:1041A000EED707C003F008C004F012005EA621D0CD
:1041B000A151640A1DE1C2B219D0C450046E036A51
:1041C000C3500324886F000E0420896F290E885D78
:1041D000020E8959D8B09485C28294A507D0280EC2
:1041E000885D020E895902E25E967E85A16B01D040
:1041F000A12B1200E8CF17F017C016F01350800A59
:10420000F36E800EF35C000ED8B4125C0AE2175015
:10421000D96EDA6A2D0EDF6E172A126C131ED8B013
:10422000132A12C00AF013C00BF014C00CF015C012
:104230000DF0175054EC1AF016501200010EC86F12
:10424000716A726A736A746A756A766A776A916B60
:104250009151EC0FD96EDA6ADF6A912B9151F8E037
:10426000D1C0EBF0EB519EEC24F00001D16702D0FD
:10427000050E01D0060ECD6F1200E8CF06F07AECE5
:1042800024F0C580C5B0FED7E20E3EEC1FF006500C
:104290003EEC1FF0C582C5B2FED7E30E3EEC1FF028
:1042A00047EC23F0076EC58AC588C5B8FED7C5841C
:1042B000C5B4FED7075012000650051017E0010ED6
:1042C000076E04D0D89005360636072A06AEFAD710
:1042D0000550035C0650045804E30550035E065085
:1042E000045AD89006320532072EF2D703C003F0E5
:1042F00004C004F01200F29E300EF86EF76A0B0E46
:10430000F66EA00EF56E0C00C40EA66E23EC22F025
:10431000A6B2FED7300EF86EF76AF66A3A0EF56E60
:104320000C00C40EA66E23EC22F0A6B2FED7A69413
:1043300012000401086B0001CC6B040100AF03D034
:10434000006B0001966B040104AF04D0046B010EF6
:104350000001966F0001C96BC86BE76BE86B6D9845
:1043600033EC1BF0BCEC18F016EF19F0800E401A7D
:1043700039C020F03AC021F03BC022F03CC023F00D
:104380003DC024F03EC025F03FC026F040C027F0DD
:104390005AEC12F020C039F021C03AF022C03BF0B4
:1043A00023C03CF01200E8CF06F07AEC24F0C58080
:1043B000E6EC24F015E2680E3EEC1FF01F0E3EEC1A
:1043C0001FF0000E3EEC1FF0000E3EEC1FF0000E42
:1043D0003EEC1FF006503EEC1FF0C584EEEC24F0DE
:1043E0001200E8CF06F006C004F0043A0F0E0416DF
:1043F0000BD85EEC24F0056E06C004F00F0E04D856
:104400005EEC24F0051A120004160450190FF66E23
:10441000100EF76E0800F550120003C0A9FF05C08A
:10442000A8FFA69EA69CA684000EF2BE010E066EF4
:10443000F29E09D8A6B2FED706B002D0F29E01D0F5
:10444000F28EA6941200550EA76EAA0EA76EA68233
:10445000AA0CCD51040A07E1D1C06EFF6E50050EC3
:10446000D8B4030ECD6FC9050EE1EAEC1AF0CC51B9
:10447000020A03E1040E040104D00401480E08BD41
:10448000080E086F088F1200E8CF03F00FD0010E5E
:10449000A06FB96B13D0A06B010E06D0020EA06FF7
:1044A00003D0010EA06F030EB96F08D00350EFE0E8
:1044B000010AF1E0030AF2E0010AF3E01200A0921F
:1044C000980EB16EB18010D0D3A204D0FC0EB36EA2
:1044D000180E03D0F80EB36E300EB26EA192A1A2E8
:1044E000FED70306D8A0040604500310EDE1B190F6
:1044F0001200E8CF1BF00D0E5EEC24F00A0E5EEC0D
:1045000024F00C0E5EEC24F03A0E5EEC24F0196AF6
:104510001BC018F064EC23F00D0E5EEC24F00A0EC4
:104520005EEF24F07AEC24F0C580C5B0FED7680EAB
:104530003EEC1FF0300E3EEC1FF055C049F056C067
:104540004AF057C04BF058C04CF0C5EC1CF0C58485
:10455000C5A401D0FDD712005F660DD0899601D0A9
:1045600089868998899A0FD08996899802D08996E8
:104570008988898A08D09351F1E0050AF1E0030A9D
:10458000F3E0010AF4E01200AB9ED09E0001C66B7E
:10459000C76B060EAC6E800EAB6E480EB86E948E76
:1045A000948C9D989E989E9A9D9AB06A7F0EAF6E4D
:1045B000AC8AAB887F0C560E336E000E326A346ABA
:1045C00032C013F033C014F000EC1CF0180E322689
:1045D000000E3322342A5F0E3464F2D7146E136A4D
:1045E00000EF1CF08DEC11F0CD51060AD8B46DB27D
:1045F0000ED082A00CD0040110BF09D00101010E21
:10460000046E5A0E036E400E056EFAEC1FF0120097
:10461000E8CF11F01150036E046A056A066A960E1F
:10462000076E000E086A5EEC18F003C00DF004C0BF
:104630000EF005C00FF006C010F01200046A51EC35
:1046400024F000090EE0000E0001C625D96EDA6ADA
:10465000020EDA22DF50046EC62BBF0EC66501D0F3
:10466000C66B04501200CA6B1E0E716E400E040120
:104670000D6F040E0F6F2C0E0E6F080E0C6F0C8F4B
:10468000040E136F6C0E126F400E106F400CC6506C
:104690000F0B080A02E00B0AD8B4C586C7A0FED7E4
:1046A000C950120021EEF4F010EE1CF0070EDECF20
:1046B000E6FFE82EFCD71C0E79EC22F01C0E79ECFC
:1046C00022F01C0E79EF22F01A6A04D007D85EECB3
:1046D00024F01A2A03D8D8B41200F8D71A50182494
:1046E000D96E000E1920DA6EDF501200E8CF07F005
:1046F000C580E6EC24F00CE2E20E3EEC1FF0075021
:104700003EEC1FF006503EEC1FF0C584EEEC24F0AA
:10471000120007C003F008C004F055EC24F009189B
:1047200008E007C003F008C004F009C005F00DEC74
:1047300022F012009505D8B42CEC24F06D6A150E09
:104740006F6E696A6D868AEC20F0010E0001CD6FF4
:10475000956B120069CF92F0040E696E68986D82B5
:10476000A19AA08AA09A0001925169121200066AC9
:1047700008D006500324D96E000E0420DA6EDF6ADA
:10478000062A0550065CD8B01200F3D70001950543
:104790000BE082A004D06DA69AEC23F005D06DA6A4
:1047A00003D097EC24F0956B1200980EB16EF80EC2
:1047B000B36E300EB26E03C08CF004C08DF0A192C7
:1047C000B180A082300C00017EA508D05EA603D087
:1047D000ABEC16F002D0F8EC1DF07E95010E75EFF3
:1047E0000CF0E8CF04F03F0EC716C66AC56A045045
:1047F000C6120350C71293829380C68A120005EC3A
:104800001DF0F0EC0DF0DDEC13F0E3EC23F027EC01
:1048100013F0D6EF20F02D204641494C200046579A
:104820005F5570640030303030303000BF0E5EECC9
:1048300024F0290E5EEC24F0010E5EA2000E5EEF65
:1048400024F005D0CEEC24F00306D8A004060450D2
:104850000310D8B41200F6D76D926D6AFF0E04688B
:10486000036821EC24F00001CD6B1200B1EC24F0C0
:104870006D92699401D0689468A41200FCD7BF0EB1
:104880005EEC24F0180E5EEC24F0010E5EEF24F0D6
:1048900002D01EEC23F051EC24F00009D8B4120031
:1048A000F8D70001C751C619120003C0A9FFA69C82
:1048B000A69EA68000F000F0A8501200E8CF03F0FA
:1048C000DEEC24F004E203C0ADFF03501200C4ECA0
:1048D00022F0DEEC24F004E203C0ADFF035012002E
:1048E00089EF24F0A40ED76E710ED66EF294F28A80
:1048F000D58E710CC5CF03F01F0E0316D8B4C7B404
:10490000F9D71F0C9EEC1AF099EC17F0FFEC23F08E
:10491000FBD7F26A00F000F0FF0000F000F0120098
:10492000020ED3EC21F089968998899A12006D9233
:104930006D6A0001CD6B010E956F010CE8CF03F09D
:104940000304D8B433EC23F01200B1A002D0D89005
:1049500001D0D88012006DB62CEC24F0956BC6EF18
:1049600023F0030E046E036A27EF24F0046A010E9D
:10497000036E5FEF22F0C4EC22F05E90986B1200A1
:10498000046A020E036E5FEF22F0B190A192A09232
:104990001200010ED3EF21F0AB88120004001200C8
:1049A000C69A120012000B6A100E0C6ED8901200FC
:1049B0000B2E12000C2E1200D8801200D3EC24F023
:1049C000ACB21CD0D8EC24F0FBE31200D3EC24F002
:1049D000C5A014D0D8EC24F0FBE31200D3EC24F0F3
:1049E000C5A40CD0D8EC24F0FBE31200D3EC24F0E7
:1049F000C7A004D0D8EC24F0FBE31200D89012003A
:104A0000C69A93829380090E0B6E93928A9200004D
:104A1000000093820000000081B002D00B2EF5D779
:104A200093908A9000009382000000009380280EEB
:104A3000C66E1200C580E6EC24F00BE2680E3EEC78
:104A40001FF0C584EEEC24F0C5AC7F9DC5BC01D041
:104A500012007F8D120000017F51440B0D6EBF0EBE
:104A60005EEC24F0080E5EEC24F00D505EEC24F0B9
:104A7000120000017F9592EC22F07FB511D0000169
:104A80007E977E8F6EC066F06FC067F070C068F072
:104A900071C069F07F9DC70E7F172BEC25F01200C7
:104AA000080E7F277F51380B28080EE2C5B404D0CA
:104AB00000EC25F01AEC25F07F8D2BEC25F00001A1
:104AC0007E97C70E7F17120012009CEC25F02FEF87
:104AD0000FF0600E5EB4830E076E086A22EEC0F01F
:104AE0001E0E0A6EDECF09F089EC23F0072A0A2E8B
:104AF000F9D7BD9B1200600E5EB4830E036E046A8C
:104B000022EEC0F01E0E0A6E55EC24F0DE6E032A73
:104B10000A2EFAD71200046A960E036E5FEC22F09A
:104B2000120000015E885E8A7E9B556A566A576A4B
:104B3000586A92EC22F01200A351010B5EB4010AF4
:104B40001DE0BDBB69EC25F05EB80FD091EC25F0FF
:104B50008BEC25F05E747BEC25F000017E81DBECB4
:104B600022F05E985E9A7E8712008BEC25F05E74D0
:104B70007BEC25F000017E81DBEC22F000011200CD
:104C000001C80400000000000000000000000000D7
:104C10000000000000000000013714000000000048
:104C20000000000000000000000000000000000084
:104C30000138140000000000000000000000000027
:104C40000000000000000000013914000000000016
:104C50000000000000000000000000000000000054
:104C6000013A1400000000000000000000000000F5
:104C70000000000000000000013B140000000000E4
:104C80000000000000000000000000000000000024
:104C9000013C1400000000000000000000000000C3
:104CA0000000000000000000013D140000000000B2
:104CB00000000000000000000000000000000000F4
:104CC000013E140000000000000000000000000091
:104CD0000000000000000000013F14000000000080
:104CE00000000000000000000000000000000000C4
:104CF000014014000000000000000000000000005F
:104D0000000000000000000001411400000000004D
:104D10000000000000000000000000000000000093
:104D2000014214000000000000000000000000002C
:104D3000000000000000000001431400000000001B
:104D40000000000000000000000000000000000063
:104D500001441400000000000000000000000000FA
:104D600000000000000000000145140000000000E9
:104D70000000000000000000000000000000000033
:104D800001C9040000000000000000000000000055
:104D900000000000000000000146140000000000B8
:104DA0000000000000000000000000000000000003
:104DB0000147140000000000000000000000000097
:104DC0000000000000000000014814000000000086
:104DD00000000000000000000000000000000000D3
:104DE0000149140000000000000000000000000065
:104DF0000000000000000000014A14000000000054
:104E000000000000000000000000000000000000A2
:104E1000014B140000000000000000000000000032
:104E20000000000000000000014C14000000000021
:104E30000000000000000000000000000000000072
:104E4000014D140000000000000000000000000000
:104E50000000000000000000014E140000000000EF
:104E60000000000000000000000000000000000042
:104E7000014F1400000000000000000000000000CE
:104E800000000000000000000150140000000000BD
:104E90000000000000000000000000000000000012
:104EA000015114000000000000000000000000009C
:104EB000000000000000000001521400000000008B
:104EC00000000000000000000000000000000000E2
:104ED000015314000000000000000000000000006A
:104EE0000000000000000000015414000000000059
:104EF00000000000000000000000000000000000B2
:104F000001CA0400000000000000000000000000D2
:104F10000000000000000000015514000000000027
:104F20000000000000000000000000000000000081
:104F30000156140000000000000000000000000006
:104F400000000000000000000157140000000000F5
:104F50000000000000000000000000000000000051
:104F600001581400000000000000000000000000D4
:104F700000000000000000000159140000000000C3
:104F80000000000000000000000000000000000021
:104F9000015A1400000000000000000000000000A2
:104FA0000000000000000000015B14000000000091
:104FB00000000000000000000000000000000000F1
:104FC000015C140000000000000000000000000070
:104FD0000000000000000000015D1400000000005F
:104FE00000000000000000000000000000000000C1
:104FF000015E14000000000000000000000000003E
:105000000000000000000000015F1400000000002C
:105010000000000000000000000000000000000090
:10502000016014000000000000000000000000000B
:1050300000000000000000000161140000000000FA
:105040000000000000000000000000000000000060
:1050500001621400000000000000000000000000D9
:1050600000000000000000000163140000000000C8
:105070000000000000000000000000000000000030
:1050800001CB040000000000000000000000000050
:105090000000000000000000016414000000000097
:1050A0000000000000000000000000000000000000
:1050B0000165140000000000000000000000000076
:1050C0000000000000000000016614000000000065
:1050D00000000000000000000000000000000000D0
:1050E0000167140000000000000000000000000044
:1050F0000000000000000000016814000000000033
:10510000000000000000000000000000000000009F
:105110000169140000000000000000000000000011
:105120000000000000000000016A14000000000000
:10513000000000000000000000000000000000006F
:10514000016B1400000000000000000000000000DF
:105150000000000000000000016C140000000000CE
:10516000000000000000000000000000000000003F
:10517000016D1400000000000000000000000000AD
:105180000000000000000000016E1400000000009C
:10519000000000000000000000000000000000000F
:1051A000016F14000000000000000000000000007B
:1051B000000000000000000001701400000000006A
:1051C00000000000000000000000000000000000DF
:1051D0000171140000000000000000000000000049
:1051E0000000000000000000017214000000000038
:1051F00000000000000000000000000000000000AF
:1052000001CC0400000000000000000000000000CD
:105210000000000000000000017314000000000006
:10522000000000000000000000000000000000007E
:1052300001741400000000000000000000000000E5
:1052400000000000000000000175140000000000D4
:10525000000000000000000000000000000000004E
:1052600001761400000000000000000000000000B3
:1052700000000000000000000177140000000000A2
:10528000000000000000000000000000000000001E
:105290000178140000000000000000000000000081
:1052A0000000000000000000017914000000000070
:1052B00000000000000000000000000000000000EE
:1052C000017A14000000000000000000000000004F
:1052D0000000000000000000017B1400000000003E
:1052E00000000000000000000000000000000000BE
:1052F000017C14000000000000000000000000001D
:105300000000000000000000017D1400000000000B
:10531000000000000000000000000000000000008D
:10532000017E1400000000000000000000000000EA
:105330000000000000000000017F140000000000D9
:10534000000000000000000000000000000000005D
:1053500001801400000000000000000000000000B8
:1053600000000000000000000181140000000000A7
:10537000000000000000000000000000000000002D
:1053800001CD04000000000000000000000000004B
:105390000000000000000000018214000000000076
:1053A00000000000000000000000000000000000FD
:1053B0000183140000000000000000000000000055
:1053C0000000000000000000018414000000000044
:1053D00000000000000000000000000000000000CD
:1053E0000185140000000000000000000000000023
:1053F0000000000000000000018614000000000012
:10540000000000000000000000000000000000009C
:1054100001871400000000000000000000000000F0
:1054200000000000000000000188140000000000DF
:10543000000000000000000000000000000000006C
:1054400001891400000000000000000000000000BE
:105450000000000000000000018A140000000000AD
:10546000000000000000000000000000000000003C
:10547000018B14000000000000000000000000008C
:105480000000000000000000018C1400000000007B
:10549000000000000000000000000000000000000C
:1054A000018D14000000000000000000000000005A
:1054B0000000000000000000018E14000000000049
:1054C00000000000000000000000000000000000DC
:1054D000018F140000000000000000000000000028
:1054E0000000000000000000019014000000000017
:1054F00000000000000000000000000000000000AC
:1055000001D404000000000101311000000000007F
:105510000000000000000000000000000131100049
:1055200000800000000000000000000000000000FB
:105530000132100000000000000000000000000028
:105540000000000001321000008000000000000098
:105550000000000000000000013310000000000007
:1055600000000000000000000000000001331000F7
:1055700000800000000000000000000000000000AB
:1055800001341000000000000000000000000000D6
:105590000000000001341000008000000000000046
:1055A00000000000000000000135100000000000B5
:1055B00000000000000000000000000001351000A5
:1055C000008000000000000000000000000000005B
:1055D0000136100000000000000000000000000084
:1055E00000000000013610000080000000000000F4
:1055F0000000000000000000FFFFFFFFFFFFFFFFB3
:1056000001C80400000000000000000000000000CD
:10561000000000000000000001371400000000003E
:10562000000000000000000000000000000000007A
:10563000013814000000000000000000000000001D
:10564000000000000000000001391400000000000C
:10565000000000000000000000000000000000004A
:10566000013A1400000000000000000000000000EB
:105670000000000000000000013B140000000000DA
:10568000000000000000000000000000000000001A
:10569000013C1400000000000000000000000000B9
:1056A0000000000000000000013D140000000000A8
:1056B00000000000000000000000000000000000EA
:1056C000013E140000000000000000000000000087
:1056D0000000000000000000013F14000000000076
:1056E00000000000000000000000000000000000BA
:1056F0000140140000000000000000000000000055
:105700000000000000000000014114000000000043
:105710000000000000000000000000000000000089
:105720000142140000000000000000000000000022
:105730000000000000000000014314000000000011
:105740000000000000000000000000000000000059
:1057500001441400000000000000000000000000F0
:1057600000000000000000000145140000000000DF
:105770000000000000000000000000000000000029
:1057800001C904000000000000000000000000004B
:1057900000000000000000000146140000000000AE
:1057A00000000000000000000000000000000000F9
:1057B000014714000000000000000000000000008D
:1057C000000000000000000001481400000000007C
:1057D00000000000000000000000000000000000C9
:1057E000014914000000000000000000000000005B
:1057F0000000000000000000014A1400000000004A
:105800000000000000000000000000000000000098
:10581000014B140000000000000000000000000028
:105820000000000000000000014C14000000000017
:105830000000000000000000000000000000000068
:10584000014D1400000000000000000000000000F6
:105850000000000000000000014E140000000000E5
:105860000000000000000000000000000000000038
:10587000014F1400000000000000000000000000C4
:1058800000000000000000000150140000000000B3
:105890000000000000000000000000000000000008
:1058A0000151140000000000000000000000000092
:1058B0000000000000000000015214000000000081
:1058C00000000000000000000000000000000000D8
:1058D0000153140000000000000000000000000060
:1058E000000000000000000001541400000000004F
:1058F00000000000000000000000000000000000A8
:1059000001CA0400000000000000000000000000C8
:10591000000000000000000001551400000000001D
:105920000000000000000000000000000000000077
:1059300001561400000000000000000000000000FC
:1059400000000000000000000157140000000000EB
:105950000000000000000000000000000000000047
:1059600001581400000000000000000000000000CA
:1059700000000000000000000159140000000000B9
:105980000000000000000000000000000000000017
:10599000015A140000000000000000000000000098
:1059A0000000000000000000015B14000000000087
:1059B00000000000000000000000000000000000E7
:1059C000015C140000000000000000000000000066
:1059D0000000000000000000015D14000000000055
:1059E00000000000000000000000000000000000B7
:1059F000015E140000000000000000000000000034
:105A00000000000000000000015F14000000000022
:105A10000000000000000000000000000000000086
:105A20000160140000000000000000000000000001
:105A300000000000000000000161140000000000F0
:105A40000000000000000000000000000000000056
:105A500001621400000000000000000000000000CF
:105A600000000000000000000163140000000000BE
:105A70000000000000000000000000000000000026
:105A800001CB040000000000000000000000000046
:105A9000000000000000000001641400000000008D
:105AA00000000000000000000000000000000000F6
:105AB000016514000000000000000000000000006C
:105AC000000000000000000001661400000000005B
:105AD00000000000000000000000000000000000C6
:105AE000016714000000000000000000000000003A
:105AF0000000000000000000016814000000000029
:105B00000000000000000000000000000000000095
:105B10000169140000000000000000000000000007
:105B20000000000000000000016A140000000000F6
:105B30000000000000000000000000000000000065
:105B4000016B1400000000000000000000000000D5
:105B50000000000000000000016C140000000000C4
:105B60000000000000000000000000000000000035
:105B7000016D1400000000000000000000000000A3
:105B80000000000000000000016E14000000000092
:105B90000000000000000000000000000000000005
:105BA000016F140000000000000000000000000071
:105BB0000000000000000000017014000000000060
:105BC00000000000000000000000000000000000D5
:105BD000017114000000000000000000000000003F
:105BE000000000000000000001721400000000002E
:105BF00000000000000000000000000000000000A5
:105C000001CC0400000000000000000000000000C3
:105C100000000000000000000173140000000000FC
:105C20000000000000000000000000000000000074
:105C300001741400000000000000000000000000DB
:105C400000000000000000000175140000000000CA
:105C50000000000000000000000000000000000044
:105C600001761400000000000000000000000000A9
:105C70000000000000000000017714000000000098
:105C80000000000000000000000000000000000014
:105C90000178140000000000000000000000000077
:105CA0000000000000000000017914000000000066
:105CB00000000000000000000000000000000000E4
:105CC000017A140000000000000000000000000045
:105CD0000000000000000000017B14000000000034
:105CE00000000000000000000000000000000000B4
:105CF000017C140000000000000000000000000013
:105D00000000000000000000017D14000000000001
:105D10000000000000000000000000000000000083
:105D2000017E1400000000000000000000000000E0
:105D30000000000000000000017F140000000000CF
:105D40000000000000000000000000000000000053
:105D500001801400000000000000000000000000AE
:105D6000000000000000000001811400000000009D
:105D70000000000000000000000000000000000023
:105D800001CD040000000000000000000000000041
:105D9000000000000000000001821400000000006C
:105DA00000000000000000000000000000000000F3
:105DB000018314000000000000000000000000004B
:105DC000000000000000000001841400000000003A
:105DD00000000000000000000000000000000000C3
:105DE0000185140000000000000000000000000019
:105DF0000000000000000000018614000000000008
:105E00000000000000000000000000000000000092
:105E100001871400000000000000000000000000E6
:105E200000000000000000000188140000000000D5
:105E30000000000000000000000000000000000062
:105E400001891400000000000000000000000000B4
:105E50000000000000000000018A140000000000A3
:105E60000000000000000000000000000000000032
:105E7000018B140000000000000000000000000082
:105E80000000000000000000018C14000000000071
:105E90000000000000000000000000000000000002
:105EA000018D140000000000000000000000000050
:105EB0000000000000000000018E1400000000003F
:105EC00000000000000000000000000000000000D2
:105ED000018F14000000000000000000000000001E
:105EE000000000000000000001901400000000000D
:105EF00000000000000000000000000000000000A2
:105F000001D4040000000001013110000000000075
:105F1000000000000000000000000000013110003F
:105F200000800000000000000000000000000000F1
:105F3000013210000000000000000000000000001E
:105F4000000000000132100000800000000000008E
:105F500000000000000000000133100000000000FD
:105F600000000000000000000000000001331000ED
:105F700000800000000000000000000000000000A1
:105F800001341000000000000000000000000000CC
:105F9000000000000134100000800000000000003C
:105FA00000000000000000000135100000000000AB
:105FB000000000000000000000000000013510009B
:105FC0000080000000000000000000000000000051
:105FD000013610000000000000000000000000007A
:105FE00000000000013610000080000000000000EA
:105FF0000000000000000000FFFFFFFFFFFFFFFFA9
:020000040030CA
:0E0000003A463E1EFF0080FF0FC00FA00F40CB
:0200000400F00A
:10000000FFFFFFA001000000000001010103040147
:100010000000000001FFFFFFFFFFFFFFFFFFFFFFEA
:10002000FFFFFFFFFFFFFFFFFFFFFFFFFFFFFFFFE0
:10003000FFFFFFFFFFFFFFFFFFFFFFFFFFFFFFFFD0
:1000400003FFFFFFFFFFFFFFFFFFFFFFFFFFFFFFBC
:10005000FFFFFFFFFFFFFFFFFFFFFFFFFFFFFFFFB0
:10006000FFFFFFFFFFFFFFFFFFFFFFFFFFFFFFFFA0
:10007000FFFFFFFFFFFFFFFFFFFFFFFFFFFFFFFF90
:10008000030131FFFFFFFFFFFFFFFFFFFFFFFFFF48
:10009000FFFFFFFFFFFFFFFFFFFFFFFFFFFFFFFF70
:1000A000FFFFFFFFFFFFFFFFFFFFFFFFFFFFFFFF60
:1000B000FFFFFFFFFFFFFFFFFFFFFFFFFFFFFFFF50
:1000C000FFFFFFFFFFFFFFFFFFFFFFFFFFFFFFFF40
:1000D000FFFFFFFFFFFFFFFFFFFFFFFFFFFFFFFF30
:1000E000FFFFFFFFFFFFFFFFFFFFFFFFFFFFFFFF20
:1000F000FFFFFFFFFFFFFFFFFFFFFFFFFFFFFF020D
:00000001FF
