:020000040000FA
:1000000000EF3CF0FFFFFFFFD5EF01F0800E016E27
:10001000FE0ECAEC00F0010ECAEC00F0750E0D6E7B
:10002000FFD7FFFFFFFFFFFFFFFFFFFFFFFFFFFF08
:10003000FFFFFFFFFFFFFFFFFFFFFFFFFFFFFFFFD0
:10004000B5EF01F0FFFFFFFFD5EF01F040EC08F046
:10005000800E016EFE0ECAEC00F0010ECAEC00F03C
:10006000750E0D6E300EEEEF00F0016A018E176E08
:10007000FE0ECAEC00F01750CAEF00F0076A106ECF
:10008000116A00960750D8B40086050E066E270E3A
:100090000F6E100E0CD8030E0F6EE80E08D80F6A04
:1000A000640E05D80F6A0A0E02D8105008D00E6EE2
:1000B00011500D6E10500C6EFAEC00F00C500C6EDE
:1000C000064E0096075003E0065CD8B008D00C50EE
:1000D000D8A4009600B603D0300FCAEF00F012008B
:1000E000A66AA68E0900F55002E002D8FBD71200DE
:1000F000156E8A98899A9398929AF00E93161550D5
:1001000000B2A5EF00F03A0E0D6E980EEEEC00F086
:10011000330E146E2ED8130E0D6E880EEEEC00F01A
:1001200028D8640EEDEC00F024D8640EEDEC00F05D
:10013000220E146E1ED8280E07D80C0E05D8060EF7
:1001400003D80082155001D00080146E00A00BD09F
:10015000899A03080CE30BD8070E0D6ED00EEEEC57
:1001600000F0D88012000080FE0812E0898A143A5C
:1001700000A000908A88F00E811614500F0B811297
:100180008A98143A00B0F5D7320EEDEC00F0D88022
:100190001550120001BE78EF00F0A96EA66AA68085
:1001A000A850A92A1200A86EA66AA684550EA76EAA
:1001B000AA0EA76EA682A6B2FED7A694A92A1200FE
:1001C0000F6A0E6EFF0E0E260F2200D0D8A012006E
:1001D000030E0D6EE50E02D8F5D70D6AFA0F0C6E00
:1001E000000003E300D00C06FEE20C060D06FBE265
:1001F00000001200116A106A100EF36E0D341036F2
:1002000011360E50105C0F50115805E30E50105E61
:100210000F50115AD8800C360D36F32EEFD70C50F4
:100220001200938A156A146A00EE10F0010E0D6E2A
:10023000BA0EEEEC00F081BA57D0030E0D6E760EBA
:10024000EEEC00F0152A200E156401D00AD0D880FB
:1002500081BAD890EF36142A14A602D0EE52146A4E
:10026000ECD700EE10F0056A146A0E6A0D6A0C6A8B
:10027000EF360536EF360536142A3BD809B434D0AC
:10028000056AEF360536EF360536142A32D809B43A
:100290002BD009320E36050E086E056AEF3605368C
:1002A000EF360536142A14A402D0EE52146A21D86F
:1002B00009B41AD009320D36082EEFD7060E086E93
:1002C000056AEF360536EF360536142A14A402D037
:1002D000EE52146A0ED809B407D009320C36082E33
:1002E000EFD70C50D8901200FF0E0C6E0D6ED88018
:1002F0001200096A052C02D009801200020E056264
:1003000001D01200098412004669726D776172652E
:100310002056000057616974696E6720666F72200D
:10032000444C435000005A7A7A2E2E2E2020202052
:10033000202020202020000057616974696E67200A
:10034000666F7220444C43500000644220202020FD
:1003500020202020202020004D75746520202020A2
:1003600020202020202020200000F86A006AAB6AAC
:100370000001DF0E926E3C0E936EBD0E946E7B6A92
:100380007A6A7E6A7F6A0F0EC16E7D9E7D9C7D9823
:10039000050EAF6EAC94B896AC98AB8ED09E9D987F
:1003A0009D9AAC8AAB885DEF11F0D8CF19F01A6E28
:1003B000E0CF02F0E9CF03F0EACF04F00001E86AF1
:1003C0009DB8010E186EE86A9EB8010E1816D8B4D2
:1003D000FDEF01F096519763F1EF01F09D98FDEF6D
:1003E00001F000EE36F09651EB50AD6E962B300ECC
:1003F000965DD8A0FDEF01F0966B9EAA17EF02F074
:1004000000EE66F09951AECFEBFF992B300E995D5F
:10041000D8A00CEF02F0996B9951986317EF02F096
:100420009907FF0E996317EF02F02F0E996FF2A054
:1004300054EF02F01C501B10D8A453EF02F01FA081
:1004400053EF02F005C060F208C061F20CC062F226
:100450000DC063F20EC064F210C065F211C066F206
:1004600012C067F213C068F214C069F215C06AF2D4
:10047000D8DE1D6E0DC01EF060C205F061C208F02E
:1004800062C20CF063C20DF064C20EF065C210F0DF
:1004900066C211F067C212F068C213F069C214F0AC
:1004A0006AC215F01F90F29003C0E9FF04C0EAFF92
:1004B00002C0E0FF1A5019C0D8FF10000001ABA223
:1004C0006EEF02F0AB98AE50AE50AB880001966B69
:1004D000976B986B996BA66B2F6A306A99519863EA
:1004E00073EF02F0120000EE66F09851EB50B66F19
:1004F000982B300E985DD8A07FEF02F0986BFE0E1F
:10050000B66388EF02F0B6C027F0A7EC04F0D6D7A8
:10051000800EB65DD8A0AEEF02F0F10EB6150A6EF1
:100520000B6A0A50B10A0B10D8A499EF02F0B10E71
:10053000B66FB00EB663A2EF02F0010EA66F1F8475
:10054000ADEF02F0B10EB663ABEF02F0010EA66F95
:100550001F84ADEF02F0A66B1F94B0D7A653D8B49A
:10056000B3EF02F0A62B020EA661B8EF02F0A6D7F9
:10057000020EA663BFEF02F0B6C02FF09FD7B6C041
:1005800030F0010EA66F030E2F62EFEF02F0302C59
:10059000CEEF02F01F82AA83EDEF02F03052D8A412
:1005A000D5EF02F01F92EDEF02F0020E3062E4EFA1
:1005B00002F01FBAE2EF02F02F0EB46F750EB56FA6
:1005C0001F8A1F86EDEF02F0030E3062EDEF02F09E
:1005D0001FAAEDEF02F01F9A1F8693EF04F0040E9E
:1005E0002F62F5EF02F093EF04F0050E2F6202EF99
:1005F00003F0040E306000EF03F030C0A1F0AA81D8
:1006000093EF04F0060E2F621BEF03F0010E325C35
:10061000D8B419EF03F0090E306019EF03F0B851A8
:10062000305CD8B419EF03F030C0B8F01F86CAECC4
:1006300004F093EF04F0070E2F622DEF03F0730E1A
:1006400030602BEF03F0B951305CD8B429EF03F0E0
:100650001F8630C0B9F093EF04F01D0E2F623BEF00
:1006600003F0A751305CD8B493EF04F030C0A7F08A
:10067000E8EC10F058D1080E2F624DEF03F030C0B7
:10068000ABF0305008E11FAE4ED11F9E01019F6BB1
:10069000A06B000148D11F8E46D14F0E2F6001D0B4
:1006A00076D0560E2F60E8D002014EA16ED0515187
:1006B0002F1807E04F0E516367D04F0E2F6265D0A1
:1006C00009D04F0E516307D04D51301803E1500E41
:1006D000516F5BD05AD0100E306056D0500E51631F
:1006E00005D03050526F510E516F4FD0510E5163A3
:1006F00005D03050536F520E516F47D0520E516398
:1007000005D03050546F530E516F3FD0530E51638C
:100710000FD05439F00B30106E6F030E526306D0B9
:10072000040E536303D0540E516F2FD0546B0FD06F
:10073000540E516305D03050546F550E516F25D073
:10074000550E516321D05439F00B3010546F4EB315
:100750000BD06E51476F54516C6F5251456F5351CE
:10076000466F4B814C810AD06E514A6F54516D6F68
:100770005251486F5351496F4B834C834E914E9564
:1007800001019C81020101D04E910001CCD02D0EBF
:100790002F6001D071D04F0E2F606ED0020140A3A8
:1007A00068D01FA466D02E0E2F6201D003D02F0E6A
:1007B0002F620ED04251301858E14089409D40913F
:1007C0003E6B3F6B409B2E0E2F6253D0408B51D01F
:1007D00040A94FD02D0E2F620CD040BD43D03E53C8
:1007E00041E1425130183F6F1F0E3F613BD0408DB9
:1007F00040D04E0E2F6221D04251301833E140AD2F
:1008000031D03E513F192EE140815D6B40934099BC
:100810004095409F576B586B436B110E3E6101D062
:1008200005D040AB03D03E51F00F436F060E446F2E
:10083000556B566B3CEC0EF01CD040AD13D0300E17
:100840002F5C3E190FE1200E306001D00BD07F0EDF
:10085000306008D002EE20F03E51E9263050EF6EB5
:100860003E2B07D071EC0EF004D04099409D3E6BBA
:100870003F6B00011F9457D02C0E2F6201D036D051
:10088000210E2F6001D04FD02C0E2F604CD0210EA6
:100890002F5C046E0101AE51B86F070E046001D0E9
:1008A00002D09E51B86F800EB8B18B0E0424E96E51
:1008B000010EEA6E30C0EFFF0101060E04620BD09C
:1008C000010EB8B1020E971386EC04F001019C935F
:1008D0009671000128D00A0E046206D0010EB8B14C
:1008E000020E9D139C819C9500011DD00101B3A1B6
:1008F0000BD0B391B66BB385B471B3B303D0B06B07
:10090000B28102D0B16BB28300010DD00101B38579
:100910009C81B8B104D0B06BB28100011200B16B00
:10092000B28300011200CAD500019651975DD8A08C
:10093000300F030F2D6E300E2D6002D0D8901200B4
:100940000101AD3F01D0AD690001D880120000EE79
:1009500036F0975127C0EBFF9729276E300E275CA2
:10096000D8A0B4EF04F0276A9DA8C5EF04F02D6865
:100970002750965DD8A409D02D2EFAD70101AD3F9E
:1009800001D0AD690001D880120027C097F09D8882
:10099000D89012003052D8A4D1EF04F0B76B70EFAA
:1009A00005F0302CD8EF04F0050EB76F70EF05F0AE
:1009B000020E3062E8EF04F0A153D8B4E4EF04F083
:1009C000060EB76FE6EF04F0010EB76F70EF05F09B
:1009D000030E3062FFEF04F0A153D8B4FBEF04F034
:1009E000A12DF7EF04F0010EB76FF9EF04F0070E39
:1009F000B76FFDEF04F0020EB76F70EF05F0040E55
:100A000030621EEF05F0A153D8B41AEF05F0A12D06
:100A10000CEF05F0020EB76F020EA16312EF05F0A6
:100A2000010EB76F030EA16318EF05F0080EB76F44
:100A30001CEF05F0030EB76F70EF05F0050E306286
:100A40003DEF05F0A153D8B439EF05F0A12D2BEF00
:100A500005F0030EB76F020EA16331EF05F0020E31
:100A6000B76F030EA16337EF05F0010EB76F3BEFD1
:100A700005F0040EB76F70EF05F0060E306254EF0C
:100A800005F0A12D46EF05F0040EB76F020EA1632D
:100A90004CEF05F0030EB76F030EA16352EF05F0A4
:100AA000020EB76F70EF05F0070E306266EF05F0CB
:100AB000020EA1635EEF05F0040EB76F030EA16393
:100AC00064EF05F0030EB76F70EF05F0080E3062AB
:100AD00070EF05F0030EA16370EF05F0040EB76F21
:100AE0001200B753D8A478EF05F0B86B11EF06F0F9
:100AF000B72D96EF05F0A153D8B492EF05F0A12DD4
:100B000084EF05F0030EB86F020EA1638AEF05F0C3
:100B1000040EB86F030EA16390EF05F0050EB86FD9
:100B200094EF05F0020EB86F11EF06F0020EB763F6
:100B3000B5EF05F0A153D8B4B1EF05F0A12DA3EFA7
:100B400005F0040EB86F020EA163A9EF05F0050EC3
:100B5000B86F030EA163AFEF05F0060EB86FB3EFE9
:100B600005F0030EB86F11EF06F0030EB763D4EF74
:100B700005F0A153D8B4D0EF05F0A12DC2EF05F0D8
:100B8000050EB86F020EA163C8EF05F0060EB86F30
:100B9000030EA163CEEF05F0070EB86FD2EF05F09C
:100BA000040EB86F11EF06F0040EB763F3EF05F013
:100BB000A153D8B4EFEF05F0A12DE1EF05F0060E3B
:100BC000B86F020EA163E7EF05F0070EB86F030ED2
:100BD000A163EDEF05F0080EB86FF1EF05F0050E1B
:100BE000B86F11EF06F0050EB763FBEF05F0010ECD
:100BF000B86F11EF06F0060EB76303EF06F0020EB2
:100C0000B86F11EF06F0070EB7630BEF06F0030E97
:100C1000B86F11EF06F0080EB76311EF06F0040E7F
:100C2000B86F120000012768278080A627902782CE
:100C300082A02792278480A42794278680A22796C3
:100C4000278882AA2798278A80A8279AFF0E271A22
:100C50002750BC5DD8B432EF06F0BB6B27C0BCF0A8
:100C60003BEF06F0040EBB6139EF06F0BB2B3BEF08
:100C700006F0BCC0BEF09A6BBE51BD5DD8B449EF62
:100C800006F0BEC0BDF09B6B9C6BBEC09AF04FEFF0
:100C900006F0BE31D8B04FEF06F09B4B9C2BC90E2F
:100CA0009B5D320E9C59D8A05CEF06F0280E9B6F1E
:100CB000230E9C6FBEC09AF0120027C02BF02C6A46
:100CC0002C50100DF3CF2CF02B50100DF3CF2BF038
:100CD000F4502C262B5029262C502A22276A100E3D
:100CE000276084EF06F027502924F66E000E2A2094
:100CF000F76EA66AA68E0800F5CF28F0285078EC8B
:100D000000F0272AD8A4EBD71200A96ABF51D3EC70
:100D100000F0010EA96EBA51D3EC00F0020EA96EDC
:100D2000C051D3EC00F0276A060E2760DAEF06F018
:100D3000030E2724A96E00EEC1F02750EB50D3EC30
:100D400000F0090E2724A96E00EEC7F02750EB50E3
:100D5000D3EC00F00F0E2724A96E00EECDF0275043
:100D6000EB50D3EC00F0150E2724A96E00EED3F063
:100D70002750EB50D3EC00F01B0E2724A96E00EE99
:100D8000D9F02750EB50D3EC00F0210E2724A96EA8
:100D900000EEDFF02750EB50D3EC00F0270E2724B5
:100DA000A96E00EEE5F02750EB50D3EC00F0272AB7
:100DB000D8A4BAD7730EA96EEB51D3EC00F0120091
:100DC000000ECDEC00F0BF6F010ECDEC00F0BA6F5D
:100DD000020ECDEC00F0C06F276A060E27603AEFD6
:100DE00007F0030E2724CDEC00F00A6E00EEC1F0F0
:100DF00027500AC0EBFF090E2724CDEC00F00A6E45
:100E000000EEC7F027500AC0EBFF0F0E2724CDECF1
:100E100000F00A6E00EECDF027500AC0EBFF150E71
:100E20002724CDEC00F00A6E00EED3F027500AC064
:100E3000EBFF1B0E2724CDEC00F00A6E00EED9F07C
:100E400027500AC0EBFF210E2724CDEC00F00A6EDC
:100E500000EEDFF027500AC0EBFF270E2724CDEC71
:100E600000F00A6E00EEE5F027500AC0EBFF272ADB
:100E7000D8A4B3D7730ECDEC00F0EB6F050EEB5D8D
:100E8000D8A045EF07F0010EEB6F3CEC14F0120018
:100E90004BDD10E2B00E3324276EA7EC04F034C013
:100EA00027F0A7EC04F035C027F0A7EC04F09F6B07
:100EB000A06B120012000101702B060E706502D0AB
:100EC000010E706F70510001FF0F02E1EEEF07F0AD
:100ED000FF0F02E1DCEF07F0FF0F02E129EF08F05E
:100EE000FF0F02E100EF08F0FF0F02E186EF08F0CC
:100EF0003CEF0AF019DD0CE2B10E276EA7EC04F00E
:100F0000040E276EA7EC04F0276AA7EC04F0120089
:100F100012002828336E170E346E00EEC1F02850F0
:100F2000EB50356EB5DF12002828336E180E346E84
:100F300000EEC7F02850EB50356EAADF12002828CB
:100F4000336E190E346E00EECDF02850EB50356E36
:100F50009FDF12002828336E1A0E346E00EED3F095
:100F60002850EB50356E94DF12002828336E1B0E8C
:100F7000346E00EED9F02850EB50356E89DF120048
:100F80002828336E1C0E346E00EEDFF02850EB5034
:100F9000356E7EDF12002828336E1E0E346E00EE92
:100FA000E5F02850EB50356E3552D8A4DAEF07F053
:100FB000030E356E6DDF1200B7DC0FE2B00E276E48
:100FC000A7EC04F0060E276EA7EC04F0B8C027F0DB
:100FD000A7EC04F09F6BA06B12001200A5DC0FE2DF
:100FE000B00E276EA7EC04F0070E276EA7EC04F0F6
:100FF000B9C027F0A7EC04F09F6BA06B12001200A1
:1010000093DC0FE2B00E276EA7EC04F01D0E276EE6
:10101000A7EC04F0A7C027F0A7EC04F09F6BA06B2F
:10102000120012000001A653D8B40ED09951986353
:1010300008D0AC5303E1800EAC6F1200AC4B06D06D
:101040001200800EAC6F1200AC6B1200A66BAC6B82
:101050001200336A030E346E1FAA33EF08F0020E3B
:10106000356E35EF08F0030E356E12DF12001FAA41
:1010700012001F9A29EF08F01FB012001F80120003
:1010800002015B8F409100011200800E016E800E04
:1010900035EC00F0500E78EC00F0720E78EC00F0B9
:1010A000650E78EC00F0730E78EC00F0650E78ECCD
:1010B00000F0740E78EC00F0200E78EC00F0200EBA
:1010C00078EC00F0200E78EC00F0200E78EC00F0C8
:1010D000200E78EC00F0200E78EC00F0200E78EC7A
:1010E00000F0200E78EC00F0200E78EC00F0200EDE
:1010F00078EC00F00201FF0E5B6F000143EC0FF093
:1011000043EC0FF002015B9F00011200336A030EF3
:10111000346E1FB28FEF08F0356A91EF08F0010EC0
:10112000356EB6DE01E212001200F28612EC06F015
:1011300000015EEC02F012EC08F0E1EC0FF077EC4D
:101140000EF068EC10F09E51EA0A600ED8B49D19BA
:10115000D8A4ACEF08F0D9DD610E9D5DEA0E9E5972
:10116000D8B0B5EF08F09D4B9E2B2CEC09F0A051A8
:101170004E0A200ED8B49F19D8A4C4EF08F09BDE05
:101180009F6BA06BC6EF08F09F4BA02B1FB2CDEF5B
:1011900008F094928B9202EF09F0EB53D8B400EF71
:1011A00009F0EC51B05DED51B159EE51B259EF512A
:1011B000B359B351EF19D8B0800AD8A8E4EF08F0BA
:1011C00094928B92FEEF08F01FAAF7EF08F0B44B51
:1011D000B52BB551750A300ED8B4B419D8A4F5EFB3
:1011E00008F082729492B46BB56BF9EF08F09492A8
:1011F0008B82B02B000EB123B223B32302EF09F090
:1012000094928B82000E9A53D8A4010E186EE86A4D
:101210001FB6010E1812D8B489D7000E9A53D8A45D
:10122000010E186EE86A1FB8010E1812D8B41DEF2F
:1012300009F0B36BB26BB16BB06B1F989A31D8A049
:1012400029EF09F0D8969AA1D886D8B629EF09F0E7
:101250001F729D6B9E6B12001B52D8A434EF09F0D5
:101260001C52D8B437EF09F01B06000E1C5A1FA001
:101270003BEF09F012001E502062EFEF09F01D5005
:1012800021624BEF09F0500E1B6EC30E1C6E1F72D5
:101290001F86EFEF09F01D5022625FEF09F0D00EBC
:1012A0001B6E070E1C6E720EB9615DEF09F0B92B53
:1012B00037EC08F093DE1F861F88EFEF09F01D5012
:1012C000236273EF09F0D00E1B6E070E1C6EB9532C
:1012D000D8B471EF09F0B90737EC08F07FDE1F864C
:1012E0001F88EFEF09F01D50266285EF09F02F0EE1
:1012F000B46F750EB56F1F7A200E1B6E4E0E1C6EEE
:101300001F861F88A6DEEFEF09F01D502562BAEF99
:1013100009F0A153D8A491EF09F0050E276EA6EFAE
:1013200009F0A12D98EF09F0060E276EA6EF09F03F
:10133000020EA163A0EF09F0070E276EA6EF09F0D9
:10134000030EA163A6EF09F0080E276EB753D8B4B9
:10135000ADEF09F0B707AFEF09F027C0B7F01F8670
:101360001F88580E1B6E1B0E1C6E71EC05F024DEE0
:10137000EFEF09F01D502462EEEF09F0A153D8A45D
:10138000C6EF09F0050E276EDBEF09F0A12DCDEFBA
:1013900009F0060E276EDBEF09F0020EA163D5EF10
:1013A00009F0070E276EDBEF09F0030EA163DBEFF8
:1013B00009F0080E276E2750B761E2EF09F0B72B4E
:1013C000E3EF09F0B76B1F861F88580E1B6E1B0ECC
:1013D0001C6E71EC05F0F0DDEFEF09F01F801D5081
:1013E000380A0BE01D50390A11E01D503A0A18E086
:1013F0001D503B0A1AE01F8012001FAC0FD01F9C2B
:101400004ED802E21F860AD01F8C08D01FBC06D01F
:101410001F8C45D802E21F8601D01F9C1F8012003E
:101420000AD807E21F921F8604D015D802E21F8255
:101430001F861F80120094EC04F00CE2B00E276EA1
:10144000A7EC04F0030E276EA7EC04F0276AA7ECC4
:1014500004F01200120094EC04F00DE2B00E276EBE
:10146000A7EC04F0030E276EA7EC04F0010E276E24
:10147000A7EC04F01200120094EC04F00FE2B00E9E
:10148000276EA7EC04F0200E276EA7EC04F0E86AA4
:101490001FBC010E276EA7EC04F012001200ECDF57
:1014A00008E2740EA96EE86A1FBC010ED3EC00F0CE
:1014B0001200120003D00201408F000145EC08F039
:1014C000C00E35EC00F0100E186E200E78EC00F017
:1014D000182EFBD702015D6B40B101D014D04251F0
:1014E000010B5C6F00011FBC07D002015C530BE1D4
:1014F0003CEC0EF0000111D002015C5304E03CEC26
:101500000EF000010AD0020140BF04D000014EECF1
:101510000EF003D0000159EC0EF00101726B1FBCFC
:10152000722B00019A6B1F96000195EC08F00001E8
:101530001FB61F96E86A1FBC010E01017219000157
:1015400002E05BEF0AF09AA3B1EF0AF01FAC94EF50
:101550000AF01F9CA4DF02E25BEF0AF01F8C94EFFD
:101560000AF09AA5BFEF0AF01FBC94EF0AF01F8C97
:1015700096DF02E25BEF0AF01F9C94EF0AF01F96E1
:10158000E86A9ABB010E186EE86A9AB9010E181241
:10159000010E1FB2E86A1812D8B4C6D702015B8FD9
:1015A00040B109D0000142EC0EF01FAC1200020164
:1015B000408F00011200000112000101010BCD6FEC
:1015C000000101019D6B9C6B9E6B9F6BAE6BAF6BC3
:1015D000986B996B97519A6FCDB103D002014C91E2
:1015E00002D002014C934E914E954F6B516B00010E
:1015F000800E35EC00F0500E78EC00F0420E78ECE6
:1016000000F00101CD51310F000178EC00F0010133
:10161000010ECDB1020E971501E14AD0C7EC10F0D2
:10162000045214E10101CE6BD46BD06B0B0ED06170
:101630000AD0D05110D905E0CE2B080ED06101D0D0
:10164000D42BD02BF3D7D4534AE072D0B0EC0DF0AA
:101650000001200E78EC00F0020E046212D06C0E35
:1016600078EC00F06F0E78EC00F0730E78EC00F080
:10167000740E78EC00F00101080E9B6F000144D954
:101680000ED06F0E78EC00F06C0E78EC00F0640E6B
:1016900078EC00F00101090E9B6F000135D9C00EF6
:1016A00035EC00F00101100E9B6F00012DD942D1E5
:1016B00001010D0E9B6F000127D9C00E35EC00F023
:1016C0006E0E78EC00F02F0E78EC00F0610E78ECE6
:1016D00000F001010D0E9B6F000116D92BD1200ED9
:1016E00078EC00F04F0E78EC00F04B0E78EC00F048
:1016F0003FEC0DF0C00E35EC00F00101CF6B080E91
:10170000D06F0B0ED06107D0D051A5D8D16F01E0BA
:10171000A9D8D02BF6D7CF5302E1100E04D0CF5169
:10172000E824CF25110801019B6F0001EDD802D1FB
:10173000210E78EC00F00101CF6BD06B0B0ED06165
:1017400019D0040ECF6116D0D05185D8D16F10E0DA
:101750000001200E78EC00F00101D351A0D8000167
:1017600078EC00F00101D15100016ED90101CF2BBD
:10177000D02BE4D7CF51E824CF250C089B6F000174
:10178000C3D8C00E35EC00F00101050ECE6105D0C6
:10179000100E9B6F0001B8D8CDD00101CF6BD26B7A
:1017A000D06B0B0ED0610FD0050ECF610CD0D05195
:1017B00052D8D16F06E0040ED26102D0D22B01D0F4
:1017C00051D8D02BEED70A0ECE6108D0CF51E824E5
:1017D000CF2511089B6F000197D8ACD000012E0EC9
:1017E00078EC00F02E0E78EC00F0A4D00101D36F5D
:1017F000000ED36701D01200D307010ED36701D0CA
:101800001200D307040ED36701D01200D307050ED0
:10181000D36701D01200D307060ED36701D01200A0
:10182000D307080ED36701D01200D307090ED36780
:1018300001D01200D3070A0ED36701D01200D307DC
:10184000020ED36701D01200D307030ED36701D075
:101850001200070E1200CADFD36F18D8D351E3501D
:10186000010112000101CF5304E00001200E78ECC9
:1018700000F00101D35113D8000178EC00F0010110
:10188000D1510001E1D80101CF2B12000101CDB1EE
:1018900003D011EE80F0120011EE8BF01200010166
:1018A000D36F490ED36701D01200D307440ED3671C
:1018B00001D01200D307530ED36701D01200D30713
:1018C000420ED36701D01200D307520ED36701D066
:1018D0001200D307410ED36701D01200D307500E78
:1018E000D36701D01200D3074F0ED36701D0120087
:1018F000D307560ED36701D01200D307570ED36714
:1019000001D01200580E120001019B5307E00001A4
:10191000200E78EC00F001019B2FF9D70001120096
:10192000C00E35EC00F00101100E9B6F000184EC3D
:101930000CF01200F28612EC06F000015EEC02F0F0
:1019400012EC08F0E1EC0FF02CEC09F000010101C1
:101950009851991150E101019CA317D0AF0705E1FF
:101960001AEC10F001019C9310D09CA508D09F07A1
:1019700006E1010E9EB1020E9D139C9500D0000E53
:10198000986F5A0E996F00013BD00101CD51010BA8
:10199000966FC2EC0DF028E201019CA508D09F07CC
:1019A00014E1010E9EB1020E9D139C950ED0010E06
:1019B00096B1020E9D1509E19651010B9E6F040E22
:1019C0009F6F9C850001DADA01019651010BAE6F21
:1019D000100EAF6F9C830001CFDA0101000E986FEB
:1019E0005A0E996F00010CD00101000E986F5A0E2B
:1019F000996F000105D0985101E1990798070001FE
:101A000001019CB105D0B3B503D097519A1907E0F5
:101A100097519A6F9C91B3950001F8EF0AF000017D
:101A20001F96E86A9ABB010E186EE86A9AB9010E11
:101A30001812010E1FB2E86A1812D8B47BD7000141
:101A4000120078EC00F012000F0B046E10E00F0E85
:101A5000046011D00A0E046005D0300E042478EC26
:101A600000F01200370E042478EC00F01200200E73
:101A700078EC00F012002B0E78EC00F0120001015F
:101A8000CDB12CD002014BA155D0200E78EC00F046
:101A9000760E78EC00F002014551000152D82E0E6E
:101AA00078EC00F00201465100014BD8200E78EC92
:101AB00000F002016C51546F5439000142D8020108
:101AC0006C5100013ED802014751546F5439000156
:101AD00038D802014751000134D8120002014BA34B
:101AE00029D0200E78EC00F0760E78EC00F00201A0
:101AF0004851000126D82E0E78EC00F00201495121
:101B000000011FD8200E78EC00F002016D51546FD7
:101B10005439000116D802016D51000112D802019A
:101B20004A51546F543900010CD802014A51000146
:101B300008D8120001010A0E9B6F000184EC0CF022
:101B400012000F0B046E0A0E046005D0300E042440
:101B500078EC00F01200370E042478EC00F012004C
:101B60000101CDB107D002014B914C914EB308D089
:101B70004E9106D002014B934C934EA301D04E914F
:101B80000001120002014EB12FD001019CB33FD0E1
:101B90009CB53DD096B109D097A139D002014BB187
:101BA00036D04CB134D04E9308D097A330D0020138
:101BB0004BB32DD04CB32BD04E8350511F0BE82488
:101BC0004D6F4EB34D810AEC0EF021E202014F0E33
:101BD000516F040E4F6F4E81502B200E506301D079
:101BE000506B0001D88012004F5305E04F0703E00F
:101BF0000001D88012004EA508D04EB302D04C810F
:101C000001D04C834E914E9502D04E854E910001ED
:101C1000D890120094EC04F017E2B10E02014EB31A
:101C2000B20E0001276EA7EC04F00EE2250E276E1F
:101C3000A7EC04F009E202014D510001276EA7EC68
:101C400004F002E2D89012000001D880120002EEE7
:101C500020F0250E0F6EEE6A0F2EFDD702EE55F026
:101C6000080E0F6EEE6A0F2EFDD700011200020162
:101C7000596B5A6B408712000201596B43515A6FDE
:101C8000408712000201406B3E6B3F6B576B586BF5
:101C9000436B446B556B566BEADF1200F3DF0001B8
:101CA000010EBF6312001FA2120002014085000155
:101CB0001200E8DF0001010EBF6312001FA2120034
:101CC0000201408F000E576F00011FBC05D00201BA
:101CD000300E586F000112000201400E586F0001D3
:101CE000120002015D2B030E5D61CCD7E2D700012B
:101CF000010EBF63120002015BAF06D000011FA2FC
:101D0000120045EC08F012005E2B5EAB07D05E6B54
:101D100000011FA2120045EC08F0120000019CEC2B
:101D20000EF0DCEC0EF008EC0FF043EC0FF002E2EA
:101D300095EC0FF000011200020140A5120040B323
:101D40001200412B200E416301D0416B4151426F83
:101D500042474247429300011FBC03D00201429117
:101D600002D002014281C3EC0EF00BE2020140837B
:101D700040954099409D3E6B3F6B000E576F400E63
:101D8000586F0001120094EC04F013E2B10E276EBC
:101D9000A7EC04F00EE2260E276EA7EC04F009E291
:101DA000020142510001276EA7EC04F002E2D89034
:101DB00012000001D8801200020140B303D040AFEE
:101DC00012000BD0575305E1585305E05807570749
:101DD00012005707120085DF1200575305E15853D0
:101DE00005E0580757071200570712000001010EBF
:101DF000BF630AD01FA208D00101B3B112000201D3
:101E0000409F40850001120042EC0EF000011200DC
:101E1000020140A11200110E3E6101D0120040B734
:101E20001200555305E1565305E0560755071200B9
:101E300055071200000E556F080E566F445302E00E
:101E4000440712003E51F00F5C6F40BB0ED043516F
:101E50005C6304D0436B060E446F13D0432B435195
:101E60005C630FD0030E446F0CD0435305E15C510B
:101E7000436F060E446F05D04307435302E1030E40
:101E8000446FFADE120002015C6B0101030EB061C7
:101E900004D0030EB16101D002D002015C810001C7
:101EA0001FBC01D002D002015C8300011FBE01D023
:101EB00002D002015C8502015C515B19010B14E048
:101EC00000018E0E35EC00F00201200E5CB12A0EEE
:101ED000000178EC00F002015B915CB15B81870E40
:101EE0005B170001D88012005C515B19060B1AE0E9
:101EF00000018F0E35EC00F00201210E5CB503D01D
:101F0000410E5CB3420E000178EC00F002015B93DD
:101F10005B955CB35B835CB55B85870E5B170001EB
:101F2000D88012000001D8901200020140A71200D0
:101F30000001C00E02015925000135EC00F002013C
:101F4000200E40A10DD05A5159255C6F3E515C6165
:101F500006D002EE20F05C51E926EF5001D0200EB1
:101F6000000178EC00F00201592B100E596302D0E9
:101F7000596B409700011200210E03D0220E01D0B0
:101F8000FBD71C6E94EC04F013E2B10E010196B184
:101F9000B20E0001276EA7EC04F00AE21C50276E77
:101FA000A7EC04F005E2276AA7EC04F001E21200B6
:101FB00001011C50210A02E09C9501D09C93000174
:101FC00012000101B52B02E0000112001FA241D056
:101FD0000001040EBF6112000101B3B114D002016F
:101FE00040BF3FD040B33DD040B53BD0010133ECC2
:101FF00010F037E20101B381200EB66FB393B4B194
:10200000B38300011200B65303E0B60700011200CB
:1020100006D8B391B66BB385B4710001120001010B
:10202000B3B304D00F0EB063B02B12000F0EB16328
:10203000B12B12000101B3859C81CDB105D00F0EEB
:10204000B063B02B000112000F0EB163B12B000181
:1020500012000101B06BB16BB26BB36BB46BB56BBB
:10206000B66B000112000001975196632FD094ECDB
:1020700004F02AE2B10E0101B4B1B20E0001276EE4
:10208000A7EC04F0230E276EA7EC04F0276AA7EC58
:1020900004F01FAA19D01FA217D002016B2B6BA14D
:1020A00012D0000194EC04F00CE2B00E276EA7EC05
:1020B00004F0030E276EA7EC04F0020E276EA7ECC7
:1020C00004F0D89001D0000100011200D880120065
:1020D0000101B3B502D00001120000011FA21200DD
:1020E000010EBF6301D01200040EBF611200030E87
:1020F000BF6303D0A45301E012000101B76B030ECC
:10210000B061B781030EB161B783B7A103D0B153FA
:1021100001E0B783800E016ECC0E35EC00F00101BA
:10212000030EB7630ED00001210E78EC00F0310EE3
:1021300078EC00F0200E78EC00F0320E78EC00F035
:1021400022D00101B75312E00001200E78EC00F01C
:10215000200E78EC00F0210E78EC00F00101310E39
:10216000B7B3320E000178EC00F00DD00001200E64
:1021700078EC00F0200E78EC00F0200E78EC00F007
:10218000200E78EC00F00101B39500011200046A02
:102190000101CDB102D0B0510AD0030EB06102D01E
:1021A000B15105D0B15302E0B05101D0B151B96F76
:1021B0000A0EB96109D0030EB96102D00001120004
:1021C000010E046E00011200020E046E00011200E6
:1021D000040EA763FCEF10F0100E206E320E216E7D
:1021E000330E226E340E236E350E266E360E246E9E
:1021F000370E256E0DEF11F0030EA7630DEF11F0F2
:10220000206A0C0E216E100E226E110E236E200E0F
:10221000246E210E256E0D0E266E1200A2C029F02E
:10222000A3C02AF0A5C027F0800E016EC00E35ECC9
:1022300000F05DEC06F095EC08F0000E9A53D8A47F
:10224000010E186EE86A1FB6010E1812D8B4F3D743
:102250009A31E832D8A035EF11F0A551A46334EFDC
:1022600011F0A56B35EF11F0A52BD8969AA5D8865D
:10227000D8B644EF11F0A553D8A443EF11F0A4C091
:10228000A5F044EF11F0A5071200566F6C756D654F
:102290003A202020202020202020496E7075743A9A
:1022A00020202020202020202020536574757020BD
:1022B0002020202020202020202001EE80F0180E59
:1022C0000F6EEE6A0F2EFDD701019D6B9C6B9E6B0E
:1022D0009F6BAE6BAF6BB06BB16BB26BB36BB46B30
:1022E000B56B27EC0EF0000194928B920A0E1B6ED8
:1022F0001C6A7D8AF290F2969D8AF28EF28C966B21
:10230000976B986B996B1F94A66B1D6A1D6A1E6A6A
:102310009B6B9C6B00EEC1F0060EEE6AE82EFDD7BB
:1023200000EEC7F0060EEE6AE82EFDD700EECDF007
:10233000060EEE6AE82EFDD700EED3F0060EEE6A2A
:10234000E82EFDD700EED9F0060EEE6AE82EFDD796
:1023500000EEDFF0060EEE6AE82EFDD7326A1F9619
:102360001F98A968020ED3EC00F0700ECDEC00F0BF
:10237000276E010E275CD8B4C3EF11F0700EA96E62
:10238000010ED3EC00F0710ECDEC00F0276E070EBD
:10239000275CD8B4D1EF11F0710EA96E070ED3EC03
:1023A00000F0BC6BBE6BBD6BB46BB56BB36BB26B4B
:1023B000B16BB06B02EE45F0100E046EEE6A042EA7
:1023C000FDD702EE6CF0030E046EEE6A042EFDD70C
:1023D000010E0F6E2C0EE1EC00F026EC00F0C80EA2
:1023E000E0EC00F0E0EC06F00001BA5106E0BA6B58
:1023F000010EA96EE86AD3EC00F0740ECDEC00F08B
:102400001F9C010A01E11F8C010E0F6EF40EE1EC1E
:1024100000F0800E016E35EC00F02E0EF76E200EEF
:10242000F66E70EC00F0800E016EC00E35EC00F020
:10243000800E016E2E0EF76E300EF66E70EC00F010
:10244000030E0F6EE80EE1EC00F0800EB86FB96F6E
:10245000A76FA16FA86BA96B016E35EC00F0030E9E
:10246000F76E140EF66E70EC00F090EC0CF0949297
:102470008B8240EC08F012EC06F00001040EA9611A
:1024800003D0A84BA92B04D09ABBFF009AB9FF0038
:102490007AEC07F0C80EE0EC00F05EEC02F012EC13
:1024A00008F03CEC08F0800EB85DD8A4010E186E60
:1024B000800EB95DD8A4010E1816800EA75DD8A4B1
:1024C000010E1816800EA15DD8A4010E1816D8B4FE
:1024D000D0D7610E9D6FEA0E9E6F9F6BA06B1F9A07
:1024E000010E326E1FA2CAEF12F01F96BF53D8A47E
:1024F0007EEF12F04EEC13F0A6EF12F00001BF2DAC
:1025000086EF12F05AEC0AF0A6EF12F0020EBF634B
:102510008EEF12F08AEC16F0A6EF12F0030EBF63F6
:1025200096EF12F0F8EC13F0A6EF12F0040EBF6372
:102530009FEF12F0000EDDEC0AF0A6EF12F0050E90
:10254000BF63A6EF12F0010EDDEC0AF00001D89691
:102550009AABD886D8B6B5EF12F0050EBF63B4EFCC
:1025600012F0BF6BB5EF12F0BF2BD8969AA9D886A0
:10257000D8B6C4EF12F0BF53D8A4C3EF12F0050EC3
:10258000BF6FC4EF12F0BF0712EC06F01FB2ADD759
:1025900040EF13F01F9240EC08F086EC08F026ECB8
:1025A00000F0800E016E35EC00F0030EF76E260E83
:1025B000F66E70EC00F095EC08F01F96000E9A5342
:1025C000D8A4010E186EE86A1FB2010E1812D8B412
:1025D000F2D7B36BB26BB16BB06B1F8286EC08F0B5
:1025E000800E016E35EC00F0030EF76E380EF66EBD
:1025F00070EC00F090EC0CF094928B821F92010131
:10260000736B0001A86BA96BAA6B40EC08F012EC8D
:1026100006F00001040EA96103D0A84BA92B04D039
:102620009ABBFF009AB9FF0000017AEC07F0C80ED0
:10263000E0EC00F05EEC02F012EC08F03CEC08F08C
:10264000AAB114D00101732B080E7363E0D7736B2A
:10265000AB98AE50AE50AB880001966B976B986B01
:10266000996BA66BAC6B2F6A306AD1D70101736B83
:10267000B06BB16BB26BB36BB46BB56B00011F8207
:1026800086EC08F001E3BBD7610E9D6FEA0E9E6FEA
:102690009F6BA06B1F9A010E326E24D7800E016EC5
:1026A00035EC00F0BFC027F0220E2A6E8A0E296E8C
:1026B0005DEC06F0800E016E870E35EC00F01FBA5F
:1026C00090EF13F0600EB9616EEF13F02D0E78EC01
:1026D00000F0B9516008276E7DEF13F0600EB9630A
:1026E00077EF13F0600EB95D276E7DEF13F02B0EC0
:1026F00078EC00F0600EB95D276E800E016E2750F9
:102700003EEC00F02E0E78EC00F0300E78EC00F08D
:10271000030EF76E4A0EF66E70EC00F096EF13F0B3
:10272000030EF76E580EF66E70EC00F0B7C027F08F
:102730002C0E2A6E840E296E800E016EC00E35ECB2
:1027400000F05DEC06F0800E016E8F0E35EC00F0AF
:10275000410E1FBC420E1FBE210E78EC00F095EC1E
:1027600008F000019ABB12009AB912009A31E832BF
:10277000D8A0C4EF13F0720EB961C0EF13F0B92BFB
:1027800037EC08F0EEEC07F0D8969AA5D886D8B6C4
:10279000D3EF13F0B953D8B4CFEF13F0B90737EC38
:1027A00008F0EEEC07F0D8969AA7D886D8B6E0EFF6
:1027B00013F01F7A2F0EB46F750EB56F29EC08F069
:1027C0001F96E86A9ABB010E186EE86A9AB9010E64
:1027D0001812010E1FB2E86A1812D8B46BD7120093
:1027E000424C2054696D656F757420202020202094
:1027F000800E016E35EC00F0020E276E220E2A6E5E
:102800008A0E296E5DEC06F0BAC027F0270E2A6EFC
:10281000E00E296EBAC0A5F00001A46B800E016E17
:10282000C00E35EC00F05DEC06F095EC08F0000110
:102830009ABB12009AB912001FA620EF14F01F963F
:102840000001D8969AA7D886D8B629EF14F087EC5D
:1028500014F0010E1FB2E86A186EE86A9AB7010E0A
:102860001812E86A9ABB010E1812E86A9AB9010EAA
:102870001812D8B4BDD71200EB2D48EF14F0EF6B4F
:10288000080EEE6F910EED6F3A0EEC6F66EF14F0DE
:10289000020EEB6355EF14F0EF6B220EEE6F440E59
:1028A000ED6FEB0EEC6F66EF14F0030EEB6362EF6F
:1028B00014F0EF6B550EEE6FAC0EED6F440EEC6F37
:1028C00066EF14F0EF6BEE6BED6BEC6B12004F6686
:1028D0006620286E6F2074696D656F7574293330BA
:1028E00020736563202020202020202020203220FB
:1028F0006D696E20202020202020202020203520DF
:102900006D696E2020202020202020202020BAC0A9
:1029100027F0270E2A6EE00E296E800E016E35EC30
:1029200000F05DEC06F00001030EA46F280EA36F0B
:10293000CE0EA26FEBC0A5F00EEC11F01F96E86A68
:102940009AB3010E186EE86A9AB5010E1812D8B43F
:10295000ADEF14F0A5C0EBF08FDFE86A9AB7010E77
:10296000186E010E1FB2E86A1812D8B4E3D712EC41
:1029700006F01200536F75726365204348313A20A8
:1029800020202020536F75726365204348323A201F
:1029900020202020536F75726365204348333A200E
:1029A00020202020536F75726365204348343A20FD
:1029B00020202020536F75726365204348353A20EC
:1029C00020202020536F75726365204348363A20DB
:1029D00020202020555342617564696F3A202020E1
:1029E000202020204C6566742020202020202020DC
:1029F0002020202052696768742020202020202079
:102A0000202020204C2B522020202020202020205D
:102A1000202020204C2D522020202020202020204B
:102A2000202020204341542F4145532020202020A6
:102A300020202020532F50444946202020202020B1
:102A400020202020800E016E35EC00F0BAC027F067
:102A5000270E2A6EE00E296E5DEC06F0C0C027F04E
:102A6000290E2A6E740E296E800E016EC00E35EC92
:102A700000F05DEC06F0060EC0618DEF15F0C0535E
:102A8000D8A44AEF15F000EEC1F0BA51EB50A56F93
:102A90007EEF15F0C02D54EF15F000EEC7F0BA51DF
:102AA000EB50A56F7EEF15F0020EC0635FEF15F0DF
:102AB00000EECDF0BA51EB50A56F7EEF15F0030E8E
:102AC000C0636AEF15F000EED3F0BA51EB50A56F7A
:102AD0007EEF15F0040EC06375EF15F000EED9F02F
:102AE000BA51EB50A56F7EEF15F0050EC0637EEF77
:102AF00015F000EEDFF0BA51EB50A56F030EA46F96
:102B0000A5C027F0290E2A6EE40E296E800E016EF4
:102B1000CB0E35EC00F09FEF15F000EEE5F0BA516A
:102B2000EB50A56F010EA46FA5C027F02A0E2A6EE8
:102B3000240E296E800E016EC90E35EC00F05DEC9E
:102B400006F095EC08F01FA6ABEF15F01F961FA23C
:102B5000ABEF15F077D79A31E832D8A0BAEF15F07D
:102B6000A551A463B7EF15F0A56BB8EF15F0A52B31
:102B7000F5EC15F0D8969AA5D886D8B6CBEF15F017
:102B8000A553D8A4C8EF15F0A4C0A5F0C9EF15F05F
:102B9000A507F5EC15F0D8969AABD886D8B6D9EF3C
:102BA00015F0060EC063D8EF15F0C06BD9EF15F025
:102BB000C02BD8969AA9D886D8B6E8EF15F0C0539E
:102BC000D8A4E7EF15F0060EC06FE8EF15F0C007C8
:102BD000E86A9AB7010E186E010E1FB2E86A181261
:102BE000D8B43CD712EC06F0120012EC06F0060E38
:102BF000C0613CEF16F0C053D8A406EF16F000EE0B
:102C0000C1F0BA51A5C0EBFF3AEF16F0C02D10EF9E
:102C100016F000EEC7F0BA51A5C0EBFF3AEF16F080
:102C2000020EC0631BEF16F000EECDF0BA51A5C046
:102C3000EBFF3AEF16F0030EC06326EF16F000EE3E
:102C4000D3F0BA51A5C0EBFF3AEF16F0040EC06303
:102C500031EF16F000EED9F0BA51A5C0EBFF3AEF14
:102C600016F0050EC0633AEF16F000EEDFF0BA5131
:102C7000A5C0EBFF41EF16F000EEE5F0BA51A5C09C
:102C8000EBFF12004175746F204465746563742016
:102C900020202020532F504449462020202020204F
:102CA0002020202055534220417564696F20202048
:102CB000202020204145532020202020202020209B
:102CC000202020204F70746963616C202020202018
:102CD00020202020416E616C6F67756520312020B7
:102CE00020202020416E616C6F67756520322020A6
:102CF00020202020416E616C6F6775652033202095
:102D000020202020416E616C6F6775652034202083
:102D100020202020800E016E35EC00F0010E276E81
:102D2000220E2A6E8A0E296E5DEC06F0B7C027F0DF
:102D30002C0E2A6E840E296EB7C0A5F0A153D8A41C
:102D4000A6EF16F0050EA46FBBEF16F0A12DADEFA8
:102D500016F0060EA46FBBEF16F0020EA163B5EFDE
:102D600016F0070EA46FBBEF16F0030EA163BBEFC6
:102D700016F0080EA46F800E016EC00E35EC00F048
:102D80005DEC06F095EC08F000019ABB12009AB9D0
:102D900012000001020EBF6312001FA6D5EF16F04D
:102DA0001F961FA2D5EF16F0B5D79A31E832D8A0FA
:102DB000EAEF16F0A551A463E1EF16F0A56BE2EF80
:102DC00016F0A52B12EC06F0A5C0B7F071EC05F0DB
:102DD000DCEC07F0D8969AA5D886D8B601EF17F0A4
:102DE000A553D8A4F8EF16F0A4C0A5F0F9EF16F09B
:102DF000A50712EC06F0A5C0B7F071EC05F0DCEC0D
:102E000007F0E86A9ABB010E186EE86A9AB9010EDB
:102E10001812010E1FB2E86A1812D8B487D7120030
:102E20004669726D776172652056312E3733000026
:102E300052657620783439203230323630363136A9
:102E40000000FFFFFFFFFFFFFFFFFFFFFFFFFFFF90
:102E5000FFFFFFFFFFFFFFFFFFFFFFFFFFFFFFFF82
:102E6000FFFFFFFFFFFFFFFFFFFFFFFFFFFFFFFF72
:102E7000FFFFFFFFFFFFFFFFFFFFFFFFFFFFFFFF62
:102E8000FFFFFFFFFFFFFFFFFFFFFFFFFFFFFFFF52
:1077B000444C43504354524C01073349202606168B
:1077C000FFFFFFFFFFFFFFFFFFFFFFFFFFFFFFFFC9
:1077D000FFFFFFFFFFFFFFFFFFFFFFFFFFFFFFFFB9
:1077E000FFFFFFFFFFFFFFFFFFFFFFFFFFFFFFFFA9
:1077F000FFFFFFFFFFFFFFFFFFFFFFFFFFFFFFFF99
:107800007FEF3DF00D6E030E02D00D6E040E076E7D
:107810000E500C5C02E10D500B5C040ED8B0010E52
:10782000D8B4020E0714D8A4010E1200800E016E07
:10783000FE0E00D9010EFED8750E0C6E300E41D131
:10784000016A018E166EFE0EF5D81650F3D0056A49
:10785000800E1B6E00D00F6A106A116A116A079AB7
:10786000EDD8D8A01200D30FD8B4078A2D0FC60FB9
:1078700003E20A0FF5E305D0F30FF2E2060FF0E39F
:107880000A0F0D6E040E0E6ED8900F36103611369C
:1078900012360E2EF9D70D500F1205060EE0CED877
:1078A000D8A01200C60F03E20A0F07E3EAD7F30FCE
:1078B00004E2060F02E30A0FE4D707AA0BD00F1E5B
:1078C000101E111E121E0F2AD8B4102AD8B4112A65
:1078D000D8B4122A0F50D8801200056A0F6E106AB1
:1078E00000960550D8B40086040E046E103805D8F2
:1078F000105003D80F3801D80F500F0BF60FD8B027
:10790000070F0A0F00D00B6E044E0096055003E0DF
:10791000045CD8B007D00B50D8A4009600B602D0B3
:10792000300F88D012000F6E0450D8B412000FC070
:10793000E9FF10C0EAFFEF50D8B412007BD80F4A1D
:10794000102A0406F1D7A66AA68E0900F55002E0B7
:1079500002D8FBD71200146E8A98899A9398929A4B
:10796000F00E9316145000B21ED03A0E0C6E980E04
:10797000A8D8330E136E2AD8130E0C6E880EA1D819
:1079800025D8640E9DD822D8640E9AD8220E136E84
:107990001DD8280E07D80C0E05D8060E03D8008275
:1079A000145001D00080136E00A00AD0899A0308F9
:1079B0000BE30AD8070E0C6ED00E83D8D8801200C5
:1079C0000080FE0811E0898A133A00A000908A889E
:1079D000F00E811613500F0B81128A98133A00B0E3
:1079E000F5D7320E6DD8D88014501200ABB2AB98D8
:1079F000AB8802C00BF006C00CF00D6A0E6A0000E6
:107A000000D000009EBA0ED0E8680D260E220B2290
:107A10000C22D8A012000D480E3CF1D7B70E0D6E07
:107A20000E6AEFD7AE50D88012009EA8FED7AD6E7A
:107A3000D880120001BE8FD701B4F7D71B52D6E011
:107A4000D8801BBEEE501200A96EA66AA680A85070
:107A5000A92A1200A86EA66AA684550EA76EAA0EC1
:107A6000A76EA682A6B2FED7A694A92A1200F56E2A
:107A70000C00F6281F0B09E1840EA66E550EA76EAA
:107A8000AA0EA76EA68200D0A694F64AF72A120084
:107A9000F66E940EA66E550EA76EAA0EA76EA6825F
:107AA0000000A69412000E6A0D6EFF0E0D260E2227
:107AB00000D0D8A01200030E0C6EE50E02D8F5D748
:107AC0000C6AFA0F0B6E000003E300D00B06FEE217
:107AD0000B060C06FBE200001200F34E02D0E65249
:107AE000FCD7E6CFEEFFE82EFCD71200426F6F7492
:107AF0006C6F61646572206D6F6465200000F86AC8
:107B0000006A050EAF6E200EAC6E900EAB6E0001DB
:107B1000DF0E926E3C0E936EBD0E946E7B6A7A6A97
:107B20007E6A7F6A0F0EC16E050EBDDF460E766F50
:107B3000570E776F5F0E786F550E796F700E7A6FF4
:107B4000640E7B6F939C8A9C8293DBD98231E832EE
:107B500015E2FF0E79DF1F6E1F2C06D0A968770E85
:107B600079DF20EF00F009D0020E1F6206D0FE0E72
:107B7000A96E010E6FDF20EF00F003D0A968000EA0
:107B800069DFAC8AAB88AB8E51DE94928B82800E1B
:107B9000016E56DE7A0EF76EEC0EF66ED4DE00EE57
:107BA00024F01F0EEE6AE82EFDD7F29E400E1D6EE9
:107BB0001E6A206A216A086A00EE76F00850EB50CF
:107BC000196E00EE7CF0085019C0EBFF082A08502F
:107BD0000608F2E145D900EE43F02E0EEE6AE82EDB
:107BE000FDD7F40E026E010E066E00DFE4E33A08E4
:107BF000FCE110EE43F0FADEDEE30D0802E1E66A96
:107C000004D0AE50E66E01E0F6D782911F6A060EF0
:107C10001F600BD000EE43F01F50EB50086E300E8B
:107C2000085C01E082811F2AF2E1823101E293D1F6
:107C3000226A236A1F6A140E1F601CD000EE71F0C6
:107C400010EE43F01F50020DF3CF19F0F4CF1AF0ED
:107C50001928F36E020E41DFEF6A00EE71F027EC97
:107C60003CF0196E10C01AF0195022261A50232227
:107C70001F2AE1E12250FF08196EFF0E23541A6EED
:107C8000010E1924226E000E1A20236E00EE71F0F0
:107C900010EE43F0290EF36E020E1FDFEF6A00EEC6
:107CA00071F027EC3CF0206E10C021F020502262D1
:107CB000D6D02166D4D000EE71F010EE43F0030E62
:107CC000F36E040E0ADFEF6A00EE71F027EC3CF071
:107CD0001D6E10C01EF03F0E1D14086E096A09507B
:107CE000081002E0000E01D0010E1C6E1DC00BF04A
:107CF0001EC00CF0770E0E6EC00E05EC3CF01C168C
:107D00001DC00BF01EC00CF00E6A400E02EC3CF0E1
:107D10001C1607E01E501D1004E01EC0F7FF1D508A
:107D2000B7DE1DC00BF01EC00CF0770E0E6EC00E3D
:107D300005EC3CF01C6E1DC00BF01EC00CF00E6A72
:107D4000400E02EC3CF01C162DE01F6A080E1F606E
:107D500029D000EE71F010EE43F01F50040DF3CF68
:107D600019F0F4CF1AF0090E1924F36E040EB5DEE3
:107D7000EF6A00EE71F027EC3CF0206E10C021F0AD
:107D80001F50020DF3CF19F0F4CF1AF019501D2433
:107D9000F66E1A501E20F76E215069DE205067DE05
:107DA0001F2AD4E13A0E41DE040E016E020E056E6A
:107DB00022506EEC3CF00D0E38DE0A0E36DE1D5001
:107DC000400A1E1024E1080E1F6E100E1F601CD00A
:107DD00000EE71F010EE43F01F50020DF3CF19F0DA
:107DE000F4CF1AF0090E1924F36E020E76DEEF6A54
:107DF00000EE71F027EC3CF0086E00EE24F01F500E
:107E000008C0EBFF1F2AE1E1A968000E23DE1D5028
:107E1000500A1E1024E11F6A100E1F601FD000EED2
:107E200071F010EE43F01F50020DF3CF19F0F4CFB4
:107E30001AF0090E1924F36E020E4FDEEF6A100ECF
:107E40001F24086E00EE71F027EC3CF00A6E00EE85
:107E500024F008500AC0EBFF1F2ADEE11BD8BBD676
:107E60000D0E15EC3DF00A0E15EC3DF00C0E15EC68
:107E70003DF03A0E15EC3DF0040E016E060E046E58
:107E8000106A7C0E93EC3CF00D0E15EC3DF00A0EE2
:107E900015EF3DF0F66AF76AFCDDF66AF76A000E48
:107EA00037EC3DF0EF0E37EC3DF0020EF66EF76A60
:107EB0003C0E37EC3DF0F00E37EC3DF0040EF66E64
:107EC000F76AFF0E37EC3DF0FF0E37EC3DF0060E83
:107ED000F66EF76AFF0E37EC3DF0FF0E37EC3DF023
:107EE000080E1F6E200E1F600BD01FC0F6FFF76A32
:107EF00000EE24F01F50EB5037EC3DF01F2AF2E16A
:107F000012001F6A0B0E1F6025D0010E82B0E86AB6
:107F10001C6E010E80B4E86A1C16E86A80B2010E7D
:107F20001C1613E0010E0E6EF40E54EC3DF0010E23
:107F300082B0E86A1C6E010E80B4E86A1C16E86A1A
:107F400080B2010E1C1601E082830A0E53EC3DF054
:107F50001F2AD8E112009EDF94928B92A968010E2D
:107F60002AEC3DF0010E0E6E2C0E54EC3DF0FF009D
:107F7000FFFFFFFFFFFFFFFFFFFFFFFFFFFFFFFF11
:107F8000FFFFFFFFFFFFFFFFFFFFFFFFFFFFFFFF01
:107F9000FFFFFFFFFFFFFFFFFFFFFFFFFFFFFFFFF1
:107FA000FFFFFFFFFFFFFFFFFFFFFFFFFFFFFFFFE1
:107FB000FFFFFFFFFFFFFFFFFFFFFFFFFFFFFFFFD1
:107FC000FFFFFFFFFFFFFFFFFFFFFFFFFFFFFFFFC1
:107FD000FFFFFFFFFFFFFFFFFFFFFFFFFFFFFFFFB1
:107FE000FFFFFFFFFFFFFFFFFFFFFFFFFFFFFFFFA1
:107FF000FFFFFFFFFFFFFFFFFFFFFFFFFFFFFFFF91
:020000040020DA
:08000000FFFFFFFFFFFFFFFF00
:020000040030CA
:0E000000FF011F00FF0080FFFFFFFFFFFFFF5B
:0200000400F00A
:1000000000000000000000000000000000000000F0
:1000100000000000000101010101010101010101D5
:1000200001010101010101000000000000000000C9
:10003000000000FFFFFFFFFFFFFFFFFFFFFFFFFFCD
:10004000FFFFFFFFFFFFFFFFFFFFFFFFFFFFFFFFC0
:10005000FFFFFFFFFFFFFFFFFFFFFFFFFFFFFFFFB0
:10006000FFFFFFFFFFFFFFFFFFFFFFFFFFFFFFFFA0
:1000700001073301FFFFFFFFFFFFFFFFFFFFFFFF50
:10008000FFFFFFFFFFFFFFFFFFFFFFFFFFFFFFFF80
:10009000FFFFFFFFFFFFFFFFFFFFFFFFFFFFFFFF70
:1000A000FFFFFFFFFFFFFFFFFFFFFFFFFFFFFFFF60
:1000B000FFFFFFFFFFFFFFFFFFFFFFFFFFFFFFFF50
:1000C000FFFFFFFFFFFFFFFFFFFFFFFFFFFFFFFF40
:1000D000FFFFFFFFFFFFFFFFFFFFFFFFFFFFFFFF30
:1000E000FFFFFFFFFFFFFFFFFFFFFFFFFFFFFFFF20
:1000F000FFFFFFFFFFFFFFFFFFFFFFFFFFFFFF020D
:00000001FF
