:020000040000FA
:1010000009D0FFFFFFFFFFFFD9CF01F0DACF02F0D9
:1010100016ED19F0F6EF19F0003031323334353671
:10102000373839414243444546A6729A090229009D
:1010300001010080320904000002030000000921C0
:1010400011010001221D0007058103400001070571
:1010500001034000010600FF0901A1011901294017
:10106000150026FF0075089540810019012940915F
:1010700000C0160348007900700065007800200069
:1010800042005600000000001201000200000008AB
:10109000D80489FF0100010200010C0344004C0048
:1010A000430050000000040309040000576E21EEC5
:1010B000EDF010EE4DF0070EC7EC1AF05750420A53
:1010C00001E196D10001CB6B93D11BC197F00001D8
:1010D0009751090A14E1020E586ECFD9DF500AE089
:1010E000CCD9BE0E5824E16EE26A020EE222DFCFB6
:1010F000E7FF01D0C5D9582A1F0E5864EED7030A5E
:1011000007E1020E586EBCD9582A1F0E5864FBD74F
:10111000030E0001C16F1BC1C2F09751090A02E022
:10112000030A06E1BD8BBD8D0201F82BF82B0001EF
:10113000D9DB89EC1FF023EC0FF088D101011B05EE
:1011400017E11CC1B7F00DD0040EC16F010EC26FC4
:101150001200FADFEED71DC1B8F0F6DF7F81948967
:10116000E8D70001B751010AF4E0030AF4E06ED1B8
:101170001B51020A01E06AD11EC1B5F0040E000144
:10118000C16F020EC26FB551060A1AE1050E586E04
:1011900074D9DF500AE071D9FB0E5824E16EE26A7F
:1011A000000EE222DFCFE7FF04D0FB0E5824B5DBB0
:1011B000DF68582A130E5864EBD70001BD89B8D7F1
:1011C000B551FD0B050AB5E041D185DA01001B9947
:1011D000011F7104FFFF0001949B5E9821EE23F034
:1011E000DFA002D0948B5E88A451C00BA46F21EEC7
:1011F00024F0DFB0A481D92ADFB0A483D92ADFB0DC
:10120000A485D92AD92ADFB0A487D92ADFB0A48936
:10121000D92ADFB0A48B5FDA01002C6006325F01AF
:10122000339B0438B401FFFFB3519919D8A49481BA
:1012300010D902E07E87948300EEACF010EE9BF0B4
:10124000040E14D9D8B402D07E87BD874C6A5EB82C
:101250004C2A5EBA4C704C5202E07E8B9487B0519F
:10126000A419D8A47E8DB451B119D8A47F8300EEFF
:1012700060F010EEA5F0060EF9D8D8A47E8999C0CA
:10128000B3F09AEC1FF05EA802D05E8A01D05E9A9D
:1012900022DA0000A4B00160A506B4B1019BAC0441
:1012A000FFFF050E06D001011B0506E192EC1FF0C1
:1012B000060E0001C16F3FD71B51020A01E0C6D0E4
:1012C00092EC1FF0EED701011B510F0AD8B45E8ECD
:1012D0005750070A08E101011B6705D00001C56BE3
:1012E000560E836F826BAB985E800001986BC76B64
:1012F000C66B3CEC12F057C0C1F01DD7086A0768F6
:10130000096AA5DB65EF1FF00001CB6734D066D812
:1013100082EC0EF0C70E036E0A0E5DD89A0E036EB5
:101320002D0E59D8D10E036E080E55D80EEC1FF0B5
:10133000050E066EDC0E4AD8D10E076E080E096E39
:10134000DAEC18F04C6E050E4C5C14E3010ECB6F1A
:10135000586A58504D0FC1D94C6ED10E5824D4DA6A
:10136000DF504C1802E00001CB6B582A050E586480
:10137000F0D701D0CB6B0001CB5102E091D8BBD7A5
:101380002DD857C0C1F023EC0FF0120E01015B6F96
:101390005DD01EC156F01FC155F057C0C1F023ECFF
:1013A0000FF07D51561802E17C51551806E11EECF4
:1013B0001EF0AA0E01015C6F49D0110E01015B6F96
:1013C00000010CD843D001011A6B40D0056E010119
:1013D000010E086E1200056E63EF1EF0CB6B7C6B86
:1013E0007D6B806B816B866B876B846B856B12006A
:1013F0005750010A2BE0030A29E0010A01E165D6F2
:10140000070A01E19BD6010A01E1DFD6030A01E1E7
:101410004AD75750F90F040801E35AD757500C0A1E
:1014200001E151D74C0A01E169D7010AB2E0030A90
:1014300001E16AD7010A02E109EF22F0070A02E19D
:1014400095EF22F0010ABFE13DEF22F001011A6B96
:10145000120000016951711908E16851701905E124
:1014600067516F1902E166516E1912004C6EEE5011
:10147000E61802E14C2EFBD712001A0E582444D273
:10148000BE0E582459EC1EF0DF6812000001845D86
:10149000770E8559120000018027000E812312006B
:1014A00021EEE5F010EE1DF0080EC7EC1AF0020E6A
:1014B000496E1A0E492428DADF504A6EC00EE6DF64
:1014C0001AE24AC045F0486A7DAB03D0010E446E73
:1014D00001D0446AD8907C377D3745B07C81D89064
:1014E0004532445004E0020E7C1B440E7D1B482A0A
:1014F000070E4864E9D7400E845D000E85590AE363
:10150000C00EC4DF08E20F0E84158A6F8B6B8B113F
:1015100006E095D0BFD087518611FCE003D08751FB
:10152000861163E08651B7DF8751B5DF801D1B6EE2
:10153000811D1C6EF10E1B24806FFF0E1C20816F1D
:101540008051CDEC1CF0ADD89A0E4B24DDD980C073
:101550001BF0ADD8DF6A020E4B2600019F6B066AB6
:101560000A0E34DFC70E076E0A0E096EDAEC18F0A9
:10157000C8C103F00101C75104EC1BF00001801940
:101580000EE1010E436E28D00101010E196E9A0E74
:10159000186E2AEF1EF0196A186E2AEF1EF0436AC1
:1015A0001D0EF9DF00019FC012F0136A156A0A0EC2
:1015B000146E250E18EC1CF0EEDF210E76D814EC1C
:1015C0001FF06FD8190E00019F5D04E29F2BDCDF36
:1015D00068D802D09F2B1200435001E1C0D7C00E43
:1015E00055DF04E3866B876B95D78E6BC00E4EDF9D
:1015F00026E2040E8E5D04E28E2B0A0E32EC1DF004
:1016000084C086F085C087F03A0E01019A6F310ED2
:101610009B6F300E9C6F21EE9DF087C01BF047D86A
:1016200086C01BF044D8300EA16FA26FA36B090EC9
:101630004B6E14EC1FF0A8DF0001806B816BC00EB5
:1016400025DF26E284A11FD020EE2FF046C01BF03C
:101650002ED84AC01BF02BD8336A2F0E9CDF476A66
:1016600009D047502F0FD96EDA6A9A0E4B2443DB0C
:10167000472A4B2A47502F0F30D8F3E19A0E4B24BC
:1016800043D9DF6A02D04AC046F04A5004DF02D094
:10169000806B816B844B852B492A1F0E496409D7C7
:1016A00012000D0E02D80A0E00D025EF1FF01BC04D
:1016B0001CF01B3A03D81CC01BF000D00F0E1B16E9
:1016C0001B5004D80800F5CFDEFF1200190FF66E8C
:1016D000100EF76E1200C6EF12F055EF1EF0E8CFB5
:1016E000FDF05EA61200000194BD1DD05EBE23D0A9
:1016F000949F7EB3948F7F9527D8000194AF1BD021
:10170000949F7FB507D07FAD16D094BB14D05E9860
:101710005E9A11D002D805EF20F05E885E8A7E8343
:101720007E977F8D12009EEC15F003E2949D7E83E0
:10173000DFD7948DEFD700015EBE84D07EA782D024
:101740005EA83CD07E8B7ED000017EA312005EB8E6
:101750007E8799677E871FD0090E066E700E0BD0AC
:101760000A0E066EB00E07D0080E066E300E03D0BD
:101770000B0E066EF00E0D6E0D0E6BD90D50066E33
:10178000080E67D95AEC1FF014D075EC1DF0010E4D
:10179000B8EC1CF0E9D79351F8E0010ADDE0030A48
:1017A000DFE0010AE1E0070AE3E09351FB0F0208E2
:1017B000ECE2A3D800017E93BD8194D094B940D0CF
:1017C0007E8DA46BB06B9A6BAB51F80B09E1AB51FA
:1017D00003E0FB0F05E3010F20EE9BF0DBCF9AF057
:1017E0009A516E250D6E000E6F210E6E000E702147
:1017F0000F6E000E7121106E70EC1AF06CDF00009D
:101800000D1204FF470E166EC90E176EEB0E186E02
:101810003D0E196ECEEC11F0C6EC12F0000012ED88
:1018200004ED2F04FFFFA1EC11F055DF00002F5550
:1018300004FF13EC21F061D80001BD8153D802D020
:1018400091DBF9D75EAE20D00201DE6B96EC1FF083
:1018500089DB4AD800017E9DCAEC1DF011E200012F
:10186000BD51600B11E1F2AE04D0F29E91EC21F07B
:10187000F28E5E9E00017EAB5EB806D07E8704D0FD
:101880005E887F8DAB881200AB889D8A00017EAB9D
:1018900007D05EA802D066DB01D07E872ED800017B
:1018A0007EAD13D05F0E146E1C0E4B6EA4C04CF0B8
:1018B0004C324B50D8B0EC0F136E85EC17F0280E5D
:1018C0004B26F6E31AD800017E9D0ED800017FA1B9
:1018D00003D07F91BD8506D800017FA312007F93BE
:1018E000BD8500D030EF1FF000017EA912001FDA85
:1018F00000017E99BD8301D8F5D7050E0001C16FA7
:10190000FD67D6EF1DF01200D96EDA6A010EDA22F9
:1019100012000101B00E0A2400D0D96E010EDA6E59
:101920001200096A2DD118EC1FF001E12BD1EDEC6A
:101930001DF00A6E7F0E0A641ED00A50B00A04E140
:10194000010E986F5E9013D0010A04E1010E986FAA
:101950005E800DD0986B5E900AC005F0F00E051603
:101960000550B00A04E10A50BF0AD8A40A065EB0C6
:101970000BD10DD909D15EB004D0020E985D01E201
:1019800006D900019867982B020E985D01E2FCD001
:101990009851020A03E10AC0A2F0F6D00AC0A3F0EF
:1019A0000AC0BCF05E8C010E986FB6D0056A5EA6C8
:1019B000052A054605467E510518FB0B05187E6F66
:1019C0007EB55E86D7D05EA602D07E8502D00001AD
:1019D00000007EB55E96CED00001056A5EB8052A8D
:1019E0005EBA010C000C94B711D05E88948B020192
:1019F000DE67E283F1DF01D0000E051AD8A47E8BEA
:101A00005EA802D05E8A01D05E9AB4D0020E5EA8B3
:101A1000030EBC6F9497AED094B7F8D794B9AAD000
:101A2000949B0201DE67E2A103D0E2930001A2D001
:101A30005E980201DE67E293CFDFDFD7A351C3E0F8
:101A4000010AB4E0030ACFE0010AE6E093D048EFD0
:101A50001EF03BEF1EF04BEC19F08CD094B10FD080
:101A60005EA802D07E8704D0A351991101E182D0F3
:101A7000A351996FB36FAB69650EBB6F7BD099C0F3
:101A8000BCF0949177D094B317D0A00E056E066881
:101A9000A351076E086A055007260650082207C0A2
:101AA0006EF008C06FF0000E6FBFFF0E706F716FA9
:101AB000D0DC60E07E875ED06E51600FBC6F949387
:101AC00059D0A351290A56E1EEEC1EF053D00C5028
:101AD000600FE96EEA6A450EE924E16EE26A0001F0
:101AE000A351EF6EE7627E89E76E44D094B907D0C8
:101AF000B851A3193FE0A3C0B8F07F813BD0B8C074
:101B0000BCF0949937D0A3C0C3F0B251C319D8A484
:101B1000BD81C3C0B2F02ED0A251030A01E18ED71D
:101B2000070A99E0020A9AE0010AADE0170AC9E043
:101B3000A251E90F0C6E0508CAE2A2511D0AD6E0B7
:101B4000030AE1E03E0AD8B464EF21F0010AD8B4F8
:101B50002DEF20F0030AD8B434EF20F0010AD8B4F6
:101B60003DEF20F0060AD8B444EF20F0030AD8B4C1
:101B70005DEF20F05EAC08D001EC20F0BC51F4D950
:101B80005E9C02D0010E096E09661200CCD601ECF3
:101B900020F00A50E9D19FDDEE00007101017001D3
:101BA000026F01036E010499010760060D5F0114C5
:101BB000C301FFFF7151800A800F06E1705D04E1EF
:101BC0006F5D02E1130E6E5D05E3A00E6E6F6F692F
:101BD00070697169080E996502D0010E996F030E44
:101BE000606501D0606B20EE61F0DF6401D0616B55
:101BF00020EE62F0DF6401D0626B20EE63F0DF6400
:101C000002D0010E636F20EE64F0030EDF6402D099
:101C1000010E646F20EE65F0030EDF6402D0010E4A
:101C2000646F030E5F6401D05F6E040EC36502D063
:101C3000010EC36F9AEC1FF04EDD000099B30160F6
:101C4000A506C3B201FF0F0E50D8B46FB429D8B4A3
:101C5000B491B4C0B1F00E0E48D8B86F030EB85DA1
:101C600002E2030EB86F040EB86502D0030EB86F1F
:101C700032DDEE00109B04FF120E9B6501D09B6BC2
:101C80009C6501D09C6B9D6501D09D6B9E6501D0CC
:101C90009E6B21DD00009BAC04FF500E0A6E39DE06
:101CA00017D85E0E0A64FBD7600E0A6E0201600E42
:101CB0000A2459EC1EF00CD87D0E0A64F7D7800E6A
:101CC0000CD8810E0AD8820E076E9A0E096EBFD606
:101CD0000A500BD8DF6E0A2A1200076E086A074402
:101CE000020F096EB4DE086A1200036E046A1CEC6F
:101CF0001FF000011200E16EE26A010EE222DFCF66
:101D0000E7FF12000101010E046E1200036E040EC3
:101D1000056E63EF1EF0046A0001F8D7F76EF86AEB
:101D20000900F5CFE1FF0900F5CFE2FF1200D70E61
:101D3000F2DFDB0EF0DFDF0EEEDFE4DFD90EE6DFF1
:101D4000E30EE9DFDFDFDD0EE1DFDCDFE10EDEDF0A
:101D500038EC1FF0596A59442C0FF66E1E0EDEDF68
:101D600059500001600FB9DC18EC1DF0A0C0E6FF6F
:101D7000B9C0E7FF592A050E5964EDD75A6A5A448B
:101D8000380FF66E1E0ECADFE6CF6AF0E6CF6BF0B4
:101D9000E6CF6CF0E7CF6DF0C580B1EC1FF03AE212
:101DA000680E98EC1AF001010F0E5A24ADDDDF50D9
:101DB00098EC1AF05B6A5B5000016A0FD96EDA6A20
:101DC000020EDF6205D0556A566A576A3F0E08D088
:101DD000030EDF6207D0556A566A800E576EBF0E3B
:101DE000586E07D0DF50E3EC1DF0D0DB00000D553E
:101DF00004FF52EC18F057EC18F05B2A030E5B64FA
:101E0000DAD7C584B7EC1FF008E25A2A060E5A64E6
:101E1000B6D7060C14EC20F0060C11EC20F0060CE2
:101E2000000000000000000000000000D700DB0000
:101E3000DF00D901E400E001D700DB00DF00D901B9
:101E4000E300DD01E101C1C05AF179D0C2C05BF10C
:101E5000020E036EBE0E0324D96EDA6A020E8CD80F
:101E60001F0E0364F7D77BD0C2C05BF1C20505E14A
:101E7000B7C05CF1B8C05DF172D0C251020A01E096
:101E80006ED0B5C05EF1050E036EFB0E0324D96E55
:101E9000DA6A000E71D8130E0364F7D760D093C0CE
:101EA0005BF199C05CF101015D6B5E6B71C05FF12C
:101EB00070C060F16FC061F16EC062F1636B5EB8BB
:101EC000632BA4C006F021EE64F0030E4FD8D92A8C
:101ED000030E4CD85BDB0001606C06B47801FFFF99
:101EE0003ED0030E01015B6F5C6F050E5D6F99C004
:101EF0005EF15F6B606B616B5FC063F1060E646FD8
:101F00000F0E656F666F676F686F696F6A6F0A0E95
:101F10006B6F6C6F6D6F6E6F6F6F706F010E716FA7
:101F2000726F34DB00019B7304FF19D01BC15BF19E
:101F300016D001015B6B5C6B5D6B5E6B10D00001BA
:101F4000C151030A01E182D7070A8EE0010AA7E026
:101F5000030AC7E0C151F90F0508E8E2EAD700011A
:101F6000C16B12005EEF1DF025EF1FF00632DF6A35
:101F7000DE36E82EFBD71200DA225A0E0324BBDE2F
:101F8000032A1200180E05D0D8902B322A3229329B
:101F90002832E82EF9D71200F9DA0000202804FFD1
:101FA000F1DF28502E6E24C028F0C6D9EBDF285070
:101FB0002D6E2E5009E02D502E5C0BE22E502D5C24
:101FC000286E210E285C05E3E1DA0000242004FFDE
:101FD00078D02D5009E02E502D5C07E22D502E5C5C
:101FE000286E210E285C01E36CD0060E2C6E23BEF9
:101FF0002C8E27BE2C8C228E236A268E276A2D508B
:102000002E5C1CE2D89024362536263627362D063F
:102010002D502E180FE002D80DE0F4D72C062CC05E
:1020200028F0070E28161200D890233222322132CF
:1020300020322E2A2D502E62F7D718D02E502D5C2C
:1020400015E2D89020362136223623362E062D5022
:102050002E1809E0E3DF07E0F4D7D89027322632C4
:10206000253224322D2A2D502E62F7D72CAE09D0DE
:10207000201E211E221E231E202A000E2122222283
:1020800023222CAC02D0241E1DD82C6A20502426DA
:1020900021502522225026222350272227AE04D069
:1020A000241E10D8010E2C6E71DA00002403042EB9
:1020B00007012C0801FFA9EC14F068DA00000320E6
:1020C00004FF1200251E261E271E242A000E25228C
:1020D00026222722000C00017EA11200780EF66E47
:1020E000210EF76EF86A010E1FD8020E1DD8040EDD
:1020F0001BD8080E19D8BDA90FD0500E0A6E0AC001
:1021000007F0086A06DCDF50096EA1DC0A2A5E0EC1
:102110000A64F5D70001BD99BDAB02D081EC21F076
:102120000001BD9D7E9112000A6E0900F5CF13F0EB
:10213000BD510A140B6E0900F5CF07F00900F5CF69
:10214000E9FFEA6A0B52D8B403D0EFCF09F009D8FF
:10215000132EF1D70B52D8B4120000010A1CBD1780
:10216000120007C003F01CEC1FF0091804E009C0BE
:1021700005F0E3EF1CF0120007036E026F01700020
:102180007104990D5F14C3060760086109620A6350
:102190000B640C65020FB40EB804109B119C129DC9
:1021A000139E5EA6B0D0640E0001BB65ABD0BB6BC6
:1021B00004D0B651080FBE6F1DD09951FAE0090E38
:1021C000996118D09951FF0F036E030E5F6402D01E
:1021D000040E01D05F50046E0446044604440324F8
:1021E000080FF66E230ED8B0010FF76EF86A0800DC
:1021F000F5CF93F0996730D0BA670AD0AB510AE1B6
:10220000BEC006F00D0E25DC0001120EBA6F69D0BB
:10221000BA2F67D0130E8CD864E20001BE6FBE6780
:1022200020D0AB5114E0140E83D85BE20201040B02
:1022300005E0F32B140EF36106D001D0F36B00011F
:10224000ABC093F04BD0F36B010E74D80001936BCD
:10225000B62BB651040A45E1B66BBA6B0201F36BBB
:1022600040D00201F36B0001AB5106E1140E60D8BF
:1022700038E20001040BEBE1B66702D0030E936F66
:10228000B60502E1010E936FB651020A02E1020E99
:10229000936F010A02E1040E936F120E49D81EE2F9
:1022A0000001BF6F08E194BB0BD00201DE530001B7
:1022B000D8B45E9805D05EB802D0000E3BD85E88D8
:1022C000086A5EB8082A010E5EAA000E081AD8A491
:1022D0007E8B5EA802D05E8A01D05E9A280E000135
:1022E000BA6F00019351020AD8B482B002D0C3C0C1
:1022F00093F0AB51931903E07E83020E1BD893C079
:10230000ABF001D0BB2B120000010203040000005F
:102310000005010203040000000506010203040099
:10232000000506070102030400050603040000007F
:1023300052EF1CF096EF1DF029D90000252903FF6C
:102340001200116A126A800E136E440E146E1ED9AA
:1023500000002F0D04FFCED819D900000D2004FF76
:10236000246A256A800E266E3F0E276E15DE0ED972
:102370000000202F04FF0A0E116E48D92F0ED4EC56
:102380001AF0112EFAD71200180E05D0D8901D326F
:102390001C321B321A32E82EF9D71200F7D800008F
:1023A000121A04FFF1DF1A501E6E1E6601D009D00A
:1023B000EDD80000161A04FFE7DF1A50246E2466D9
:1023C00005D0126A136A146A156A36D024507B0F3E
:1023D0001E2615C024F01950241A800E2416148EBF
:1023E000188E196A1F6A206A216A226A070E236EF4
:1023F00012A002D0165021D828D816361736183613
:102400001936232EF5D7110E236E12A002D01650C6
:1024100014D81BD82232213220321F32232EF5D776
:10242000B5D800001F03041E0701240801FF91DA3C
:10243000ADD80000031204FF12001F2617502022FF
:1024400018502122195022221200D890153214322D
:1024500013321232D890120082C003F083C004F00D
:10246000056A066A1200F8DF086AC00E076E0301EB
:10247000030E0A6E096A1200C56703D0F4DF60EC30
:102480001BF021EE1EF001011B5102E0020ED95E8D
:10249000040E0001C525E16EE26A030EE222140E6D
:1024A000C7EC1AF0180EC527BF0EC56518D0C56B4E
:1024B0003F0E825D5F0E835912E2CEDFBF0E822592
:1024C000076E000E8321086E096A0A6A38EC1AF05A
:1024D000CADF27D9C00E00018227000E8323120015
:1024E000180E05D0D8901832173216321532E82E51
:1024F000F9D712004BD800000D1504FFF1DF15507D
:102500001E6E1E6601D009D041D80000111504FFCF
:10251000E7DF15501F6E1F6605D00D6A0E6A0F6A41
:10252000106A12001F50890F1E5E10C01FF0145059
:102530001F1A800E1F160F8E106A138E146A200E3B
:102540001D6ED89019361A361B361C3611500D5C8C
:1025500012500E5813500F581450105809E31150D0
:102560000D5E12500E5A13500F5A1450105A198003
:10257000D8900D360E360F3610361D2EE2D706D8FF
:1025800000001903041E0702FFFF0FD2FDCFF6FF64
:10259000FECFF7FFF86A0900F5CFC5F30900F5CFC4
:1025A000C6F303010900F53C12D0F6B00900F2AE03
:1025B00008D0F29EF650FD6EF750FE6EF28E0001CE
:1025C0001200F650FD6EF750FE6E00011200F5CFBE
:1025D000C7F30900F5CFC8F30900F5CFC9F3C5511A
:1025E000EE0A05E1C75175EC0EF0030105D0C7C333
:1025F000E9FFC5C3EAFFEF50C8C3E9FFC6C3EAFF5E
:10260000EF6EC72BC82BC92FEAD7CCD7BFDF00008E
:102610002F2504FF1200B00EA7DC030EA5DC010E6F
:10262000A3D4F29EF8DF9DEC1DF08A940001886B24
:10263000896BC282320E086E0A0E63D8C2B20BD00A
:10264000C4505D6E5C6AC3505C240001886F000E4C
:102650005D20896FC282360E77EC19F002E2082EF7
:10266000EBD7460E4ED872EC19F08A98899C8A9660
:10267000C69A93829380640E44D88A88050E046EAD
:10268000DC0E036E34EC1DF093829380010E39D87A
:10269000A9EC1EF000019499898C64DC00017E890C
:1026A0005E8E000E6FEC0BF08A8692EC1FF046DA1D
:1026B00002E27E8303D08DEC0BF0948D92EC1FF040
:1026C0008DEC1FF0A8DF020173EC21F002E0010E97
:1026D000DE6F00017E877F817F83000E6FEC0BF041
:1026E0004BEC19F0F29AD59EA40ED76E710ED66EF1
:1026F0000001A16B949590EC1FF09D8AF28E81EF02
:102700001FF032EF1DF05EA412000650051008E124
:10271000560E045C05E3600E045C02E20A0E045EE1
:102720001200F1DF106A32DF0000031404FF050E0F
:102730000B6E41D90B2EFDD7050E10D8E82EFDD714
:10274000200E032611D81450035C0F6E4FD016C014
:1027500013F015C012F014C011F01200D890033617
:102760000436053606361200000E04220522062223
:102770001200EDDF19D009C0D9FF0AC0DAFFDF501F
:1027800011C0F6FF12C0F7FF13C0F8FFF56E0C0082
:10279000094A0A2A112A000E122213220706D8A07B
:1027A00008060850071003E00F060F28E4E113C0E5
:1027B0000EF012C00DF011C00CF0C9DFA68EA69C61
:1027C000A684F2AE03D0F29E010E106EF8EC1CF05F
:1027D000A694105002E0F28E106A200E0F6E0C507C
:1027E000146E0D50156E0E50166E176A08500710B5
:1027F000D8B41200BED76EEC1EF0CD6701D05FD00A
:1028000068B406EC1FF06DB25AD068B0ADEC1BF0A6
:1028100068A80CD069CF92F0040E696E68986D823A
:10282000A19AA08AA09A000192516912030E000198
:10283000CD5D45E3C46B68A642D06C506CCF06F00A
:102840007C0E061631E1040E7B6F6CA2000E7A6FCF
:1028500068967AC0D9FF7BC0DAFFDF30E8320F0B11
:102860000D0A28E1906B19D8DECF06F0DDCF07F016
:1028700006C0D9FF07C0DAFF9051CF0FE16EE26AC0
:10288000DFCFE7FF0AD8DE2A000EDD22902B070EED
:102890009065E9D79BEC1CF00DD020EE02F07A5148
:1028A000D9267B51DA2212006C50040A689602E1A4
:1028B000FEEC1CF00001C42B030EC465BCD7120053
:1028C0003BDD28C02CF01200D8902C322B322A325B
:1028D0002932E82EF9D71200F3DF180EFADF29505B
:1028E0002E6E2E6605D0256A266A276A286A30D0A1
:1028F000E7DF200EEEDF29502D6E278E286A960E18
:102900002E5E2EAE0FD02E50800A296EE90E800A60
:10291000295CE9E3D89028322732263225322E3E30
:10292000F9D70CD01F0E2E6407D0DDD7D8902536EE
:102930002636273628362E062E66F8D72D5008E084
:10294000281E271E261E256C000E2622272228223E
:102950001200075005E0065003100410051007E1AF
:10296000036A046A056A066A1FD0072A24D8FE0E85
:10297000061405E0FAD7072A032AF6DE1CD806500B
:1029800003E0F9D70706EADE05AEFCD707B002D0B0
:102990007F0E0516D890073207500612096A0A6A98
:1029A0000B6A0C6A0866068E1200D3DFEFDD0000AA
:1029B000030D04FF1200D8900632053204320332B0
:1029C0001200CF511F0B036E03044AE1D35148E1BB
:1029D000D051060A18E01ED0020EC86F100E766F96
:1029E0003E0E756FE86B090E0CD0020EC86FEB053A
:1029F00004E1100E766F550E756FEB050AE1E86B7A
:102A00001D0EE76F06D0D251210AE6E0030AEDE081
:102A1000010ACE83CF39E832030B036E030420E1B1
:102A200012D0020EC86FEA0E1CD0020EC86FD2C0C0
:102A3000EAF016D0020EC86FE90E13D0020EC86F6E
:102A4000D1C0E9F00DD0D051010A0AE0030AE9E053
:102A5000010AF0E00A0A04E0030AE7E0010AEEE0F6
:102A60001200766B756FCE93010EE76F120096051C
:102A700004E1010E07D8966B1200000E03D8010E78
:102A8000966F12008AEF1BF0C86707D0040E04018E
:102A9000086F088FC3DAEBDF2DD0CFAF18D0010E4F
:102AA000C96FE751D55DE851D65904E2D5C0E7F0CA
:102AB000D6C0E8F026D9480EB1DA010EE3DF000EE9
:102AC000E1DF0401040E0B6F240E0A6F10D0020E1A
:102AD000C96F040EA3DAD651D51102E1480E9EDA71
:102AE0000001C5DFD651D51105E10401096B480E7F
:102AF000086F088F120038EC1FF0060EF66E2B0ED2
:102B0000F76E100E10D03F013003010408050106D6
:102B100034073008080D080E220F00100011011CA8
:102B2000011D022D202EF86A086E0900F5CF06F06F
:102B30000900F550E8D9082EF8D7120000017F955A
:102B4000DADF010E066E1B0EDED90001D8907FB5CC
:102B5000D88012001BDD00002F0304FF370E076E24
:102B6000C8EC19F03850EFDAD8B4375C05E22F6AB8
:102B7000306A316A326A13D01D0E375C000E385845
:102B80000EE244DDA9DE02DD0000250D04FF70EC3D
:102B90001AF0FCDC00000D3304332F04FFFF120099
:102BA000D1050BE1CF511F0B08E1010EC86FD051C9
:102BB000030A02E1CE8101D0CE91D1671BD0CF5163
:102BC0001F0B020A17E1D3510F0B14E0010EC86F5F
:102BD00034D9D051030A03E10ED8040E08D0D3AF84
:102BE00004D009D8400EDF6E05D005D8080EDF6E80
:102BF00002D8DF8E120072C0D9FF73C0DAFF120054
:102C0000116E0AC00EF00BC00FF0C0DC00000E0306
:102C1000020C0502FFFFCAEC1BF003C00EF004C05B
:102C20000FF0112A0F500E10F0E11150D96EDA6A30
:102C3000DF6A110605D0AADC00000A0304FF1200B7
:102C4000FADF70EC1CF00350106EF5DFCAEC1BF0DD
:102C500003C00AF004C00BF0090E106402D0070E86
:102C60001026300E10261150D96EDA6A10C0DFFF20
:102C700011060B500A10E4E1112A1200F26A9D6A53
:102C8000A06A9E6AA16A806A816A826A070E926E51
:102C9000936A870E946E700ED36E380EC66E010E58
:102CA000C26E0C0EC16EB50EC06E070ED56E800ED4
:102CB000CD6E770EC86E010E0001FE6F046A0368C8
:102CC0001CEC1FF0770A04E0FF0A02E00001FE6B33
:102CD0000001FE6783EC1CF0086A0768020E096EAB
:102CE00048EC1EF0818C9ED9030E046EE80E036E34
:102CF00034EC1DF0CBEC0DF09D8A5E8600017E8FDA
:102D000090D4080E8F6FE75D000EE8590AE2E7C025
:102D10008FF0CC6702D0010E03D0CC0502E1020E89
:102D2000CC6F8FC009F48F51E75F000EE85B040E93
:102D30000001736F240E726FCEB309D013D01BD86D
:102D4000F76403D00800F55001D0D7D817D88F67A3
:102D5000F6D70AD010D8F76403D00800F55001D098
:102D6000CCD80CD88F67F6D7120075C0F6FF76C0A6
:102D7000F7FFF86A1200F9DF3EDF070CDF6E000193
:102D8000724B732B754B762B8F071200CF39E832BD
:102D9000030B38E123D0010EC86F040ECD6F32D083
:102DA00074D830D037EC1CF02DD0010EC86FEB0E6C
:102DB00058D629D827D0F4DE25D0010EC86FD351BC
:102DC000EC0F1200FADF056E766B05C075F04BD67E
:102DD000F4DFD96EDA6AD1C0DFFF14D0D051E9E058
:102DE000010AE9E0020AE7E0060AD5E0030AD8E0B2
:102DF000010A08E00F0AD9E0010AD4E0030AE2E080
:102E0000010AE6E012000401246B256B2BD0010EB1
:102E1000C86FCEA12FD0040124832CD0010EC86F1F
:102E200029D0010EC86F09D8E6DEDF50036E03A477
:102E300021D0010E0401246F1DD0D3510F0B080DBA
:102E4000040E036E046EF3500326F4500422010EA8
:102E5000D3AF000E040DF3500324726FF45004201E
:102E6000736F12000001CF511F0BD1E0010AD6E0B1
:102E7000030AD7E00001C80507E1040E766F240EAF
:102E8000756FCE93020EE76F1200CF51800A2CE0CF
:102E900033D0010EC86F100E766F880E756F120E4C
:102EA0000AD0D16728D0010EC86F100E766F2C0E95
:102EB000756FE86B290EE76F1ED0010EC86FD151F8
:102EC000290FF66E100EF76E0900F5CF75F0766FCC
:102ED0004CDF070EF76403D00800F55001D00DD881
:102EE0000001E76FE86B07D0D251010AD2E0030A74
:102EF000D8E0010AE2E0CE831200F6CFE1FFF7CF7F
:102F0000E2FFE75012003BEF1EF009D803E30DB0DB
:102F100004D001D0120014EF20F011EF20F0129035
:102F20000D6A32D8CADB18C02FF019C031F0190E63
:102F3000315C6DE2300E2F5C03E3370E2F5C67E3EC
:102F4000040E1324036E000E1420046E056A066A34
:102F500031C007F0086A12B0C2DB12A0AEDBC58038
:102F6000B1EC1FF056E2680EE3DA2F50E1DA306A76
:102F700047D012800D6A08D8B2DB18C02FF019C0F4
:102F800031F00CD846E2D3D713C003F014C004F0DC
:102F9000056A066A086A040E076E12001750010AD5
:102FA00024E11A5022E1E0C215F0600E156202D051
:102FB000D40E06D015500F0B0AE115380F0BC80FB1
:102FC0002F1813E13150040A10E1D8901200E0C22A
:102FD00016F015380F0B165E360E16242F1805E165
:102FE0003150140A02E1D8901200000194890D902A
:102FF000D88012003050170F55EC1EF099DA302AA5
:103000003150305CF7E3C584B7EC1FF004E2D89090
:103010001200D88012000D80D88012000101166FB6
:103020000001120082A402D032D802D08A945AD968
:103030008A988A9A8A9631D88A9E90EC1FF0F28EEE
:10304000F28C936BAB6BF098F092F294D59EF29A5F
:10305000A46BB06BB66BBA6B7E6B7F6BBD6B5E6A3D
:10306000BB6BBC6BA16B886B896BC292946B200E9F
:1030700001010F6F210E106F220E116F230E126FC0
:10308000250E136F270E146F280E156F280C8A84D7
:10309000B06A3F0EAF6ED3821200899C89968998E0
:1030A000899A120071DA0000554904FF1200166A6D
:1030B000176A186A4B0E196E67DA0000491204FF8E
:1030C000CEEC11F061DA0000124104FF5DDA00007D
:1030D000413904412F04FFFF3DDD56DA00002F3D4A
:1030E00004FF800E401A50DA0000392008FFCCECB3
:1030F0000FF04ADA0000203904FF46DA00003945B3
:1031000004452F04FFFF410E68DA3EDA0000412F2C
:1031100004FF20DD39DA00002F4104FF35DA00001A
:10312000414D044D2504FFFF6CEC14F02DDA000036
:10313000255104FF54500F0BFBD95350F9D952506D
:10314000F7D95150F5D1800AF36E800EF35C000C74
:103150000001CD51060AD8B46DB204D05EA602D0EB
:1031600082B002D0AB8825D0C06719D004010CBF53
:1031700020D082EC0EF01A0E036E400E056EE3D8DE
:10318000010E0001C06F596A01015A0E592484ECE6
:103190000CF0DF6A592A3F0E5964F6D70AD00101B4
:1031A0001A5156EC08F0040110BF03D058DA0001A0
:1031B000C06B12000E6A0D6A0F6A0B6A05C003F03D
:1031C00006C004F088EC1EF018EC1FF023E00FC0DE
:1031D0000AF0EDEC1DF00F6E0D500AE00E500724C2
:1031E000D96E000E0820DA6E0FC0DFFF0E2A05D060
:1031F0000F503A0A02E1010E0D6E0C6A0D5008E004
:103200000A500D0A05E10F500A0A02E1010E0C6E88
:103210000CC00BF07BEC1FF005E209500E5C02E2E3
:103220000B50D2E096EC1FF00E5012000600A1AA3F
:1032300002D0A19AA09AF2A405D000017E81F29456
:10324000F29AD59EA1A20ED0B1900CDBB180A192D2
:1032500000018D518C1104E08C07D8A08D0702D09D
:10326000B190A0929EAA12D00001C00EC761C76B98
:10327000C75159EC1EF0AECFDFFFC72BBF0EC7659D
:1032800001D0C76BABA202D0A6EC1DF002C0DAFFE2
:1032900001C0D9FF110001EC20F0050E19D85F50D4
:1032A0001DD8070E15D800016E51600F17D8030EF8
:1032B0000FD8010E5EA6000E11D8060E09D8000127
:1032C00099510CD81D0E04D80001B85125EF1FF0FC
:1032D0000D6E0FEC20F00D5025EF1FF025EC1FF0C8
:1032E00089EF1FF0B06A7F0EAF6ED392120000011B
:1032F000885D020E89591200400EF66E330EF76E8D
:10330000030E11DC82A402D0C2DE02D08A94EADF6E
:103310008A98C3DE280EEBDF0EE2086A096A08C04D
:1033200006F01C0EF0DD010E081AFA0E9BDB092ACE
:10333000040E0964F4D78A96D59EF29A5EEF1FF0C8
:10334000001B001C001D0001CA6B04010CBF120011
:1033500005500D5DD8A00DC405F00001CA6B0FD05B
:103360002C0ECA25D96EDA6A040EDA22CA51032459
:10337000E16E000E0420E26EDFCFE7FFCA2B05509E
:10338000CA5DEEE30401400E0D6F04EE0CF085D132
:1033900020EE03F0DE50DE10DE10DE1004E11ED859
:1033A000DE6ADD6A1AD006507F0B086ED8900834AA
:1033B000096E0A6A0A3612D809C0DEFF0AC0DDFFAC
:1033C0000DD805BEDF800AD8820EDE26FF0EDD2274
:1033D0000650800B3F09066E059E12000750D96EFD
:1033E000DA6A1200EE6AE806FDE1120003EE00F070
:1033F000C00EF8DF02EE00F0DE0EF4DF01EE00F0AA
:10340000E50EF0DF00EE60F08D0EECDF020102EE63
:10341000DEF0220EE7DF03EEC0F0050EE3DF010E63
:10342000D0A206D0D0A006D0D0A606D0F06F05D08E
:10343000ED6F03D0EE6F01D0EF6FD080D082D086D9
:10344000D0885F6A5E6AC60EF66E3D0EF76E000E9D
:10345000F86E01EEE5F010EE16F00900F5CFEEFF84
:10346000E550E150FAE1000EF86E00014DEF1FF05B
:103470005EA40DD085EC13F00A50091008E1560E39
:10348000085C05E3600E085C02E20A0E085E0B6A47
:103490007BD80000030C04FF18D00EC0F8FF0DC04D
:1034A000F7FF0CC0F6FFA68EA69CA684A688F2AEF7
:1034B00003D0F29E010E0B6E9BDA0B66F28E400E6D
:1034C0000C26000E0D220E220F2207500C5C085015
:1034D0000D5809500E580A500F58D8B01200DDD7B9
:1034E000116A1050800A800F08E1000E0F5C05E1A0
:1034F000000E0E5C02E1000E0D5C0AE2101E0F1EB3
:103500000E1E0D6C000E0E220F221022010E116EE7
:103510003BD800000D0304FF960E076E11C008F0A3
:10352000D5EF14F0C6CF04F00F0E041604501200AD
:10353000056EC96EC6BE26D0F5DF080A0AE0F2DFC6
:103540000B0A07E0C688CDEC1FF01CE2C7A4C750E9
:1035500018D0E8DF080A03E0E5DF0B0A12E1C1EC4E
:103560001FF00FE238EC1FF0E0CF0EF00001C5AC09
:1035700005D07F85020102EEE5F0CFDA0EC0E0FF54
:10358000C550120014EF20F0C6EF12F0040EDECF8B
:10359000E6FFE82EFCD71200040EEECFDEFFE82E89
:1035A000FCD7D906D90612002D6ED96EDA6A10EE54
:1035B00012F0ECDFE9DF0000251604FFCEEC11F07D
:1035C000E3DF0000122904FF2D50D96EDA6A00EE05
:1035D00029F0E2DFD906D9061200376ED96EDA6A11
:1035E00010EE20F0D3DFD0DF00002F2404FFCCEC5E
:1035F0000FF0CADF0000203304FF3750D96EDA6ABB
:1036000000EE33F0C9DFE6D7056E046A2F0E0564BD
:1036100006D03A0E055C03E20550D00F08D0400EEC
:10362000056406D0470E055C03E20550C90F046E21
:10363000043AF00E04162F0E036406D03A0E035C13
:1036400003E20350D00F08D0400E036406D0470EAB
:10365000035C03E20350C90F04260450120082ECFD
:103660000EF05A0E036E400E056E400E056401D03A
:10367000056E076A0BD0075020DB6C0E0724E16E45
:10368000E26A040EE222DFCFE7FF072A0550075C5B
:10369000F2E305C011F404EE10F0400EEF16066AD6
:1036A000EFAC062A063A06460646EF500618BF0B50
:1036B0000618EF6EEF86EF8E12000A6A170E096E7B
:1036C00083EC13F0F8CF11F0F7CF10F0F6CF0FF036
:1036D00005C0F8FF04C0F7FF03C0F6FF0DD00A6A6B
:1036E000170E096EEFD7090009C0D9FF0AC0DAFF2B
:1036F000F5CFDFFF094A0A2A0706D8A008060728DF
:10370000D8B40828F0E111C0F8FF10C0F7FF0FC0CF
:10371000F6FF1200036E080E0101176F040E196FF9
:10372000DA6E1C0E186F036604D0140E186F000EAC
:1037300001D0040ED96E01EE16F0040E8FEC22F0CB
:10374000FC0ED926DF8E00011200716A726A736A5C
:10375000746A756A766A776A1200030E0001CD6F8B
:103760006B6A686A7B0E696E6E6AEFDF160E706EAA
:103770006D8C02D06896040068B6FCD76D9C6D987D
:10378000040E4CDC000EC6DF010E966FCE6BEB6BA9
:10379000000EACD3076A086A0650051014E0010E4B
:1037A000096E04D0D89005360636092A06AEFAD737
:1037B000D890073608360CD8D8B00780D890063293
:1037C0000532092EF5D707C003F008C004F0120037
:1037D0000550035C0650045804E30550035E065090
:1037E000045A120000015EA622D0A151640A1EE113
:1037F000C2B21AD0C450046E036AC3500324886F47
:10380000000E0420896F290E72DDD8B09485C28223
:1038100094A50AD0280E6BDD07E25E967E85020134
:1038200002EEEAF07AD90001A16B01D0A12B1200BF
:10383000176E166E135087DCD8B4125C0AE217506C
:10384000D96EDA6A2D0EDF6E172A126C131ED8B0ED
:10385000132A9ADE0000120A04FF175000EC16F03B
:1038600016501200F80EB36E300EB26E1200010E3A
:10387000C86F6BDF916B9151EC0FD96EDA6ADF6A1A
:10388000912B9151F8E0D1C0EBF0EB512FDB00010F
:10389000D16702D0050E01D0060ECD6F1200E8DA16
:1038A000C5805FD3066EFBDF15E2E20E41DE0650F7
:1038B0003FDEC58259DB0EE2E30E3ADEB3D9076E76
:1038C000C58AC58857DB06E2C58451DB06E207508E
:1038D000D8901200A9DBE86A1200A3DBE86A1200A4
:1038E000065005100FE0010E076E04D0D890053683
:1038F0000636072A06AEFAD76BDFD89006320532B5
:10390000072EFAD71200F29E300EF86EF76A0B0EF1
:10391000F66EA00E08D8300EF86EF76AF66A3A0E08
:1039200002D8A6941200F56E0C00C40EA66E60D8E4
:10393000A6B2FED712000401086B0001CC6B040193
:1039400000AF03D0006B0001966B040104AF04D0FC
:10395000046B010E0001966F0001C96BC86BE76B29
:10396000E86B6D98C6EC16F0E1EC14F044EF15F03E
:10397000066E95DF0AE2680EDBDD1F0ED9DD0BD87F
:103980000AD809D804D802E212004ED34AD306500E
:10399000CFDDC584ECD2000ECBD5066E046E043AA2
:1039A0000F0E041609D851DA056E06C004F00F0E8A
:1039B00003D84BDA051A12000416045066EC0BF01B
:1039C0000800F550120003C0A9FF05C0A8FFA69E7D
:1039D000A69CA684066AF2BE062AF29E09D8A6B262
:1039E000FED706B002D0F29E01D0F28EA69412004D
:1039F000550EA76EAA0EA76EA682AA0CCD51040A78
:103A000007E1D1C06EFF6E50050ED8B4030ECD6F26
:103A1000C9050DE181EC16F0CC51020A040102E166
:103A2000040E03D0480E08BD080E086F088F120060
:103A3000036E0FD0010EA06FB96B13D0A06B010EF7
:103A400006D0020EA06F03D0010EA06F030EB96F57
:103A500008D00350EFE0010AF1E0030AF2E0010AA6
:103A6000F3E01200036E046AA092980EB16EB1806A
:103A70000FD0D3A204D0FC0EB36E180E02D0F2DE2B
:103A800001D0B26EA192A1A2FED70306D8A004066F
:103A900004500310EEE1B19012001B6E0D0ED5D94B
:103AA0000A0ED3D90C0ED1D93A0ECFD9196A1BC040
:103AB00018F0D0D80D0EC9D90A0EC7D1040E36D8C9
:103AC000556A566A576A586AAED3E9DE0CE2680E48
:103AD0002FDD300E2DDD52EC18F057EC18F0C584B8
:103AE00046DA02E21200A0D29CD25F660DD089961F
:103AF00001D089868998899A0FD08996899802D0B1
:103B000089968988898A08D09351F1E0050AF1E005
:103B1000030AF3E0010AF4E012000F0EEF6402D092
:103B2000EF6E1200EF601200EF2A120003EEC0F0F9
:103B3000E926F3D7AE50AE5012009D9A9E9A9D98FA
:103B40009E98AB98F7DFAC9AAB9E03D0AB98F2DFB0
:103B5000AB880001C66BC76B986BA26BA36BBC6B89
:103B60005E905E9C1200AB9ED09E0001C66BC76B40
:103B7000060EAC6E800EAB6E480EB86E948E948CB2
:103B80009D989E989E9A9D9AB06A7F0EAF6EAC8A61
:103B9000AB887F0C030ECADF74DB600EE06104D0DB
:103BA00078DB03E27BDBF9D774D3120023EC0FF050
:103BB000CD51060AD8B46DB2120082A012000401E1
:103BC00010BF12004CD5116E036E046A056A066AB6
:103BD000960E076E086AD5EF14F0046A29D90CE036
:103BE0000201F16B0001C65164D8DF50046EC62B90
:103BF000BF0EC66501D0C66B04501200CA6B1E0E04
:103C0000716E400E04010D6F040E0F6F2C0E0E6FBF
:103C1000080E0C6F0C8F040E136F6C0E126F400E9B
:103C2000106F400CC6500F0B080A02E00B0AD8B404
:103C3000C586ADD902E2C95012004CD621EEF4F08F
:103C400010EE1CF0070EA3DC1C0E27DF1C0E25DF78
:103C50001C0E23D71A6A03D006D8F7D81A2A03D81D
:103C6000D8B41200F9D71A501824D96E000E1920B2
:103C7000DA6EDF501200076EC58073D907E2E20EDC
:103C800057DC075055DC83DE02E21200CDD1C9D1EA
:103C900007C003F008C004F0CFD8091805E074DCB1
:103CA0000000070303FF8FD61200D96EDA6ADF50D7
:103CB0001200D96E020EDA6E12000324D96E000EC5
:103CC0000420DA6E1200066A04D00650F6DFDF6ABE
:103CD000062A0550065CD8B01200F7D700019505FA
:103CE00016E082A010D06DB612D09505D8B486D853
:103CF0006D6A150E6F6E696A6D862FDD010E00010B
:103D0000CD6F956B04D06DA602D0D8D8956B1200FC
:103D1000980EB16EA7DD03C08CF004C08DF0A192A7
:103D2000B180A082300C00017EA510D05EA607D025
:103D3000020102EEE8F0F1DE11EC13F006D0020110
:103D400002EEE7F0EADE7CEC19F07E95010E6FEFF3
:103D50000BF0C00EC716C66AC56AA196C78E9382BD
:103D600038D10201FE6B0001A8EC18F091EC0CF0C8
:103D700000019853D8B40AD0C751C66307D00201D6
:103D8000F14B01D005D00001986B5E900201F16B00
:103D9000DBDAD1EC10F0C7DF6BEC10F0EBD901D817
:103DA00021D5E0CF0EF002018050020BEC19D8B4FF
:103DB00007D08050020BEC6F020102EEEBF0ADDE9B
:103DC0000EC0E0FF12002D204641494C200046570E
:103DD0005F55706400303030303030001FD9290E0C
:103DE00034D8010E5EA2000E30D004000306D8A025
:103DF000040604500310D8B41200F7D76D926D6A10
:103E000004680368F6DF0001CD6B12007ED86D9266
:103E1000699401D0689468A41200FCD700D9180EE8
:103E200014D8010E12D0D9DE03D8D8B41200FBD7B3
:103E30000001C751C619120003C0A9FFA69CA69E87
:103E4000A68000F000F0A8501200036E84D804E2AF
:103E500003C0ADFF0350120086DE7DD824E2F8D700
:103E6000A40ED76E710ED66EF294F28AD58E710CB6
:103E70000201F2A104D0C5B402D0F29194D860D866
:103E8000C5CF03F01F0E0316D8B4C7B402D0D89024
:103E90001F0C5BD8F5E3C8D81F0C3EEC16F0FBEC0A
:103EA00013F05FDFFCD7F26A00F000F0FF0000F0D3
:103EB00000F01200020E5CDD4EEF18F06D926D6A9C
:103EC0000001CD6B010E956F010C38DA066A1B0EEE
:103ED000D2DE066A1C0ECFDE066A1D0ECCDE8A9884
:103EE0004DEC18F0640EBEDD8A96DDD7036E030438
:103EF000D8B484D61200B1A002D0D89001D0D88016
:103F000012006DB67BDF956BE9D6030E046E036A73
:103F100070D7046A010E036EA7D525DEAB9819D6BB
:103F200022DE17D6046A020E036E9ED5B190A192CE
:103F3000A0921200C6EC12F000006E6604FF1200A0
:103F40000B6A100E0C6ED89012000B2E12000C2E65
:103F50001200D8801200F4DFACB21200F6DFFCE3EE
:103F60001200EEDF010E08D0EBDF020E05D0E8DF15
:103F7000040E02D0E5DF100EC51402E0E6DFFCE31C
:103F80001200DEDFC7A01200E0DFFCE31200D8DF82
:103F9000C7B01200DADFFCE31200D2DF9EB61200D7
:103FA000D4DFFCE31200C69A93829380090E0B6E55
:103FB00093928A920000000093820000000081B07A
:103FC00002D00B2EF5D793908A90000093820000C8
:103FD00000009380280EC66E12000001C580C1DF6C
:103FE0000CE2680E98EC1AF0C584C1DF06E200010D
:103FF000C5AC7F9DC5BC03D01200ABDE00017F8D38
:1040000012000201FE8100011200FBDF7F51440B10
:104010000D6E05D8080E19DF0D5017D7F2DFBF0E51
:1040200014D70D6A0D8003D00D6AC5B40D8002014E
:1040300002EEE5F072DD020102EEE9F06EDD020152
:10404000F28187DE0DB002D0AEDFC7DF0001C69E71
:10405000C69C7F85DADFD8801200280E046E210E00
:10406000586E02EEE5F0D3D02C0E046E280E586E7A
:1040700002EEEDF0CCD0BAEF0DF0D0DF2C0EE5DE85
:10408000000EE3DE5E9CF7D7C9DF4F0EDEDEA351E4
:104090003F0BDBDE030E056E050E066E090E076E86
:1040A0000A0E086E000E096E000E0A6E560E046EA1
:1040B000500E586E00EE05F0AAD00201F8B14BD0B8
:1040C000F851F96F0001A3517F0B0201F56F010B4D
:1040D000F76F5EB4010A05E0600EF7B1830EF76F6B
:1040E00001D0F76BFB6BFB511E0A08E0FB5135D882
:1040F000E00F04E35E0802E3FB2BF5D72F0EFA6F07
:10410000100EFB651ED0F751FD6FF66BFD51F76F7A
:10411000F65123D80201FC6FFD5102E0F76B04D089
:10412000830E5EB4600EF76FF65117D80201FC6380
:1041300006D0F62B100EF663E9D72E0EFA6FFD515E
:10414000F76FF8B108D0F851F96305D0F66BFC6B46
:10415000FD6B010EF46F5E9C8ED7FF6FF75104E08C
:10416000FF25036E046A68D622EEC0F0FF51D926FF
:10417000DF5012000201F4511AE0FEA104D0FC6BE2
:10418000010EFD6F14D0FC5303E1FD5303E0FD0766
:10419000FC070DD0F8B10AD0F851F96307D0F451FB
:1041A000010A06E0030A08E0010A0EE0F46B1200BF
:1041B000FA511BD8F42B12002D0E0D6EF551FB1980
:1041C0000E6E18D8F42B1200F651FB6304D04E0E7D
:1041D0000CD8F46B1200F651C0DF0E6E0201300EE7
:1041E000F6250D6E07D8F62B12000D6EF5510E6EEA
:1041F00001D812000201FE81FC6B010EFD6FBF0EA3
:1042000024DE0D5022DE0E5020DE0201120006DFF9
:1042100058501BDEEE500F0B18DE582A045058621F
:10422000F6D75E9C28D700017F954FDC00017FB553
:104230000AD07E977E9B7E8F7DDEC70E7F177FAD77
:1042400012007F9DE2D6080E7F277F51380B280889
:1042500017E2C5B406D0020102EEE9F05EDCA3DE8F
:10426000BCDE00017FBD04D0020102EEE6F055DCA9
:1042700000017F8DCADE00017E97C70E7F171200F6
:1042800012000201E06BE36B560E5EB44C0EE46F5D
:104290001200E3C213F0E4C214F007D00201180EBA
:1042A000E327000EE423E02B120000017FB50BD0C2
:1042B000B9EC17F0129007E200017FA502D0D88078
:1042C00002D0D8901200B0D60001A351010B020118
:1042D000DF6FDE5107E107D805E0010EDE6FE26B0C
:1042E0005EB8E283C8D6DF515EB4010A1200020153
:1042F000F82B00015EB4830C600C0201F82B000166
:104300001200F5DF076E086A22EEC0F01E0E0A6E7C
:10431000DECF09F0BDDC072A0A2EFAD7EEDFBD9BFF
:104320001200E5DF036E046A22EEC0F01E0E0A6E74
:1043300083DDDE6E032A0A2EFBD7DFD700015E88FD
:104340005E8A7E9B5EEF1DF00201DE510EE05EA6EE
:104350005CD05EBE5AD0DE51010A08E0030A1AE0C2
:10436000010A2CE0070A3EE050D012000001BDBD5A
:1043700002D0BDBBC6DF02015EB803D0E281DEDF42
:1043800001D0E291046A960E036EC2DC0201020EB5
:10439000DE6F120000018D518C110FE1BDBD1200C6
:1043A0000201A1DF27E05E74F29EBBDFF28E000106
:1043B0007E8167DF030EDE6F12001200020193DFC1
:1043C000E1E1600EE06105D064DF01E267D7020140
:1043D00012005FDFFCE2030E96EC1DF00201040EFA
:1043E000DE6F120002017FDFCDE15E8EE2A10ED012
:1043F000E2B30CD09BDD0201E2A108D0E2B306D00B
:104400005E985E9A00017E8701D090DD0201DE6B2E
:104410001200010121EE5AF0430EDE6EDE6A1E51DB
:10442000DE6E03E03D0E1E6502D0020E23D01B514E
:1044300004E0010A12E0010E1DD01CC103F01DC1F1
:1044400004F0056A066A1EC107F0086A5D0E096E6F
:10445000010E0A6E60EC1BF00ED01C51036E046A54
:104460001E510A6E21EE5DF0E7DCDE6E032A0A2E95
:10447000FBD701D05B6F26EF0AF001011B51066EDE
:1044800006501ED8076E000E02E3010E0768096E83
:1044900021EE5AF0450EDE6E0950DE6E0650DE6EDD
:1044A0000750DE6E26EF0AF000017F9598EC1AF0B7
:1044B00005E200017FB502D0D8901200D88012002A
:1044C000066E4FEC1CF023E2E20EEEDF1BE206501C
:1044D000EBDF18E2C582B4EC1FF019E2E30EE4DF73
:1044E00011E2C95012EC1EF00DE2076EC58AC588B4
:1044F000BAEC1FF00CE2C584B7EC1FF00CE20750D9
:10450000D8901200C584B7EC1FF0D880120014ECCC
:1045100020F0D880120011EC20F0D88012004C6EF0
:10452000EE50DE6E4C2EFCD7120021EE5AF0440EF7
:10453000DE6EDE6A100EDE6E02EEE5F0070EEFDFD5
:10454000E92A040EECDF03EEC0F0050EE8DF26EFEB
:024550000AF06F
:104C000001C80400000000000000000000000000D7
:104C10000000000000000000013714000000000048
:104C20000000000000000000000000000000000084
:104C30000138140000000000000000000000000027
:104C40000000000000000000013914000000000016
:104C50000000000000000000000000000000000054
:104C6000013A1400000000000000000000000000F5
:104C70000000000000000000013B140000000000E4
:104C80000000000000000000000000000000000024
:104C9000013C1400000000000000000000000000C3
:104CA0000000000000000000013D140000000000B2
:104CB00000000000000000000000000000000000F4
:104CC000013E140000000000000000000000000091
:104CD0000000000000000000013F14000000000080
:104CE00000000000000000000000000000000000C4
:104CF000014014000000000000000000000000005F
:104D0000000000000000000001411400000000004D
:104D10000000000000000000000000000000000093
:104D2000014214000000000000000000000000002C
:104D3000000000000000000001431400000000001B
:104D40000000000000000000000000000000000063
:104D500001441400000000000000000000000000FA
:104D600000000000000000000145140000000000E9
:104D70000000000000000000000000000000000033
:104D800001C9040000000000000000000000000055
:104D900000000000000000000146140000000000B8
:104DA0000000000000000000000000000000000003
:104DB0000147140000000000000000000000000097
:104DC0000000000000000000014814000000000086
:104DD00000000000000000000000000000000000D3
:104DE0000149140000000000000000000000000065
:104DF0000000000000000000014A14000000000054
:104E000000000000000000000000000000000000A2
:104E1000014B140000000000000000000000000032
:104E20000000000000000000014C14000000000021
:104E30000000000000000000000000000000000072
:104E4000014D140000000000000000000000000000
:104E50000000000000000000014E140000000000EF
:104E60000000000000000000000000000000000042
:104E7000014F1400000000000000000000000000CE
:104E800000000000000000000150140000000000BD
:104E90000000000000000000000000000000000012
:104EA000015114000000000000000000000000009C
:104EB000000000000000000001521400000000008B
:104EC00000000000000000000000000000000000E2
:104ED000015314000000000000000000000000006A
:104EE0000000000000000000015414000000000059
:104EF00000000000000000000000000000000000B2
:104F000001CA0400000000000000000000000000D2
:104F10000000000000000000015514000000000027
:104F20000000000000000000000000000000000081
:104F30000156140000000000000000000000000006
:104F400000000000000000000157140000000000F5
:104F50000000000000000000000000000000000051
:104F600001581400000000000000000000000000D4
:104F700000000000000000000159140000000000C3
:104F80000000000000000000000000000000000021
:104F9000015A1400000000000000000000000000A2
:104FA0000000000000000000015B14000000000091
:104FB00000000000000000000000000000000000F1
:104FC000015C140000000000000000000000000070
:104FD0000000000000000000015D1400000000005F
:104FE00000000000000000000000000000000000C1
:104FF000015E14000000000000000000000000003E
:105000000000000000000000015F1400000000002C
:105010000000000000000000000000000000000090
:10502000016014000000000000000000000000000B
:1050300000000000000000000161140000000000FA
:105040000000000000000000000000000000000060
:1050500001621400000000000000000000000000D9
:1050600000000000000000000163140000000000C8
:105070000000000000000000000000000000000030
:1050800001CB040000000000000000000000000050
:105090000000000000000000016414000000000097
:1050A0000000000000000000000000000000000000
:1050B0000165140000000000000000000000000076
:1050C0000000000000000000016614000000000065
:1050D00000000000000000000000000000000000D0
:1050E0000167140000000000000000000000000044
:1050F0000000000000000000016814000000000033
:10510000000000000000000000000000000000009F
:105110000169140000000000000000000000000011
:105120000000000000000000016A14000000000000
:10513000000000000000000000000000000000006F
:10514000016B1400000000000000000000000000DF
:105150000000000000000000016C140000000000CE
:10516000000000000000000000000000000000003F
:10517000016D1400000000000000000000000000AD
:105180000000000000000000016E1400000000009C
:10519000000000000000000000000000000000000F
:1051A000016F14000000000000000000000000007B
:1051B000000000000000000001701400000000006A
:1051C00000000000000000000000000000000000DF
:1051D0000171140000000000000000000000000049
:1051E0000000000000000000017214000000000038
:1051F00000000000000000000000000000000000AF
:1052000001CC0400000000000000000000000000CD
:105210000000000000000000017314000000000006
:10522000000000000000000000000000000000007E
:1052300001741400000000000000000000000000E5
:1052400000000000000000000175140000000000D4
:10525000000000000000000000000000000000004E
:1052600001761400000000000000000000000000B3
:1052700000000000000000000177140000000000A2
:10528000000000000000000000000000000000001E
:105290000178140000000000000000000000000081
:1052A0000000000000000000017914000000000070
:1052B00000000000000000000000000000000000EE
:1052C000017A14000000000000000000000000004F
:1052D0000000000000000000017B1400000000003E
:1052E00000000000000000000000000000000000BE
:1052F000017C14000000000000000000000000001D
:105300000000000000000000017D1400000000000B
:10531000000000000000000000000000000000008D
:10532000017E1400000000000000000000000000EA
:105330000000000000000000017F140000000000D9
:10534000000000000000000000000000000000005D
:1053500001801400000000000000000000000000B8
:1053600000000000000000000181140000000000A7
:10537000000000000000000000000000000000002D
:1053800001CD04000000000000000000000000004B
:105390000000000000000000018214000000000076
:1053A00000000000000000000000000000000000FD
:1053B0000183140000000000000000000000000055
:1053C0000000000000000000018414000000000044
:1053D00000000000000000000000000000000000CD
:1053E0000185140000000000000000000000000023
:1053F0000000000000000000018614000000000012
:10540000000000000000000000000000000000009C
:1054100001871400000000000000000000000000F0
:1054200000000000000000000188140000000000DF
:10543000000000000000000000000000000000006C
:1054400001891400000000000000000000000000BE
:105450000000000000000000018A140000000000AD
:10546000000000000000000000000000000000003C
:10547000018B14000000000000000000000000008C
:105480000000000000000000018C1400000000007B
:10549000000000000000000000000000000000000C
:1054A000018D14000000000000000000000000005A
:1054B0000000000000000000018E14000000000049
:1054C00000000000000000000000000000000000DC
:1054D000018F140000000000000000000000000028
:1054E0000000000000000000019014000000000017
:1054F00000000000000000000000000000000000AC
:1055000001D404000000000101311000000000007F
:105510000000000000000000000000000131100049
:1055200000800000000000000000000000000000FB
:105530000132100000000000000000000000000028
:105540000000000001321000008000000000000098
:105550000000000000000000013310000000000007
:1055600000000000000000000000000001331000F7
:1055700000800000000000000000000000000000AB
:1055800001341000000000000000000000000000D6
:105590000000000001341000008000000000000046
:1055A00000000000000000000135100000000000B5
:1055B00000000000000000000000000001351000A5
:1055C000008000000000000000000000000000005B
:1055D0000136100000000000000000000000000084
:1055E00000000000013610000080000000000000F4
:1055F0000000000000000000FFFFFFFFFFFFFFFFB3
:1056000001C80400000000000000000000000000CD
:10561000000000000000000001371400000000003E
:10562000000000000000000000000000000000007A
:10563000013814000000000000000000000000001D
:10564000000000000000000001391400000000000C
:10565000000000000000000000000000000000004A
:10566000013A1400000000000000000000000000EB
:105670000000000000000000013B140000000000DA
:10568000000000000000000000000000000000001A
:10569000013C1400000000000000000000000000B9
:1056A0000000000000000000013D140000000000A8
:1056B00000000000000000000000000000000000EA
:1056C000013E140000000000000000000000000087
:1056D0000000000000000000013F14000000000076
:1056E00000000000000000000000000000000000BA
:1056F0000140140000000000000000000000000055
:105700000000000000000000014114000000000043
:105710000000000000000000000000000000000089
:105720000142140000000000000000000000000022
:105730000000000000000000014314000000000011
:105740000000000000000000000000000000000059
:1057500001441400000000000000000000000000F0
:1057600000000000000000000145140000000000DF
:105770000000000000000000000000000000000029
:1057800001C904000000000000000000000000004B
:1057900000000000000000000146140000000000AE
:1057A00000000000000000000000000000000000F9
:1057B000014714000000000000000000000000008D
:1057C000000000000000000001481400000000007C
:1057D00000000000000000000000000000000000C9
:1057E000014914000000000000000000000000005B
:1057F0000000000000000000014A1400000000004A
:105800000000000000000000000000000000000098
:10581000014B140000000000000000000000000028
:105820000000000000000000014C14000000000017
:105830000000000000000000000000000000000068
:10584000014D1400000000000000000000000000F6
:105850000000000000000000014E140000000000E5
:105860000000000000000000000000000000000038
:10587000014F1400000000000000000000000000C4
:1058800000000000000000000150140000000000B3
:105890000000000000000000000000000000000008
:1058A0000151140000000000000000000000000092
:1058B0000000000000000000015214000000000081
:1058C00000000000000000000000000000000000D8
:1058D0000153140000000000000000000000000060
:1058E000000000000000000001541400000000004F
:1058F00000000000000000000000000000000000A8
:1059000001CA0400000000000000000000000000C8
:10591000000000000000000001551400000000001D
:105920000000000000000000000000000000000077
:1059300001561400000000000000000000000000FC
:1059400000000000000000000157140000000000EB
:105950000000000000000000000000000000000047
:1059600001581400000000000000000000000000CA
:1059700000000000000000000159140000000000B9
:105980000000000000000000000000000000000017
:10599000015A140000000000000000000000000098
:1059A0000000000000000000015B14000000000087
:1059B00000000000000000000000000000000000E7
:1059C000015C140000000000000000000000000066
:1059D0000000000000000000015D14000000000055
:1059E00000000000000000000000000000000000B7
:1059F000015E140000000000000000000000000034
:105A00000000000000000000015F14000000000022
:105A10000000000000000000000000000000000086
:105A20000160140000000000000000000000000001
:105A300000000000000000000161140000000000F0
:105A40000000000000000000000000000000000056
:105A500001621400000000000000000000000000CF
:105A600000000000000000000163140000000000BE
:105A70000000000000000000000000000000000026
:105A800001CB040000000000000000000000000046
:105A9000000000000000000001641400000000008D
:105AA00000000000000000000000000000000000F6
:105AB000016514000000000000000000000000006C
:105AC000000000000000000001661400000000005B
:105AD00000000000000000000000000000000000C6
:105AE000016714000000000000000000000000003A
:105AF0000000000000000000016814000000000029
:105B00000000000000000000000000000000000095
:105B10000169140000000000000000000000000007
:105B20000000000000000000016A140000000000F6
:105B30000000000000000000000000000000000065
:105B4000016B1400000000000000000000000000D5
:105B50000000000000000000016C140000000000C4
:105B60000000000000000000000000000000000035
:105B7000016D1400000000000000000000000000A3
:105B80000000000000000000016E14000000000092
:105B90000000000000000000000000000000000005
:105BA000016F140000000000000000000000000071
:105BB0000000000000000000017014000000000060
:105BC00000000000000000000000000000000000D5
:105BD000017114000000000000000000000000003F
:105BE000000000000000000001721400000000002E
:105BF00000000000000000000000000000000000A5
:105C000001CC0400000000000000000000000000C3
:105C100000000000000000000173140000000000FC
:105C20000000000000000000000000000000000074
:105C300001741400000000000000000000000000DB
:105C400000000000000000000175140000000000CA
:105C50000000000000000000000000000000000044
:105C600001761400000000000000000000000000A9
:105C70000000000000000000017714000000000098
:105C80000000000000000000000000000000000014
:105C90000178140000000000000000000000000077
:105CA0000000000000000000017914000000000066
:105CB00000000000000000000000000000000000E4
:105CC000017A140000000000000000000000000045
:105CD0000000000000000000017B14000000000034
:105CE00000000000000000000000000000000000B4
:105CF000017C140000000000000000000000000013
:105D00000000000000000000017D14000000000001
:105D10000000000000000000000000000000000083
:105D2000017E1400000000000000000000000000E0
:105D30000000000000000000017F140000000000CF
:105D40000000000000000000000000000000000053
:105D500001801400000000000000000000000000AE
:105D6000000000000000000001811400000000009D
:105D70000000000000000000000000000000000023
:105D800001CD040000000000000000000000000041
:105D9000000000000000000001821400000000006C
:105DA00000000000000000000000000000000000F3
:105DB000018314000000000000000000000000004B
:105DC000000000000000000001841400000000003A
:105DD00000000000000000000000000000000000C3
:105DE0000185140000000000000000000000000019
:105DF0000000000000000000018614000000000008
:105E00000000000000000000000000000000000092
:105E100001871400000000000000000000000000E6
:105E200000000000000000000188140000000000D5
:105E30000000000000000000000000000000000062
:105E400001891400000000000000000000000000B4
:105E50000000000000000000018A140000000000A3
:105E60000000000000000000000000000000000032
:105E7000018B140000000000000000000000000082
:105E80000000000000000000018C14000000000071
:105E90000000000000000000000000000000000002
:105EA000018D140000000000000000000000000050
:105EB0000000000000000000018E1400000000003F
:105EC00000000000000000000000000000000000D2
:105ED000018F14000000000000000000000000001E
:105EE000000000000000000001901400000000000D
:105EF00000000000000000000000000000000000A2
:105F000001D4040000000001013110000000000075
:105F1000000000000000000000000000013110003F
:105F200000800000000000000000000000000000F1
:105F3000013210000000000000000000000000001E
:105F4000000000000132100000800000000000008E
:105F500000000000000000000133100000000000FD
:105F600000000000000000000000000001331000ED
:105F700000800000000000000000000000000000A1
:105F800001341000000000000000000000000000CC
:105F9000000000000134100000800000000000003C
:105FA00000000000000000000135100000000000AB
:105FB000000000000000000000000000013510009B
:105FC0000080000000000000000000000000000051
:105FD000013610000000000000000000000000007A
:105FE00000000000013610000080000000000000EA
:105FF0000000000000000000FFFFFFFFFFFFFFFFA9
:020000040030CA
:0E0000003A463E1EFF0080FF0FC00FA00F40CB
:0200000400F00A
:10000000FFFFFFA001000000000001010103040147
:100010000000000001FFFFFFFFFFFFFFFFFFFFFFEA
:10002000FFFFFFFFFFFFFFFFFFFFFFFFFFFFFFFFE0
:10003000FFFFFFFFFFFFFFFFFFFFFFFFFFFFFFFFD0
:1000400003FFFFFFFFFFFFFFFFFFFFFFFFFFFFFFBC
:10005000FFFFFFFFFFFFFFFFFFFFFFFFFFFFFFFFB0
:10006000FFFFFFFFFFFFFFFFFFFFFFFFFFFFFFFFA0
:10007000FFFFFFFFFFFFFFFFFFFFFFFFFFFFFFFF90
:1000800003059AFFFFFFFFFFFFFFFFFFFFFFFFFFDB
:10009000FFFFFFFFFFFFFFFFFFFFFFFFFFFFFFFF70
:1000A000FFFFFFFFFFFFFFFFFFFFFFFFFFFFFFFF60
:1000B000FFFFFFFFFFFFFFFFFFFFFFFFFFFFFFFF50
:1000C000FFFFFFFFFFFFFFFFFFFFFFFFFFFFFFFF40
:1000D000FFFFFFFFFFFFFFFFFFFFFFFFFFFFFFFF30
:1000E000FFFFFFFFFFFFFFFFFFFFFFFFFFFFFFFF20
:1000F000FFFFFFFFFFFFFFFFFFFFFFFFFFFFFF020D
:00000001FF
