:020000040000FA
:1010000008D0FFFFFFFFD9CF01F0DACF02F04CED9F
:101010001BF04BEF1CF000303132333435363738AB
:1010200039414243444546A6729A0902290001010A
:1010300000803209040000020300000009211101B0
:101040000001221D0007058103400001070501037F
:101050004000010600FF0901A10119012940150006
:1010600026FF00750895408100190129409100C0B4
:1010700016034800790070006500780020004200E7
:101080005600000000001201000200000008D80411
:1010900089FF0100010200010C0344004C004300E1
:1010A00050000000040309040000E8CF57F021EECF
:1010B000EDF010EE4DF0070EDECFE6FFE82EFCD788
:1010C0005750420A01E107D20001CB6B04D21BC189
:1010D00097F000019751090A14E1020E586E32DAB6
:1010E000DF500AE02FDABE0E5824E16EE26A020EEB
:1010F000E222DFCFE7FF01D028DA582A1F0E58641A
:10110000EED7000197510A0A07E1020E586E1DDA68
:10111000582A1F0E5864FBD7030E0001C16F1BC174
:10112000C2F09751090A03E097510A0A06E1BD8B04
:10113000BD8D0201F82BF82B000154EC22F0B2EC2B
:1011400022F071EC10F0FBD101011B0518E11CC16C
:10115000B7F00ED0040EC16F010EC26FF0D71DC1E3
:10116000B8F0040EC16F010EC26F7F819489E7D77A
:101170000001B751010AEEE0030AF1E0E0D11B5192
:10118000020A01E0DCD11EC1B5F0040E0001C16FFE
:10119000020EC26FB551060A1BE1050E586ED2D978
:1011A000DF500AE0CFD9FB0E5824E16EE26A000E50
:1011B000E222DFCFE7FF05D0FB0E58243CEC0DF018
:1011C000DF68582A130E5864EAD70001BD89B5D7E5
:1011D000B551050AB4E0B551070AB1E0B0D11BC161
:1011E00099F01FC171F020C170F021C16FF022C1D0
:1011F0006EF0010123B104D00001949B5E9803D0EE
:101200000001948B5E88010124B103D00001A491F8
:1012100002D00001A481010125B103D00001A493F3
:1012200002D00001A483010126B103D00001A495DE
:1012300002D00001A485010128B103D00001A497C8
:1012400002D00001A487010129B103D00001A499B3
:1012500002D00001A48901012AB103D00001A49B9E
:1012600002D00001A48B2CC160F02DC161F02EC111
:1012700062F02FC163F030C164F031C165F032C15A
:101280005FF033C19BF034C19CF035C19DF036C195
:101290009EF038C1B4F0B3519919D8A49481695122
:1012A000711908E16851701905E167516F1902E180
:1012B00066516E1902E07E879483AC519B1902E05F
:1012C0007E87BD87AD519C1902E07E87BD87AE51F8
:1012D0009D1902E07E87BD87AF519E1902E07E878F
:1012E000BD87010E5EA8000E4C6E010E5EAA000EB8
:1012F0004C1A02E07E8B9487B051A419D8A47E8D3D
:10130000B451B119D8A47F836051A56317D0A651F9
:1013100020EE61F0DF6212D0A75120EE62F0DF62B2
:101320000DD0A85120EE63F0DF6208D0A95120EE65
:1013300064F0DF6203D06551AA19D8A47E8999C0F0
:10134000B3F0C3EC22F05EA802D05E8A01D05E9AB0
:10135000A4C0B0F060C0A5F061C0A6F062C0A7F064
:1013600063C0A8F064C0A9F065C0AAF0B4C0B1F031
:101370009BC0ACF09CC0ADF09DC0AEF09EC0AFF085
:10138000050E06D001011B0506E1BBEC22F0060E9E
:101390000001C16FD6D61B51020A01E0D0D0BBECD0
:1013A00022F0EED701011B510F0AD8B45E8E5750C0
:1013B000070A08E101011B6705D00001C56B560E45
:1013C000836F826BAB985E800001986BC76BC66BB6
:1013D000D6EC13F057C0C1F0B4D6086A0768096AA2
:1013E00054EC21F08BEF22F0AAD00001CB6749D05A
:1013F0007C6B7D6B806B816B866B876B846B856B85
:10140000BBEC0FF0C70E036E0A0E056E86EC21F0E2
:10141000BBEC0FF09A0E036E2D0E056E86EC21F0DC
:10142000BBEC0FF0D10E036E080E056E86EC21F0BA
:101430002BEC22F0050E066EDC0E056E0101010E8E
:10144000086ED10E076E080E096E10EC1BF04C6E84
:10145000050E4C5C15E3010ECB6F586A58504D0FCA
:101460007EEC21F04C6ED10E582401DBDF504C187D
:1014700002E00001CB6B582A050E5864EFD701D06B
:10148000CB6B0001CB5101E1A5D765D8A3D71EC115
:1014900056F01FC155F057C0C1F071EC10F07D51EE
:1014A000561802E17C51551806E11EEC21F0AA0EF7
:1014B00001015C6F44D0110E01015B6F0001846B70
:1014C000856B806B816B866B876B7C6B7D6B37D09C
:1014D00001011A6B34D05750010A31E0030A2FE0A2
:1014E000010A01E1F4D5070A01E12ED6010A01E162
:1014F00076D6030A01E146D7010A01E158D70F0A5F
:1015000001E155D7010A01E152D7030A01E14FD7A2
:10151000010A01E14CD7070A01E144D74C0A01E175
:101520005CD7010AB4E0030A01E15FD7010A02E1D6
:1015300071EF25F0070A02E1A7EF25F0C9D70101F5
:101540001A6B12001A0E582492D2BE0E582482EC46
:1015500021F0DF68120021EEE5F010EE1DF0080E1C
:10156000DECFE6FFE82EFCD7020E496E1A0E4924A4
:101570007EDADF504A6EC00E0001845D770E855919
:101580001AE24AC045F0486A7DAB03D0010E446EB2
:1015900001D0446AD8907C377D3745B07C81D890A3
:1015A0004532445004E0020E7C1B440E7D1B482A49
:1015B000070E4864E9D7400E845D000E855901E2AC
:1015C00018D1C00E845D770E855901E312D10F0E3C
:1015D00084158A6F8B6B8B1101E0C4D08751861103
:1015E00001E17FD086518027000E8123875180271B
:1015F000000E8123801D1B6E811D1C6EF10E1B24AD
:10160000806FFF0E1C20816F80519DEC1FF0F8D879
:1016100080C01BF01B3A0F0E1B161B161B50FDD86B
:101620009A0E4B2424DA0800F5CFDFFF80C01BF0B0
:101630000F0E1B161B50F1D89B0E4B2418DA080016
:10164000F5CFDFFF9C0E4B2412DADF6A020E4B2629
:1016500000019F6B066A0A0E056E0101010E086EFD
:10166000C70E076E0A0E096E10EC1BF0C8C103F01E
:101670000101C75185EC1DF00001801903E1010E45
:10168000436E2CD0436A196A1D0E186E2DEC21F0A2
:1016900000019FC012F0136A156A0A0E146E250E1F
:1016A000ADEC1EF01B6E196A1BC018F02DEC21F07A
:1016B000210E44EC22F031EC22F0A2D8190E0001E8
:1016C0009F5D0AE29F2B0101010E196E9A0E186EA2
:1016D0002DEC21F095D802D09F2B91D0435002E100
:1016E000B9D78E6BBF0E0001845D770E85593AE243
:1016F000040E8E5D04E28E2B0A0E07EC20F084C0EF
:1017000086F085C087F03A0E01019A6F310E9B6F0B
:10171000300E9C6F87C01BF079D8F5CF9DF187C044
:101720001BF00F0E75D8F5CF9EF186C01BF06ED85A
:10173000F5CF9FF186C01BF00F0E6AD8F5CFA0F150
:10174000300EA16FA26FA36B090E4B6E31EC22F02D
:101750000101010E196E9A0E186E2DEC21F0000198
:10176000806B816BBF0E845D770E855940E284A14A
:1017700036D046C01BF04AD8F5CF2FF046C01BF03C
:101780000F0E46D8F5CF30F04AC01BF03FD8F5CF4A
:1017900031F04AC01BF00F0E3BD8F5CF32F0336A60
:1017A000196A2F0E186E2DEC21F0476A0ED04750A3
:1017B0002F0FD96EDA6A9A0E4B24E16EE26A010E9F
:1017C000E222DFCFE7FF472A4B2A47502F0F7EEC5C
:1017D00021F0EDE19A0E4B244AD9DF6A02D04AC0CB
:1017E00046F04A5000018027000E812302D0806B12
:1017F000816B844B852B492A1F0E4964B7D6120092
:101800000D0E44EC22F00A0E44EF22F01B3A0F0EAC
:101810001B161B5002D808001200170FF66E100E90
:10182000F76E1200E8CFFDF05EA613D17EA33CD088
:101830007E8724D0090E066E700E0BD00A0E066E3F
:10184000B00E07D0080E066E300E03D00B0E066EDB
:10185000F00E0D6E0D0E3EEC21F00D50066E080ED2
:101860003EEC21F07EEC22F019D055EC20F0010E78
:1018700083EC1FF0080E066E300EEBD79351F5E0A7
:10188000010AD8E0030ADAE0010ADCE0070ADEE038
:10189000010AEBE0030AE9E0010AE7E0DBD8000116
:1018A0007E93BD8154EC22F000017EA75FD05EA83C
:1018B00002D07E8B5BD07E8DA46BA4C0B0F09A6BFF
:1018C0000CD09BC09AF011D09CC09AF00ED09DC055
:1018D0009AF00BD09EC09AF008D09351F2E0050A1E
:1018E000F3E0030AF4E0010AF5E09A516E250D6E6B
:1018F000000E6F210E6E000E70210F6E000E712112
:10190000106ED0EC1CF00DC012F00EC013F00FC022
:1019100014F010C015F0470E166EC90E176EEB0EC0
:10192000186E3D0E196E52EC13F012C0EDF013C09C
:10193000EEF014C0EFF015C0F0F0EDC02FF0EEC0E7
:1019400030F0EFC031F0F0C032F01CEC13F02FC0DB
:1019500055F030C056F031C057F032C058F06EEC40
:1019600024F078D80001BD8154EC22F05EAE1BD08B
:101970000201DE6BB190A092A19235EC20F0B7ECA1
:1019800020F00001BDBB0ED0BDBD0CD0F29ED2EC4C
:1019900024F0F28EAB885E9E00017EAB5EB803D071
:1019A0007E8701D0AB8800017EAB09D05EA803D052
:1019B00035EC20F001D07E874DD800017E9B7EADB6
:1019C0002CD05F0E146E0001A4B102D01C0E01D009
:1019D000080E48D8A4B302D0440E01D0300E42D82D
:1019E000A4B502D06C0E01D0580E3CD8A4B702D0DA
:1019F000940E01D0800E36D8A4B902D0BC0E01D00E
:101A0000A80E30D8A4BB02D0E40E01D0D00E136EC5
:101A1000D5EC19F01FD800017E9D7EA90CD0B4DA58
:101A200000017E99BD83050EC16FFD51D8A4CDEC98
:101A300020F054EC22F000017FA104D07F91BD85FD
:101A400054EC22F000017FA304D07F93BD8554ECB9
:101A500022F01200050E0001C16FFD51D8A4CDEC9B
:101A600020F01200136ED5EC19F000011200D96EAF
:101A7000DA6A010EDA221200D96E010EDA6E120055
:101A8000096A78D137EC22F001E176D1EDEC20F053
:101A90000A6E7F0E0A6424D00A50B00A04E1010ED7
:101AA000986F5E9014D00A50B10A04E1010E986F4D
:101AB0005E800DD0986B5E900AC005F0F00E0516A2
:101AC0000550B00A04E10A50BF0AD8A40A065EB065
:101AD00055D10201FE8100010A5044EC22F04ED1A2
:101AE0005EB009D0020E985D06E20201FE8100019F
:101AF0000A5044EC22F000019851D8A4982B020E11
:101B0000985D01E23BD19851020A03E10AC0A2F0BC
:101B100035D10AC0A3F00AC0BCF05E8C010E986FEC
:101B2000EAD0010E5EB6000E056E054605467E51F2
:101B30000518FB0B05187E6F7EB55E8613D15EA679
:101B400002D07E8502D0000100007EB55E960AD1EB
:101B500094B718D05E88948B0201DE67E28300019F
:101B6000010E5EA8000E056E5EAA02D0010E01D025
:101B7000000E051AD8A47E8B5EA802D05E8A01D022
:101B80005E9AF0D0020E5EA8030EBC6F9497EAD066
:101B900094B7F8D7949B0201DE67E2A103D0E293E9
:101BA0000001E0D000015E980201DE67E2930001CF
:101BB000010E5EA8000E056E5EAADAD7010E051AA8
:101BC000DAE1DAD7A351BBE0010AABE0030AC0E0D7
:101BD000010ADEE0C7D081EC1BF0C4D094B109D07B
:101BE000A3C099F099C0B3F00001AB69650EBB6F5B
:101BF000B9D099C0BCF09491B5D094B324D0A00EC4
:101C0000056E0668A351076E086A05500726065040
:101C1000082207C06EF008C06FF0000E6FBFFF0E05
:101C2000706F716F691908E16851701905E16751AA
:101C30006F1902E166516E1901E194D07E87949B81
:101C40005E985E9A8FD06E51600FBC6F94938AD06D
:101C5000A351290A01E086D005EC22F083D0A3C06D
:101C600060F0A55160197EE07E8960C0A5F07AD051
:101C7000A3C061F06151A619D8A47E8961C0A6F005
:101C800071D0A3C062F06251A719D8A47E8962C046
:101C9000A7F068D0A3C063F06351A819D8A47E89C7
:101CA00063C0A8F05FD0A3C064F06451A919D8A4A0
:101CB0007E8964C0A9F056D0A3C065F06551AA1909
:101CC000D8A47E8965C0AAF04DD094B907D0B85188
:101CD000A31948E0A3C0B8F07F8144D0B8C0BCF0DD
:101CE000949940D0A3C0C3F0B251C319D8A4BD8108
:101CF000C3C0B2F037D0A251030A01E163D7070A8B
:101D000001E169D7020A01E169D7010A01E175D74A
:101D1000170A9EE0070AA3E00F0AAAE0010AB1E051
:101D2000030AB8E0010ABFE0070AC6E0010ACDE0F5
:101D3000030AD8E03E0AD8B4A7EF24F0010AD8B4C9
:101D400068EF23F0030AD8B46FEF23F0010AD8B488
:101D500076EF23F0060AD8B480EF23F0030AD8B454
:101D600097EF23F05EAC0AD00201FE810001BC5166
:101D700044EC22F05E9C02D0010E096E0950D8A4FA
:101D8000120080D6046A036A3BEC22F00001716FF6
:101D9000010EEBD8706F020EE8D86F6F030EE5D816
:101DA0006E6F040EE2D8996F070EDFD8606F080ED1
:101DB000DCD8616F090ED9D8626F0A0ED6D8636F6E
:101DC0000B0ED3D8646F0C0ED0D8656F046A0D0E5D
:101DD000036E3BEC22F05F6E140EC7D8C36F7151D7
:101DE000800A800F08E1000E705D05E1000E6F5D56
:101DF00002E1130E6E5D05E3A00E6E6F6F697069F0
:101E00007169080E996502D0010E996F030E606525
:101E100001D0606B20EE61F0030EDF6401D0616BD6
:101E200020EE62F0030EDF6401D0626B20EE63F0FF
:101E3000030EDF6402D0010E636F20EE64F0030E28
:101E4000DF6402D0010E646F20EE65F0030EDF64E4
:101E500002D0010E646F030E5F6401D05F6E040E4A
:101E6000C36502D0010EC36FC3EC22F099C0B3F07A
:101E700060C0A5F061C0A6F062C0A7F063C0A8F082
:101E800064C0A9F065C0AAF0C3C0B2F00F0E6DD84F
:101E9000B46FB429D8B4B491B4C0B1F00E0E65D803
:101EA000B86F030EB85D02E2030EB86F040EB8659A
:101EB00002D0030EB86F100E58D89B6F110E55D874
:101EC0009C6F120E52D89D6F130E4FD89E6F120E3C
:101ED0009B6501D09B6B120E9C6501D09C6B120E12
:101EE0009D6501D09D6B120E9E6501D09E6B9BC0BF
:101EF000ACF09CC0ADF09DC0AEF09EC0AFF0500EF7
:101F00000A6E0101B00E0A24B7DD0AC003F0046AAC
:101F10003BEC22F0DF6E0A2A5E0E0A64F2D7600EF6
:101F20000A6E0201600E0A2482EC21F00AC003F05E
:101F3000046A3BEC22F0DF6E0A2A7D0E0A64F1D7B8
:101F4000086A800E076E030E096E54EC21F0086AD1
:101F5000810E076E030E096E54EC21F0086A820EA2
:101F6000076E7F0E096E54EF21F0036E046A3BEC9E
:101F700022F0000112000101010E046E1200036E36
:101F8000040E056E86EF21F0046AD70EF8DF046AAE
:101F90000001DB0EF4DF046A0001DF0EF0DFEBDF8F
:101FA000D90EEDDF046A0001E30EE9DFE4DFDD0EA8
:101FB000E6DFE1DFE10EE3DF5CEC22F0596A594431
:101FC000C80FF66E200EF76EF86A0900F5CFE1FF34
:101FD0000900F5CFE2FF59500001600F7EEC21F0BF
:101FE000ECEC1FF0A0C0E6FFB9C0E7FF592A050ED0
:101FF0005964E5D75A6A5A44D40FF66E200EF76E2C
:10200000F86A0900F5CFE1FF0900F5CFE2FFE6CF5E
:102010006AF0E6CF6BF0E6CF6CF0E7CF6DF0C580ED
:10202000DDEC22F04BE2680EFCEC1CF001010F0E1F
:102030005A241DDDDF50FCEC1CF05B6A5B50000194
:102040006A0FD96EDA6A020EDF6205D0556A566AE7
:10205000576A3F0E0CD05B506A0FD96EDA6A030ED6
:10206000DF6207D0556A566A800E576EBF0E586EF3
:102070000ED05B506A0F7EEC21F0E1EC20F00DC039
:1020800055F00EC056F00FC057F010C058F055C0B4
:1020900049F056C04AF057C04BF058C04CF09DEC88
:1020A0001AF05B2A030E5B64C9D7C584E9EC22F001
:1020B00008E25A2A060E5A649ED7060C4BEC23F00F
:1020C000060C48EC23F0060CD700DB00DF00D9013A
:1020D000E400E001D700DB00DF00D901E300DD010F
:1020E000E101C1C05AF1A2D0C2C05BF1020E036E81
:1020F000BE0E0324D96EDA6A020EB5D81F0E036431
:10210000F7D7AED0C2C05BF1C20505E1B7C05CF144
:10211000B8C05DF1A5D0C251020A01E0A1D0B5C09E
:102120005EF1050E036EFB0E0324D96EDA6A000E13
:102130009AD8130E0364F7D793D093C05BF199C07C
:102140005CF101015D6B5E6B71C05FF170C060F1AD
:102150006FC061F16EC062F1000E5EB8010E636F78
:10216000000E0001A4B1010E0101646F000E000118
:10217000A4B3010E0101656F000E0001A4B5010EAC
:102180000101666F000E0001A4B7010E0101686F26
:10219000000E0001A4B9010E0101696F000E0001DB
:1021A000A4BB010E01016A6F60C06CF161C06DF1EA
:1021B00062C06EF163C06FF164C070F165C071F10F
:1021C000B4C078F14DD0030E01015B6F030E5C6F5C
:1021D000040E5D6F99C05EF15F6B606B616B5FC0F9
:1021E00063F1060E646F0F0E656F666F676F686F41
:1021F000696F6A6F0A0E6B6F6C6F6D6F6E6F6F6FCA
:10220000706F010E716F726F9BC073F19CC074F19F
:102210009DC075F19EC076F123D01BC15BF120D02B
:1022200001015B6B5C6B5D6B5E6B1AD00001C15191
:10223000030A01E159D7070A01E164D7010A01E164
:102240007CD7030AC0E0010AE8E00F0AE6E0010AD1
:10225000E4E0030AE2E0010AE0E0070ADEE0E0D79A
:102260000001C16B1200DA225A0E0324E16EE26A09
:10227000010EE222DFCFE7FF032A120020C028F080
:1022800021C029F022C02AF023C02BF0180E01D063
:10229000B4D8E82EFDD728502E6E24C028F025C0D3
:1022A00029F026C02AF027C02BF0180E01D0A5D89F
:1022B000E82EFDD728502D6E2E5009E02D502E5CB3
:1022C0000FE22E502D5C286E210E285C09E324C0FD
:1022D00020F025C021F026C022F027C023F083D0B3
:1022E0002D5009E02E502D5C07E22D502E5C286EFB
:1022F000210E285C01E377D0060E2C6E23BE2C8EB7
:1023000027BE2C8C228E236A268E276A2D502E5CA7
:102310001AE2D89024362536263627362D062D503B
:102320002E180DE02C062CC028F0070E281607E00A
:10233000F0D7D89023322232213220322E2A2D504B
:102340002E62F7D71CD02E502D5C19E2D890203683
:102350002136223623362E062D502E180DE02C065F
:102360002CC028F0070E281607E0F0D7D8902732A7
:102370002632253224322D2A2D502E62F7D72CAE4C
:1023800009D0201E211E221E231E202A000E2122DB
:10239000222223222CAC02D0241E26D82C6A2050C4
:1023A000242621502522225026222350272227AEE0
:1023B00004D0241E19D8010E2C6E24C003F025C0B1
:1023C00004F026C005F027C006F02EC007F02CC090
:1023D00008F056EC16F003C020F004C021F005C050
:1023E00022F006C023F01200251E261E271E242AD6
:1023F000000E252226222722000CD8902B322A32CA
:1024000029322832120000017EA11200A00EF66EC1
:10241000240EF76EF86A010E24D8020E22D8040E9C
:1024200020D8080E1ED8BDA914D0500E0A6E0AC0BE
:1024300007F0086A0101B00E0A243CEC0DF0DF50F1
:10244000096E54EC21F00A2A5E0E0A64F0D70001EE
:10245000BD99BDAB02D0BBEC24F00001BD9D7E91C7
:1024600012000A6E0900F5CF13F0BD510A140B6E6D
:102470000900F5CF07F00900F5CFE9FFEA6A0B5232
:10248000D8B405D0086AEFCF09F054EC21F0132E30
:10249000EFD70B52D8B4120000010A1CBD1712006E
:1024A00007036E026F0170007104990D5F14C3067B
:1024B0000760086109620A630B640C65020FB40EC1
:1024C000B804109B119C129D139E5EA6A0D0640EB2
:1024D0000001BB659BD0BB6B04D0B651080FBE6F2B
:1024E0001DD09951FAE0090E996118D09951FF0F4A
:1024F000036E030E5F6402D0040E01D05F50046EC1
:102500000446044604440324100FF66E260ED8B089
:10251000010FF76EF86A0800F5CF93F0996727D09E
:10252000BA6709D0BEC006F00D0E3EEC21F00001E6
:10253000120EBA6F5CD0BA2F5AD0130EEFEC1EF009
:102540001CE20001BE6FBE671AD0AB510BE0020166
:10255000F36706D0010EF36F0001ABC093F044D0D7
:10256000F36B0001936BB62BB651040A40E1B66BD6
:10257000BA6B0201F36B00013AD0000138D00201BE
:10258000F36B0001B66702D0030E936FB60502E14C
:10259000010E936FB651020A02E1020E936FB6511B
:1025A000030A02E1040E936F120EEFEC1EF01CE220
:1025B0000001BF6FBF5108E194BB07D00201DE5399
:1025C0000001D8B45E9801D05E88010E5EA8000EAE
:1025D000086E010E5EAA000E081AD8A47E8B5EA8B3
:1025E00002D05E8A01D05E9A280E0001BA6F000107
:1025F0009351020AD8B482B002D0C3C093F0AB5159
:102600009319D8A47E8393C0ABF001D0BB2B1200EA
:1026100000010203040000000005010203040000A1
:102620000005060102030400000506070102030479
:102630000005060304000000116A126A800E136E82
:10264000440E146E2FC00DF030C00EF031C00FF0EC
:1026500032C010F010D90DC020F00EC021F00FC014
:1026600022F010C023F0246A256A800E266E3F0EE9
:10267000276E04DE20C02FF021C030F022C031F0E0
:1026800023C032F00A0E116E2FC025F030C026F0A4
:1026900031C027F032C028F02F0E2BEC1DF0112E88
:1026A000F3D7120012C01AF013C01BF014C01CF0B4
:1026B00015C01DF0180E01D06CD8E82EFDD71A50A9
:1026C0001E6E1E6601D011D016C01AF017C01BF086
:1026D00018C01CF019C01DF0180E01D05AD8E82EF1
:1026E000FDD71A50246E246605D0126A136A146A44
:1026F000156A3FD024507B0F1E2615C024F01950B8
:10270000241A800E2416148E188E196A1F6A206AE5
:10271000216A226A070E236E12A002D016502AD810
:1027200031D81636173618361936232EF5D7110E2E
:10273000236E12A002D016501DD824D82232213286
:1027400020321F32232EF5D71FC003F020C004F023
:1027500021C005F022C006F01EC007F024C008F01A
:10276000A5DA03C012F004C013F005C014F006C0CF
:1027700015F012001F261750202218502122195040
:1027800022221200D8901532143213321232D8900D
:102790001200D8901D321C321B321A32120082C035
:1027A00003F083C004F0056A066A1200C5670AD008
:1027B000F6DF086AC00E076E0301030E0A6E096A8F
:1027C000E0EC1DF001011B5104E01D6A020E1C6EBD
:1027D00002D01C6A1D6A1CC01EF0040E1F6E1A0E69
:1027E000186E010E196E1F501826000E19221E5069
:1027F000185CD96E1950D8A01904DA6E1A6A030E43
:102800001B6E0001C5511A26000E1B221F501A24F0
:10281000E16E000E1B20E26EDFCFE7FF1F2A170ECE
:102820001F64DDD7180EC527BF0EC56523D0C56B45
:102830003F0E825D5F0E83591DE2B1DFBF0E822520
:10284000186E000E8321196E18C007F019C008F029
:10285000096A0A6A93EC1CF0A2DF086AC00E076ED0
:102860000301030E0A6E096AF3D8C00E0001822725
:10287000000E832312000DC015F00EC016F00FC01D
:1028800017F010C018F0180E01D058D8E82EFDD758
:1028900015501E6E1E6601D011D011C015F012C069
:1028A00016F013C017F014C018F0180E01D046D857
:1028B000E82EFDD715501F6E1F6605D00D6A0E6AF3
:1028C0000F6A106A3AD01F50890F1E5E10C01FF0A9
:1028D00014501F1A800E1F160F8E106A138E146A62
:1028E000200E1D6ED89019361A361B361C36115024
:1028F0000D5C12500E5813500F581450105809E325
:1029000011500D5E12500E5A13500F5A1450105A97
:102910001980D8900D360E360F3610361D2EE2D7A0
:1029200019C003F01AC004F01BC005F01CC006F06B
:102930001EC007F01FC008F009D21200D89018324C
:102940001732163215321200F29E79EC20F08A947A
:102950000001886B896BC282320E086E0A0E07EC8A
:1029600020F0C2B20BD0C4505D6E5C6AC3505C24D0
:102970000001886F000E5D20896FC282360E000153
:10298000885D020E895902E2082EE8D7460E07EC50
:1029900020F0AAEC1BF08A98899C8A96C69A9382AA
:1029A0009380640E07EC20F08A88050E046EDC0E1E
:1029B000036E09EC20F093829380010E07EC20F067
:1029C000800E036E080EC6EC21F0898C35EC20F0E9
:1029D000B7EC20F08A86BBEC22F075DABBEC22F073
:1029E000B6EC22F0B00E44EC22F0030E44EC22F0E0
:1029F000010E44EC22F000017E837E877E897F8178
:102A00007F83000E12EC0CF081EC1BF0010E066EC1
:102A10001B0E3EEC21F0F29AD59EA40ED76E710EDD
:102A2000D66E0001A16B9495B9EC22F09D8AF28ECE
:102A3000AAEF22F05EA412000650051008E1560E1F
:102A4000045C05E3600E045C02E20A0E045E120000
:102A5000F1DF106A03C014F004C015F005C016F0D1
:102A600006C017F0050E0B6ED89006320532043200
:102A700003320B2EF9D7050ED890033604360536EF
:102A80000636E82EF9D7200E0326000E0422052272
:102A900006221450035C0F6E47D016C013F015C009
:102AA00012F014C011F019D009C0D9FF0AC0DAFF22
:102AB000DF5011C0F6FF12C0F7FF13C0F8FFF56E2C
:102AC0000C00094A0A2A112A000E122213220706B4
:102AD000D8A008060850071003E00F060F28E4E10D
:102AE00013C00EF012C00DF011C00CF016C013F0A0
:102AF00015C012F014C011F0A68EA69CA684F2AEEA
:102B000003D0F29E010E106ECBEC1FF0A694105075
:102B100002E0F28E106A200E0F6E0C50146E0D50F3
:102B2000156E0E50166E176A08500710D8B41200B2
:102B3000B4D795EC21F0CD6701D060D068B423EC18
:102B400022F06DB25BD068B039EC1EF068B871EC61
:102B500021F0030E0001CD5D51E3C46B68A64ED099
:102B60006C506CCF06F07C0E06163BE16CB205D0C3
:102B7000040E00017B6F000E03D0040E00017B6F7A
:102B800000017A6F68967AC0D9FF7BC0DAFFDF3028
:102B9000E8320F0B0D0A2DE1906B20EE02F07A5116
:102BA000D9267B51DA22DECF06F0DDCF07F006C052
:102BB000D9FF07C0DAFF9051CF0FE16EE26ADFCF95
:102BC000E7FF20EE02F07A51D9267B51DA22DE2A85
:102BD000000EDD22902B070E9065DFD749EC1FF029
:102BE00008D06C50040A04E16896D1EC1FF001D0C3
:102BF00068960001C42B030EC465B0D7120025C02F
:102C000029F026C02AF027C02BF028C02CF0180E7F
:102C100001D046D8E82EFDD729502E6E2E6605D05D
:102C2000256A266A276A286A3AD025C029F026C074
:102C30002AF027C02BF028C02CF0200E01D030D86D
:102C4000E82EFDD729502D6E278E286A960E2E5E0F
:102C50002EAE0FD02E50800A296EE90E800A295C14
:102C6000DFE3D89028322732263225322E3EF9D79C
:102C70000CD01F0E2E6407D0D3D7D8902536263619
:102C8000273628362E062E66F8D72D5008E0281E47
:102C9000271E261E256C000E26222722282212001F
:102CA000D8902C322B322A3229321200075005E0FC
:102CB000065003100410051007E1036A046A056A50
:102CC000066A43D0072A4CD8096A0A6A0B6AFE0EC4
:102CD00006140C6E0C5009100A100B1008E0F2D705
:102CE000072A032A000E04220522062239D8096A7F
:102CF0000A6A0B6A06500C6E0C5009100A100B1071
:102D000007E0EED70706D8900336043605360636B8
:102D100005AEF8D707B002D07F0E0516D89007325F
:102D200007C009F00A6A0B6A0C6A09C00CF00B6A4A
:102D30000A6A096A095003120A5004120B5005125C
:102D40000C5006120850D8A4068E1200AFDF03C044
:102D50000DF004C00EF005C00FF006C010F0120018
:102D6000D89006320532043203321200CF511F0BC5
:102D7000036E030452E1D35150E1D051060A18E02A
:102D80001ED0020EC86F100E766F3C0E756FE86B8A
:102D9000090E0CD0020EC86FEB0504E1100E766F21
:102DA000530E756FEB050AE1E86B1D0EE76F06D059
:102DB000D251210AE6E0030AEDE0010ACE83CF39C1
:102DC000E832030B036E030428E11AD026D025D085
:102DD000020EC86F766BEA0E756FCE93010EE76F29
:102DE0001CD0020EC86FD2C0EAF017D0020EC86F16
:102DF000766BE90EF1D7020EC86FD1C0E9F00DD0A5
:102E0000D051010AE3E0030AE3E0010AEFE00A0A15
:102E1000DEE0030AE6E0010AEEE01200C86714D023
:102E2000040E0401086F088F0101166F000196055A
:102E300005E1010E0EEC1EF0966B44D0000E0EEC78
:102E40001EF0010E966F3ED0CFAF1BD0010EC96FA2
:102E5000E751D55DE851D65904E2D5C0E7F0D6C0B8
:102E6000E8F091D9480E0101166F010E0EEC1EF02C
:102E7000000E0EEC1EF00401040E0B6F240E0A6F00
:102E80001ED0020EC96F040E0101166F0001D6514B
:102E9000D51103E1480E0101166F0001960505E109
:102EA000010E0EEC1EF0966B05D0000E0EEC1EF01F
:102EB000010E966FD651D51105E10401096B480E3C
:102EC000086F088F12005CEC22F03F0E066E010EB8
:102ED0003EEC21F0300E066E030E3EEC21F0010EAA
:102EE000066E040E3EEC21F0080E066E050E3EEC5A
:102EF00021F0010E066E060E3EEC21F0340E066E39
:102F0000070E3EEC21F0300E066E080E3EEC21F06E
:102F1000080E066E0D0E3EEC21F0080E066E0E0E2B
:102F20003EEC21F0220E066E0F0E3EEC21F0066AFA
:102F3000100E3EEC21F0066A110E3EEC21F0010E5F
:102F4000066E1C0E3EEC21F0010E066E1D0E3EECD0
:102F500021F0020E066E2D0E3EEC21F0200E066EC4
:102F60002E0E3EEF21F02FC003F030C004F031C030
:102F700005F032C006F0370E076E18EC1CF0385022
:102F8000800AF36E800EF35C000ED8B4375C05E265
:102F90002F6A306A316A326A29D01D0E375C000E02
:102FA000385801E323D02FC025F030C026F031C0BF
:102FB00027F032C028F023DE25C00DF026C00EF029
:102FC00027C00FF028C010F0D0EC1CF00DC033F07B
:102FD0000EC034F00FC035F010C036F033C02FF003
:102FE00034C030F035C031F036C032F01200D105B7
:102FF0000BE1CF511F0B08E1010EC86FD051030A3E
:1030000002E1CE8101D0CE91D16728D0CF511F0BE4
:10301000020A24E1D3510F0B21E0010EC86F5BD9E6
:10302000D051030A06E172C0D9FF73C0DAFF040E63
:103030000ED0D3AF07D072C0D9FF73C0DAFF400EF5
:10304000DF6E0CD072C0D9FF73C0DAFF080EDF6EDE
:1030500072C0D9FF73C0DAFF000EDB8E1200E8CF1A
:1030600011F00AC00EF00BC00FF00EC003F00FC03D
:1030700004F00CC005F00DC006F05EEC1EF003C0BD
:103080000EF004C00FF0112A0F500E10EEE1115097
:10309000D96EDA6ADF6A11060AC003F00BC004F0C9
:1030A0000CC005F00DC006F012EC1FF00350106EBE
:1030B0000AC003F00BC004F00CC005F00DC006F010
:1030C0005EEC1EF003C00AF004C00BF0090E1064A1
:1030D00002D0070E1026300E10261150D96EDA6A73
:1030E00010C0DFFF11060B500A10D6E1112A1200A2
:1030F000F26A9D6AA06A9E6AA16A806A816A826A8F
:10310000070E926E936A870E946E700ED36E380E11
:10311000C66E010EC26E0C0EC16EB50EC06E070EED
:10312000D56E800ECD6E770EC86E010E0001FE6F5B
:10313000046AFF0E03683BEC22F0770A09E0046A98
:10314000FF0E03683BEC22F0880A02E00001FE6BF0
:103150000001FE51D8A42DEC1FF0086A0768020E8A
:10316000096E54EC21F0818CABD9030E046EE80E8D
:10317000036E09EC20F0C2EC0EF09D8A5E86000121
:103180007E8FA4EF14F0080E8F6FE75D000EE859F4
:103190000AE2E7C08FF0CC6702D0010E03D0CC0565
:1031A00002E1020ECC6F8FC009F48F51E75F000E71
:1031B000E85B040E0001736F240E726FCEB309D06A
:1031C00013D015D8F76403D00800F55001D0E7D824
:1031D00019D88F67F6D70AD00AD8F76403D0080049
:1031E000F55001D0DCD80ED88F67F6D7120075C025
:1031F000F6FF76C0F7FFF86A72C0D9FF73C0DAFF36
:10320000070E1200DF6E0001724B732B754B762B8D
:103210008F071200CF39E832030B3FE129D0010EAE
:10322000C86F040ECD6F39D07ED837D0D1EC1EF0E8
:1032300034D0010EC86F766BEB0E756FCE93010E16
:10324000E76F2BD02BD829D0D2DE27D0010EC86F44
:10325000D351EC0F056E766B05C075F0EFD7010EFC
:10326000C86FD351EC0FD96EDA6AD1C0DFFF15D029
:10327000D051E8E0010AE8E0020AE6E0060ACFE001
:10328000030AD2E0010A09E00F0AD3E0010ACEE006
:10329000030ADCE0010AE3E0070A12000401246BE0
:1032A000256B2ED0010EC86FCEA132D0040124832D
:1032B0002FD0010EC86F2CD0010EC86F0CD872C071
:1032C000D9FF73C0DAFFDF50036E03A421D0010ED3
:1032D0000401246F1DD0D3510F0B080D040E036E93
:1032E000046EF3500326F4500422010ED3AF000EF7
:1032F000040DF3500324726FF4500420736F120016
:103300000001CF511F0BCEE0010AD3E0030AD4E045
:103310000001C80507E1040E766F240E756FCE9389
:10332000020EE76F1200CF51800A30E037D0010E55
:10333000C86F100E766F860E756F120E0AD0D167A9
:103340002CD0010EC86F100E766F2A0E756FE86BC9
:10335000290EE76F22D0010EC86FD151270FF66EEC
:10336000100EF76E0900F5CF75F0766F75C0F6FF99
:1033700076C0F7FFF86A070EF76403D00800F5502F
:1033800001D00DD80001E76FE86B07D0D251010AD8
:10339000CEE0030AD4E0010ADEE0CE831200F6CFCD
:1033A000E1FFF7CFE2FFE75012000BD803E30DB0C7
:1033B00005D001D012004BEC23F0120048EC23F0B2
:1033C00012000D6A13C003F014C004F0056A066A07
:1033D000086A040E076EF1DB18C02FF019C031F037
:1033E000190E315C27E2040E1324156E000E142012
:1033F000166E15C003F016C004F0056A066A31C0E7
:1034000007F0086ADADBC580DDEC22F015E2680E11
:10341000F3DA2F50F1DA306A06D03050170F7EEC15
:1034200021F0EADA302A3150305CF7E3C584E9EC68
:1034300022F004E2D8901200D88012000D80D880CB
:10344000120041C039F042C03AF043C03BF044C0E2
:103450003CF041C02FF042C030F043C031F044C0D6
:1034600032F081DD2FC03DF030C03EF031C03FF082
:1034700032C040F066EC1FF039C045F03AC046F06B
:103480003BC047F03CC048F045C02FF046C030F08C
:1034900047C031F048C032F0410E0ADB41C02FF086
:1034A00042C030F043C031F044C032F05CDD2FC088
:1034B00041F030C042F031C043F032C044F012005D
:1034C00082A406D08A84B06A3F0EAF6ED38202D047
:1034D0008A9440D98A988A9A8A96899C89968998EA
:1034E000899A8A9EB9EC22F0F28EF28C936B93C08B
:1034F000ABF0F098F092F294D59EF29AA46BB06B78
:10350000B66BBA6B7E6B7F6BBD6B5E6ABB6BBC6B65
:10351000A16B886B896BC292946B200E01010F6FB7
:10352000210E106F220E116F230E126F250E136FD6
:10353000270E146F280E156F280C166A176A186A62
:103540004B0E196E49C012F04AC013F04BC014F074
:103550004CC015F052EC13F012C041F013C042F011
:1035600014C043F015C044F06CDF41C04DF042C0C0
:103570004EF043C04FF044C050F04DC025F04EC057
:1035800026F04FC027F050C028F0FFEC15F025C002
:1035900051F026C052F027C053F028C054F05450C8
:1035A0000F0B2ADA535028DA525026DA515024D21F
:1035B0000001CD51060AD8B46DB204D05EA602D087
:1035C00082B002D0AB882BD0C06719D004010CBFE9
:1035D00026D0BBEC0FF01A0E036E400E056EF5D828
:1035E000010E0001C06F596A01015A0E592437ECCF
:1035F0000DF0DF6A592A3F0E5964F6D710D0010149
:103600001A5155EC08F0040110BF09D0BBEC0FF0C3
:103610005A0E036E400E056EA4DA0001C06B120054
:103620000E6A0D6A0F6A0B6A05C003F006C004F04B
:10363000A2EC21F037EC22F023E00FC00AF0EDEC11
:1036400020F00F6E0D500AE00E500724D96E000EC8
:103650000820DA6E0FC0DFFF0E2A05D00F503A0A9D
:1036600002E1010E0D6E0C6A0D5008E00A500D0AC1
:1036700005E10F500A0A02E1010E0C6E0CC00BF0BE
:10368000A4EC22F005E209500E5C02E20B50D2E0FD
:10369000BFEC22F00E5012000600A1AA02D0A19A9F
:1036A000A09AF2A405D000017E81F294F29AD59EF0
:1036B000A1A211D0B190F80EB36E300EB26EB180EF
:1036C000A19200018D518C1104E08C07D8A08D07C8
:1036D00002D0B190A0929EAA0FD00001C75182ECF7
:1036E00021F0AECFDFFFC72BBF0EC76501D0C76B80
:1036F000ABA202D082EC20F002C0DAFF01C0D9FFF9
:1037000011000201FE810001050E19D85F501ED87C
:10371000070E15D800016E51600F18D8030E0FD890
:10372000010E5EA6000E12D8060E09D800019951AE
:103730000DD81D0E04D80001B85144EF22F00D6ED3
:10374000BF0E44EC22F00D5044EF22F044EC22F086
:10375000B2EF22F0B06A7F0EAF6ED3921200066A0B
:103760001B0E3EEC21F0066A1C0E3EEC21F0066AB0
:103770001D0E3EEC21F082A406D08A84B06A3F0E72
:10378000AF6ED38202D08A94E5DF8A98899C8996AD
:103790008998899A280E0001885D020E895910E2E5
:1037A000086A096A08C006F01C0E3EEC21F0010E02
:1037B000081AFA0E07EC20F0092A040E0964F2D761
:1037C0008A96D59EF29A84EF22F00001CA6B04011A
:1037D0000CBF2DD005500D5DD8A00DC405F0000123
:1037E000CA6B10D02C0E0001CA25D96EDA6A040EFD
:1037F000DA22CA510324E16E000E0420E26EDFCF0C
:10380000E7FFCA2B0550CA5DEDE3400E04010D6FC2
:103810000C17010E0CBD000E066E063A0646064653
:103820000C510618BF0B06180C6F0C870C8F12007A
:1038300020EE03F0DE50DE10DE10DE1007E1075050
:10384000D96EDA6A000EDE6EDD6E24D006507F0B74
:10385000086ED8900834096E0A6A0A360750D96E85
:10386000DA6A09C0DEFF0AC0DDFF0750D96EDA6AE6
:10387000010E05AE000EDE12000EDD120750D96EED
:10388000DA6A820EDE26FF0EDD220650800B3F092B
:10389000066E059E120003EE00F0C00EEE6AE8060A
:1038A000FDE102EE00F0DE0EEE6AE806FDE101EE5B
:1038B00000F0E50EEE6AE806FDE100EE60F08D0E28
:1038C000EE6AE806FDE1020102EEDEF0220EEE6A8B
:1038D000E806FDE1010ED0A206D0D0A006D0D0A609
:1038E00006D0F06F05D0ED6F03D0EE6F01D0EF6F13
:1038F000D080D082D086D0885F6A5E6AF40EF66E81
:10390000430EF76E000EF86E01EEE5F010EE16F0C5
:103910000900F5CFEEFFE550E150FAE1000EF86E38
:10392000000171EF22F05EA40DD01CEC15F00A50DE
:10393000091008E1560E085C05E3600E085C02E21F
:103940000A0E085E0B6A03C00CF004C00DF005C03F
:103950000EF006C00FF019D00EC0F8FF0DC0F7FF33
:103960000CC0F6FFA68EA69CA684A688F2AE03D055
:10397000F29E010E0B6E0FDB0B50D8A4F28E400EA0
:103980000C26000E0D220E220F2207500C5C085050
:103990000D5809500E580A500F58D8B01200DCD7F5
:1039A000116A1050800A800F08E1000E0F5C05E1DB
:1039B000000E0E5C02E1000E0D5C0AE2101E0F1EEE
:1039C0000E1E0D6C000E0E220F221022010E116E23
:1039D0000DC003F00EC004F00FC005F010C006F0DB
:1039E000960E076E11C008F0A6EF16F0C6CF04F0D1
:1039F0000F0E041604501200E8CF05F005C0C9FFF1
:103A0000C6BE26D0F3DF080A0AE0F0DF0B0A07E0A3
:103A1000C68801EC23F01CE2C7A4C75018D0E6DF2B
:103A2000080A03E0E3DF0B0A12E1F5EC22F00FE2F3
:103A30005CEC22F0E0CF0EF00001C5AC05D07F8534
:103A4000020102EEE5F049DB0EC0E0FFC5501200B6
:103A50004BEC23F01200E8CF2DF02D50D96EDA6A2E
:103A6000DECF12F0DECF13F0DECF14F0DECF15F094
:103A700025C016F026C017F027C018F028C019F08E
:103A800052EC13F012C029F013C02AF014C02BF02E
:103A900015C02CF02D50D96EDA6A29C0DEFF2AC07D
:103AA000DEFF2BC0DEFF2CC0DDFFD906D9061200D9
:103AB000E8CF37F03750D96EDA6ADECF20F0DECFAC
:103AC00021F0DECF22F0DECF23F02FC024F030C073
:103AD00025F031C026F032C027F03EEC11F020C0B6
:103AE00033F021C034F022C035F023C036F0375017
:103AF000D96EDA6A33C0DEFF34C0DEFF35C0DEFFC8
:103B000036C0DDFFD906D9061200E8CF05F0046AF9
:103B10002F0E056406D03A0E055C03E20550D00F67
:103B200008D0400E056406D0470E055C03E2055040
:103B3000C90F046E043AF00E04162F0E036406D06B
:103B40003A0E035C03E20350D00F08D0400E03642A
:103B500006D0470E035C03E20350C90F042604504D
:103B60001200400E056401D0056E076A0FD00750A1
:103B70000324D96E000E0420DA6E6C0E0724E16E69
:103B8000E26A040EE222DFCFE7FF072A0550075C56
:103B9000EEE305C011F4400E04011017010E10BD34
:103BA000000E066E063A0646064610510618BF0B72
:103BB0000618106F1087108F12000A6A170E096E10
:103BC0001AEC15F003C00BF004C00CF005C00DF0AA
:103BD00006C00EF0F8CF11F0F7CF10F0F6CF0FF0CF
:103BE0000DC0F8FF0CC0F7FF0BC0F6FF09D00900AD
:103BF00009C0D9FF0AC0DAFFF5CFDFFF094A0A2A58
:103C00000706D8A008060728D8B40828F0E111C094
:103C1000F8FF10C0F7FF0FC0F6FF1200E8CF03F067
:103C2000080E0101176F040E196F1C0E186F036642
:103C300009D0040E196F140E186F040E0001796F6D
:103C4000000E03D0040E0001796F786F78C0D9FFA1
:103C500079C0DAFF16C1DEFF17C1DEFF18C1DEFF33
:103C600019C1DEFF78C0D9FF79C0DAFF0001DF8E0D
:103C70001200030E0001CD6F6B6A686A7B0E696EDD
:103C80006E6A716A726A736A746A756A766A776A4A
:103C9000160E706E6D8C02D06896040068B6FCD764
:103CA0006D9C6D98040E0101166F000EB7DF010EBA
:103CB000966FCE6BEB6B000E9EEF22F0076A086AE0
:103CC000065005101BE0010E096E04D0D890053691
:103CD0000636092A06AEFAD7D890073608360550B8
:103CE000035C0650045805E30550035E0650045A71
:103CF0000780D89006320532092EEED707C003F0B0
:103D000008C004F0120000015EA626D0A151640A8A
:103D100022E1C2B21ED0C450046E036AC350032411
:103D2000886F000E0420896F290E885D020E895964
:103D3000D8B09485C28294A50CD0280E885D020E5E
:103D4000895907E25E967E85020102EEEAF0C5D946
:103D50000001A16B01D0A12B1200E8CF17F017C012
:103D600016F01350800AF36E800EF35C000ED8B488
:103D7000125C0AE21750D96EDA6A2D0EDF6E172A2E
:103D8000126C131ED8B0132A12C00AF013C00BF025
:103D900014C00CF015C00DF017502FEC18F0165091
:103DA0001200010EC86F716A726A736A746A756A6A
:103DB000766A776A916B9151EC0FD96EDA6ADF6A95
:103DC000912B9151F8E0D1C0EBF0EB51B7DB000142
:103DD000D16702D0050E01D0060ECD6F1200E8CFDC
:103DE00006F06ADBC580E9DB15E2E20E05DE06506F
:103DF00003DEC582E8DB0EE2E30EFEDD11DA076EBC
:103E0000C58AC588ECDB06E2C584E3DB07E2075020
:103E1000D89012004BEC23F0E86A120048EC23F033
:103E2000E86A12000650051017E0010E076E04D074
:103E3000D89005360636072A06AEFAD70550035C39
:103E40000650045804E30550035E0650045AD89007
:103E500006320532072EF2D71200F29E300EF86EAF
:103E6000F76A0B0EF66EA00EF56E0C00C40EA66E71
:103E700092D8A6B2FED7300EF86EF76AF66A3A0EFE
:103E8000F56E0C00C40EA66E86D8A6B2FED7A69418
:103E900012000401086B0001CC6B040100AF03D0D9
:103EA000006B0001966B040104AF04D0046B010E9B
:103EB0000001966F0001C96BC86BE76BE86B6D98EA
:103EC0000AEC19F0B6EC16F00EEF17F0800E401A5F
:103ED00039C020F03AC021F03BC022F03CC023F0B2
:103EE0003DC024F03EC025F03FC026F040C027F082
:103EF0003EEC11F020C039F021C03AF022C03BF076
:103F000023C03CF01200E8CF06F0D6DAC58055DBBE
:103F100010E2680E71DD1F0E6FDD000E6DDD000E0C
:103F20006BDD000E69DD065067DDC58452DB03E200
:103F30001200B1DB1200ACDB1200E8CF06F006C0C5
:103F400004F0043A0F0E041609D89EDA056E06C076
:103F500004F00F0E03D898DA051A12000416045064
:103F60000DEC0CF00800F550120003C0A9FF05C0CD
:103F7000A8FFA69EA69CA684000EF2BE010E066EA9
:103F8000F29E09D8A6B2FED706B002D0F29E01D0AA
:103F9000F28EA6941200550EA76EAA0EA76EA682E8
:103FA000AA0CCD51040A07E1D1C06EFF6E50050E78
:103FB000D8B4030ECD6FC9050EE1C3EC18F0CC5197
:103FC000020A03E1040E040104D00401480E08BDF6
:103FD000080E086F088F1200E8CF03F00FD0010E13
:103FE000A06FB96B13D0A06B010E06D0020EA06FAC
:103FF00003D0010EA06F030EB96F08D00350EFE09D
:10400000010AF1E0030AF2E0010AF3E01200036E94
:10401000046AA092980EB16EB18010D0D3A204D0E1
:10402000FC0EB36E180E03D0F80EB36E300EB26EE7
:10403000A192A1A2FED70306D8A004060450031043
:10404000EDE1B1901200E8CF1BF00D0E1DDA0A0E63
:104050001BDA0C0E19DA3A0E17DA196A1BC018F0BF
:10406000FCD80D0E11DA0A0E0FD2556A566A576A3D
:10407000586A6EEF24F020DAC5809FDA12E2680EEB
:10408000BBDC300EB9DC55C049F056C04AF057C011
:104090004BF058C04CF09DEC1AF0C5849ADA03E25C
:1040A0001200F9DA1200F4DA12005F660DD0899678
:1040B00001D089868998899A0FD08996899802D0EB
:1040C00089968988898A08D09351F1E0050AF1E040
:1040D000030AF3E0010AF4E012000F0EEF6402D0CD
:1040E000EF6E1200EF601200EF2A1200AE50AE50D9
:1040F00012009D9A9E9A9D989E98AB98F7DFAC9A75
:10410000AB9E03D0AB98F2DFAB880001C66BC76BE8
:10411000986BA26BA36BBC6B5E905E9C120000015F
:104120009853D8B40AD0C751C66307D00201F14BE7
:1041300001D012000001986B5E900201F16B120039
:10414000AB9ED09E0001C66BC76B060EAC6E800E98
:10415000AB6E480EB86E948E948C9D989E989E9AE5
:104160009D9AB06A7F0EAF6EAC8AAB887F0C560EFC
:10417000336E326A346A32C013F033C014F0D5ECB7
:1041800019F0180E3226000E3322342A5F0E3464E2
:10419000F2D7146E136AD5EF19F071EC10F0CD510F
:1041A000060AD8B46DB20CD082A00AD0040110BFA8
:1041B00007D0BBEC0FF05A0E036E400E056ED1DC3B
:1041C0001200E8CF11F01150036E046A056A066A06
:1041D000960E076E086AA6EF16F0046A48D90AE040
:1041E0000001C6518FD8DF50046EC62BBF0EC665C6
:1041F00001D0C66B04501200CA6B1E0E716E400EC9
:1042000004010D6F040E0F6F2C0E0E6F080E0C6F55
:104210000C8F040E136F6C0E126F400E106F400C5B
:10422000C6500F0B080A02E00B0AD8B4C586E3D9C2
:1042300002E2C95012002FDAE86A120021EEF4F00F
:1042400010EE1CF0070EDECFE6FFE82EFCD71C0EAA
:10425000FADE1C0EF8DE1C0EF6D61A6A03D006D85B
:1042600013D91A2A03D8D8B41200F9D71A5018242F
:10427000D96E000E1920DA6EDF501200E8CF07F079
:10428000C5809BD90DE2E20EFCEC1CF00750FCEC63
:104290001CF00650FCEC1CF0C5849BD903E2120014
:1042A000FAD91200F5D9120007C003F008C004F0D3
:1042B000E2D8091807E007C003F008C004F009C0FD
:1042C00005F053DE12009505D8B4B4D86D6A150E0A
:1042D0006F6E696A6D86CDDC010E0001CD6F956B46
:1042E000120069CF92F0040E696E68986D82A19AEF
:1042F000A08AA09A0001925169121200D96EDA6A5E
:10430000DF501200D96E020EDA6E1200066A08D073
:1043100006500324D96E000E0420DA6EDF6A062AE6
:104320000550065CD8B01200F3D70001950509E0EE
:1043300082A003D06DA6C7DF04D06DA602D0E4D85A
:10434000956B1200980EB16EF80EB36E300EB26E11
:1043500003C08CF004C08DF0A192B180A082300C1B
:1043600000017EA510D05EA607D0020102EEE8F0A3
:10437000B4DEA4EC14F006D0020102EEE7F0ADDEEC
:10438000AFEC1BF07E95010E12EF0CF0E8CF04F0BD
:10439000C00EC716C66AC56AC69EC69CA1960450C2
:1043A000C6120350C71293829380C68A120002017C
:1043B000FE6B0001D8EC1AF040EC0DF0B0DE0DDB26
:1043C00065EC12F0CDDF03EC12F020DA01D89BD4BB
:1043D000E0CF0EF002018050020BEC19D8B407D0E8
:1043E0008050020BEC6F020102EEEBF076DE0EC0A5
:1043F000E0FF12002D204641494C200046575F55F2
:10440000706400303030303030000201FE81000135
:10441000BF0E3AD8290E38D8010E5EA2000E34D055
:1044200004D004000306D8A0040604500310D8B436
:104430001200F7D76D926D6AFF0E04680368F0DF13
:104440000001CD6B12008AD86D92699401D06894F6
:1044500068A41200FCD7BF0E17D8180E15D8010E8D
:1044600013D001D0BADE03D8D8B41200FBD70001B4
:10447000C751C619120003C0A9FFA69CA69EA6801C
:1044800000F000F0A8501200E8CF03F090D804E24A
:1044900003C0ADFF0350120053DE89D804E203C00D
:1044A000ADFF0350120023D0A40ED76E710ED66E4E
:1044B000F294F28AD58E710C0201F2A104D0C5B437
:1044C00002D0F291A6D868D8C5CF03F01F0E03160C
:1044D000D8B4C7B402D0D8901F0C63D8F5E3DBD8AA
:1044E0001F0C78EC18F099EC15F061DFFCD7F26A3C
:1044F00000F000F0FF0000F000F01200020E03DDFB
:1045000089968998899A12006D926D6A0001CD6B27
:10451000010E956F010C5BDA066A1B0EAFDE066AB0
:104520001C0EACDE066A1D0EA9DE8A98899C89964F
:104530008998899A640E6BDD8A96D9D7E8CF03F003
:104540000304D8B459DE1200B1A002D0D89001D033
:10455000D88012006DB66EDF956BE7D6030E046E41
:10456000036A63D7046A010E036E53D5E9DDAB9885
:10457000CCD5E6DDCAD5046A020E036E4AD5B190E9
:10458000A192A09212006EC066F06FC067F070C07A
:1045900068F071C069F012000B6A100E0C6ED890B2
:1045A00012000B2E12000C2E1200D8801200F4DF25
:1045B000ACB22DD0F6DFFCE31200EEDFC5A027D0B1
:1045C000F0DFFCE31200E8DFC5A221D0EADFFCE364
:1045D0001200E2DFC5A41BD0E4DFFCE31200DCDF45
:1045E000C5A815D0DEDFFCE31200D6DFC7A00FD0D0
:1045F000D8DFFCE31200D0DFC7B009D0D2DFFCE384
:104600001200CADF9EB603D0CCDFFCE31200D890C4
:104610001200C69A93829380090E0B6E93928A922F
:104620000000000093820000000081B002D00B2E39
:10463000F5D793908A900000938200000000938049
:10464000280EC66E12000001C580B7DF0CE2680EAE
:10465000FCEC1CF0C584BDDF06E20001C5AC7F9D0B
:10466000C5BC06D01200800E036E080E8FDE00015E
:104670007F8D12000201FE8100011200FBDF7F51DD
:10468000440B0D6EBF0E00DF080EFEDE0D50FCD693
:104690000D6A0D8003D00D6AC5B40D80020102EED3
:1046A000E5F01BDD020102EEE9F017DD0201F28107
:1046B000800E036E080E6ADE0DB002D0AADFC3DFE3
:1046C0000001C69EC69C00017F85D8DFD8801200FD
:1046D000280E046E210E586E02EEE5F0F0D02C0E7E
:1046E000046E280E586E02EEEDF0E9D0C3DFBF0E67
:1046F000CBDE2C0EC9DE000EC7DE5E9CB2EF0EF0E4
:10470000B9DFBF0EC1DE4F0EBFDEA3513F0BBCDED3
:10471000030E056E040E066E070E076E0F0E086E72
:10472000540E046E500E586E00EE05F0C8D0020113
:10473000F851010B55E1F851F96F0001A3517F0BBE
:104740000201F56F010BF76F5EB4010A06E0F75145
:1047500002E0020E04D0010E02D0F76B01D0F76F19
:10476000FB6BFB511E0A0DE0FB513DD80201FF6FB0
:10477000200EFF6101D005D07F0EFF6102D0FB2B20
:10478000F0D72F0EFA6F110EFB6101D01ED0F7513A
:10479000FD6FF66BFD51F76FF65125D80201FC6FE6
:1047A000FD5102E0F76B04D0010E5EA4020EF76F1C
:1047B000F65119D80201FC6306D0F62B100EF663F1
:1047C000E9D72E0EFA6FFD51F76FF851010B08E192
:1047D000F851F96305D0F66BFC6BFD6B010EF46FBD
:1047E0005E9CB2EF0EF0FF6FF7510AE0010A02E0A3
:1047F000830E01D0600EFF25036E046A3CDE1200BA
:1048000022EEC0F0FF51D926DF5012000201F45110
:104810001FE0FEA104D0FC6B010EFD6F19D0FC530C
:1048200005E1FD5305E0FD07FC0712D0FC0710D0A1
:10483000F851010B0CE1F851F96309D0F451010A68
:1048400008E0030A0FE0010A17E0070A24E0F46B0E
:104850001200FA510D6EF5510E6E25D80201020EAE
:10486000F46F12002D0E0D6EF551FB190E6E1BD854
:104870000201030EF46F1200F651FB6301D00BD05E
:10488000F651B1DF0E6E0201300EF6250D6E0BD81B
:104890000201F62B12004E0E0D6EF5510E6E03D86E
:1048A0000201F46B12000201FE81FC6B010EFD6F30
:1048B0000001BF0EE9DD0D50E7DD0E50E5D5DADE73
:1048C000BF0EE2DD5850E0DDEE500F0BDDDD582A63
:1048D00004505862F4D75E9CB2EF0EF000017F9551
:1048E0003BEC20F000017FB50AD000017E977E8F5F
:1048F0004ADEC70E7F177FAD12007F9DBFD6080E20
:104900007F277F51380B280819E2C5B407D0020170
:1049100002EEE9F06DEC20F07CDE95DE00017FBD5B
:1049200005D0020102EEE6F06DEC20F000017F8D73
:10493000A5DE00017E97C70E7F1712001200ABDEC6
:104940001200E1EC19F002E2D8901200F8D7000151
:10495000BDBD0FD0A351010B0201DF6FDE5109E194
:10496000DF515EB4010A05E0010EDE6FE26B5EB856
:10497000E283B2EF0EF00201F82B0001600E5EB48C
:10498000830E076E086A22EEC0F01E0E0A6EDECF9E
:1049900009F08ADC072A0A2EFAD70201F82B000157
:1049A000BD9B12000201F82B0001600E5EB4830E65
:1049B000036E046A22EEC0F01E0E0A6E5CDDDE6E2F
:1049C000032A0A2EFBD70201F82B00011200000176
:1049D0005E885E8A7E9B35EF20F00201DE510FE09B
:1049E0005EA672D05EBE70D00201DE51010A08E000
:1049F000030A18E0010A30E0070A4AE065D0120015
:104A00000001BDBBB8DF02015EB803D0E281DFDF89
:104A100001D0E291046A960E036E94DC0201020E4C
:104A2000DE6F120000018D518C1115E1BDBD120029
:104A30000201DF515EB4010A3AE05E74F29EB2DF19
:104A4000F28E00017E810201E06BE36B560EE46F93
:104A5000030EDE6F120012000201600EE0610FD043
:104A6000E3C213F0E4C214F06CDF07E20201180E97
:104A7000E327000EE423E02B120002011200136A68
:104A80005F0E146E5EDFF9E20201040EDE6F1200AB
:104A90000201DF515EB4010A09E1E2A106D0E2B3EE
:104AA00004D05E985E9A00017E8718D0B3D7B1908B
:104AB000A092A1920201E2A111D0E2B30FD05E98C0
:104AC0005E9A00017E870AD0B190A092A192020165
:104AD000E2A104D05E9AE2B301D05E980201DE6BDF
:104AE0001200010121EE5AF0430EDE6EDE6A1E5105
:104AF000DE6E03E03D0E1E6502D0020E25D01B5176
:104B000004E0010A13E0010E1FD01CC103F01DC117
:104B100004F0056A066A1EC107F0086A5D0E096E98
:104B2000010E0A6EE0EC1DF09FEF0AF01C51036EBF
:104B3000046A1E510A6E21EE5DF09DDCDE6E032AD2
:104B40000A2EFBD79FEF0AF05B6F9FEF0AF021EE72
:104B50005AF0440EDE6EDE6A0B0EDE6E02EEE5F0FB
:104B6000070E586EEE50DE6E582EFCD7E92A040E62
:0E4B7000586EEE50DE6E582EFCD79FEF0AF006
:104C000001C80400000000000000000000000000D7
:104C10000000000000000000013714000000000048
:104C20000000000000000000000000000000000084
:104C30000138140000000000000000000000000027
:104C40000000000000000000013914000000000016
:104C50000000000000000000000000000000000054
:104C6000013A1400000000000000000000000000F5
:104C70000000000000000000013B140000000000E4
:104C80000000000000000000000000000000000024
:104C9000013C1400000000000000000000000000C3
:104CA0000000000000000000013D140000000000B2
:104CB00000000000000000000000000000000000F4
:104CC000013E140000000000000000000000000091
:104CD0000000000000000000013F14000000000080
:104CE00000000000000000000000000000000000C4
:104CF000014014000000000000000000000000005F
:104D0000000000000000000001411400000000004D
:104D10000000000000000000000000000000000093
:104D2000014214000000000000000000000000002C
:104D3000000000000000000001431400000000001B
:104D40000000000000000000000000000000000063
:104D500001441400000000000000000000000000FA
:104D600000000000000000000145140000000000E9
:104D70000000000000000000000000000000000033
:104D800001C9040000000000000000000000000055
:104D900000000000000000000146140000000000B8
:104DA0000000000000000000000000000000000003
:104DB0000147140000000000000000000000000097
:104DC0000000000000000000014814000000000086
:104DD00000000000000000000000000000000000D3
:104DE0000149140000000000000000000000000065
:104DF0000000000000000000014A14000000000054
:104E000000000000000000000000000000000000A2
:104E1000014B140000000000000000000000000032
:104E20000000000000000000014C14000000000021
:104E30000000000000000000000000000000000072
:104E4000014D140000000000000000000000000000
:104E50000000000000000000014E140000000000EF
:104E60000000000000000000000000000000000042
:104E7000014F1400000000000000000000000000CE
:104E800000000000000000000150140000000000BD
:104E90000000000000000000000000000000000012
:104EA000015114000000000000000000000000009C
:104EB000000000000000000001521400000000008B
:104EC00000000000000000000000000000000000E2
:104ED000015314000000000000000000000000006A
:104EE0000000000000000000015414000000000059
:104EF00000000000000000000000000000000000B2
:104F000001CA0400000000000000000000000000D2
:104F10000000000000000000015514000000000027
:104F20000000000000000000000000000000000081
:104F30000156140000000000000000000000000006
:104F400000000000000000000157140000000000F5
:104F50000000000000000000000000000000000051
:104F600001581400000000000000000000000000D4
:104F700000000000000000000159140000000000C3
:104F80000000000000000000000000000000000021
:104F9000015A1400000000000000000000000000A2
:104FA0000000000000000000015B14000000000091
:104FB00000000000000000000000000000000000F1
:104FC000015C140000000000000000000000000070
:104FD0000000000000000000015D1400000000005F
:104FE00000000000000000000000000000000000C1
:104FF000015E14000000000000000000000000003E
:105000000000000000000000015F1400000000002C
:105010000000000000000000000000000000000090
:10502000016014000000000000000000000000000B
:1050300000000000000000000161140000000000FA
:105040000000000000000000000000000000000060
:1050500001621400000000000000000000000000D9
:1050600000000000000000000163140000000000C8
:105070000000000000000000000000000000000030
:1050800001CB040000000000000000000000000050
:105090000000000000000000016414000000000097
:1050A0000000000000000000000000000000000000
:1050B0000165140000000000000000000000000076
:1050C0000000000000000000016614000000000065
:1050D00000000000000000000000000000000000D0
:1050E0000167140000000000000000000000000044
:1050F0000000000000000000016814000000000033
:10510000000000000000000000000000000000009F
:105110000169140000000000000000000000000011
:105120000000000000000000016A14000000000000
:10513000000000000000000000000000000000006F
:10514000016B1400000000000000000000000000DF
:105150000000000000000000016C140000000000CE
:10516000000000000000000000000000000000003F
:10517000016D1400000000000000000000000000AD
:105180000000000000000000016E1400000000009C
:10519000000000000000000000000000000000000F
:1051A000016F14000000000000000000000000007B
:1051B000000000000000000001701400000000006A
:1051C00000000000000000000000000000000000DF
:1051D0000171140000000000000000000000000049
:1051E0000000000000000000017214000000000038
:1051F00000000000000000000000000000000000AF
:1052000001CC0400000000000000000000000000CD
:105210000000000000000000017314000000000006
:10522000000000000000000000000000000000007E
:1052300001741400000000000000000000000000E5
:1052400000000000000000000175140000000000D4
:10525000000000000000000000000000000000004E
:1052600001761400000000000000000000000000B3
:1052700000000000000000000177140000000000A2
:10528000000000000000000000000000000000001E
:105290000178140000000000000000000000000081
:1052A0000000000000000000017914000000000070
:1052B00000000000000000000000000000000000EE
:1052C000017A14000000000000000000000000004F
:1052D0000000000000000000017B1400000000003E
:1052E00000000000000000000000000000000000BE
:1052F000017C14000000000000000000000000001D
:105300000000000000000000017D1400000000000B
:10531000000000000000000000000000000000008D
:10532000017E1400000000000000000000000000EA
:105330000000000000000000017F140000000000D9
:10534000000000000000000000000000000000005D
:1053500001801400000000000000000000000000B8
:1053600000000000000000000181140000000000A7
:10537000000000000000000000000000000000002D
:1053800001CD04000000000000000000000000004B
:105390000000000000000000018214000000000076
:1053A00000000000000000000000000000000000FD
:1053B0000183140000000000000000000000000055
:1053C0000000000000000000018414000000000044
:1053D00000000000000000000000000000000000CD
:1053E0000185140000000000000000000000000023
:1053F0000000000000000000018614000000000012
:10540000000000000000000000000000000000009C
:1054100001871400000000000000000000000000F0
:1054200000000000000000000188140000000000DF
:10543000000000000000000000000000000000006C
:1054400001891400000000000000000000000000BE
:105450000000000000000000018A140000000000AD
:10546000000000000000000000000000000000003C
:10547000018B14000000000000000000000000008C
:105480000000000000000000018C1400000000007B
:10549000000000000000000000000000000000000C
:1054A000018D14000000000000000000000000005A
:1054B0000000000000000000018E14000000000049
:1054C00000000000000000000000000000000000DC
:1054D000018F140000000000000000000000000028
:1054E0000000000000000000019014000000000017
:1054F00000000000000000000000000000000000AC
:1055000001D404000000000101311000000000007F
:105510000000000000000000000000000131100049
:1055200000800000000000000000000000000000FB
:105530000132100000000000000000000000000028
:105540000000000001321000008000000000000098
:105550000000000000000000013310000000000007
:1055600000000000000000000000000001331000F7
:1055700000800000000000000000000000000000AB
:1055800001341000000000000000000000000000D6
:105590000000000001341000008000000000000046
:1055A00000000000000000000135100000000000B5
:1055B00000000000000000000000000001351000A5
:1055C000008000000000000000000000000000005B
:1055D0000136100000000000000000000000000084
:1055E00000000000013610000080000000000000F4
:1055F0000000000000000000FFFFFFFFFFFFFFFFB3
:1056000001C80400000000000000000000000000CD
:10561000000000000000000001371400000000003E
:10562000000000000000000000000000000000007A
:10563000013814000000000000000000000000001D
:10564000000000000000000001391400000000000C
:10565000000000000000000000000000000000004A
:10566000013A1400000000000000000000000000EB
:105670000000000000000000013B140000000000DA
:10568000000000000000000000000000000000001A
:10569000013C1400000000000000000000000000B9
:1056A0000000000000000000013D140000000000A8
:1056B00000000000000000000000000000000000EA
:1056C000013E140000000000000000000000000087
:1056D0000000000000000000013F14000000000076
:1056E00000000000000000000000000000000000BA
:1056F0000140140000000000000000000000000055
:105700000000000000000000014114000000000043
:105710000000000000000000000000000000000089
:105720000142140000000000000000000000000022
:105730000000000000000000014314000000000011
:105740000000000000000000000000000000000059
:1057500001441400000000000000000000000000F0
:1057600000000000000000000145140000000000DF
:105770000000000000000000000000000000000029
:1057800001C904000000000000000000000000004B
:1057900000000000000000000146140000000000AE
:1057A00000000000000000000000000000000000F9
:1057B000014714000000000000000000000000008D
:1057C000000000000000000001481400000000007C
:1057D00000000000000000000000000000000000C9
:1057E000014914000000000000000000000000005B
:1057F0000000000000000000014A1400000000004A
:105800000000000000000000000000000000000098
:10581000014B140000000000000000000000000028
:105820000000000000000000014C14000000000017
:105830000000000000000000000000000000000068
:10584000014D1400000000000000000000000000F6
:105850000000000000000000014E140000000000E5
:105860000000000000000000000000000000000038
:10587000014F1400000000000000000000000000C4
:1058800000000000000000000150140000000000B3
:105890000000000000000000000000000000000008
:1058A0000151140000000000000000000000000092
:1058B0000000000000000000015214000000000081
:1058C00000000000000000000000000000000000D8
:1058D0000153140000000000000000000000000060
:1058E000000000000000000001541400000000004F
:1058F00000000000000000000000000000000000A8
:1059000001CA0400000000000000000000000000C8
:10591000000000000000000001551400000000001D
:105920000000000000000000000000000000000077
:1059300001561400000000000000000000000000FC
:1059400000000000000000000157140000000000EB
:105950000000000000000000000000000000000047
:1059600001581400000000000000000000000000CA
:1059700000000000000000000159140000000000B9
:105980000000000000000000000000000000000017
:10599000015A140000000000000000000000000098
:1059A0000000000000000000015B14000000000087
:1059B00000000000000000000000000000000000E7
:1059C000015C140000000000000000000000000066
:1059D0000000000000000000015D14000000000055
:1059E00000000000000000000000000000000000B7
:1059F000015E140000000000000000000000000034
:105A00000000000000000000015F14000000000022
:105A10000000000000000000000000000000000086
:105A20000160140000000000000000000000000001
:105A300000000000000000000161140000000000F0
:105A40000000000000000000000000000000000056
:105A500001621400000000000000000000000000CF
:105A600000000000000000000163140000000000BE
:105A70000000000000000000000000000000000026
:105A800001CB040000000000000000000000000046
:105A9000000000000000000001641400000000008D
:105AA00000000000000000000000000000000000F6
:105AB000016514000000000000000000000000006C
:105AC000000000000000000001661400000000005B
:105AD00000000000000000000000000000000000C6
:105AE000016714000000000000000000000000003A
:105AF0000000000000000000016814000000000029
:105B00000000000000000000000000000000000095
:105B10000169140000000000000000000000000007
:105B20000000000000000000016A140000000000F6
:105B30000000000000000000000000000000000065
:105B4000016B1400000000000000000000000000D5
:105B50000000000000000000016C140000000000C4
:105B60000000000000000000000000000000000035
:105B7000016D1400000000000000000000000000A3
:105B80000000000000000000016E14000000000092
:105B90000000000000000000000000000000000005
:105BA000016F140000000000000000000000000071
:105BB0000000000000000000017014000000000060
:105BC00000000000000000000000000000000000D5
:105BD000017114000000000000000000000000003F
:105BE000000000000000000001721400000000002E
:105BF00000000000000000000000000000000000A5
:105C000001CC0400000000000000000000000000C3
:105C100000000000000000000173140000000000FC
:105C20000000000000000000000000000000000074
:105C300001741400000000000000000000000000DB
:105C400000000000000000000175140000000000CA
:105C50000000000000000000000000000000000044
:105C600001761400000000000000000000000000A9
:105C70000000000000000000017714000000000098
:105C80000000000000000000000000000000000014
:105C90000178140000000000000000000000000077
:105CA0000000000000000000017914000000000066
:105CB00000000000000000000000000000000000E4
:105CC000017A140000000000000000000000000045
:105CD0000000000000000000017B14000000000034
:105CE00000000000000000000000000000000000B4
:105CF000017C140000000000000000000000000013
:105D00000000000000000000017D14000000000001
:105D10000000000000000000000000000000000083
:105D2000017E1400000000000000000000000000E0
:105D30000000000000000000017F140000000000CF
:105D40000000000000000000000000000000000053
:105D500001801400000000000000000000000000AE
:105D6000000000000000000001811400000000009D
:105D70000000000000000000000000000000000023
:105D800001CD040000000000000000000000000041
:105D9000000000000000000001821400000000006C
:105DA00000000000000000000000000000000000F3
:105DB000018314000000000000000000000000004B
:105DC000000000000000000001841400000000003A
:105DD00000000000000000000000000000000000C3
:105DE0000185140000000000000000000000000019
:105DF0000000000000000000018614000000000008
:105E00000000000000000000000000000000000092
:105E100001871400000000000000000000000000E6
:105E200000000000000000000188140000000000D5
:105E30000000000000000000000000000000000062
:105E400001891400000000000000000000000000B4
:105E50000000000000000000018A140000000000A3
:105E60000000000000000000000000000000000032
:105E7000018B140000000000000000000000000082
:105E80000000000000000000018C14000000000071
:105E90000000000000000000000000000000000002
:105EA000018D140000000000000000000000000050
:105EB0000000000000000000018E1400000000003F
:105EC00000000000000000000000000000000000D2
:105ED000018F14000000000000000000000000001E
:105EE000000000000000000001901400000000000D
:105EF00000000000000000000000000000000000A2
:105F000001D4040000000001013110000000000075
:105F1000000000000000000000000000013110003F
:105F200000800000000000000000000000000000F1
:105F3000013210000000000000000000000000001E
:105F4000000000000132100000800000000000008E
:105F500000000000000000000133100000000000FD
:105F600000000000000000000000000001331000ED
:105F700000800000000000000000000000000000A1
:105F800001341000000000000000000000000000CC
:105F9000000000000134100000800000000000003C
:105FA00000000000000000000135100000000000AB
:105FB000000000000000000000000000013510009B
:105FC0000080000000000000000000000000000051
:105FD000013610000000000000000000000000007A
:105FE00000000000013610000080000000000000EA
:105FF0000000000000000000FFFFFFFFFFFFFFFFA9
:020000040030CA
:0E0000003A463E1EFF0080FF0FC00FA00F40CB
:0200000400F00A
:10000000FFFFFFA001000000000001010103040147
:100010000000000001FFFFFFFFFFFFFFFFFFFFFFEA
:10002000FFFFFFFFFFFFFFFFFFFFFFFFFFFFFFFFE0
:10003000FFFFFFFFFFFFFFFFFFFFFFFFFFFFFFFFD0
:1000400003FFFFFFFFFFFFFFFFFFFFFFFFFFFFFFBC
:10005000FFFFFFFFFFFFFFFFFFFFFFFFFFFFFFFFB0
:10006000FFFFFFFFFFFFFFFFFFFFFFFFFFFFFFFFA0
:10007000FFFFFFFFFFFFFFFFFFFFFFFFFFFFFFFF90
:1000800003047FFFFFFFFFFFFFFFFFFFFFFFFFFFF7
:10009000FFFFFFFFFFFFFFFFFFFFFFFFFFFFFFFF70
:1000A000FFFFFFFFFFFFFFFFFFFFFFFFFFFFFFFF60
:1000B000FFFFFFFFFFFFFFFFFFFFFFFFFFFFFFFF50
:1000C000FFFFFFFFFFFFFFFFFFFFFFFFFFFFFFFF40
:1000D000FFFFFFFFFFFFFFFFFFFFFFFFFFFFFFFF30
:1000E000FFFFFFFFFFFFFFFFFFFFFFFFFFFFFFFF20
:1000F000FFFFFFFFFFFFFFFFFFFFFFFFFFFFFF020D
:00000001FF
