:020000040000FA
:1000000000EF3CF0FFFFFFFFD3EF01F0800E016E29
:10001000FE0EC8EC00F0010EC8EC00F0750E0D6E7F
:10002000FFD7FFFFFFFFFFFFFFFFFFFFFFFFFFFF08
:10003000FFFFFFFFFFFFFFFFFFFFFFFFFFFFFFFFD0
:10004000B3EF01F0FFFFFFFFD3EF01F0800E016E71
:10005000FE0EC8EC00F0010EC8EC00F0750E0D6E3F
:10006000300EECEF00F0016A018E176EFE0EC8EC48
:1000700000F01750C8EF00F0076A106E116A009682
:100080000750D8B40086050E066E270E0F6E100EB0
:100090000CD8030E0F6EE80E08D80F6A640E05D850
:1000A0000F6A0A0E02D8105008D00E6E11500D6E55
:1000B00010500C6EF8EC00F00C500C6E064E0096D2
:1000C000075003E0065CD8B008D00C50D8A40096C6
:1000D00000B603D0300FC8EF00F01200A66AA68E5B
:1000E0000900F55002E002D8FBD71200156E8A987D
:1000F000899A9398929AF00E9316155000B2A3EF36
:1001000000F03A0E0D6E980EECEC00F0330E146E0B
:100110002ED8130E0D6E880EECEC00F028D8640E6D
:10012000EBEC00F024D8640EEBEC00F0220E146E21
:100130001ED8280E07D80C0E05D8060E03D800824C
:10014000155001D00080146E00A00BD0899A0308CE
:100150000CE30BD8070E0D6ED00EECEC00F0D8803F
:1001600012000080FE0812E0898A143A00A0009074
:100170008A88F00E811614500F0B81128A98143A57
:1001800000B0F5D7320EEBEC00F0D880155012001D
:1001900001BE76EF00F0A96EA66AA680A850A92A33
:1001A0001200A86EA66AA684550EA76EAA0EA76EA8
:1001B000A682A6B2FED7A694A92A12000F6A0E6ED6
:1001C000FF0E0E260F2200D0D8A01200030E0D6ED7
:1001D000E50E02D8F5D70D6AFA0F0C6E000003E3A6
:1001E00000D00C06FEE20C060D06FBE20000120039
:1001F000116A106A100EF36E0D34103611360E505F
:10020000105C0F50115805E30E50105E0F50115A3C
:10021000D8800C360D36F32EEFD70C501200938A8F
:10022000156A146A00EE10F0010E0D6EBA0EECECB9
:1002300000F081BA57D0030E0D6E760EECEC00F094
:10024000152A200E156401D00AD0D88081BAD89022
:10025000EF36142A14A602D0EE52146AECD700EE40
:1002600010F0056A146A0E6A0D6A0C6AEF360536DC
:10027000EF360536142A3BD809B434D0056AEF3678
:100280000536EF360536142A32D809B42BD0093298
:100290000E36050E086E056AEF360536EF36053662
:1002A000142A14A402D0EE52146A21D809B41AD028
:1002B00009320D36082EEFD7060E086E056AEF36A6
:1002C0000536EF360536142A14A402D0EE52146A0D
:1002D0000ED809B407D009320C36082EEFD70C50CF
:1002E000D8901200FF0E0C6E0D6ED8801200096AB5
:1002F000052C02D009801200020E056201D0120006
:10030000098412004669726D77617265205600009B
:1003100057616974696E6720666F7220444C435060
:1003200000005A7A7A2E2E2E2020202020202020F5
:100330002020000057616974696E6720666F722023
:10034000444C4350000064422020202020202020E4
:10035000202020004D7574652020202020202020A2
:10036000202020200000F86A006AAB6A0001DF0E3E
:10037000926E3C0E936EBD0E946E7B6A7A6A7E6AB4
:100380007F6A0F0EC16E7D9E7D9C7D98050EAF6EBF
:10039000AC94B896AC98AB8ED09E9D989D9AAC8A42
:1003A000AB88D6EF10F0D8CF19F01A6EE0CF02F07C
:1003B000E9CF03F0EACF04F00001E86A9DB8010E2E
:1003C000186EE86A9EB8010E1816D8B4FBEF01F05B
:1003D00096519763EFEF01F09D98FBEF01F000EE6F
:1003E00036F09651EB50AD6E962B300E965DD8A040
:1003F000FBEF01F0966B9EAA15EF02F000EE66F09F
:100400009951AECFEBFF992B300E995DD8A00AEF32
:1004100002F0996B9951986315EF02F09907FF0E5E
:10042000996315EF02F02F0E996FF2A026EF02F0FC
:100430001C501B10D8A425EF02F01FA025EF02F0DE
:10044000EEDE1D6E0DC01EF01F90F29003C0E9FF9E
:1004500004C0EAFF02C0E0FF1A5019C0D8FF100024
:100460000001ABA240EF02F0AB98AE50AE50AB88AB
:100470000001966B976B986B996BA66B2F6A306A2D
:100480009951986345EF02F0120000EE66F0985122
:10049000EB50B66F982B300E985DD8A051EF02F05C
:1004A000986BFE0EB6635AEF02F0B6C027F054EC1C
:1004B00004F0D6D7800EB65DD8A080EF02F0F10E22
:1004C000B6150A6E0B6A0A50B10A0B10D8A46BEF6E
:1004D00002F0B10EB66FB00EB66374EF02F0010E0B
:1004E000A66F1F847FEF02F0B10EB6637DEF02F0BE
:1004F000010EA66F1F847FEF02F0A66B1F94B0D78A
:10050000A653D8B485EF02F0A62B020EA6618AEF9F
:1005100002F0A6D7020EA66391EF02F0B6C02FF04C
:100520009FD7B6C030F0010EA66F030E2F62C1EF49
:1005300002F0302CA0EF02F01F82AA83BFEF02F07E
:100540003052D8A4A7EF02F01F92BFEF02F0020EC4
:100550003062B6EF02F01FBAB4EF02F02F0EB46FA4
:10056000750EB56F1F8A1F86BFEF02F0030E306253
:10057000BFEF02F01FAABFEF02F01F9A1F8640EFE5
:1005800004F0040E2F62C7EF02F040EF04F0050EF6
:100590002F62D4EF02F0040E3060D2EF02F030C0D0
:1005A000A1F0AA8140EF04F0060E2F62EDEF02F0F9
:1005B000010E325CD8B4EBEF02F0090E3060EBEFC5
:1005C00002F0B851305CD8B4EBEF02F030C0B8F0B4
:1005D0001F8677EC04F040EF04F0070E2F62FFEF68
:1005E00002F0730E3060FDEF02F0B951305CD8B408
:1005F000FBEF02F01F8630C0B9F040EF04F01D0E93
:100600002F620DEF03F0A751305CD8B440EF04F037
:1006100030C0A7F061EC10F033D1080E2F621FEF4D
:1006200003F030C0ABF0305008E11FAE29D11F9E5F
:1006300001019F6BA06B000123D11F8E21D14F0EB2
:100640002F6001D051D0540E2F60C3D002014EA1B3
:1006500049D051512F1807E04F0E516342D04F0E31
:100660002F6240D009D04F0E516307D04D51301842
:1006700003E1500E516F36D035D0100E306031D0BE
:10068000500E516305D03050526F510E516F2AD029
:10069000510E516305D03050536F520E516F22D01E
:1006A000520E516305D03050546F530E516F1AD013
:1006B0005439F00B30104EB308D0476F5251456F8C
:1006C0005351466F4B814C8107D04A6F5251486F4E
:1006D0005351496F4B834C834E9101019C81020120
:1006E00001D04E910001CCD02D0E2F6001D071D0E1
:1006F0004F0E2F606ED0020140A368D01FA466D0B9
:100700002E0E2F6201D003D02F0E2F620ED0425139
:10071000301858E14089409D40913E6B3F6B409BB3
:100720002E0E2F6253D0408B51D040A94FD02D0EAA
:100730002F620CD040BD43D03E5341E142513018AE
:100740003F6F1F0E3F613BD0408D40D04E0E2F6259
:1007500021D04251301833E140AD31D03E513F19E4
:100760002EE140815D6B409340994095409F576BCF
:10077000586B436B110E3E6101D005D040AB03D0E6
:100780003E51F00F436F060E446F556B566BD5EC20
:100790000DF01CD040AD13D0300E2F5C3E190FE190
:1007A000200E306001D00BD07F0E306008D002EEFA
:1007B00020F03E51E9263050EF6E3E2B07D00AEC78
:1007C0000EF004D04099409D3E6B3F6B00011F949A
:1007D00057D02C0E2F6201D036D0210E2F6001D0C1
:1007E0004FD02C0E2F604CD0210E2F5C046E0101D7
:1007F000AE51B86F070E046001D002D09E51B86FA1
:10080000800EB8B18B0E0424E96E010EEA6E30C082
:10081000EFFF0101060E04620BD0010EB8B1020E0B
:10082000971333EC04F001019C939671000128D0DA
:100830000A0E046206D0010EB8B1020E9D139C810F
:100840009C9500011DD00101B3A10BD0B391B66BF3
:10085000B385B471B3B303D0B06BB28102D0B16BC6
:10086000B28300010DD00101B3859C81B8B104D0E1
:10087000B06BB28100011200B16BB28300011200B3
:10088000EFD500019651975DD8A0300F030F2D6E64
:10089000300E2D6002D0D89012000101AD3F01D082
:1008A000AD690001D880120000EE36F0975127C0E4
:1008B000EBFF9729276E300E275CD8A061EF04F07C
:1008C000276A9DA872EF04F02D682750965DD8A482
:1008D00009D02D2EFAD70101AD3F01D0AD6900013D
:1008E000D880120027C097F09D88D890120030520F
:1008F000D8A47EEF04F0B76B1DEF05F0302C85EF28
:1009000004F0050EB76F1DEF05F0020E306295EF93
:1009100004F0A153D8B491EF04F0060EB76F93EF33
:1009200004F0010EB76F1DEF05F0030E3062ACEF5F
:1009300004F0A153D8B4A8EF04F0A12DA4EF04F063
:10094000010EB76FA6EF04F0070EB76FAAEF04F021
:10095000020EB76F1DEF05F0040E3062CBEF04F00E
:10096000A153D8B4C7EF04F0A12DB9EF04F0020EE3
:10097000B76F020EA163BFEF04F0010EB76F030E55
:10098000A163C5EF04F0080EB76FC9EF04F0030EC2
:10099000B76F1DEF05F0050E3062EAEF04F0A153CA
:1009A000D8B4E6EF04F0A12DD8EF04F0030EB76F32
:1009B000020EA163DEEF04F0020EB76F030EA16317
:1009C000E4EF04F0010EB76FE8EF04F0040EB76F28
:1009D0001DEF05F0060E306201EF05F0A12DF3EFDB
:1009E00004F0040EB76F020EA163F9EF04F0030EDA
:1009F000B76F030EA163FFEF04F0020EB76F1DEF98
:100A000005F0070E306213EF05F0020EA1630BEF45
:100A100005F0040EB76F030EA16311EF05F0030E8E
:100A2000B76F1DEF05F0080E30621DEF05F0030EE5
:100A3000A1631DEF05F0040EB76F1200B753D8A4E1
:100A400025EF05F0B86BBEEF05F0B72D43EF05F0CD
:100A5000A153D8B43FEF05F0A12D31EF05F0030EFF
:100A6000B86F020EA16337EF05F0040EB86F030EE6
:100A7000A1633DEF05F0050EB86F41EF05F0020EE2
:100A8000B86FBEEF05F0020EB76362EF05F0A15339
:100A9000D8B45EEF05F0A12D50EF05F0040EB86F4D
:100AA000020EA16356EF05F0050EB86F030EA163A9
:100AB0005CEF05F0060EB86F60EF05F0030EB86F3F
:100AC000BEEF05F0030EB76381EF05F0A153D8B474
:100AD0007DEF05F0A12D6FEF05F0050EB86F020E4A
:100AE000A16375EF05F0060EB86F030EA1637BEFEF
:100AF00005F0070EB86F7FEF05F0040EB86FBEEF7C
:100B000005F0040EB763A0EF05F0A153D8B49CEF35
:100B100005F0A12D8EEF05F0060EB86F020EA16351
:100B200094EF05F0070EB86F030EA1639AEF05F07E
:100B3000080EB86F9EEF05F0050EB86FBEEF05F01A
:100B4000050EB763A8EF05F0010EB86FBEEF05F014
:100B5000060EB763B0EF05F0020EB86FBEEF05F0FA
:100B6000070EB763B8EF05F0030EB86FBEEF05F0E0
:100B7000080EB763BEEF05F0040EB86F1200000157
:100B80002768278080A62790278282A02792278423
:100B900080A42794278680A22796278882AA279850
:100BA000278A80A8279AFF0E271A2750BC5DD8B441
:100BB000DFEF05F0BB6B27C0BCF0E8EF05F0040EDB
:100BC000BB61E6EF05F0BB2BE8EF05F0BCC0BEF063
:100BD0009A6BBE51BD5DD8B4F6EF05F0BEC0BDF056
:100BE0009B6B9C6BBEC09AF0FCEF05F0BE31D8B099
:100BF000FCEF05F09B4B9C2BC90E9B5D320E9C5964
:100C0000D8A009EF06F0280E9B6F230E9C6FBEC084
:100C10009AF0120027C02BF02C6A2C50100DF3CF45
:100C20002CF02B50100DF3CF2BF0F4502C262B5022
:100C300029262C502A22276A100E276031EF06F051
:100C400027502924F66E000E2A20F76EA66AA68E7B
:100C50000800F5CF28F0285076EC00F0272AD8A419
:100C6000EBD71200A96ABF51D1EC00F0010EA96EBA
:100C7000BA51D1EC00F0020EA96EC051D1EC00F0D7
:100C8000276A060E276087EF06F0030E2724A96E59
:100C900000EEC1F02750EB50D1EC00F0090E2724F4
:100CA000A96E00EEC7F02750EB50D1EC00F00F0E0C
:100CB0002724A96E00EECDF02750EB50D1EC00F0C8
:100CC000150E2724A96E00EED3F02750EB50D1EC7F
:100CD00000F01B0E2724A96E00EED9F02750EB5030
:100CE000D1EC00F0210E2724A96E00EEDFF0275092
:100CF000EB50D1EC00F0270E2724A96E00EEE5F0B2
:100D00002750EB50D1EC00F0272AD8A4BAD7730EA5
:100D1000A96EEB51D1EC00F01200000ECBEC00F00C
:100D2000BF6F010ECBEC00F0BA6F020ECBEC00F0FF
:100D3000C06F276A060E2760E7EF06F0030E272430
:100D4000CBEC00F00A6E00EEC1F027500AC0EBFFBA
:100D5000090E2724CBEC00F00A6E00EEC7F02750F6
:100D60000AC0EBFF0F0E2724CBEC00F00A6E00EE5A
:100D7000CDF027500AC0EBFF150E2724CBEC00F076
:100D80000A6E00EED3F027500AC0EBFF1B0E27249B
:100D9000CBEC00F00A6E00EED9F027500AC0EBFF52
:100DA000210E2724CBEC00F00A6E00EEDFF0275076
:100DB0000AC0EBFF270E2724CBEC00F00A6E00EEF2
:100DC000E5F027500AC0EBFF272AD8A4B3D7730E4B
:100DD000CBEC00F0EB6F050EEB5DD8A0F2EF06F068
:100DE000010EEB6FAEEC13F012004BDD10E2B00E13
:100DF0003324276E54EC04F034C027F054EC04F094
:100E000035C027F054EC04F09F6BA06B1200120069
:100E10000101702B060E706502D0010E706F7051CB
:100E20000001FF0F02E19BEF07F0FF0F02E189EFE6
:100E300007F0FF0F02E1D6EF07F0FF0F02E1ADEF81
:100E400007F0FF0F02E1F2EF07F0A8EF09F019DD5C
:100E50000CE2B10E276E54EC04F0040E276E54EC35
:100E600004F0276A54EC04F0120012002828336EB4
:100E7000170E346E00EEC1F02850EB50356EB5DF22
:100E800012002828336E180E346E00EEC7F028507A
:100E9000EB50356EAADF12002828336E190E346E1F
:100EA00000EECDF02850EB50356E9FDF1200282861
:100EB000336E1A0E346E00EED3F02850EB50356EC0
:100EC00094DF12002828336E1B0E346E00EED9F02A
:100ED0002850EB50356E89DF12002828336E1C0E27
:100EE000346E00EEDFF02850EB50356E7EDF1200DE
:100EF0002828336E1E0E346E00EEE5F02850EB50BD
:100F0000356E3552D8A487EF07F0030E356E6DDFCE
:100F10001200B7DC0FE2B00E276E54EC04F0060EA0
:100F2000276E54EC04F0B8C027F054EC04F09F6B2B
:100F3000A06B12001200A5DC0FE2B00E276E54EC7D
:100F400004F0070E276E54EC04F0B9C027F054ECFF
:100F500004F09F6BA06B1200120093DC0FE2B00E46
:100F6000276E54EC04F01D0E276E54EC04F0A7C05D
:100F700027F054EC04F09F6BA06B120012000001EC
:100F8000A653D8B40ED09951986308D0AC5303E15E
:100F9000800EAC6F1200AC4B06D01200800EAC6F0E
:100FA0001200AC6B1200A66BAC6B1200336A030E1E
:100FB000346E1FAAE0EF07F0020E356EE2EF07F085
:100FC000030E356E12DF12001FAA12001F9AD6EF11
:100FD00007F01FB012001F80120002015B8F4091CA
:100FE00000011200336A030E346E1FB2FBEF07F0EC
:100FF000356AFDEF07F0010E356EF7DE01E21200F3
:101000001200F286BFEC05F0000130EC02F0BFECFC
:1010100007F06CEC0FF010EC0EF0D8EC0FF09E51D6
:10102000EA0A600ED8B49D19D8A418EF08F01ADEA9
:10103000610E9D5DEA0E9E59D8B021EF08F09D4BE0
:101040009E2B98EC08F0A0514E0A200ED8B49F19A0
:10105000D8A430EF08F0DCDE9F6BA06B32EF08F015
:101060009F4BA02B1FB239EF08F094928B926EEF3A
:1010700008F0EB53D8B46CEF08F0EC51B05DED51D3
:10108000B159EE51B259EF51B359B351EF19D8B02C
:10109000800AD8A850EF08F094928B926AEF08F07B
:1010A0001FAA63EF08F0B44BB52BB551750A300E8B
:1010B000D8B4B419D8A461EF08F082729492B46BDA
:1010C000B56B65EF08F094928B82B02B000EB123C4
:1010D000B223B3236EEF08F094928B82000E9A53E2
:1010E000D8A4010E186EE86A1FB6010E1812D8B403
:1010F00089D7000E9A53D8A4010E186EE86A1FB85B
:10110000010E1812D8B489EF08F0B36BB26BB16B53
:10111000B06B1F989A31D8A095EF08F0D8969AA195
:10112000D886D8B695EF08F01F729D6B9E6B1200A3
:101130001B52D8A4A0EF08F01C52D8B4A3EF08F0BB
:101140001B06000E1C5A1FA0A7EF08F012001E502D
:1011500020625BEF09F01D502162B7EF08F0500EDE
:101160001B6EC30E1C6E1F721F865BEF09F01D50B5
:101170002262CBEF08F0D00E1B6E070E1C6E720EB3
:10118000B961C9EF08F0B92BE4EC07F0D4DE1F8693
:101190001F885BEF09F01D502362DFEF08F0D00ECF
:1011A0001B6E070E1C6EB953D8B4DDEF08F0B907FB
:1011B000E4EC07F0C0DE1F861F885BEF09F01D50CE
:1011C0002662F1EF08F02F0EB46F750EB56F1F7A1F
:1011D000200E1B6E4E0E1C6E1F861F88E7DE5BEF17
:1011E00009F01D50256226EF09F0A153D8A4FDEFA8
:1011F00008F0050E276E12EF09F0A12D04EF09F09B
:10120000060E276E12EF09F0020EA1630CEF09F033
:10121000070E276E12EF09F0030EA16312EF09F01B
:10122000080E276EB753D8B419EF09F0B7071BEFB4
:1012300009F027C0B7F01F861F88580E1B6E1B0EC3
:101240001C6E1EEC05F065DE5BEF09F01D5024629C
:101250005AEF09F0A153D8A432EF09F0050E276E1A
:1012600047EF09F0A12D39EF09F0060E276E47EF81
:1012700009F0020EA16341EF09F0070E276E47EF58
:1012800009F0030EA16347EF09F0080E276E2750FF
:10129000B7614EEF09F0B72B4FEF09F0B76B1F8620
:1012A0001F88580E1B6E1B0E1C6E1EEC05F031DEE7
:1012B0005BEF09F01F801D50380A0BE01D50390A02
:1012C00011E01D503A0A18E01D503B0A1AE01F8039
:1012D00012001FAC0FD01F9C4ED802E21F860AD00E
:1012E0001F8C08D01FBC06D01F8C45D802E21F8679
:1012F00001D01F9C1F8012000AD807E21F921F8690
:1013000004D015D802E21F821F861F80120041EC14
:1013100004F00CE2B00E276E54EC04F0030E276EBE
:1013200054EC04F0276A54EC04F01200120041EC73
:1013300004F00DE2B00E276E54EC04F0030E276E9D
:1013400054EC04F0010E276E54EC04F0120012006D
:1013500041EC04F00FE2B00E276E54EC04F0200EC6
:10136000276E54EC04F0E86A1FBC010E276E54ECA3
:1013700004F012001200ECDF08E2740EA96EE86AB5
:101380001FBC010ED1EC00F01200120003D00201CC
:10139000408F0001800E016E800E33EC00F0500E85
:1013A00076EC00F0720E76EC00F0650E76EC00F054
:1013B000730E76EC00F0650E76EC00F0740E76ECB1
:1013C00000F0200E76EC00F0200E76EC00F0200EFF
:1013D00076EC00F0200E76EC00F0200E76EC00F0BB
:1013E000200E76EC00F0200E76EC00F0200E76EC6D
:1013F00000F0200E76EC00F0200E76EC00F00201FA
:10140000FF0E5B6F0001CEEC0EF0CEEC0EF0C00EC6
:1014100033EC00F0100E186E200E76EC00F0182E53
:10142000FBD702015D6B5B9F40B101D014D04251EC
:10143000010B5C6F00011FBC07D002015C530BE184
:10144000D5EC0DF0000111D002015C5304E0D5ECA5
:101450000DF000010AD0020140BF04D00001E7EC0A
:101460000DF003D00001F2EC0DF00101726B1FBC16
:10147000722B00019A6B1F96000101EC08F000012D
:101480001FB61F96E86A1FBC010E01017219000108
:1014900002E0C7EF09F09AA359EF0AF01FAC3CEF46
:1014A0000AF01F9C68DF02E2C7EF09F01F8C3CEFD7
:1014B0000AF09AA567EF0AF01FBC3CEF0AF01F8CF8
:1014C0005ADF02E2C7EF09F01F9C3CEF0AF01F96BB
:1014D000E86A9ABB010E186EE86A9AB9010E1812F2
:1014E000010E1FB2E86A1812D8B4C6D702015B8F8A
:1014F00040B109D00001DBEC0DF01FAC120002017D
:10150000408F00011200000112000101010BCD6F9C
:10151000000101019D6B9C6B9E6B9F6BAE6BAF6B73
:10152000986B996B97519A6FCDB103D002014C9192
:1015300002D002014C934E914F6B516B0001800E13
:1015400033EC00F0500E76EC00F0420E76EC00F03A
:101550000101CD51310F000176EC00F00101010EC7
:10156000CDB1020E971501E14AD040EC10F00452C3
:1015700014E10101CE6BD46BD06B0B0ED0610AD09D
:10158000D05110D905E0CE2B080ED06101D0D42B5C
:10159000D02BF3D7D4534AE072D04FEC0DF00001BA
:1015A000200E76EC00F0020E046212D06C0E76EC87
:1015B00000F06F0E76EC00F0730E76EC00F0740E17
:1015C00076EC00F00101080E9B6F000144D90ED0AB
:1015D0006F0E76EC00F06C0E76EC00F0640E76EC9C
:1015E00000F00101090E9B6F000135D9C00E33ECEC
:1015F00000F00101100E9B6F00012DD942D10101B5
:101600000D0E9B6F000127D9C00E33EC00F06E0E5B
:1016100076EC00F02F0E76EC00F0610E76EC00F028
:1016200001010D0E9B6F000116D92BD1200E76EC17
:1016300000F04F0E76EC00F04B0E76EC00F0E6EC8E
:101640000CF0C00E33EC00F00101CF6B080ED06F30
:101650000B0ED06107D0D051A5D8D16F01E0A9D829
:10166000D02BF6D7CF5302E1100E04D0CF51E8248F
:10167000CF25110801019B6F0001EDD802D1210E89
:1016800076EC00F00101CF6BD06B0B0ED06119D05E
:10169000040ECF6116D0D05185D8D16F10E0000173
:1016A000200E76EC00F00101D351A0D8000176ECB9
:1016B00000F00101D15100016ED90101CF2BD02BD7
:1016C000E4D7CF51E824CF250C089B6F0001C3D885
:1016D000C00E33EC00F00101050ECE6105D0100EF6
:1016E0009B6F0001B8D8CDD00101CF6BD26BD06B0E
:1016F0000B0ED0610FD0050ECF610CD0D05152D857
:10170000D16F06E0040ED26102D0D22B01D051D8A5
:10171000D02BEED70A0ECE6108D0CF51E824CF25CA
:1017200011089B6F000197D8ACD000012E0E76EC0B
:1017300000F02E0E76EC00F0A4D00101D36F000E65
:10174000D36701D01200D307010ED36701D0120076
:10175000D307040ED36701D01200D307050ED36759
:1017600001D01200D307060ED36701D01200D307B1
:10177000080ED36701D01200D307090ED36701D03A
:101780001200D3070A0ED36701D01200D307020E4E
:10179000D36701D01200D307030ED36701D0120024
:1017A000070E1200CADFD36F18D8D351E3500101DE
:1017B00012000101CF5304E00001200E76EC00F08E
:1017C0000101D35113D8000176EC00F00101D15191
:1017D0000001E1D80101CF2B12000101CDB103D0EE
:1017E00011EE80F0120011EE8BF012000101D36FA8
:1017F000490ED36701D01200D307440ED36701D03E
:101800001200D307530ED36701D01200D307420E44
:10181000D36701D01200D307520ED36701D0120054
:10182000D307410ED36701D01200D307500ED36700
:1018300001D01200D3074F0ED36701D01200D30797
:10184000560ED36701D01200D307570ED36701D0CD
:101850001200580E120001019B5307E00001200EF8
:1018600076EC00F001019B2FF9D700011200C00EA9
:1018700033EC00F00101100E9B6F00012BEC0CF01B
:101880001200F286BFEC05F0000130EC02F0BFEC74
:1018900007F06CEC0FF098EC08F000010101985192
:1018A000991150E101019CA317D0AF0705E1A5EC08
:1018B0000FF001019C9310D09CA508D09F0706E172
:1018C000010E9EB1020E9D139C9500D0000E986FE4
:1018D0005A0E996F00013BD00101CD51010B966F5B
:1018E00061EC0DF028E201019CA508D09F0714E1EE
:1018F000010E9EB1020E9D139C950ED0010E96B165
:10190000020E9D1509E19651010B9E6F040E9F6F0B
:101910009C850001BEDA01019651010BAE6F100EDD
:10192000AF6F9C830001B3DA0101000E986F5A0E6D
:10193000996F00010CD00101000E986F5A0E996F3B
:10194000000105D0985101E19907980700010101B4
:101950009CB105D0B3B503D097519A1907E09751C0
:101960009A6F9C91B39500019FEF0AF000011F96BA
:10197000E86A9ABB010E186EE86A9AB9010E18124D
:10198000010E1FB2E86A1812D8B47BD7000112000A
:1019900076EC00F012000F0B046E10E00F0E0460E6
:1019A00011D00A0E046005D0300E042476EC00F04D
:1019B0001200370E042476EC00F01200200E76ECB4
:1019C00000F012002B0E76EC00F012000101CDB1F8
:1019D00025D002014BA14DD0200E76EC00F0760E02
:1019E00076EC00F00201455100014AD82E0E76EC4B
:1019F00000F002014651000143D8200E76EC00F0C1
:101A0000780E76EC00F002014751546F5439000112
:101A100037D802014751000133D824D002014BA32B
:101A200028D0200E76EC00F0760E76EC00F0020165
:101A30004851000125D82E0E76EC00F002014951E4
:101A400000011ED8200E76EC00F0780E76EC00F047
:101A500002014A51546F5439000112D802014A510F
:101A600000010ED80101010E9B6F00012BEC0CF060
:101A7000120001010A0E9B6F00012BEC0CF012000A
:101A80000F0B046E0A0E046005D0300E042476ECB1
:101A900000F01200370E042476EC00F01200010171
:101AA000CDB107D002014B914C914EB308D04E916D
:101AB00006D002014B934C934EA301D04E910001EE
:101AC000120002014EB12FD001019CB339D09CB558
:101AD00037D096B109D097A133D002014BB130D0A5
:101AE0004CB12ED04E9308D097A32AD002014BB30D
:101AF00027D04CB325D04E8350511F0BE8244D6F97
:101B00004EB34D81A3EC0DF01BE202014F0E516F5D
:101B1000040E4F6F4E81502B200E506301D0506B3E
:101B20000001D88012004F5305E04F0703E0000189
:101B3000D88012004EB302D04C8101D04C834E911C
:101B40000001D890120041EC04F017E2B10E02013E
:101B50004EB3B20E0001276E54EC04F00EE2250ED7
:101B6000276E54EC04F009E202014D510001276E8A
:101B700054EC04F002E2D89012000001D880120068
:101B800002EE20F0250E0F6EEE6A0F2EFDD702EE4C
:101B900055F0080E0F6EEE6A0F2EFDD700011200F1
:101BA0000201596B5A6B408712000201596B435175
:101BB0005A6F408712000201406B3E6B3F6B576BC0
:101BC000586B436B446B556B566BEADF1200F3DFC7
:101BD0000001010EBF6312001FA212000201408526
:101BE00000011200E8DF0001010EBF6312001FA216
:101BF00012000201408F000E576F00011FBC05D07C
:101C00000201300E586F000112000201400E586FA1
:101C10000001120002015D2B030E5D61CCD7E2D7FB
:101C20000001010EBF63120002015BAF02D0000190
:101C30001200000127EC0EF067EC0EF093EC0EF0B2
:101C4000CEEC0EF002E220EC0FF0000112000201D7
:101C500040A5120040B31200412B200E416301D079
:101C6000416B4151426F42474247429300011FBCC2
:101C700003D00201429102D0020142814EEC0EF0EB
:101C80000BE20201408340954099409D3E6B3F6BC3
:101C9000000E576F400E586F0001120041EC04F027
:101CA00013E2B10E276E54EC04F00EE2260E276EFE
:101CB00054EC04F009E2020142510001276E54EC99
:101CC00004F002E2D89012000001D8801200020154
:101CD00040B303D040AF12000BD0575305E1585327
:101CE00005E05807570712005707120093DF12004C
:101CF000575305E1585305E0580757071200570797
:101D000012000001010EBF630AD01FA208D001011A
:101D1000B3B112000201409F408500011200DBECCC
:101D20000DF000011200020140A11200110E3E61EF
:101D300001D0120040B71200555305E1565305E09B
:101D400056075507120055071200000E556F080E72
:101D5000566F445302E0440712003E51F00F5C6F8F
:101D600040BB0ED043515C6304D0436B060E446FFE
:101D700013D0432B43515C630FD0030E446F0CD040
:101D8000435305E15C51436F060E446F05D0430792
:101D9000435302E1030E446F08DF120002015C6B43
:101DA0000101030EB06104D0030EB16101D002D075
:101DB00002015C8100011FBC01D002D002015C83E2
:101DC00000011FBE01D002D002015C8502015C51FE
:101DD0005B19010B14E000018E0E33EC00F00201E0
:101DE000200E5CB12A0E000176EC00F002015B913E
:101DF0005CB15B81870E5B170001D88012005C51DB
:101E00005B19060B1AE000018F0E33EC00F00201A3
:101E1000210E5CB503D0410E5CB3420E000176EC9E
:101E200000F002015B935B955CB35B835CB55B8503
:101E3000870E5B170001D88012000001D8901200B5
:101E4000020140A712000001C00E02015925000145
:101E500033EC00F00201200E40A10DD05A5159255B
:101E60005C6F3E515C6106D002EE20F05C51E926C9
:101E7000EF5001D0200E000176EC00F00201592B4A
:101E8000100E596302D0596B409700011200210EC9
:101E900003D0220E01D0FBD71C6E41EC04F013E2FC
:101EA000B10E010196B1B20E0001276E54EC04F0A0
:101EB0000AE21C50276E54EC04F005E2276A54EC49
:101EC00004F001E2120001011C50210A02E09C957D
:101ED00001D09C93000112000101B52B02E000012A
:101EE00012001FA241D00001040EBF6112000101C7
:101EF000B3B114D0020140BF3FD040B33DD040B594
:101F00003BD00101BEEC0FF037E20101B381200E9E
:101F1000B66FB393B4B1B38300011200B65303E0BC
:101F2000B6070001120006D8B391B66BB385B47141
:101F3000000112000101B3B304D00F0EB063B02B47
:101F400012000F0EB163B12B12000101B3859C8109
:101F5000CDB105D00F0EB063B02B000112000F0EF3
:101F6000B163B12B000112000101B06BB16BB26B18
:101F7000B36BB46BB56BB66B0001120000019751E7
:101F8000966314D041EC04F00FE2B10E0101B4B13C
:101F9000B20E0001276E54EC04F0230E276E54ECB1
:101FA00004F0276A54EC04F000011200D8801200FB
:101FB0000101B3B502D00001120000011FA21200FE
:101FC000010EBF6301D01200040EBF611200030EA8
:101FD000BF6303D0A45301E012000101B76B030EED
:101FE000B061B781030EB161B783B7A103D0B1531C
:101FF00001E0B7830101B96BF2BEB92B0001F29E7B
:10200000800E016ECC0E33EC00F00101030EB763BD
:102010000ED00001210E76EC00F0310E76EC00F0CF
:10202000200E76EC00F0320E76EC00F022D00101AA
:10203000B75312E00001200E76EC00F0200E76EC93
:1020400000F0210E76EC00F00101310EB7B3320E34
:10205000000176EC00F00DD00001200E76EC00F0CF
:10206000200E76EC00F0200E76EC00F0200E76ECE0
:1020700000F00101B95301E0F28EB39500011200A6
:10208000046A0101CDB102D0B0510AD0030EB06193
:1020900002D0B15105D0B15302E0B05101D0B151DD
:1020A000B96F0A0EB96109D0030EB96102D00001FF
:1020B0001200010E046E00011200020E046E0001F7
:1020C0001200040EA76375EF10F0100E206E320E92
:1020D000216E330E226E340E236E350E266E360EB2
:1020E000246E370E256E86EF10F0030EA76386EF81
:1020F00010F0206A0C0E216E100E226E110E236E4F
:10210000200E246E210E256E0D0E266E1200A2C02A
:1021100029F0A3C02AF0A5C027F0800E016EC00EE2
:1021200033EC00F00AEC06F001EC08F0000E9A53D4
:10213000D8A4010E186EE86A1FB6010E1812D8B4A2
:10214000F3D79A31E832D8A0AEEF10F0A551A463CE
:10215000ADEF10F0A56BAEEF10F0A52BD8969AA5B9
:10216000D886D8B6BDEF10F0A553D8A4BCEF10F0B8
:10217000A4C0A5F0BDEF10F0A5071200566F6C7556
:102180006D653A202020202020202020496E707587
:10219000743A2020202020202020202053657475B0
:1021A00070202020202020202020202001EE80F000
:1021B000180E0F6EEE6A0F2EFDD701019D6B9C6B02
:1021C0009E6B9F6BAE6BAF6BB06BB16BB26BB36B57
:1021D000B46BB56BC0EC0DF0000194928B920A0EBB
:1021E0001B6E1C6A7D8AF290F2969D8AF28EF28CAA
:1021F000966B976B986B996B1F94A66B1D6A1D6A03
:102200001E6A9B6B9C6B00EEC1F0060EEE6AE82E18
:10221000FDD700EEC7F0060EEE6AE82EFDD700EE01
:10222000CDF0060EEE6AE82EFDD700EED3F0060ED6
:10223000EE6AE82EFDD700EED9F0060EEE6AE82E23
:10224000FDD700EEDFF0060EEE6AE82EFDD7326A0B
:102250001F961F98A968020ED1EC00F0700ECBEC0F
:1022600000F0276E010E275CD8B43CEF11F0700E21
:10227000A96E010ED1EC00F0710ECBEC00F0276ED0
:10228000070E275CD8B44AEF11F0710EA96E070E45
:10229000D1EC00F0BC6BBE6BBD6BB46BB56BB36BBC
:1022A000B26BB16BB06B02EE45F0100E046EEE6ACD
:1022B000042EFDD7010E0F6E2C0EDFEC00F026EC85
:1022C00000F0C80EDEEC00F08DEC06F00001BA5113
:1022D00006E0BA6B010EA96EE86AD1EC00F0740E4C
:1022E000CBEC00F01F9C010A01E11F8C010E0F6E68
:1022F000F40EDFEC00F0800E016E33EC00F02D0EDA
:10230000F76E040EF66E6EEC00F0800E016EC00EDD
:1023100033EC00F0800E016E2D0EF76E140EF66E8B
:102320006EEC00F0030E0F6EE80EDFEC00F0800E96
:10233000B86FB96FA76FA16FA86BA96B016E33EC73
:1023400000F0030EF76E100EF66E6EEC00F037EC38
:102350000CF094928B82EDEC07F0BFEC05F00001DD
:10236000040EA96103D0A84BA92B04D09ABBFF008F
:102370009AB9FF0027EC07F0C80EDEEC00F030EC55
:1023800002F0BFEC07F0E9EC07F0800EB85DD8A4CE
:10239000010E186E800EB95DD8A4010E1816800EBD
:1023A000A75DD8A4010E1816800EA15DD8A4010E59
:1023B0001816D8B4D0D7610E9D6FEA0E9E6F9F6B32
:1023C000A06B1F9A010E326E1FA23CEF12F01F96F7
:1023D000BF53D8A4F0EF11F0C0EC12F018EF12F0D8
:1023E0000001BF2DF8EF11F0C6EC09F018EF12F064
:1023F000020EBF6300EF12F0FCEC15F018EF12F0C4
:10240000030EBF6308EF12F06AEC13F018EF12F03E
:10241000040EBF6311EF12F0000E85EC0AF018EF06
:1024200012F0050EBF6318EF12F0010E85EC0AF0F2
:102430000001D8969AABD886D8B627EF12F0050ED1
:10244000BF6326EF12F0BF6B27EF12F0BF2BD896B9
:102450009AA9D886D8B636EF12F0BF53D8A435EF74
:1024600012F0050EBF6F36EF12F0BF07BFEC05F09C
:102470001FB2ADD7B2EF12F01F92EDEC07F0F2EC05
:1024800007F026EC00F0800E016E33EC00F0030E36
:10249000F76E220EF66E6EEC00F001EC08F01F965F
:1024A000000E9A53D8A4010E186EE86A1FB2010EEE
:1024B0001812D8B4F2D7B36BB26BB16BB06B1F828A
:1024C000F2EC07F0800E016E33EC00F0030EF76EB5
:1024D000340EF66E6EEC00F037EC0CF094928B82BA
:1024E0001F920101736B0001A86BA96BAA6BEDEC45
:1024F00007F0BFEC05F00001040EA96103D0A84B62
:10250000A92B04D09ABBFF009AB9FF00000127EC69
:1025100007F0C80EDEEC00F030EC02F0BFEC07F084
:10252000E9EC07F0AAB114D00101732B080E736314
:10253000E0D7736BAB98AE50AE50AB880001966B92
:10254000976B986B996BA66BAC6B2F6A306AD1D77F
:102550000101736BB06BB16BB26BB36BB46BB56BEA
:1025600000011F82F2EC07F001E3BBD7610E9D6F03
:10257000EA0E9E6F9F6BA06B1F9A010E326E24D7DE
:10258000800E016E33EC00F0BFC027F0210E2A6EE2
:102590007C0E296E0AEC06F0800E016E870E33EC7D
:1025A00000F01FBA02EF13F0600EB961E0EF12F015
:1025B0002D0E76EC00F0B9516008276EEFEF12F0A7
:1025C000600EB963E9EF12F0600EB95D276EEFEFB0
:1025D00012F02B0E76EC00F0600EB95D276E800EC7
:1025E000016E27503CEC00F02E0E76EC00F0300E21
:1025F00076EC00F0030EF76E460EF66E6EEC00F011
:1026000008EF13F0030EF76E540EF66E6EEC00F04A
:10261000B7C027F02B0E2A6E680E296E800E016E51
:10262000C00E33EC00F00AEC06F0800E016E8F0E47
:1026300033EC00F0410E1FBC420E1FBE210E76ECA3
:1026400000F001EC08F000019ABB12009AB91200E8
:102650009A31E832D8A036EF13F0720EB96132EF3A
:1026600013F0B92BE4EC07F09BEC07F0D8969AA591
:10267000D886D8B645EF13F0B953D8B441EF13F06C
:10268000B907E4EC07F09BEC07F0D8969AA7D88638
:10269000D8B652EF13F01F7A2F0EB46F750EB56FC8
:1026A000D6EC07F01F96E86A9ABB010E186EE86A2E
:1026B0009AB9010E1812010E1FB2E86A1812D8B4A6
:1026C0006BD71200424C2054696D656F75742020E1
:1026D00020202020800E016E33EC00F0020E276EC9
:1026E000210E2A6E7C0E296E0AEC06F0BAC027F085
:1026F000260E2A6EC40E296EBAC0A5F00001A46B86
:10270000800E016EC00E33EC00F00AEC06F001EC16
:1027100008F000019ABB12009AB912001FA692EFAE
:1027200013F01F960001D8969AA7D886D8B69BEFCB
:1027300013F0F9EC13F0010E1FB2E86A186EE86AA4
:102740009AB7010E1812E86A9ABB010E1812E86ACD
:102750009AB9010E1812D8B4BDD71200EB2DBAEFFA
:1027600013F0EF6B080EEE6F910EED6F3A0EEC6FFB
:10277000D8EF13F0020EEB63C7EF13F0EF6B220EEE
:10278000EE6F440EED6FEB0EEC6FD8EF13F0030E0F
:10279000EB63D4EF13F0EF6B550EEE6FAC0EED6FF5
:1027A000440EEC6FD8EF13F0EF6BEE6BED6BEC6B50
:1027B00012004F666620286E6F2074696D656F7514
:1027C00074293330207365632020202020202020AE
:1027D000202032206D696E20202020202020202003
:1027E000202035206D696E202020202020202020F0
:1027F0002020BAC027F0260E2A6EC40E296E800E45
:10280000016E33EC00F00AEC06F00001030EA46F39
:10281000270EA36FB20EA26FEBC0A5F087EC10F0ED
:102820001F96E86A9AB3010E186EE86A9AB5010E0F
:102830001812D8B41FEF14F0A5C0EBF08FDFE86AD0
:102840009AB7010E186E010E1FB2E86A1812D8B4BA
:10285000E3D7BFEC05F01200536F75726365204338
:1028600048313A2020202020536F75726365204341
:1028700048323A2020202020536F75726365204330
:1028800048333A2020202020536F7572636520431F
:1028900048343A2020202020536F7572636520430E
:1028A00048353A2020202020536F757263652043FD
:1028B00048363A2020202020555342617564696FC4
:1028C0003A202020202020204C65667420202020E3
:1028D000202020202020202052696768742020209A
:1028E00020202020202020204C2B5220202020207F
:1028F00020202020202020204C2D5220202020206D
:1029000020202020202020204341542F41455320C7
:102910002020202020202020532F504449462020D2
:102920002020202020202020800E016E33EC00F09B
:10293000BAC027F0260E2A6EC40E296E0AEC06F0E5
:10294000C0C027F0280E2A6E580E296E800E016E28
:10295000C00E33EC00F00AEC06F0060EC061FFEF8B
:1029600014F0C053D8A4BCEF14F000EEC1F0BA517B
:10297000EB50A56FF0EF14F0C02DC6EF14F000EE91
:10298000C7F0BA51EB50A56FF0EF14F0020EC06320
:10299000D1EF14F000EECDF0BA51EB50A56FF0EF8F
:1029A00014F0030EC063DCEF14F000EED3F0BA5164
:1029B000EB50A56FF0EF14F0040EC063E7EF14F0D6
:1029C00000EED9F0BA51EB50A56FF0EF14F0050E00
:1029D000C063F0EF14F000EEDFF0BA51EB50A56FDA
:1029E000030EA46FA5C027F0280E2A6EC80E296E0C
:1029F000800E016ECB0E33EC00F011EF15F000EEFF
:102A0000E5F0BA51EB50A56F010EA46FA5C027F0F9
:102A1000290E2A6E080E296E800E016EC90E33EC47
:102A200000F00AEC06F001EC08F01FA61DEF15F00F
:102A30001F961FA21DEF15F077D79A31E832D8A064
:102A40002CEF15F0A551A46329EF15F0A56B2AEF23
:102A500015F0A52B67EC15F0D8969AA5D886D8B6B0
:102A60003DEF15F0A553D8A43AEF15F0A4C0A5F09A
:102A70003BEF15F0A50767EC15F0D8969AABD88612
:102A8000D8B64BEF15F0060EC0634AEF15F0C06BD9
:102A90004BEF15F0C02BD8969AA9D886D8B65AEF26
:102AA00015F0C053D8A459EF15F0060EC06F5AEFB9
:102AB00015F0C007E86A9AB7010E186E010E1FB232
:102AC000E86A1812D8B43CD7BFEC05F01200BFEC8E
:102AD00005F0060EC061AEEF15F0C053D8A478EF34
:102AE00015F000EEC1F0BA51A5C0EBFFACEF15F048
:102AF000C02D82EF15F000EEC7F0BA51A5C0EBFF74
:102B0000ACEF15F0020EC0638DEF15F000EECDF0C6
:102B1000BA51A5C0EBFFACEF15F0030EC06398EF00
:102B200015F000EED3F0BA51A5C0EBFFACEF15F0F5
:102B3000040EC063A3EF15F000EED9F0BA51A5C0A2
:102B4000EBFFACEF15F0050EC063ACEF15F000EE37
:102B5000DFF0BA51A5C0EBFFB3EF15F000EEE5F0E2
:102B6000BA51A5C0EBFF12004175746F2044657423
:102B70006563742020202020532F50444946202094
:102B800020202020202020205553422041756469B8
:102B90006F2020202020202041455320202020206D
:102BA00020202020202020204F70746963616C2039
:102BB0002020202020202020416E616C6F677565E9
:102BC0002031202020202020416E616C6F677565C8
:102BD0002032202020202020416E616C6F677565B7
:102BE0002033202020202020416E616C6F677565A6
:102BF0002034202020202020800E016E33EC00F0B5
:102C0000010E276E210E2A6E7C0E296E0AEC06F04C
:102C1000B7C027F02B0E2A6E680E296EB7C0A5F03C
:102C2000A153D8A418EF16F0050EA46F2DEF16F0DF
:102C3000A12D1FEF16F0060EA46F2DEF16F0020E59
:102C4000A16327EF16F0070EA46F2DEF16F0030E09
:102C5000A1632DEF16F0080EA46F800E016EC00E5A
:102C600033EC00F00AEC06F001EC08F000019ABB2E
:102C700012009AB912000001020EBF6312001FA6D3
:102C800047EF16F01F961FA247EF16F0B5D79A31FF
:102C9000E832D8A05CEF16F0A551A46353EF16F00C
:102CA000A56B54EF16F0A52BBFEC05F0A5C0B7F04F
:102CB0001EEC05F089EC07F0D8969AA5D886D8B610
:102CC00073EF16F0A553D8A46AEF16F0A4C0A5F0D0
:102CD0006BEF16F0A507BFEC05F0A5C0B7F01EEC32
:102CE00005F089EC07F0E86A9ABB010E186EE86AF5
:102CF0009AB9010E1812010E1FB2E86A1812D8B460
:102D000087D712004669726D776172652056312E41
:102D10003733000052657620783432203230323634
:102D2000303631300000FFFFFFFFFFFFFFFFFFFFE6
:102D3000FFFFFFFFFFFFFFFFFFFFFFFFFFFFFFFFA3
:102D4000FFFFFFFFFFFFFFFFFFFFFFFFFFFFFFFF93
:102D5000FFFFFFFFFFFFFFFFFFFFFFFFFFFFFFFF83
:102D6000FFFFFFFFFFFFFFFFFFFFFFFFFFFFFFFF73
:1077B000444C43504354524C010733422026061098
:1077C000FFFFFFFFFFFFFFFFFFFFFFFFFFFFFFFFC9
:1077D000FFFFFFFFFFFFFFFFFFFFFFFFFFFFFFFFB9
:1077E000FFFFFFFFFFFFFFFFFFFFFFFFFFFFFFFFA9
:1077F000FFFFFFFFFFFFFFFFFFFFFFFFFFFFFFFF99
:107800007FEF3DF00D6E030E02D00D6E040E076E7D
:107810000E500C5C02E10D500B5C040ED8B0010E52
:10782000D8B4020E0714D8A4010E1200800E016E07
:10783000FE0E00D9010EFED8750E0C6E300E41D131
:10784000016A018E166EFE0EF5D81650F3D0056A49
:10785000800E1B6E00D00F6A106A116A116A079AB7
:10786000EDD8D8A01200D30FD8B4078A2D0FC60FB9
:1078700003E20A0FF5E305D0F30FF2E2060FF0E39F
:107880000A0F0D6E040E0E6ED8900F36103611369C
:1078900012360E2EF9D70D500F1205060EE0CED877
:1078A000D8A01200C60F03E20A0F07E3EAD7F30FCE
:1078B00004E2060F02E30A0FE4D707AA0BD00F1E5B
:1078C000101E111E121E0F2AD8B4102AD8B4112A65
:1078D000D8B4122A0F50D8801200056A0F6E106AB1
:1078E00000960550D8B40086040E046E103805D8F2
:1078F000105003D80F3801D80F500F0BF60FD8B027
:10790000070F0A0F00D00B6E044E0096055003E0DF
:10791000045CD8B007D00B50D8A4009600B602D0B3
:10792000300F88D012000F6E0450D8B412000FC070
:10793000E9FF10C0EAFFEF50D8B412007BD80F4A1D
:10794000102A0406F1D7A66AA68E0900F55002E0B7
:1079500002D8FBD71200146E8A98899A9398929A4B
:10796000F00E9316145000B21ED03A0E0C6E980E04
:10797000A8D8330E136E2AD8130E0C6E880EA1D819
:1079800025D8640E9DD822D8640E9AD8220E136E84
:107990001DD8280E07D80C0E05D8060E03D8008275
:1079A000145001D00080136E00A00AD0899A0308F9
:1079B0000BE30AD8070E0C6ED00E83D8D8801200C5
:1079C0000080FE0811E0898A133A00A000908A889E
:1079D000F00E811613500F0B81128A98133A00B0E3
:1079E000F5D7320E6DD8D88014501200ABB2AB98D8
:1079F000AB8802C00BF006C00CF00D6A0E6A0000E6
:107A000000D000009EBA0ED0E8680D260E220B2290
:107A10000C22D8A012000D480E3CF1D7B70E0D6E07
:107A20000E6AEFD7AE50D88012009EA8FED7AD6E7A
:107A3000D880120001BE8FD701B4F7D71B52D6E011
:107A4000D8801BBEEE501200A96EA66AA680A85070
:107A5000A92A1200A86EA66AA684550EA76EAA0EC1
:107A6000A76EA682A6B2FED7A694A92A1200F56E2A
:107A70000C00F6281F0B09E1840EA66E550EA76EAA
:107A8000AA0EA76EA68200D0A694F64AF72A120084
:107A9000F66E940EA66E550EA76EAA0EA76EA6825F
:107AA0000000A69412000E6A0D6EFF0E0D260E2227
:107AB00000D0D8A01200030E0C6EE50E02D8F5D748
:107AC0000C6AFA0F0B6E000003E300D00B06FEE217
:107AD0000B060C06FBE200001200F34E02D0E65249
:107AE000FCD7E6CFEEFFE82EFCD71200426F6F7492
:107AF0006C6F61646572206D6F6465200000F86AC8
:107B0000006A050EAF6E200EAC6E900EAB6E0001DB
:107B1000DF0E926E3C0E936EBD0E946E7B6A7A6A97
:107B20007E6A7F6A0F0EC16E050EBDDF460E766F50
:107B3000570E776F5F0E786F550E796F700E7A6FF4
:107B4000640E7B6F939C8A9C8293DBD98231E832EE
:107B500015E2FF0E79DF1F6E1F2C06D0A968770E85
:107B600079DF20EF00F009D0020E1F6206D0FE0E72
:107B7000A96E010E6FDF20EF00F003D0A968000EA0
:107B800069DFAC8AAB88AB8E51DE94928B82800E1B
:107B9000016E56DE7A0EF76EEC0EF66ED4DE00EE57
:107BA00024F01F0EEE6AE82EFDD7F29E400E1D6EE9
:107BB0001E6A206A216A086A00EE76F00850EB50CF
:107BC000196E00EE7CF0085019C0EBFF082A08502F
:107BD0000608F2E145D900EE43F02E0EEE6AE82EDB
:107BE000FDD7F40E026E010E066E00DFE4E33A08E4
:107BF000FCE110EE43F0FADEDEE30D0802E1E66A96
:107C000004D0AE50E66E01E0F6D782911F6A060EF0
:107C10001F600BD000EE43F01F50EB50086E300E8B
:107C2000085C01E082811F2AF2E1823101E293D1F6
:107C3000226A236A1F6A140E1F601CD000EE71F0C6
:107C400010EE43F01F50020DF3CF19F0F4CF1AF0ED
:107C50001928F36E020E41DFEF6A00EE71F027EC97
:107C60003CF0196E10C01AF0195022261A50232227
:107C70001F2AE1E12250FF08196EFF0E23541A6EED
:107C8000010E1924226E000E1A20236E00EE71F0F0
:107C900010EE43F0290EF36E020E1FDFEF6A00EEC6
:107CA00071F027EC3CF0206E10C021F020502262D1
:107CB000D6D02166D4D000EE71F010EE43F0030E62
:107CC000F36E040E0ADFEF6A00EE71F027EC3CF071
:107CD0001D6E10C01EF03F0E1D14086E096A09507B
:107CE000081002E0000E01D0010E1C6E1DC00BF04A
:107CF0001EC00CF0770E0E6EC00E05EC3CF01C168C
:107D00001DC00BF01EC00CF00E6A400E02EC3CF0E1
:107D10001C1607E01E501D1004E01EC0F7FF1D508A
:107D2000B7DE1DC00BF01EC00CF0770E0E6EC00E3D
:107D300005EC3CF01C6E1DC00BF01EC00CF00E6A72
:107D4000400E02EC3CF01C162DE01F6A080E1F606E
:107D500029D000EE71F010EE43F01F50040DF3CF68
:107D600019F0F4CF1AF0090E1924F36E040EB5DEE3
:107D7000EF6A00EE71F027EC3CF0206E10C021F0AD
:107D80001F50020DF3CF19F0F4CF1AF019501D2433
:107D9000F66E1A501E20F76E215069DE205067DE05
:107DA0001F2AD4E13A0E41DE040E016E020E056E6A
:107DB00022506EEC3CF00D0E38DE0A0E36DE1D5001
:107DC000400A1E1024E1080E1F6E100E1F601CD00A
:107DD00000EE71F010EE43F01F50020DF3CF19F0DA
:107DE000F4CF1AF0090E1924F36E020E76DEEF6A54
:107DF00000EE71F027EC3CF0086E00EE24F01F500E
:107E000008C0EBFF1F2AE1E1A968000E23DE1D5028
:107E1000500A1E1024E11F6A100E1F601FD000EED2
:107E200071F010EE43F01F50020DF3CF19F0F4CFB4
:107E30001AF0090E1924F36E020E4FDEEF6A100ECF
:107E40001F24086E00EE71F027EC3CF00A6E00EE85
:107E500024F008500AC0EBFF1F2ADEE11BD8BBD676
:107E60000D0E15EC3DF00A0E15EC3DF00C0E15EC68
:107E70003DF03A0E15EC3DF0040E016E060E046E58
:107E8000106A7C0E93EC3CF00D0E15EC3DF00A0EE2
:107E900015EF3DF0F66AF76AFCDDF66AF76A000E48
:107EA00037EC3DF0EF0E37EC3DF0020EF66EF76A60
:107EB0003C0E37EC3DF0F00E37EC3DF0040EF66E64
:107EC000F76AFF0E37EC3DF0FF0E37EC3DF0060E83
:107ED000F66EF76AFF0E37EC3DF0FF0E37EC3DF023
:107EE000080E1F6E200E1F600BD01FC0F6FFF76A32
:107EF00000EE24F01F50EB5037EC3DF01F2AF2E16A
:107F000012001F6A0B0E1F6025D0010E82B0E86AB6
:107F10001C6E010E80B4E86A1C16E86A80B2010E7D
:107F20001C1613E0010E0E6EF40E54EC3DF0010E23
:107F300082B0E86A1C6E010E80B4E86A1C16E86A1A
:107F400080B2010E1C1601E082830A0E53EC3DF054
:107F50001F2AD8E112009EDF94928B92A968010E2D
:107F60002AEC3DF0010E0E6E2C0E54EC3DF0FF009D
:107F7000FFFFFFFFFFFFFFFFFFFFFFFFFFFFFFFF11
:107F8000FFFFFFFFFFFFFFFFFFFFFFFFFFFFFFFF01
:107F9000FFFFFFFFFFFFFFFFFFFFFFFFFFFFFFFFF1
:107FA000FFFFFFFFFFFFFFFFFFFFFFFFFFFFFFFFE1
:107FB000FFFFFFFFFFFFFFFFFFFFFFFFFFFFFFFFD1
:107FC000FFFFFFFFFFFFFFFFFFFFFFFFFFFFFFFFC1
:107FD000FFFFFFFFFFFFFFFFFFFFFFFFFFFFFFFFB1
:107FE000FFFFFFFFFFFFFFFFFFFFFFFFFFFFFFFFA1
:107FF000FFFFFFFFFFFFFFFFFFFFFFFFFFFFFFFF91
:020000040020DA
:08000000FFFFFFFFFFFFFFFF00
:020000040030CA
:0E000000FF011F00FF0080FFFFFFFFFFFFFF5B
:0200000400F00A
:1000000000000000000000000000000000000000F0
:1000100000000000000101010101010101010101D5
:1000200001010101010101000000000000000000C9
:10003000000000FFFFFFFFFFFFFFFFFFFFFFFFFFCD
:10004000FFFFFFFFFFFFFFFFFFFFFFFFFFFFFFFFC0
:10005000FFFFFFFFFFFFFFFFFFFFFFFFFFFFFFFFB0
:10006000FFFFFFFFFFFFFFFFFFFFFFFFFFFFFFFFA0
:1000700001073301FFFFFFFFFFFFFFFFFFFFFFFF50
:10008000FFFFFFFFFFFFFFFFFFFFFFFFFFFFFFFF80
:10009000FFFFFFFFFFFFFFFFFFFFFFFFFFFFFFFF70
:1000A000FFFFFFFFFFFFFFFFFFFFFFFFFFFFFFFF60
:1000B000FFFFFFFFFFFFFFFFFFFFFFFFFFFFFFFF50
:1000C000FFFFFFFFFFFFFFFFFFFFFFFFFFFFFFFF40
:1000D000FFFFFFFFFFFFFFFFFFFFFFFFFFFFFFFF30
:1000E000FFFFFFFFFFFFFFFFFFFFFFFFFFFFFFFF20
:1000F000FFFFFFFFFFFFFFFFFFFFFFFFFFFFFF020D
:00000001FF
