:020000040000FA
:101000000AEF08F0FFFFFFFFD9CF01F0DACF02F0BF
:1010100038ED1DF043EF1EF00030313233343536F9
:10102000373839414243444546A6729A090229009D
:1010300001010080320904000002030000000921C0
:1010400011010001221D0007058103400001070571
:1010500001034000010600FF0901A1011901294017
:10106000150026FF0075089540810019012940915F
:1010700000C0160348007900700065007800200069
:1010800042005600000000001201000200000008AB
:10109000D80489FF0100010200010C0344004C0048
:1010A000430050000000040309040000E8CF57F09B
:1010B00021EEEDF010EE4DF0070EDECFE6FFE82E4C
:1010C000FCD75750420A01E141D20001CB6B3ED21E
:1010D0001BC197F000019751090A14E1020E586EE6
:1010E00068DADF500AE065DABE0E5824E16EE26A83
:1010F000020EE222DFCFE7FF01D062DA582A1F0E8C
:101100005864EED7000197510A0A07E1020E586EA3
:1011100057DA582A1F0E5864FBD7030E0001C16F1F
:101120001BC1C2F0BD8BDCEC23F01CEC24F08BEC7B
:1011300011F03CD201011B0518E11CC1B7F00ED023
:10114000040EC16F010EC26FF0D71DC1B8F0040EBE
:10115000C16F010EC26F7F819489E7D70001B7513B
:10116000010AEEE0030AF1E021D21B51020A01E07C
:101170001DD21EC1B5F0040E0001C16F020EC26F78
:10118000B551060A1DE1050E586E13DADF500AE06C
:1011900010DAFB0E5824E16EE26A000EE222DFCF85
:1011A000E7FF07D0FB0E5824D96EDA6A000EDA2268
:1011B000DF68582A130E5864E8D70001BD89B3D7F9
:1011C000B551050AB2E0B551070AAFE0EFD11BC136
:1011D00099F01FC171F020C170F021C16FF022C1E0
:1011E0006EF0010123B102D05E9801D05E8801014A
:1011F00024B103D00001A49102D00001A481010117
:1012000025B103D00001A49302D00001A483010101
:1012100026B103D00001A49502D00001A4850101EC
:1012200028B103D00001A49702D00001A4870101D6
:1012300029B103D00001A49902D00001A4890101C1
:101240002AB103D00001A49B02D00001A48B2CC1C1
:1012500060F02DC161F02EC162F02FC163F030C18A
:1012600064F031C165F032C15FF033C19BF034C12D
:101270009CF035C19DF036C19EF038C1B4F0B35139
:101280009919D8A494816951711908E168517019AC
:1012900005E167516F1902E166516E1902E07E8720
:1012A0009483AC519B1902E07E87BD87AD519C1998
:1012B00002E07E87BD87AE519D1902E07E87BD8723
:1012C000AF519E1902E07E87BD87010E5EA8000E19
:1012D0004C6E010E5EAA000E4C1A02E07E8B9487C3
:1012E000B051A419D8A47E8DB451B119D8A47F836C
:1012F0006051A56317D0A65120EE61F0DF6212D0D5
:10130000A75120EE62F0DF620DD0A85120EE63F00D
:10131000DF6208D0A95120EE64F0DF6203D065518E
:10132000AA19D8A47E8999C0B3F06EC066F06FC0C8
:1013300067F070C068F071C069F05EA802D05E8A84
:1013400001D05E9AA4C0B0F060C0A5F061C0A6F064
:1013500062C0A7F063C0A8F064C0A9F065C0AAF09D
:10136000B4C0B1F09BC0ACF09CC0ADF09DC0AEF07D
:101370009EC0AFF0050E06D001011B0506E125EC6D
:1013800024F0060E0001C16FD2D61B51020A01E003
:101390000DD125EC24F0EED701011B510F0AD8B472
:1013A0005E8E5750070A08E101011B6705D0000156
:1013B000C56B560E836F826BAB985E800001986B95
:1013C000C76BC66BABEC15F057C0C1F0B0D6A00E22
:1013D00000016E6F6F6970697169010E996F030E7C
:1013E0005F6E606B616B626B010E636F646F656F44
:1013F000B46F040EB86F9B6B9C6B9D6B9E6B586AB1
:10140000C00E5824D96EDA6A020EDA22DF68582A32
:101410001D0E5864F5D7586A000E5824D96EDA6A42
:10142000010EDA22DF68582A0E0E5864F5D7000143
:10143000BD81BD8BBD89BD83BD85BD877E811DEC12
:1014400013F0086A0768096A07EC23F0F2EC23F04E
:10145000ADD00001CB6750D07C6B7D6B806B816B16
:10146000866B876B846B856B0101010E046EC70E62
:10147000036E0A0E056E31EC23F00101010E046EBD
:101480009A0E036E2D0E056E31EC23F00101010E54
:10149000046ED10E036E080E056E31EC23F0B1EC34
:1014A00023F0050E066EDC0E056E0101010E086EBE
:1014B000D10E076E080E096EFCEC1CF04C6E050E8A
:1014C0004C5C19E3010ECB6F586A58504D0FD96E22
:1014D000DA6ADF504C6ED10E5824D96EDA6A010EEA
:1014E000DA22DF504C1802E00001CB6B582A050EBF
:1014F0005864EBD701D0CB6B0001CB5101E164D72D
:1015000067D862D71EC156F01FC155F057C0C1F051
:101510008BEC11F07D51561802E17C51551806E113
:10152000D5EC22F0AA0E01015C6F40D0110E010132
:101530005B6F0001846B856B806B816B866B876B47
:101540007C6B7D6B33D001011A6B30D05750010A90
:101550002DE0030A2BE0010A01E1BAD5070A01E1F7
:10156000E9D5010A01E133D6030A01E105D7010AF1
:1015700001E117D70F0A01E114D7010A01E111D7E0
:10158000030A01E10ED7010A01E10BD7070A01E1C5
:1015900003D74C0A01E11BD7010AB4E0030A01E1B9
:1015A00058D7010A02E106EF25F0CDD701011A6BE9
:1015B00012001A0E5824D96EDA6A010EDA221200CD
:1015C000BE0E5824D96EDA6A020EDA22DF681200E3
:1015D00021EEE5F010EE1DF0080EDECFE6FFE82E5E
:1015E000FCD7020E496E1A0E4924D96EDA6A010E32
:1015F000DA22DF504A6EC00E0001845D770E8559F5
:101600001AE24AC045F0486A7DAB03D0010E446E31
:1016100001D0446AD8907C377D3745B07C81D89022
:101620004532445004E0020E7C1B440E7D1B482AC8
:10163000070E4864E9D7400E845D000E855901E22B
:1016400048D1C00E845D770E855901E342D10F0E5B
:1016500084158A6F8B6B8B1101E0EAD0875186115C
:1016600001E19DD086518027000E8123875180277C
:10167000000E8123801D1B6E811D1C6EF10E1B242C
:10168000806FFF0E1C20816F805184EC21F00D0EC5
:10169000CBEC23F00A0ECBEC23F080C01BF01B3AFE
:1016A0000F0E1B161B161B50190FF66E100EF76E41
:1016B0009A0E4B24D96EDA6A010EDA220800F5CFB1
:1016C000DFFF80C01BF00F0E1B161B50190FF66EAC
:1016D000100EF76E9B0E4B24D96EDA6A010EDA22D9
:1016E0000800F5CFDFFF9C0E4B24D96EDA6A010E9D
:1016F000DA22DF6A020E4B2600019F6B066A0A0E91
:10170000056E0101010E086EC70E076E0A0E096E06
:10171000FCEC1CF0C8C103F00101C75177EC1FF0CD
:101720000001801903E1010E436E36D0436A196A45
:101730001D0E186EE5EC22F000019FC012F0136A36
:10174000156A0A0E146E250EA2EC20F01B6E196AA3
:101750001BC018F0E5EC22F0210ECBEC23F0B8EC26
:1017600023F00D0ECBEC23F00A0ECBEC23F0190E78
:1017700000019F5D0FE29F2B0101010E196E9A0E71
:10178000186EE5EC22F00D0ECBEC23F00A0ECBEC3C
:1017900023F002D09F2BA3D0435002E1AFD78E6B32
:1017A000BF0E0001845D770E855942E2040E8E5D06
:1017B00006E28E2B046A0A0E036EF0EC21F084C060
:1017C00086F085C087F03A0E01019A6F310E9B6F4B
:1017D000300E9C6F87C01BF01B3A0F0E1B1680D873
:1017E000F5CF9DF187C01BF00F0E7AD8F5CF9EF193
:1017F00086C01BF01B3A0F0E1B1672D8F5CF9FF157
:1018000086C01BF00F0E6CD8F5CFA0F1300EA16F83
:10181000A26FA36B090E4B6EB8EC23F00101010E11
:10182000196E9A0E186EE5EC22F00001806B816B48
:10183000BF0E845D770E85594AE284A140D046C030
:101840001BF01B3A0F0E1B164BD8F5CF2FF046C0DE
:101850001BF00F0E45D8F5CF30F04AC01BF01B3AF5
:101860000F0E1B163DD8F5CF31F04AC01BF00F0EFE
:1018700037D8F5CF32F0336A196A2F0E186EE5ECBF
:1018800022F0476A0ED047502F0FD96EDA6A9A0EAF
:101890004B24E16EE26A010EE222DFCFE7FF472A26
:1018A0004B2A47502F0FD96EDA6ADF50ECE19A0EBF
:1018B0004B24D96EDA6A010EDA22DF6A02D04AC0FE
:1018C00046F04A5000018027000E812302D0806B31
:1018D000816B844B852B492A1F0E496484D61200E4
:1018E0001B161B50190FF66E100EF76E0800120033
:1018F000E8CFFDF05EA673D17EA357D07E8739D0A6
:10190000090E066E0D0EF6EC22F0700E066E080E35
:10191000F6EC22F0F9EC23F03CD00A0E066E0D0E28
:10192000F6EC22F0B00E066E080EF6EC22F0F9ECA2
:1019300023F02FD0080E066E0D0EF6EC22F0300EBE
:10194000066E080EF6EC22F0F9EC23F022D00B0E16
:10195000066E0D0EF6EC22F0F00E066E080EF6EC9A
:1019600022F0F9EC23F015D034EC22F02EEC24F028
:1019700010D09351F9E0010AC3E0030ACEE0010A56
:10198000D9E0070AE4E0010AEFE0030AEDE0010A0A
:10199000EBE0050E0001C16FFD51D8A479EC22F0F7
:1019A00000017E93BD81DCEC23F000017EA763D0B3
:1019B0005E987E9B7E8DA46BA4C0B0F09A6B0CD019
:1019C0009BC09AF011D09CC09AF00ED09DC09AF0A6
:1019D0000BD09EC09AF008D09351F2E0050AF3E0D4
:1019E000030AF4E0010AF5E09A516E250D6E000E2F
:1019F0006F210E6E000E70210F6E000E7121106EA1
:101A0000B8EC1EF00DC012F00EC013F00FC014F0B1
:101A100010C015F0470E166EC90E176EEB0E186E3D
:101A20003D0E196E2EEC15F012C0EDF013C0EEF065
:101A300014C0EFF015C0F0F0EDC02FF0EEC030F0A4
:101A4000EFC031F0F0C032F099EC14F02FC055F037
:101A500030C056F031C057F032C058F091EC24F04D
:101A6000050E0001C16FFD51D8A479EC22F00001F0
:101A7000BD81DCEC23F05EAE10D0556A566A576A21
:101A8000586A1DEC22F063EC22F031EC24F05E9EEB
:101A900000017EAB5EB801D07E8700017EAB13D023
:101AA0005EA807D0556A566A576A586A1DEC22F03C
:101AB00001D07E87050E0001C16FFD51D8A479ECDD
:101AC00022F000017E9B7EAD6ED0A4B104D05F0EEB
:101AD000F26F1C0E03D05F0EF26F080EF16FF1C0B3
:101AE00013F0F2C014F0C5EC1BF00001A4B304D055
:101AF0005F0EF46F440E03D05F0EF46F300EF36F81
:101B0000F3C013F0F4C014F0C5EC1BF00001A4B551
:101B100004D05F0EF66F6C0E03D05F0EF66F580E9A
:101B2000F56FF5C013F0F6C014F0C5EC1BF0000122
:101B3000A4B704D05F0EF86F940E03D05F0EF86F59
:101B4000800EF76FF7C013F0F8C014F0C5EC1BF06F
:101B50000001A4B904D05F0EFA6FBC0E03D05F0E73
:101B6000FA6FA80EF96FF9C013F0FAC014F0C5ECC3
:101B70001BF00001A4BB04D05F0EFC6FE40E03D089
:101B80005F0EFC6FD00EFB6FFBC013F0FCC014F0B7
:101B9000C5EC1BF0050E0001C16FFD51D8A479EC16
:101BA00022F000017E9D7EA90CD0A1DA00017E9971
:101BB000BD83050EC16FFD51D8A479EC22F0DCEC99
:101BC00023F000017FA104D07F91BD85DCEC23F0E0
:101BD00000017FA304D07F93BD85DCEC23F01200CD
:101BE000096A42D1BEEC23F001E140D1A3EC22F01E
:101BF0000A6E7F0E0A6421D00A50B00A04E1010E79
:101C0000986F5E9014D00A50B10A04E1010E986FEB
:101C10005E800DD0986B5E900AC005F0F00E051640
:101C20000550B00A04E10A50BF0AD8A40A065EB003
:101C30001FD10A50CBEC23F01BD15EB006D0020EB0
:101C4000985D03E20A50CBEC23F000019851D8A430
:101C5000982B020E985D01E20BD19851020A03E124
:101C60000AC0A2F005D10AC0A3F00AC0BCF05E8C85
:101C7000010E986FD0D0010E5EB6000E056E0546BF
:101C800005467E510518FB0B05187E6F7EB55E86F6
:101C9000E5D05EA602D07E8502D000017E957EB59D
:101CA0005E96DCD094B713D05E88010E5EA8000E5D
:101CB000056E5EAA02D0010E01D0000E051AD8A44E
:101CC0007E8B5EA802D05E8A01D05E9AC7D0020EDB
:101CD0005EA8030EBC6F9497C1D094B7F8D75E98F6
:101CE000010E5EA8000E056E5EAAE7D7010E051A6A
:101CF000E7E1E7D7A351CDE0010ABDE0030AD2E056
:101D0000010AEBE0ABD074EC1DF0A8D094B105D083
:101D1000A3C099F099C0B3F0A1D099C0BCF0949140
:101D20009DD094B321D0A00E056E0668A351076E16
:101D3000086A055007260650082207C06EF008C042
:101D40006FF0000E6FBFFF0E706F716F691908E1C1
:101D50006851701905E167516F1902E166516E19FA
:101D600001E17CD07E877AD06E51600FBC6F949376
:101D700075D0A351290A72E18DEC23F06FD0A3C076
:101D800060F0A55160196AE07E8960C0A5F066D058
:101D9000A3C061F06151A619D8A47E8961C0A6F0E4
:101DA0005DD0A3C062F06251A719D8A47E8962C039
:101DB000A7F054D0A3C063F06351A819D8A47E89BA
:101DC00063C0A8F04BD0A3C064F06451A919D8A493
:101DD0007E8964C0A9F042D0A3C065F06551AA19FC
:101DE000D8A47E8965C0AAF039D094B907D0B8517B
:101DF000A31934E0A3C0B8F07F8130D0B8C0BCF0E4
:101E000094992CD0A3C0C3F0B251C319D8A4BD81FA
:101E1000C3C0B2F023D0A251030A01E16BD7070A75
:101E200001E171D7020A01E171D7010A01E179D715
:101E3000170A9FE0070AA3E00F0AAAE0010AB1E02F
:101E4000030AB8E0010ABFE0070AC6E0010ACDE0D4
:101E5000030AD8E03E0AD8B4B8EF24F05EAC08D04C
:101E60000001BC51CBEC23F05E9C02D0010E096E48
:101E70000950D8A41200B6D6046A036AC2EC23F053
:101E80000001716F046A010E036EC2EC23F00001C1
:101E9000706F046A020E036EC2EC23F000016F6FD4
:101EA000046A030E036EC2EC23F000016E6F046A35
:101EB000040E036EC2EC23F00001996F046A070E52
:101EC000036EC2EC23F00001606F046A080E036E1B
:101ED000C2EC23F00001616F046A090E036EC2ECCC
:101EE00023F00001626F046A0A0E036EC2EC23F055
:101EF0000001636F046A0B0E036EC2EC23F0000155
:101F0000646F046A0C0E036EC2EC23F00001656F6F
:101F1000046A0D0E036EC2EC23F05F6E046A140EA9
:101F2000036EC2EC23F00001C36F7151800A800F71
:101F300008E1000E705D05E1000E6F5D02E1130E19
:101F40006E5D05E3A00E6E6F6F6970697169080EB2
:101F5000996502D0010E996F030E606501D0606B28
:101F600020EE61F0030EDF6401D0616B20EE62F0C1
:101F7000030EDF6401D0626B20EE63F0030EDF64BA
:101F800002D0010E636F20EE64F0030EDF6402D016
:101F9000010E646F20EE65F0030EDF6402D0010EC7
:101FA000646F030E5F6401D05F6E040EC36502D0E0
:101FB000010EC36F6EC066F06FC067F070C068F04E
:101FC00071C069F099C0B3F060C0A5F061C0A6F01F
:101FD00062C0A7F063C0A8F064C0A9F065C0AAF011
:101FE000C3C0B2F0046A0F0E036EC2EC23F000010E
:101FF000B46FB429D8B4B491B4C0B1F0046A0E0E71
:10200000036EC2EC23F00001B86F030EB85D02E26C
:10201000030EB86F040EB86502D0030EB86F046AE1
:10202000100E036EC2EC23F000019B6F046A110EC8
:10203000036EC2EC23F000019C6F046A120E036E63
:10204000C2EC23F000019D6F046A130E036EC2EC14
:1020500023F000019E6F120E9B6501D09B6B120E48
:102060009C6501D09C6B120E9D6501D09D6B120E7C
:102070009E6501D09E6B9BC0ACF09CC0ADF09DC036
:10208000AEF09EC0AFF0500E0A6E0101B00E0A24F1
:10209000D96EDA6A000EDA220AC003F0046AC2ECD2
:1020A00023F0DF6E0A2A5E0E0A64EFD7600E0A6E16
:1020B0000201600E0A24D96EDA6A020EDA220AC020
:1020C00003F0046AC2EC23F0DF6E0A2A7D0E0A6474
:1020D000EFD7086A800E076E020E096E07EC23F038
:1020E000086A810E076E030E096E07EF23F0046A7B
:1020F000D70E036E040E056E31EC23F0046A000166
:10210000DB0E036E040E056E31EC23F0046A000151
:10211000DF0E036E040E056E31EC23F00101010E9B
:10212000046ED90E036E040E056E31EC23F0046AC2
:102130000001E30E036E040E056E31EC23F0010185
:10214000010E046EDD0E036E040E056E31EC23F0FD
:102150000101010E046EE10E036E040E056E31ECFA
:1021600023F0E4EC23F0596A59500001600FD96E56
:10217000DA6ADF50D5EC21F01ED0A0C0D7F0B9C08C
:10218000D8F025D0A0C0DBF0B9C0DCF020D0A0C0D2
:10219000DFF0B9C0E0F01BD0A0C0D9F1B9C0DAF1CE
:1021A00016D0A0C0E4F0B9C0E5F011D0A0C0E0F1B5
:1021B000B9C0E1F10CD05950E0E0010AE3E0030AB4
:1021C000E6E0010AE9E0070AECE0010AEFE0592A3B
:1021D000050E5964C9D75A6A3FD0D7C06AF0D8C033
:1021E0006BF0D9C06CF0DAC06DF044D0DBC06AF09F
:1021F000DCC06BF0DDC06CF0DEC06DF03BD0DFC04A
:102200006AF0E0C06BF0E1C06CF0E2C06DF032D07B
:10221000D9C16AF0DAC16BF0DBC16CF0DCC16DF0E2
:1022200029D0E3C06AF0E4C06BF0E5C06CF0E6C012
:102230006DF020D0DDC16AF0DEC16BF0DFC16CF063
:10224000E0C16DF017D0E1C16AF0E2C16BF0E3C10B
:102250006CF0E4C16DF00ED05A50BFE0010AC6E048
:10226000030ACDE0010AD4E0070ADBE0010AE2E05C
:10227000030AE9E0C580C5B0FED7680EE7EC1EF0A2
:1022800001010F0E5A24D96EDA6A010EDA22DF50EC
:10229000E7EC1EF05B6A5B5000016A0FD96EDA6AE8
:1022A000020EDF6205D0556A566A576A3F0E0CD09F
:1022B0005B506A0FD96EDA6A030EDF6207D0556A87
:1022C000566A800E576EBF0E586E0FD05B506A0F65
:1022D000D96EDA6ADF508EEC22F00DC055F00EC0D8
:1022E00056F00FC057F010C058F055C049F056C016
:1022F0004AF057C04BF058C04CF083EC1CF05B2AFE
:10230000030E5B64C8D7C584C5B4FED75A2A060E2F
:102310005A64A2D7060CC1C05AF1A2D0C2C05BF168
:10232000020E036EBE0E0324D96EDA6A020EB5D811
:102330001F0E0364F7D7AED0C2C05BF1C20505E142
:10234000B7C05CF1B8C05DF1A5D0C251020A01E08E
:10235000A1D0B5C05EF1050E036EFB0E0324D96E4D
:10236000DA6A000E9AD8130E0364F7D793D093C09D
:102370005BF199C05CF101015D6B5E6B71C05FF157
:1023800070C060F16FC061F16EC062F1000E5EB8A6
:10239000010E636F000E0001A4B1010E0101646F14
:1023A000000E0001A4B3010E0101656F000E0001D3
:1023B000A4B5010E0101666F000E0001A4B7010E65
:1023C0000101686F000E0001A4B9010E0101696FDF
:1023D000000E0001A4BB010E01016A6F60C06CF128
:1023E00061C06DF162C06EF163C06FF164C070F1E5
:1023F00065C071F1B4C078F14DD0030E01015B6F7F
:10240000030E5C6F010E5D6F99C05EF15F6B606BD8
:10241000616B5FC063F1060E646F0F0E656F666FD0
:10242000676F686F696F6A6F0A0E6B6F6C6F6D6FA5
:102430006E6F6F6F706F010E716F726F9BC073F173
:102440009CC074F19DC075F19EC076F123D01BC174
:102450005BF120D001015B6B5C6B5D6B5E6B1AD036
:102460000001C151030A01E159D7070A01E164D70C
:10247000010A01E17CD7030AC0E0010AE8E00F0A83
:10248000E6E0010AE4E0030AE2E0010AE0E0070A0C
:10249000DEE0E0D70001C16B1200DA225A0E0324FD
:1024A000E16EE26A010EE222DFCFE7FF032A1200AB
:1024B00020C028F021C029F022C02AF023C02BF030
:1024C000180E01D0B4D8E82EFDD728502E6E24C0A7
:1024D00028F025C029F026C02AF027C02BF0180EBE
:1024E00001D0A5D8E82EFDD728502D6E2E5009E03A
:1024F0002D502E5C0FE22E502D5C286E210E285C94
:1025000009E324C020F025C021F026C022F027C016
:1025100023F083D02D5009E02E502D5C07E22D5082
:102520002E5C286E210E285C01E377D0060E2C6EFF
:1025300023BE2C8E27BE2C8C228E236A268E276AE1
:102540002D502E5C1AE2D8902436253626362736B2
:102550002D062D502E180DE02C062CC028F0070E4D
:10256000281607E0F0D7D8902332223221322032C9
:102570002E2A2D502E62F7D71CD02E502D5C19E23A
:10258000D89020362136223623362E062D502E188E
:102590000DE02C062CC028F0070E281607E0F0D717
:1025A000D89027322632253224322D2A2D502E6201
:1025B000F7D72CAE09D0201E211E221E231E202A52
:1025C000000E2122222223222CAC02D0241E26D847
:1025D0002C6A2050242621502522225026222350C6
:1025E000272227AE04D0241E19D8010E2C6E24C039
:1025F00003F025C004F026C005F027C006F02EC069
:1026000007F02CC008F03CEC18F003C020F004C028
:1026100021F005C022F006C023F01200251E261E60
:10262000271E242A000E252226222722000CD890BD
:102630002B322A3229322832120000017EA1B1D079
:10264000BDA132D0086A030E076E6EC009F007EC18
:1026500023F0086A020E076E6FC009F007EC23F042
:10266000086A010E076E70C009F007EC23F0086AD3
:10267000076A71C009F007EC23F0086A040E076EC0
:1026800099C009F007EC23F0086A0D0E076E5FC0D1
:1026900009F007EC23F0086A140E076EC3C009F0B6
:1026A00007EC23F00001BD91BDA32CD0086A070EF2
:1026B000076E60C009F007EC23F0086A080E076E89
:1026C00061C009F007EC23F0086A090E076E62C0CA
:1026D00009F007EC23F0086A0A0E076E63C009F0E0
:1026E00007EC23F0086A0B0E076E64C009F007ECD4
:1026F00023F0086A0C0E076E65C009F007EC23F0A2
:102700000001BD93BDA510D0086A0F0E076EB4C0BE
:1027100009F007EC23F0086A0E0E076EB8C009F046
:1027200007EC23F00001BD95BDA71ED0086A100E6E
:10273000076E9BC009F007EC23F0086A110E076EC4
:102740009CC009F007EC23F0086A120E076E9DC0CA
:1027500009F007EC23F0086A130E076E9EC009F01B
:1027600007EC23F00001BD97BDA916D0500E0A6EEC
:102770000AC007F0086A0101B00E0A24D96EDA6AAD
:10278000000EDA22DF50096E07EC23F00A2A5E0EF3
:102790000A64EED70001BD99BDAB02D0BBEC24F0BA
:1027A0007E9112005EA6C4D0640E0001BB65BFD04E
:1027B000BB6B55D0B651080FBE6F63D0936B61D021
:1027C000010E936F5F505DE0050E47D0020E936FD0
:1027D0005F0402E1010E936F010E5F6452D0060E9A
:1027E0003CD0030E936F5F0402E1020E936F5F50C3
:1027F000020A02E1010E936F5F50030A42E1070EE5
:102800002CD0040E936F5F0402E1030E936F5F50B0
:10281000020A02E1020E936F5F50030A32E1010ED9
:102820001CD05F0402E1040E936F5F50020A02E1C4
:10283000030E936F5F50030A24E1020E0ED05F5027
:10284000020A02E1040E936F5F50030A1AE1030EBD
:1028500004D05F50030A15E1040E936F12D0995112
:10286000A9E0010AABE0030AABE0010AAFE0070A06
:10287000B8E0010AC6E0030AD4E0010AE0E00F0A6A
:10288000E8E0996718D0BEC006F00D0EF6EC22F015
:10289000130EE4EC20F00001BE6FBE6710D0936B06
:1028A0000A0EBA650AD0BA6B040EB65DD8A0B62B74
:1028B000B651040A2DE1B66B2BD0BA2B29D0B667DE
:1028C00002D0030E936FB60502E1010E936FB6516D
:1028D000020A02E1020E936FB651030A02E1040EEE
:1028E000936F120EE4EC20F00001BF6FBF51D8A42B
:1028F0005E88010E5EA8000E086E010E5EAA000E34
:10290000081AD8A47E8B5EA802D05E8A01D05E9A97
:1029100000019351020AD8B482B002D0C3C093F030
:10292000AB519319D8A47E8393C0ABF001D0BB2BDD
:102930001200116A126A800E136E440E146E2FC0BC
:102940000DF030C00EF031C00FF032C010F07AD967
:102950000DC020F00EC021F00FC022F010C023F0F7
:10296000246A256A800E266E3F0E276EA1DD20C0E8
:102970002FF021C030F022C031F023C032F02FC040
:1029800025F030C026F031C027F032C028F02F0EDD
:102990001DEC1FF02FC025F030C026F031C027F00D
:1029A00032C028F02F0E1DEC1FF02FC025F030C0D4
:1029B00026F031C027F032C028F02F0E1DEC1FF09A
:1029C0002FC025F030C026F031C027F032C028F0EB
:1029D0002F0E1DEC1FF02FC025F030C026F031C0A7
:1029E00027F032C028F02F0E1DEC1FF02FC025F06D
:1029F00030C026F031C027F032C028F02F0E1DEC79
:102A00001FF02FC025F030C026F031C027F032C0B3
:102A100028F02F0E1DEC1FF02FC025F030C026F03F
:102A200031C027F032C028F02F0E1DEC1FF02FC050
:102A300025F030C026F031C027F032C028F02F0E2C
:102A40001DEC1FF02FC025F030C026F031C027F05C
:102A500032C028F02F0E1DEC1FF0120012C01AF029
:102A600013C01BF014C01CF015C01DF0180E01D0CF
:102A70006CD8E82EFDD71A501E6E1E6601D011D0FC
:102A800016C01AF017C01BF018C01CF019C01DF0BA
:102A9000180E01D05AD8E82EFDD71A50246E24669D
:102AA00005D0126A136A146A156A3FD024507B0F4E
:102AB0001E2615C024F01950241A800E2416148ED8
:102AC000188E196A1F6A206A216A226A070E236E0D
:102AD00012A002D016502AD831D81636173618361A
:102AE0001936232EF5D7110E236E12A002D01650E0
:102AF0001DD824D82232213220321F32232EF5D77E
:102B00001FC003F020C004F021C005F022C006F071
:102B10001EC007F024C008F0AFDA03C012F004C0F2
:102B200013F005C014F006C015F012001F26175050
:102B3000202218502122195022221200D89015323A
:102B4000143213321232D8901200D8901D321C3237
:102B50001B321A321200C56710D082C003F083C046
:102B600004F0056A066A086AC00E076E0301030EC8
:102B70000A6E000E096ECFEC1FF001011B5104E03C
:102B80001D6A020E1C6E02D01C6A1D6A1CC01EF05B
:102B9000040E1F6E1A0E186E010E196E1F501826A5
:102BA000000E19221E50185CD96E1950D8A01904B5
:102BB000DA6E000E1A6E030E1B6E0001C5511A2646
:102BC000000E1B221F501A24E16E000E1B20E26E25
:102BD000DFCFE7FF1F2A170E1F64DCD7180EC527AB
:102BE000BF0EC5652ED0C56B3F0E825D5F0E83594B
:102BF00028E282C003F083C004F0056A066ABF0EB3
:102C00008225186E000E8321196E18C007F019C0B6
:102C100008F0096A0A6A72EC1EF082C003F083C0F1
:102C200004F0056A066A086AC00E076E0301030E07
:102C30000A6E000E096EE6D8C00E00018227000E53
:102C4000832312000DC015F00EC016F00FC017F050
:102C500010C018F0180E01D060D8E82EFDD715501E
:102C60001E6E1E6601D011D011C015F012C016F0F4
:102C700013C017F014C018F0180E01D04ED8E82E6B
:102C8000FDD715501F6E1F6605D00D6A0E6A0F6ABC
:102C9000106A42D01F50890F1E5E10C01FF01450E2
:102CA0001F1A800E1F160F8E106A138E146A200EC4
:102CB0001D6ED89019361A361B361C3611500D5C15
:102CC00012500E5813500F581450105809E3115059
:102CD0000D5E12500E5A13500F5A1450105A19808C
:102CE000D8900D360E360F3610361D2EE2D719C08D
:102CF00003F01AC004F01BC005F01CC006F01EC093
:102D000007F01FC008F0B8D903C00DF004C00EF0E2
:102D100005C00FF006C010F01200D890183217321C
:102D2000163215321200F29E8A940001886B896B6C
:102D3000C282046A0A0E036EF0EC21F0C2B20BD01C
:102D4000C4505D6E5C6AC3505C240001886F000E45
:102D50005D20896FC282360E0001885D020E89599E
:102D6000E8E3046A460E036EF0EC21F0B06A7F0ED1
:102D7000AF6ED3928A98899C8A9635EC24F0938220
:102D80009380046A640E036EF0EC21F08A88050ECD
:102D9000046EDC0E036EF0EC21F093829380046AE3
:102DA000010E036EF0EC21F0800E036E080E69EC4C
:102DB00023F0898C556A566A576A586A1DEC22F0CE
:102DC00063EC22F08A8625EC24F05BDA25EC24F013
:102DD00000017E837E877E897F817F83000E78EC71
:102DE0000CF0010E066E1B0EF6EC22F0F29AD59E48
:102DF000A40ED76E710ED66E0001A16B9495F28E63
:102E000012EF24F05EA40BD00650051008E1560E18
:102E1000045C05E3600E045C02E20A0E045E106AC4
:102E200003C014F004C015F005C016F006C017F07A
:102E3000050E0B6ED89006320532043203320B2E8B
:102E4000F9D7050ED8900336043605360636E82E37
:102E5000F9D7200E0326000E042205220622145064
:102E6000035C0F6E47D016C013F015C012F014C0EB
:102E700011F019D009C0D9FF0AC0DAFFDF5011C024
:102E8000F6FF12C0F7FF13C0F8FFF56E0C00094AF9
:102E90000A2A112A000E122213220706D8A00806B9
:102EA0000850071003E00F060F28E4E113C00EF0EE
:102EB00012C00DF011C00CF016C013F015C012F0C6
:102EC00014C011F0A68EA69CA684F2AE03D0F29E8A
:102ED000010E106EB4EC21F0A694105002E0F28EB8
:102EE000106A200E0F6E0C50146E0D50156E0E50A1
:102EF000166E176A08500710D8B41200B4D740EC09
:102F000023F0CD6701D060D068B4A9EC23F06DB296
:102F10005BD068B033EC20F068B824EC23F0030EEB
:102F20000001CD5D51E3C46B68A64ED06C506CCFF0
:102F300006F07C0E06163BE16CB205D0040E0001D3
:102F40007B6F000E03D0040E00017B6F00017A6FCF
:102F500068967AC0D9FF7BC0DAFFDF30E8320F0B0A
:102F60000D0A2DE1906B20EE02F07A51D9267B51AB
:102F7000DA22DECF06F0DDCF07F006C0D9FF07C0AA
:102F8000DAFF9051CF0FE16EE26ADFCFE7FF20EE6C
:102F900002F07A51D9267B51DA22DE2A000EDD2298
:102FA000902B070E9065DFD735EC21F008D06C50E0
:102FB000040A04E16896BAEC21F001D06896000199
:102FC000C42B030EC465B0D7120025C029F026C05B
:102FD0002AF027C02BF028C02CF0180E01D046D8BC
:102FE000E82EFDD729502E6E2E6605D0256A266A5A
:102FF000276A286A3AD025C029F026C02AF027C0BF
:103000002BF028C02CF0200E01D030D8E82EFDD7B0
:1030100029502D6E278E286A960E2E5E2EAE0FD06A
:103020002E50800A296EE90E800A295CDFE3D890D1
:1030300028322732263225322E3EF9D70CD01F0EE9
:103040002E6407D0D3D7D890253626362736283693
:103050002E062E66F8D72D5008E0281E271E261EA5
:10306000256C000E2622272228221200D8902C320E
:103070002B322A3229321200075005E00650031085
:103080000410051007E1036A046A056A066A43D062
:10309000072A42D8096A0A6A0B6AFE0E06140C6EE9
:1030A0000C5009100A100B1008E0F2D7072A032A67
:1030B000000E0422052206222FD8096A0A6A0B6A2A
:1030C00006500C6E0C5009100A100B1007E0EED7DA
:1030D0000706D890033604360536063605AEF8D70F
:1030E00007B002D07F0E0516D890073207C009F04E
:1030F0000A6A0B6A0C6A09C00CF00B6A0A6A096A50
:10310000095003120A5004120B5005120C500612FB
:103110000850D8A4068E1200D89006320532043228
:1031200003321200CF511F0B036E030454E1D3513D
:1031300052E1D051060A18E01ED0020EC86F100EE0
:10314000766F3E0E756FE86B090E0CD0020EC86FDD
:10315000EB0504E1100E766F550E756FEB050AE175
:10316000E86B1D0EE76F06D0D251210AE6E0030A94
:10317000EDE0010ACE83CF39E832030B036E03047E
:103180002AE11CD028D037EC24F025D0020EC86FDD
:10319000766BEA0E756FCE93010EE76F1CD0020EB0
:1031A000C86FD2C0EAF017D0020EC86F766BE90E76
:1031B000F1D7020EC86FD1C0E9F00DD0D051010A8D
:1031C000E1E0030AE3E0010AEFE00A0ADCE0030AB7
:1031D000E6E0010AEEE01200C86714D0040E040114
:1031E000086F088F0101166F0001960505E1010EB9
:1031F00008EC20F0966B44D0000E08EC20F0010E95
:10320000966F3ED0CFAF1BD0010EC96FE751D55D91
:10321000E851D65904E2D5C0E7F0D6C0E8F0A4D909
:10322000480E0101166F010E08EC20F0000E08ECAC
:1032300020F00401040E0B6F240E0A6F1ED0020E44
:10324000C96F040E0101166F0001D651D51103E1BB
:10325000480E0101166F0001960505E1010E08EC0C
:1032600020F0966B05D0000E08EC20F0010E966F52
:10327000D651D51105E10401096B480E086F088F7E
:103280001200E4EC23F03F0E066E010EF6EC22F085
:10329000300E066E030EF6EC22F0010E066E040EE2
:1032A000F6EC22F0080E066E050EF6EC22F0010E8A
:1032B000066E060EF6EC22F0340E066E070EF6ECE5
:1032C00022F0300E066E080EF6EC22F0080E066EA6
:1032D0000D0EF6EC22F0080E066E0E0EF6EC22F045
:1032E000220E066E0F0EF6EC22F0066A100EF6ECB9
:1032F00022F0066A110EF6EC22F0010E066E1C0E8C
:10330000F6EC22F0010E066E1D0EF6EC22F0020E17
:10331000066E2D0EF6EC22F0200E066E2E0EF6EF47
:1033200022F02FC003F030C004F031C005F032C0ED
:1033300006F0370E076E10EC1EF03850800AF36E60
:10334000800EF35C000ED8B4375C05E22F6A306A59
:10335000316A326A29D01D0E375C000E385801E3FD
:1033600023D02FC025F030C026F031C027F032C066
:1033700028F02BDE25C00DF026C00EF027C00FF080
:1033800028C010F0B8EC1EF00DC033F00EC034F0C1
:103390000FC035F010C036F033C02FF034C030F01D
:1033A00035C031F036C032F01200D1050BE1CF51FB
:1033B0001F0B08E1010EC86FD051030A02E1CE8154
:1033C00001D0CE91D1673BD0CF511F0B020A37E11C
:1033D000D3510F0B34E0010EC86FD3510F0B080D02
:1033E000040E036E046EF3500326F4500422010E03
:1033F000D3AF000E040DF3500324726FF450042079
:10340000736FD051030A06E172C0D9FF73C0DAFFAF
:10341000040E0ED0D3AF07D072C0D9FF73C0DAFF4D
:10342000400EDF6E0CD072C0D9FF73C0DAFF080EF9
:10343000DF6E72C0D9FF73C0DAFF000EDB8E1200A0
:10344000E8CF11F00AC00EF00BC00FF00EC003F071
:103450000FC004F00CC005F00DC006F059EC20F0D0
:1034600003C00EF004C00FF0112A0F500E10EEE151
:103470001150D96EDA6ADF6A11060AC003F00BC078
:1034800004F00CC005F00DC006F0FEEC20F0035077
:10349000106E0AC003F00BC004F00CC005F00DC0A4
:1034A00006F059EC20F003C00AF004C00BF0090E3E
:1034B000106402D0070E1026300E10261150D96E5F
:1034C000DA6A10C0DFFF11060B500A10D6E1112A8C
:1034D0001200F26A9D6AA06A9E6AA16A806A816A85
:1034E000826A070E926E936A870E946E700ED36E88
:1034F000380EC66E010EC26E0C0EC16EB50EC06ED9
:10350000070ED56E800ECD6E770EC86E010E0001CF
:10351000FE6F046AFF0E0368C2EC23F0770A09E02D
:10352000046AFF0E0368C2EC23F0880A02E000017F
:10353000FE6B0001FE51D8A419EC21F0086A07685F
:10354000020E096E07EC23F0818C9DD9030E046EE8
:10355000E80E036EF0EC21F03CEC0FF09D8A5E86E5
:1035600000017E8F93EF16F0080E8F6FE75D000E5F
:10357000E8590AE2E7C08FF0CC6702D0010E03D011
:10358000CC0502E1020ECC6F8FC009F48F51E75FCA
:10359000000EE85B040E0001736F240E726FCEB351
:1035A00009D013D015D8F76403D00800F55001D026
:1035B000E6D819D88F67F6D70AD00AD8F76403D0AF
:1035C0000800F55001D0DBD80ED88F67F6D712006F
:1035D00075C0F6FF76C0F7FFF86A72C0D9FF73C0F6
:1035E000DAFF070E1200DF6E0001724B732B754B72
:1035F000762B8F071200CF39E832030B3FE129D039
:10360000010EC86F040ECD6F39D07CD837D0C6EC10
:1036100020F034D0010EC86F766BEB0E756FCE9331
:10362000010EE76F2BD02BD829D0BFDE27D0010E9B
:10363000C86FD351EC0F056E766B05C075F0EFD7F0
:10364000010EC86FD351EC0FD96EDA6AD1C0DFFF1B
:1036500015D0D051E8E0010AE8E0020AE6E0060AE7
:10366000CFE0030AD2E0010A09E00F0AD3E0010A21
:10367000CEE0030ADCE0010AE3E0070A12000401DD
:10368000246B256B2CD0010EC86FCEA130D0040165
:1036900024832DD0010EC86F2AD0010EC86FD351DC
:1036A0000F0B080D040E036E046EF3500326F45046
:1036B0000422010ED3AF000E040DF3500324726FE9
:1036C000F4500420736F72C0D9FF73C0DAFFDF506B
:1036D000036E03A40CD0010E0401246F08D0000176
:1036E000CF511F0BD0E0010AD5E0030AD6E000015C
:1036F000C80507E1040E766F240E756FCE93020E97
:10370000E76F1200CF51800A31E038D0010EC86F48
:10371000100E766F880E756F120E0BD0D1672DD0FC
:10372000010EC86F100E766F2C0E756F000EE86FCD
:10373000290EE76F22D0010EC86FD151290FF66E06
:10374000100EF76E0900F5CF75F0766F75C0F6FFB5
:1037500076C0F7FFF86A070EF76403D00800F5504B
:1037600001D00DD80001E76FE86B07D0D251010AF4
:10377000CDE0030AD3E0010ADEE0CE831200F6CFEB
:10378000E1FFF7CFE2FFE750120013C003F014C0CF
:1037900004F0056A066A086A040E076E0A6A170EC4
:1037A000096ECFEC1FF018C02FF019C031F0190EC0
:1037B000315C29E2040E1324156E000E1420166EDF
:1037C00015C003F016C004F0056A066A31C007F0A0
:1037D000086A0A6A170E096EE2DBC580C5B0FED71B
:1037E000680EF5DA2F50F3DA306A07D03050170F31
:1037F000D96EDA6ADF50EBDA302A3150305CF6E30A
:10380000C584C5B4FED7120041C039F042C03AF0B9
:1038100043C03BF044C03CF041C02FF042C030F008
:1038200043C031F044C032F07CDD2FC03DF030C0E9
:103830003EF031C03FF032C040F052EC21F039C0D0
:1038400045F03AC046F03BC047F03CC048F045C0A8
:103850002FF046C030F047C031F048C032F0410E82
:1038600019DB41C02FF042C030F043C031F044C0FA
:1038700032F057DD2FC041F030C042F031C043F08C
:1038800032C044F0120082A406D08A84B06A3F0E8F
:10389000AF6ED38205D08A94B06A7F0EAF6ED3929A
:1038A0008A988A9A8A96899C89968998899A8A9E02
:1038B00021EC24F0F28EF28C936B93C0ABF0F09875
:1038C000F092F294D59EF29AA46BB06BB66BBA6B81
:1038D0007E6B7F6BBD6B5E6ABB6BBC6BA16B886BD9
:1038E000896BC292946B200E01010F6F210E106F35
:1038F000220E116F230E126F250E136F270E146FF9
:10390000280E156F280C166A176A186A4B0E196E66
:1039100049C012F04AC013F04BC014F04CC015F06F
:103920002EEC15F012C041F013C042F014C043F069
:1039300015C044F069DF41C04DF042C04EF043C0B5
:103940004FF044C050F04DC025F04EC026F04FC09F
:1039500027F050C028F0E5EC17F025C051F026C044
:1039600052F027C053F028C054F054500F0B2FDAF8
:1039700053502DDA52502BDA5150E7EF1EF0000170
:10398000CD51060AD8B46DB204D05EA602D082B082
:1039900003D031EC24F02FD0C0671CD004010CBF41
:1039A0002AD00101010E046E1A0E036E400E056E40
:1039B00004D9010E0001C06F596A01015A0E592441
:1039C000D96EDA6A010EDA22DF6A592A3F0E59648B
:1039D000F4D711D001011A5156EC08F0040110BFC0
:1039E0000AD00101010E046E5A0E036E400E056EE0
:1039F000AADA0001C06B12000E6A0D6A0F6A0B6A28
:103A000005C003F006C004F04DEC23F0BEEC23F03B
:103A100023E00FC00AF0A3EC22F00F6E0D500AE075
:103A20000E500724D96E000E0820DA6E0FC0DFFF9B
:103A30000E2A05D00F503A0A02E1010E0D6E0C6AF3
:103A40000D5008E00A500D0A05E10F500A0A02E184
:103A5000010E0C6E0CC00BF00CEC24F005E20950CA
:103A60000E5C02E20B50D2E02AEC24F00E50120061
:103A70000600A1AA02D0A19AA09AF2A405D0000142
:103A80007E81F294F29AD59EA1A211D0B190F80E47
:103A9000B36E300EB26EB180A19200018D518C11C7
:103AA00004E08C07D8A08D0702D0B190A0929EAA06
:103AB00016D0000E0001C725D96EDA6A020EDA228E
:103AC000AECFDFFFC72BBF0EC76501D0C76BABA260
:103AD00006D0AB9800F0AB885E800001986B02C006
:103AE000DAFF01C0D9FF1100050E25D85F50CBECDD
:103AF00023F01CEC24F0070E1ED800016E51600F5D
:103B0000CBEC23F01CEC24F0030E15D8010E5EA6BE
:103B1000000ECBEC23F01CEC24F0060E0CD80001B8
:103B20009951CBEC23F01CEC24F01D0E04D80001BD
:103B3000B851CBEF23F00D6EBF0ECBEC23F00D5040
:103B4000CBEF23F0066A1B0EF6EC22F0066A1C0E81
:103B5000F6EC22F0066A1D0EF6EC22F082A406D0E6
:103B60008A84B06A3F0EAF6ED38205D08A94B06A61
:103B70007F0EAF6ED3928A98899C89968998899A8C
:103B8000280E0001885D020E895912E2086A096A4E
:103B900008C006F01C0EF6EC22F0010E081A046AAA
:103BA000FA0E036EF0EC21F0092A040E0964F0D736
:103BB0008A96D59EF29AFFEF23F00001CA6B0401AA
:103BC0000CBF2DD005500D5DD8A00DC405F000012F
:103BD000CA6B10D02C0E0001CA25D96EDA6A040E09
:103BE000DA22CA510324E16E000E0420E26EDFCF18
:103BF000E7FFCA2B0550CA5DEDE3400E04010D6FCF
:103C00000C17010E0CBD000E066E063A064606465F
:103C10000C510618BF0B06180C6F0C870C8F120086
:103C200020EE03F0DE50DE10DE10DE1007E107505C
:103C3000D96EDA6A000EDE6EDD6E24D006507F0B80
:103C4000086ED8900834096E0A6A0A360750D96E91
:103C5000DA6A09C0DEFF0AC0DDFF0750D96EDA6AF2
:103C6000010E05AE000EDE12000EDD120750D96EF9
:103C7000DA6A820EDE26FF0EDD220650800B3F0937
:103C8000066E059E120003EE00F0C00EEE6AE80616
:103C9000FDE102EE00F0DE0EEE6AE806FDE101EE67
:103CA00000F0E50EEE6AE806FDE100EE60F08D0E34
:103CB000EE6AE806FDE15F6A5E6A040EF66E470E84
:103CC000F76E000EF86E01EEE5F010EE16F009004A
:103CD000F5CFEEFFE550E150FAE1000EF86E00017D
:103CE000ECEF23F05EA416D00650051008E1560E46
:103CF000045C05E3600E045C02E20A0E045E0A50F6
:103D0000091008E1560E085C05E3600E085C02E24B
:103D10000A0E085E0B6A03C00CF004C00DF005C06B
:103D20000EF006C00FF019D00EC0F8FF0DC0F7FF5F
:103D30000CC0F6FFA68EA69CA684A688F2AE03D081
:103D4000F29E010E0B6E10DB0B50D8A4F28E400ECB
:103D50000C26000E0D220E220F2207500C5C08507C
:103D60000D5809500E580A500F58D8B01200DCD721
:103D7000116A1050800A800F08E1000E0F5C05E107
:103D8000000E0E5C02E1000E0D5C0AE2101E0F1E1A
:103D90000E1E0D6C000E0E220F221022010E116E4F
:103DA0000DC003F00EC004F00FC005F010C006F007
:103DB000960E076E11C008F03CEC18F003C00DF031
:103DC00004C00EF005C00FF006C010F01200E8CFDE
:103DD00005F005C0C9FFC6BE2FD0C6CF04F00F0E38
:103DE00004160450080A0DE0C6CF04F00F0E0416A6
:103DF00004500B0A06E0C6889EA6FED7C7A4C7508B
:103E00001BD0C6CF04F00F0E04160450080A07E0BA
:103E1000C6CF04F00F0E041604500B0A0DE155EC4A
:103E200024F00AE2E4EC23F0E0CF0EF00001C5BC80
:103E30007F850EC0E0FFC5501200E8CF2DF02D5059
:103E4000D96EDA6ADECF12F0DECF13F0DECF14F0D7
:103E5000DECF15F025C016F026C017F027C018F0E9
:103E600028C019F02EEC15F012C029F013C02AF06A
:103E700014C02BF015C02CF02D50D96EDA6A29C071
:103E8000DEFF2AC0DEFF2BC0DEFF2CC0DDFFD9061F
:103E9000D9061200E8CF37F03750D96EDA6ADECF94
:103EA00020F0DECF21F0DECF22F0DECF23F02FC0D6
:103EB00024F030C025F031C026F032C027F058EC95
:103EC00012F020C033F021C034F022C035F023C0FE
:103ED00036F03750D96EDA6A33C0DEFF34C0DEFF09
:103EE00035C0DEFF36C0DDFFD906D9061200E8CFA7
:103EF00005F0046A2F0E056406D03A0E055C03E255
:103F00000550D00F08D0400E056406D0470E055C62
:103F100003E20550C90F046E043AF00E04162F0E8A
:103F2000036406D03A0E035C03E20350D00F08D0BE
:103F3000400E036406D0470E035C03E20350C90F32
:103F4000042604501200400E056401D0056E076A75
:103F50000FD007500324D96E000E0420DA6E6C0EC9
:103F60000724E16EE26A040EE222DFCFE7FF072AB0
:103F70000550075CEEE305C011F4400E0401101774
:103F8000010E10BD000E066E063A0646064610519A
:103F90000618BF0B0618106F1087108F12005EA452
:103FA0000BD00650051008E1560E045C05E3600EC8
:103FB000045C02E20A0E045E03C00BF004C00CF0C5
:103FC00005C00DF006C00EF0F8CF11F0F7CF10F0DD
:103FD000F6CF0FF00DC0F8FF0CC0F7FF0BC0F6FFD7
:103FE00009D0090009C0D9FF0AC0DAFFF5CFDFFF09
:103FF000094A0A2A0706D8A008060728D8B40828BC
:10400000F0E111C0F8FF10C0F7FF0FC0F6FF12007B
:10401000E8CF03F0080E0101176F040E196F1C0E94
:10402000186F036609D0040E196F140E186F040E72
:104030000001796F000E03D0040E0001796F786FD4
:1040400078C0D9FF79C0DAFF16C1DEFF17C1DEFFE5
:1040500018C1DEFF19C1DEFF78C0D9FF79C0DAFFD1
:104060000001DF8E1200030E0001CD6F6B6A686ADB
:104070007B0E696E6E6A716A726A736A746A756AB7
:10408000766A776A160E706E6D8C03D0689633EC84
:1040900024F068B6FBD76D9C6D98040E0101166F75
:1040A000000EB6DF010E966FCE6BEB6B000E06EFC7
:1040B00024F0076A086A065005101BE0010E096E1D
:1040C00004D0D89005360636092A06AEFAD7D8901D
:1040D000073608360550035C0650045805E30550C2
:1040E000035E0650045A0780D89006320532092E26
:1040F000EED707C003F008C004F012005EA621D07E
:10410000A151640A1DE1C2B219D0C450046E036A01
:10411000C3500324886F000E0420896F290E885D28
:10412000020E8959D8B09485C28294A507D0280E72
:10413000885D020E895902E25E967E85A16B01D0F0
:10414000A12B1200E8CF17F017C016F01350800A09
:10415000F36E800EF35C000ED8B4125C0AE21750C6
:10416000D96EDA6A2D0EDF6E172A126C131ED8B0C4
:10417000132A12C00AF013C00BF014C00CF015C0C3
:104180000DF0175020EC1AF016501200010EC86FF7
:10419000716A726A736A746A756A766A776A916B11
:1041A0009151EC0FD96EDA6ADF6A912B9151F8E0E8
:1041B000D1C0EBF0EB512ADB0001D16702D0050E34
:1041C00001D0060ECD6F1200E8CF06F0FDDAC580F3
:1041D000C5B0FED7E20EFBDD0650F9DDC582C5B2E3
:1041E000FED7E30EF4DDD6D9076EC58AC588C5B8FB
:1041F000FED7C584C5B4FED707501200065005107F
:1042000017E0010E076E04D0D89005360636072A4F
:1042100006AEFAD70550035C0650045804E3055077
:10422000035E0650045AD89006320532072EF2D7A4
:104230001200F29E300EF86EF76A0B0EF66EA00EAC
:10424000F56E0C00C40EA66E8FD8A6B2FED7300E47
:10425000F86EF76AF66A3A0EF56E0C00C40EA66E9A
:1042600083D8A6B2FED7A69412000401086B000101
:10427000CC6B040100AF03D0006B0001966B04010E
:1042800004AF04D0046B010E0001966F0001C96BEE
:10429000C86BE76BE86B6D98FBEC1AF092EC18F0CA
:1042A000ECEF18F0800E401A39C020F03AC021F02F
:1042B0003BC022F03CC023F03DC024F03EC025F0BE
:1042C0003FC026F040C027F058EC12F020C039F073
:1042D00021C03AF022C03BF023C03CF01200E8CFEE
:1042E00006F072DAC580D5DA0EE2680E70DD1F0EB8
:1042F0006EDD000E6CDD000E6ADD000E68DD06501E
:1043000066DDC584CCDA1200E8CF06F006C004F002
:10431000043A0F0E041609D83EDA056E06C004F002
:104320000F0E03D838DA051A120004160450190FBC
:10433000F66E100EF76E0800F550120003C0A9FFCC
:1043400005C0A8FFA69EA69CA684000EF2BE010E84
:10435000066EF29E09D8A6B2FED706B002D0F29E33
:1043600001D0F28EA6941200550EA76EAA0EA76E6B
:10437000A682AA0CCD51040A07E1D1C06EFF6E508F
:10438000050ED8B4030ECD6FC9050EE1B4EC1AF0DA
:10439000CC51020A03E1040E040104D00401480ECA
:1043A00008BD080E086F088F1200E8CF03F00FD089
:1043B000010EA06FB96B13D0A06B010E06D0020ED8
:1043C000A06F03D0010EA06F030EB96F08D0035089
:1043D000EFE0010AF1E0030AF2E0010AF3E0120063
:1043E000A092980EB16EB18010D0D3A204D0FC0E72
:1043F000B36E180E03D0F80EB36E300EB26EA192EB
:10440000A1A2FED70306D8A0040604500310EDE1D4
:10441000B1901200E8CF1BF00D0EBDD90A0EBBD92A
:104420000C0EB9D93A0EB7D9196A1BC018F0CDD8FD
:104430000D0EB1D90A0ECBEF23F0C6D9C580C5B099
:10444000FED7680EC4DC300EC2DC55C049F056C041
:104450004AF057C04BF058C04CF083EC1CF0C584B8
:10446000C5A401D0FDD712005F660DD0899601D09A
:1044700089868998899A0FD08996899802D08996D9
:104480008988898A08D09351F1E0050AF1E0030A8E
:10449000F3E0010AF4E01200AB9ED09E0001C66B6F
:1044A000C76B060EAC6E800EAB6E480EB86E948E67
:1044B000948C9D989E989E9A9D9AB06A7F0EAF6E3E
:1044C000AC8AAB887F0C560E336E326A346A32C0C7
:1044D00013F033C014F0C5EC1BF0180E3226000E9A
:1044E0003322342A5F0E3464F2D7146E136AC5EF98
:1044F0001BF08BEC11F0CD51060AD8B46DB20DD083
:1045000082A00BD0040110BF08D00101010E046E7F
:104510005A0E036E400E056E16DD1200E8CF11F044
:104520001150036E046A056A066A960E076E086AE1
:104530003CEC18F003C00DF004C00EF005C00FF005
:1045400006C010F01200046A19D90EE0000E000136
:10455000C625D96EDA6A020EDA22DF50046EC62B47
:10456000BF0EC66501D0C66B04501200CA6B1E0E8A
:10457000716E400E04010D6F040E0F6F2C0E0E6F46
:10458000080E0C6F0C8F040E136F6C0E126F400E22
:10459000106F400CC6500F0B080A02E00B0AD8B48B
:1045A000C586C7A0FED7C950120021EEF4F010EE68
:1045B0001CF0070EDECFE6FFE82EFCD71C0E2ADF2C
:1045C0001C0E28DF1C0E0AEF22F01A6A03D006D850
:1045D000E2D81A2A03D8D8B41200F9D71A501824EE
:1045E000D96E000E1920DA6EDF501200E8CF07F006
:1045F000C5804FD90BE2E20EE7EC1EF00750E7EC66
:104600001EF00650E7EC1EF0C58449D9120007C021
:1046100003F008C004F0B6D8091807E007C003F09B
:1046200008C004F009C005F089DE12009505D8B471
:1046300087D86D6A150E6F6E696A6D8614DD010E7E
:104640000001CD6F956B120069CF92F0040E696E78
:1046500068986D82A19AA08AA09A0001925169126D
:104660001200066A08D006500324D96E000E0420FA
:10467000DA6EDF6A062A0550065CD8B01200F3D75E
:104680000001950509E082A003D06DA6CFDF04D01C
:104690006DA602D0B4D8956B1200980EB16EF80ECC
:1046A000B36E300EB26E03C08CF004C08DF0A192D8
:1046B000B180A082300C00017EA508D05EA603D098
:1046C00093EC16F002D0A2EC1DF07E95010E78EF6F
:1046D0000CF0E8CF04F03F0EC716C66AC56A045056
:1046E000C6120350C71293829380C68A1200BFEC91
:1046F0001CF0F0EC0DF0D2EC13F0DDDF1DEC13F04C
:104700007EEF20F02D204641494C200046575F5552
:1047100070640030303030303000BF0E3CD8290E8D
:104720003AD8010E5EA2000ECBEF23F004D09BD846
:104730000306D8A0040604500310D8B41200F7D71B
:104740006D926D6AFF0E04680368F0DF0001CD6BA7
:1047500012006DD86D92699401D0689468A412001B
:10476000FCD7BF0E18D8180E16D8010ECBEF23F0C9
:1047700001D0E9DE03D8D8B41200FBD70001C7513D
:10478000C619120003C0A9FFA69CA69EA68000F031
:1047900000F0A8501200E8CF03F075D804E203C07F
:1047A000ADFF0350120078DE6ED804E203C0ADFF07
:1047B00003501200F2EF23F0A40ED76E710ED66EE6
:1047C000F294F28AD58E710CC5CF03F01F0E03163A
:1047D000D8B4C7B4F9D71F0C69EC1AF07FEC17F006
:1047E00086DFFCD7F26A00F000F0FF0000F000F076
:1047F0001200020E74DD89968998899A12006D92D2
:104800006D6A0001CD6B010E956F010CE8CF03F0CE
:104810000304D8B4ABDE1200B1A002D0D89001D00E
:10482000D88012006DB68CDF956B40EF23F0030E3D
:10483000046E036A9BEF23F0046A010E036EF0EF2F
:1048400021F02ADE5E90986B1200046A020E036E5D
:10485000F0EF21F0B190A192A0921200010E6FEF43
:1048600021F0AB88120004001200C69A1200120058
:104870000B6A100E0C6ED89012000B2E12000C2E2C
:104880001200D8801200F4DFACB215D0F6DFFCE3E2
:104890001200EEDFC5A00FD0F0DFFCE31200E8DF6E
:1048A000C5A409D0EADFFCE31200E2DFC7A003D011
:1048B000E4DFFCE31200D8901200C69A9382938042
:1048C000090E0B6E93928A92000000009382000002
:1048D000000081B002D00B2EF5D793908A90000093
:1048E0009382000000009380280EC66E1200C580DF
:1048F000D0DF0AE2680EE7EC1EF0C584D0DFC5AC5D
:104900007F9DC5BC01D012007F8D120000017F5138
:10491000440B0D6EBF0E3FDF080E3DDF0D503BDF39
:10492000120000017F9589DD7FB510D000017E97D0
:104930007E8F6EC066F06FC067F070C068F071C0A7
:1049400069F07F9DC70E7F17E1DF1200080E7F27F9
:104950007F51380B28080BE2C5B402D0AEDFC7DFA9
:104960007F8DD4DF00017E97C70E7F1712001200E3
:1049700031D82EEF0FF0600E5EB4830E076E086A1A
:1049800022EEC0F01E0E0A6EDECF09F040DE072ACE
:104990000A2EFAD7BD9B1200600E5EB4830E036E22
:1049A000046A22EEC0F01E0E0A6EECDEDE6E032AF2
:1049B0000A2EFBD71200046A960E036E11DD120058
:1049C00000015E885E8A7E9B556A566A576A586AFD
:1049D00034DD1200A351010B5EB4010A15E0BDBB2A
:1049E000CADF5EB80BD0ECDFE6DF5E74D5DF000116
:1049F0007E8169DD5E985E9A7E871200DCDF5E74E0
:104A0000CBDF00017E815FDD00011200010121EE9C
:104A10005AF0430EDE6EDE6A1E51DE6E000903E0C0
:104A20003D0E1E6502D0020E25D01B5104E0010A86
:104A300013E0010E1FD01CC103F01DC104F0056A74
:104A4000066A1EC107F0086A5D0E096E010E0A6E45
:104A5000CFEC1FF0D6EF0AF01C51036E046A1E5112
:104A60000A6E21EE5DF08EDEDE6E032A0A2EFBD783
:0A4A7000D6EF0AF05B6FD6EF0AF0F4
:104C000001C80400000000000000000000000000D7
:104C10000000000000000000013714000000000048
:104C20000000000000000000000000000000000084
:104C30000138140000000000000000000000000027
:104C40000000000000000000013914000000000016
:104C50000000000000000000000000000000000054
:104C6000013A1400000000000000000000000000F5
:104C70000000000000000000013B140000000000E4
:104C80000000000000000000000000000000000024
:104C9000013C1400000000000000000000000000C3
:104CA0000000000000000000013D140000000000B2
:104CB00000000000000000000000000000000000F4
:104CC000013E140000000000000000000000000091
:104CD0000000000000000000013F14000000000080
:104CE00000000000000000000000000000000000C4
:104CF000014014000000000000000000000000005F
:104D0000000000000000000001411400000000004D
:104D10000000000000000000000000000000000093
:104D2000014214000000000000000000000000002C
:104D3000000000000000000001431400000000001B
:104D40000000000000000000000000000000000063
:104D500001441400000000000000000000000000FA
:104D600000000000000000000145140000000000E9
:104D70000000000000000000000000000000000033
:104D800001C9040000000000000000000000000055
:104D900000000000000000000146140000000000B8
:104DA0000000000000000000000000000000000003
:104DB0000147140000000000000000000000000097
:104DC0000000000000000000014814000000000086
:104DD00000000000000000000000000000000000D3
:104DE0000149140000000000000000000000000065
:104DF0000000000000000000014A14000000000054
:104E000000000000000000000000000000000000A2
:104E1000014B140000000000000000000000000032
:104E20000000000000000000014C14000000000021
:104E30000000000000000000000000000000000072
:104E4000014D140000000000000000000000000000
:104E50000000000000000000014E140000000000EF
:104E60000000000000000000000000000000000042
:104E7000014F1400000000000000000000000000CE
:104E800000000000000000000150140000000000BD
:104E90000000000000000000000000000000000012
:104EA000015114000000000000000000000000009C
:104EB000000000000000000001521400000000008B
:104EC00000000000000000000000000000000000E2
:104ED000015314000000000000000000000000006A
:104EE0000000000000000000015414000000000059
:104EF00000000000000000000000000000000000B2
:104F000001CA0400000000000000000000000000D2
:104F10000000000000000000015514000000000027
:104F20000000000000000000000000000000000081
:104F30000156140000000000000000000000000006
:104F400000000000000000000157140000000000F5
:104F50000000000000000000000000000000000051
:104F600001581400000000000000000000000000D4
:104F700000000000000000000159140000000000C3
:104F80000000000000000000000000000000000021
:104F9000015A1400000000000000000000000000A2
:104FA0000000000000000000015B14000000000091
:104FB00000000000000000000000000000000000F1
:104FC000015C140000000000000000000000000070
:104FD0000000000000000000015D1400000000005F
:104FE00000000000000000000000000000000000C1
:104FF000015E14000000000000000000000000003E
:105000000000000000000000015F1400000000002C
:105010000000000000000000000000000000000090
:10502000016014000000000000000000000000000B
:1050300000000000000000000161140000000000FA
:105040000000000000000000000000000000000060
:1050500001621400000000000000000000000000D9
:1050600000000000000000000163140000000000C8
:105070000000000000000000000000000000000030
:1050800001CB040000000000000000000000000050
:105090000000000000000000016414000000000097
:1050A0000000000000000000000000000000000000
:1050B0000165140000000000000000000000000076
:1050C0000000000000000000016614000000000065
:1050D00000000000000000000000000000000000D0
:1050E0000167140000000000000000000000000044
:1050F0000000000000000000016814000000000033
:10510000000000000000000000000000000000009F
:105110000169140000000000000000000000000011
:105120000000000000000000016A14000000000000
:10513000000000000000000000000000000000006F
:10514000016B1400000000000000000000000000DF
:105150000000000000000000016C140000000000CE
:10516000000000000000000000000000000000003F
:10517000016D1400000000000000000000000000AD
:105180000000000000000000016E1400000000009C
:10519000000000000000000000000000000000000F
:1051A000016F14000000000000000000000000007B
:1051B000000000000000000001701400000000006A
:1051C00000000000000000000000000000000000DF
:1051D0000171140000000000000000000000000049
:1051E0000000000000000000017214000000000038
:1051F00000000000000000000000000000000000AF
:1052000001CC0400000000000000000000000000CD
:105210000000000000000000017314000000000006
:10522000000000000000000000000000000000007E
:1052300001741400000000000000000000000000E5
:1052400000000000000000000175140000000000D4
:10525000000000000000000000000000000000004E
:1052600001761400000000000000000000000000B3
:1052700000000000000000000177140000000000A2
:10528000000000000000000000000000000000001E
:105290000178140000000000000000000000000081
:1052A0000000000000000000017914000000000070
:1052B00000000000000000000000000000000000EE
:1052C000017A14000000000000000000000000004F
:1052D0000000000000000000017B1400000000003E
:1052E00000000000000000000000000000000000BE
:1052F000017C14000000000000000000000000001D
:105300000000000000000000017D1400000000000B
:10531000000000000000000000000000000000008D
:10532000017E1400000000000000000000000000EA
:105330000000000000000000017F140000000000D9
:10534000000000000000000000000000000000005D
:1053500001801400000000000000000000000000B8
:1053600000000000000000000181140000000000A7
:10537000000000000000000000000000000000002D
:1053800001CD04000000000000000000000000004B
:105390000000000000000000018214000000000076
:1053A00000000000000000000000000000000000FD
:1053B0000183140000000000000000000000000055
:1053C0000000000000000000018414000000000044
:1053D00000000000000000000000000000000000CD
:1053E0000185140000000000000000000000000023
:1053F0000000000000000000018614000000000012
:10540000000000000000000000000000000000009C
:1054100001871400000000000000000000000000F0
:1054200000000000000000000188140000000000DF
:10543000000000000000000000000000000000006C
:1054400001891400000000000000000000000000BE
:105450000000000000000000018A140000000000AD
:10546000000000000000000000000000000000003C
:10547000018B14000000000000000000000000008C
:105480000000000000000000018C1400000000007B
:10549000000000000000000000000000000000000C
:1054A000018D14000000000000000000000000005A
:1054B0000000000000000000018E14000000000049
:1054C00000000000000000000000000000000000DC
:1054D000018F140000000000000000000000000028
:1054E0000000000000000000019014000000000017
:1054F00000000000000000000000000000000000AC
:1055000001D404000000000101311000000000007F
:105510000000000000000000000000000131100049
:1055200000800000000000000000000000000000FB
:105530000132100000000000000000000000000028
:105540000000000001321000008000000000000098
:105550000000000000000000013310000000000007
:1055600000000000000000000000000001331000F7
:1055700000800000000000000000000000000000AB
:1055800001341000000000000000000000000000D6
:105590000000000001341000008000000000000046
:1055A00000000000000000000135100000000000B5
:1055B00000000000000000000000000001351000A5
:1055C000008000000000000000000000000000005B
:1055D0000136100000000000000000000000000084
:1055E00000000000013610000080000000000000F4
:1055F0000000000000000000FFFFFFFFFFFFFFFFB3
:1056000001C80400000000000000000000000000CD
:10561000000000000000000001371400000000003E
:10562000000000000000000000000000000000007A
:10563000013814000000000000000000000000001D
:10564000000000000000000001391400000000000C
:10565000000000000000000000000000000000004A
:10566000013A1400000000000000000000000000EB
:105670000000000000000000013B140000000000DA
:10568000000000000000000000000000000000001A
:10569000013C1400000000000000000000000000B9
:1056A0000000000000000000013D140000000000A8
:1056B00000000000000000000000000000000000EA
:1056C000013E140000000000000000000000000087
:1056D0000000000000000000013F14000000000076
:1056E00000000000000000000000000000000000BA
:1056F0000140140000000000000000000000000055
:105700000000000000000000014114000000000043
:105710000000000000000000000000000000000089
:105720000142140000000000000000000000000022
:105730000000000000000000014314000000000011
:105740000000000000000000000000000000000059
:1057500001441400000000000000000000000000F0
:1057600000000000000000000145140000000000DF
:105770000000000000000000000000000000000029
:1057800001C904000000000000000000000000004B
:1057900000000000000000000146140000000000AE
:1057A00000000000000000000000000000000000F9
:1057B000014714000000000000000000000000008D
:1057C000000000000000000001481400000000007C
:1057D00000000000000000000000000000000000C9
:1057E000014914000000000000000000000000005B
:1057F0000000000000000000014A1400000000004A
:105800000000000000000000000000000000000098
:10581000014B140000000000000000000000000028
:105820000000000000000000014C14000000000017
:105830000000000000000000000000000000000068
:10584000014D1400000000000000000000000000F6
:105850000000000000000000014E140000000000E5
:105860000000000000000000000000000000000038
:10587000014F1400000000000000000000000000C4
:1058800000000000000000000150140000000000B3
:105890000000000000000000000000000000000008
:1058A0000151140000000000000000000000000092
:1058B0000000000000000000015214000000000081
:1058C00000000000000000000000000000000000D8
:1058D0000153140000000000000000000000000060
:1058E000000000000000000001541400000000004F
:1058F00000000000000000000000000000000000A8
:1059000001CA0400000000000000000000000000C8
:10591000000000000000000001551400000000001D
:105920000000000000000000000000000000000077
:1059300001561400000000000000000000000000FC
:1059400000000000000000000157140000000000EB
:105950000000000000000000000000000000000047
:1059600001581400000000000000000000000000CA
:1059700000000000000000000159140000000000B9
:105980000000000000000000000000000000000017
:10599000015A140000000000000000000000000098
:1059A0000000000000000000015B14000000000087
:1059B00000000000000000000000000000000000E7
:1059C000015C140000000000000000000000000066
:1059D0000000000000000000015D14000000000055
:1059E00000000000000000000000000000000000B7
:1059F000015E140000000000000000000000000034
:105A00000000000000000000015F14000000000022
:105A10000000000000000000000000000000000086
:105A20000160140000000000000000000000000001
:105A300000000000000000000161140000000000F0
:105A40000000000000000000000000000000000056
:105A500001621400000000000000000000000000CF
:105A600000000000000000000163140000000000BE
:105A70000000000000000000000000000000000026
:105A800001CB040000000000000000000000000046
:105A9000000000000000000001641400000000008D
:105AA00000000000000000000000000000000000F6
:105AB000016514000000000000000000000000006C
:105AC000000000000000000001661400000000005B
:105AD00000000000000000000000000000000000C6
:105AE000016714000000000000000000000000003A
:105AF0000000000000000000016814000000000029
:105B00000000000000000000000000000000000095
:105B10000169140000000000000000000000000007
:105B20000000000000000000016A140000000000F6
:105B30000000000000000000000000000000000065
:105B4000016B1400000000000000000000000000D5
:105B50000000000000000000016C140000000000C4
:105B60000000000000000000000000000000000035
:105B7000016D1400000000000000000000000000A3
:105B80000000000000000000016E14000000000092
:105B90000000000000000000000000000000000005
:105BA000016F140000000000000000000000000071
:105BB0000000000000000000017014000000000060
:105BC00000000000000000000000000000000000D5
:105BD000017114000000000000000000000000003F
:105BE000000000000000000001721400000000002E
:105BF00000000000000000000000000000000000A5
:105C000001CC0400000000000000000000000000C3
:105C100000000000000000000173140000000000FC
:105C20000000000000000000000000000000000074
:105C300001741400000000000000000000000000DB
:105C400000000000000000000175140000000000CA
:105C50000000000000000000000000000000000044
:105C600001761400000000000000000000000000A9
:105C70000000000000000000017714000000000098
:105C80000000000000000000000000000000000014
:105C90000178140000000000000000000000000077
:105CA0000000000000000000017914000000000066
:105CB00000000000000000000000000000000000E4
:105CC000017A140000000000000000000000000045
:105CD0000000000000000000017B14000000000034
:105CE00000000000000000000000000000000000B4
:105CF000017C140000000000000000000000000013
:105D00000000000000000000017D14000000000001
:105D10000000000000000000000000000000000083
:105D2000017E1400000000000000000000000000E0
:105D30000000000000000000017F140000000000CF
:105D40000000000000000000000000000000000053
:105D500001801400000000000000000000000000AE
:105D6000000000000000000001811400000000009D
:105D70000000000000000000000000000000000023
:105D800001CD040000000000000000000000000041
:105D9000000000000000000001821400000000006C
:105DA00000000000000000000000000000000000F3
:105DB000018314000000000000000000000000004B
:105DC000000000000000000001841400000000003A
:105DD00000000000000000000000000000000000C3
:105DE0000185140000000000000000000000000019
:105DF0000000000000000000018614000000000008
:105E00000000000000000000000000000000000092
:105E100001871400000000000000000000000000E6
:105E200000000000000000000188140000000000D5
:105E30000000000000000000000000000000000062
:105E400001891400000000000000000000000000B4
:105E50000000000000000000018A140000000000A3
:105E60000000000000000000000000000000000032
:105E7000018B140000000000000000000000000082
:105E80000000000000000000018C14000000000071
:105E90000000000000000000000000000000000002
:105EA000018D140000000000000000000000000050
:105EB0000000000000000000018E1400000000003F
:105EC00000000000000000000000000000000000D2
:105ED000018F14000000000000000000000000001E
:105EE000000000000000000001901400000000000D
:105EF00000000000000000000000000000000000A2
:105F000001D4040000000001013110000000000075
:105F1000000000000000000000000000013110003F
:105F200000800000000000000000000000000000F1
:105F3000013210000000000000000000000000001E
:105F4000000000000132100000800000000000008E
:105F500000000000000000000133100000000000FD
:105F600000000000000000000000000001331000ED
:105F700000800000000000000000000000000000A1
:105F800001341000000000000000000000000000CC
:105F9000000000000134100000800000000000003C
:105FA00000000000000000000135100000000000AB
:105FB000000000000000000000000000013510009B
:105FC0000080000000000000000000000000000051
:105FD000013610000000000000000000000000007A
:105FE00000000000013610000080000000000000EA
:105FF0000000000000000000FFFFFFFFFFFFFFFFA9
:020000040030CA
:0E0000003A463E1EFF0080FF0FC00FA00F40CB
:0200000400F00A
:10000000FFFFFFA001000000000001010103040147
:100010000000000001FFFFFFFFFFFFFFFFFFFFFFEA
:10002000FFFFFFFFFFFFFFFFFFFFFFFFFFFFFFFFE0
:10003000FFFFFFFFFFFFFFFFFFFFFFFFFFFFFFFFD0
:1000400003FFFFFFFFFFFFFFFFFFFFFFFFFFFFFFBC
:10005000FFFFFFFFFFFFFFFFFFFFFFFFFFFFFFFFB0
:10006000FFFFFFFFFFFFFFFFFFFFFFFFFFFFFFFFA0
:10007000FFFFFFFFFFFFFFFFFFFFFFFFFFFFFFFF90
:10008000030131FFFFFFFFFFFFFFFFFFFFFFFFFF48
:10009000FFFFFFFFFFFFFFFFFFFFFFFFFFFFFFFF70
:1000A000FFFFFFFFFFFFFFFFFFFFFFFFFFFFFFFF60
:1000B000FFFFFFFFFFFFFFFFFFFFFFFFFFFFFFFF50
:1000C000FFFFFFFFFFFFFFFFFFFFFFFFFFFFFFFF40
:1000D000FFFFFFFFFFFFFFFFFFFFFFFFFFFFFFFF30
:1000E000FFFFFFFFFFFFFFFFFFFFFFFFFFFFFFFF20
:1000F000FFFFFFFFFFFFFFFFFFFFFFFFFFFFFF020D
:00000001FF
