:020000040000FA
:1000000000EF3CF0FFFFFFFFD3EF01F0800E016E29
:10001000FE0EC8EC00F0010EC8EC00F0750E0D6E7F
:10002000FFD7FFFFFFFFFFFFFFFFFFFFFFFFFFFF08
:10003000FFFFFFFFFFFFFFFFFFFFFFFFFFFFFFFFD0
:10004000B3EF01F0FFFFFFFFD3EF01F0800E016E71
:10005000FE0EC8EC00F0010EC8EC00F0750E0D6E3F
:10006000300EECEF00F0016A018E176EFE0EC8EC48
:1000700000F01750C8EF00F0076A106E116A009682
:100080000750D8B40086050E066E270E0F6E100EB0
:100090000CD8030E0F6EE80E08D80F6A640E05D850
:1000A0000F6A0A0E02D8105008D00E6E11500D6E55
:1000B00010500C6EF8EC00F00C500C6E064E0096D2
:1000C000075003E0065CD8B008D00C50D8A40096C6
:1000D00000B603D0300FC8EF00F01200A66AA68E5B
:1000E0000900F55002E002D8FBD71200156E8A987D
:1000F000899A9398929AF00E9316155000B2A3EF36
:1001000000F03A0E0D6E980EECEC00F0330E146E0B
:100110002ED8130E0D6E880EECEC00F028D8640E6D
:10012000EBEC00F024D8640EEBEC00F0220E146E21
:100130001ED8280E07D80C0E05D8060E03D800824C
:10014000155001D00080146E00A00BD0899A0308CE
:100150000CE30BD8070E0D6ED00EECEC00F0D8803F
:1001600012000080FE0812E0898A143A00A0009074
:100170008A88F00E811614500F0B81128A98143A57
:1001800000B0F5D7320EEBEC00F0D880155012001D
:1001900001BE76EF00F0A96EA66AA680A850A92A33
:1001A0001200A86EA66AA684550EA76EAA0EA76EA8
:1001B000A682A6B2FED7A694A92A12000F6A0E6ED6
:1001C000FF0E0E260F2200D0D8A01200030E0D6ED7
:1001D000E50E02D8F5D70D6AFA0F0C6E000003E3A6
:1001E00000D00C06FEE20C060D06FBE20000120039
:1001F000116A106A100EF36E0D34103611360E505F
:10020000105C0F50115805E30E50105E0F50115A3C
:10021000D8800C360D36F32EEFD70C501200938A8F
:10022000156A146A00EE10F0010E0D6EBA0EECECB9
:1002300000F081BA57D0030E0D6E760EECEC00F094
:10024000152A200E156401D00AD0D88081BAD89022
:10025000EF36142A14A602D0EE52146AECD700EE40
:1002600010F0056A146A0E6A0D6A0C6AEF360536DC
:10027000EF360536142A3BD809B434D0056AEF3678
:100280000536EF360536142A32D809B42BD0093298
:100290000E36050E086E056AEF360536EF36053662
:1002A000142A14A402D0EE52146A21D809B41AD028
:1002B00009320D36082EEFD7060E086E056AEF36A6
:1002C0000536EF360536142A14A402D0EE52146A0D
:1002D0000ED809B407D009320C36082EEFD70C50CF
:1002E000D8901200FF0E0C6E0D6ED8801200096AB5
:1002F000052C02D009801200020E056201D0120006
:10030000098412004669726D77617265205600009B
:1003100057616974696E6720666F7220444C435060
:1003200000005A7A7A2E2E2E2020202020202020F5
:100330002020000057616974696E6720666F722023
:10034000444C4350000064422020202020202020E4
:10035000202020004D7574652020202020202020A2
:10036000202020200000F86A006AAB6A0001DF0E3E
:10037000926E3C0E936EBD0E946E7B6A7A6A7E6AB4
:100380007F6A0F0EC16E7D9E7D9C7D98050EAF6EBF
:10039000AC94B896AC98AB8ED09E9D989D9AAC8A42
:1003A000AB883BEF10F0D8CF19F01A6EE0CF02F017
:1003B000E9CF03F0EACF04F00001E86A9DB8010E2E
:1003C000186EE86A9EB8010E1816D8B4FBEF01F05B
:1003D00096519763EFEF01F09D98FBEF01F000EE6F
:1003E00036F09651EB50AD6E962B300E965DD8A040
:1003F000FBEF01F0966B9EAA15EF02F000EE66F09F
:100400009951AECFEBFF992B300E995DD8A00AEF32
:1004100002F0996B9951986315EF02F09907FF0E5E
:10042000996315EF02F02F0E996FF2A026EF02F0FC
:100430001C501B10D8A425EF02F01FA025EF02F0DE
:10044000EEDE1D6E0DC01EF01F90F29003C0E9FF9E
:1004500004C0EAFF02C0E0FF1A5019C0D8FF100024
:100460000001ABA240EF02F0AB98AE50AE50AB88AB
:100470000001966B976B986B996BA66B2F6A306A2D
:100480009951986345EF02F0120000EE66F0985122
:10049000EB50B66F982B300E985DD8A051EF02F05C
:1004A000986BFE0EB6635AEF02F0B6C027F04DEC23
:1004B00004F0D6D7800EB65DD8A080EF02F0F10E22
:1004C000B6150A6E0B6A0A50B10A0B10D8A46BEF6E
:1004D00002F0B10EB66FB00EB66374EF02F0010E0B
:1004E000A66F1F847FEF02F0B10EB6637DEF02F0BE
:1004F000010EA66F1F847FEF02F0A66B1F84B0D79A
:10050000A653D8B485EF02F0A62B020EA6618AEF9F
:1005100002F0A6D7020EA66391EF02F0B6C02FF04C
:100520009FD7B6C030F0010EA66F030E2F62C0EF4A
:1005300002F0302C9FEF02F01F82BEEF02F030522B
:10054000D8A4A6EF02F01F92BEEF02F0020E3062B6
:10055000B5EF02F01FBAB3EF02F02F0EB46F750EB5
:10056000B56F1F8A1F86BEEF02F0030E3062BEEF2A
:1005700002F01FAABEEF02F01F9A1F8639EF04F0A7
:10058000040E2F62C6EF02F039EF04F0050E2F6261
:10059000D2EF02F0040E3060D0EF02F030C0A1F0D4
:1005A00039EF04F0060E2F62EBEF02F0010E325C21
:1005B000D8B4E9EF02F0090E3060E9EF02F0B8516B
:1005C000305CD8B4E9EF02F030C0B8F01F8670ECB0
:1005D00004F039EF04F0070E2F62FDEF02F0730E06
:1005E0003060FBEF02F0B951305CD8B4F9EF02F0A3
:1005F0001F8630C0B9F039EF04F01D0E2F620BEFEB
:1006000003F0A751305CD8B439EF04F030C0A7F044
:10061000C6EC0FF02ED1080E2F621DEF03F030C094
:10062000ABF0305008E11FAE24D11F9E01019F6B3B
:10063000A06B00011ED11F8E1CD14F0E2F6001D068
:1006400051D0540E2F60BED002014EA149D051515D
:100650002F1807E04F0E516342D04F0E2F6240D04B
:1006600009D04F0E516307D04D51301803E1500EA1
:10067000516F36D035D0100E306031D0500E5163EE
:1006800005D03050526F510E516F2AD0510E516328
:1006900005D03050536F520E516F22D0520E51631D
:1006A00005D03050546F530E516F1AD05439F00B9F
:1006B00030104EB308D0476F5251456F5351466FBB
:1006C0004B814C8107D04A6F5251486F5351496F4B
:1006D0004B834C834E9101019C81020101D04E91CC
:1006E0000001C7D02D0E2F6001D06CD04F0E2F60AF
:1006F00069D0020140A364D02E0E2F6201D003D036
:100700002F0E2F620ED04251301856E14089409D85
:1007100040913E6B3F6B409B2E0E2F6251D0408B21
:100720004FD040A94DD02D0E2F620CD040BD41D0EE
:100730003E533FE1425130183F6F1F0E3F6139D0A9
:10074000408D3ED04E0E2F621FD04251301831E105
:1007500040AD2FD03E513F192CE14081409340994C
:100760004095576B586B436B110E3E6101D005D01D
:1007700040AB03D03E51F00F436F060E446F556BF4
:10078000566B88EC0DF01CD040AD13D0300E2F5CB2
:100790003E190FE1200E306001D00BD07F0E30608B
:1007A00008D002EE20F03E51E9263050EF6E3E2B8D
:1007B00007D08EEC0DF004D04099409D3E6B3F6B0E
:1007C000000157D02C0E2F6201D036D0210E2F60A1
:1007D00001D04FD02C0E2F604CD0210E2F5C046E18
:1007E0000101AE51B86F070E046001D002D09E51D6
:1007F000B86F800EB8B18B0E0424E96E010EEA6E5C
:1008000030C0EFFF0101060E04620BD0010EB8B13B
:10081000020E97132CEC04F001019C9396710001D9
:1008200028D00A0E046206D0010EB8B1020E9D1344
:100830009C819C9500011DD00101B3A10BD0B39107
:10084000B66BB385B471B3B303D0B06BB28102D0D1
:10085000B16BB28300010DD00101B3859C81B8B1A9
:1008600004D0B06BB28100011200B16BB283000101
:100870001200F6D500019651975DD8A0300F030FF6
:100880002D6E300E2D6002D0D89012000101AD3FC8
:1008900001D0AD690001D880120000EE36F097510A
:1008A00027C0EBFF9729276E300E275CD8A05AEFA0
:1008B00004F0276A9DA86BEF04F02D682750965D21
:1008C000D8A409D02D2EFAD70101AD3F01D0AD69D2
:1008D0000001D880120027C097F09D88D8901200A0
:1008E0003052D8A477EF04F0B76B16EF05F0302C38
:1008F0007EEF04F0050EB76F16EF05F0020E3062C2
:100900008EEF04F0A153D8B48AEF04F0060EB76F4F
:100910008CEF04F0010EB76F16EF05F0030E306296
:10092000A5EF04F0A153D8B4A1EF04F0A12D9DEFE1
:1009300004F0010EB76F9FEF04F0070EB76FA3EF3F
:1009400004F0020EB76F16EF05F0040E3062C4EF2C
:1009500004F0A153D8B4C0EF04F0A12DB2EF04F01D
:10096000020EB76F020EA163B8EF04F0010EB76F6D
:10097000030EA163BEEF04F0080EB76FC2EF04F0E0
:10098000030EB76F16EF05F0050E3062E3EF04F0CB
:10099000A153D8B4DFEF04F0A12DD1EF04F0030E82
:1009A000B76F020EA163D7EF04F0020EB76F030E0C
:1009B000A163DDEF04F0010EB76FE1EF04F0040E68
:1009C000B76F16EF05F0060E3062FAEF04F0A12DB6
:1009D000ECEF04F0040EB76F020EA163F2EF04F027
:1009E000030EB76F030EA163F8EF04F0020EB76FAA
:1009F00016EF05F0070E30620CEF05F0020EA16352
:100A000004EF05F0040EB76F030EA1630AEF05F0C3
:100A1000030EB76F16EF05F0080E306216EF05F003
:100A2000030EA16316EF05F0040EB76F1200B75363
:100A3000D8A41EEF05F0B86BB7EF05F0B72D3CEF6B
:100A400005F0A153D8B438EF05F0A12D2AEF05F039
:100A5000030EB86F020EA16330EF05F0040EB86FFD
:100A6000030EA16336EF05F0050EB86F3AEF05F0FF
:100A7000020EB86FB7EF05F0020EB7635BEF05F03B
:100A8000A153D8B457EF05F0A12D49EF05F0040E9E
:100A9000B86F020EA1634FEF05F0050EB86F030E9D
:100AA000A16355EF05F0060EB86F59EF05F0030E80
:100AB000B86FB7EF05F0030EB7637AEF05F0A153F7
:100AC000D8B476EF05F0A12D68EF05F0050EB86FEC
:100AD000020EA1636EEF05F0060EB86F030EA16360
:100AE00074EF05F0070EB86F78EF05F0040EB86FDD
:100AF000B7EF05F0040EB76399EF05F0A153D8B432
:100B000095EF05F0A12D87EF05F0060EB86F020EE8
:100B1000A1638DEF05F0070EB86F030EA16393EF8D
:100B200005F0080EB86F97EF05F0050EB86FB7EF38
:100B300005F0050EB763A1EF05F0010EB86FB7EF32
:100B400005F0060EB763A9EF05F0020EB86FB7EF18
:100B500005F0070EB763B1EF05F0030EB86FB7EFFE
:100B600005F0080EB763B7EF05F0040EB86F12007A
:100B70002768278080A62790278282A02792278433
:100B800080A42794278680A22796278882AA279860
:100B9000278A80A8279AFF0E271A2750BC5DD8B451
:100BA000D7EF05F0BB6B27C0BCF0E0EF05F0040EFB
:100BB000BB61DEEF05F0BB2BE0EF05F0BCC0BEF083
:100BC0009A6BBE51BD5DD8B4EEEF05F0BEC0BDF06E
:100BD0009B6B9C6BBEC09AF0F4EF05F0BE31D8B0B1
:100BE000F4EF05F09B4B9C2BC90E9B5D320E9C597C
:100BF000D8A001EF06F0280E9B6F230E9C6FBEC09D
:100C00009AF0120027C02BF02C6A2C50100DF3CF55
:100C10002CF02B50100DF3CF2BF0F4502C262B5032
:100C200029262C502A22276A100E276029EF06F069
:100C300027502924F66E000E2A20F76EA66AA68E8B
:100C40000800F5CF28F0285076EC00F0272AD8A429
:100C5000EBD71200A96ABF51D1EC00F0010EA96ECA
:100C6000BA51D1EC00F0020EA96EC051D1EC00F0E7
:100C7000276A060E27607FEF06F0030E2724A96E71
:100C800000EEC1F02750EB50D1EC00F0090E272404
:100C9000A96E00EEC7F02750EB50D1EC00F00F0E1C
:100CA0002724A96E00EECDF02750EB50D1EC00F0D8
:100CB000150E2724A96E00EED3F02750EB50D1EC8F
:100CC00000F01B0E2724A96E00EED9F02750EB5040
:100CD000D1EC00F0210E2724A96E00EEDFF02750A2
:100CE000EB50D1EC00F0270E2724A96E00EEE5F0C2
:100CF0002750EB50D1EC00F0272AD8A4BAD7730EB6
:100D0000A96EEB51D1EC00F01200000ECBEC00F01C
:100D1000BF6F010ECBEC00F0BA6F020ECBEC00F00F
:100D2000C06F276A060E2760DFEF06F0030E272448
:100D3000CBEC00F00A6E00EEC1F027500AC0EBFFCA
:100D4000090E2724CBEC00F00A6E00EEC7F0275006
:100D50000AC0EBFF0F0E2724CBEC00F00A6E00EE6A
:100D6000CDF027500AC0EBFF150E2724CBEC00F086
:100D70000A6E00EED3F027500AC0EBFF1B0E2724AB
:100D8000CBEC00F00A6E00EED9F027500AC0EBFF62
:100D9000210E2724CBEC00F00A6E00EEDFF0275086
:100DA0000AC0EBFF270E2724CBEC00F00A6E00EE02
:100DB000E5F027500AC0EBFF272AD8A4B3D7730E5B
:100DC000CBEC00F0EB6F050EEB5DD8A0EAEF06F080
:100DD000010EEB6F17EC13F012004CDD10E2B00EB9
:100DE0003324276E4DEC04F034C027F04DEC04F0B2
:100DF00035C027F04DEC04F09F6BA06B1200120081
:100E00000101702B060E706502D0010E706F7051DB
:100E10000001FF0F02E193EF07F0FF0F02E181EF06
:100E200007F0FF0F02E1CEEF07F0FF0F02E1A5EFA1
:100E300007F0FF0F02E1DCEF07F090EF09F01ADD99
:100E40000CE2B10E276E4DEC04F0040E276E4DEC53
:100E500004F0276A4DEC04F0120012002828336ECB
:100E6000170E346E00EEC1F02850EB50356EB5DF32
:100E700012002828336E180E346E00EEC7F028508A
:100E8000EB50356EAADF12002828336E190E346E2F
:100E900000EECDF02850EB50356E9FDF1200282871
:100EA000336E1A0E346E00EED3F02850EB50356ED0
:100EB00094DF12002828336E1B0E346E00EED9F03A
:100EC0002850EB50356E89DF12002828336E1C0E37
:100ED000346E00EEDFF02850EB50356E7EDF1200EE
:100EE0002828336E1E0E346E00EEE5F02850EB50CD
:100EF000356E3552D8A47FEF07F0030E356E6DDFE7
:100F00001200B8DC0FE2B00E276E4DEC04F0060EB6
:100F1000276E4DEC04F0B8C027F04DEC04F09F6B49
:100F2000A06B12001200A6DC0FE2B00E276E4DEC93
:100F300004F0070E276E4DEC04F0B9C027F04DEC1D
:100F400004F09F6BA06B1200120094DC0FE2B00E55
:100F5000276E4DEC04F01D0E276E4DEC04F0A7C07B
:100F600027F04DEC04F09F6BA06B12001200000103
:100F7000A653D8B40ED09951986308D0AC5303E16E
:100F8000800EAC6F1200AC4B06D01200800EAC6F1E
:100F90001200AC6B1200A66BAC6B1200336A030E2E
:100FA000346E1FAAD8EF07F0020E356EDAEF07F0A5
:100FB000030E356E12DF1200336A030E346E1FB259
:100FC000E5EF07F0356AE7EF07F0010E356E05DF54
:100FD00001E212001200F286B8EC05F0000130ECDC
:100FE00002F0B7EC07F0D9EC0EF0A5EC0DF03DECFB
:100FF0000FF09E51EA0A600ED8B49D19D8A402EFF2
:1010000008F028DE610E9D5DEA0E9E59D8B00BEF08
:1010100008F09D4B9E2B82EC08F0A0514E0A200E4A
:10102000D8B49F19D8A41AEF08F0EADE9F6BA06B22
:101030001CEF08F09F4BA02B1FB223EF08F09492F7
:101040008B9258EF08F0EB53D8B456EF08F0EC5100
:10105000B05DED51B159EE51B259EF51B359B351A1
:10106000EF19D8B0800AD8A83AEF08F094928B9282
:1010700054EF08F01FAA4DEF08F0B44BB52BB55153
:10108000750A300ED8B4B419D8A44BEF08F08272A8
:101090009492B46BB56B4FEF08F094928B82B02BA7
:1010A000000EB123B223B32358EF08F094928B8241
:1010B000000E9A53D8A4010E186EE86A1FB6010EEE
:1010C0001812D8B489D7000E9A53D8A4010E186EFE
:1010D000E86A1FB8010E1812D8B473EF08F0B36BAA
:1010E000B26BB16BB06B1F989A31D8A07FEF08F04C
:1010F000D8969AA1D886D8B67FEF08F01F729D6B5C
:101100009E6B12001B52D8A48AEF08F01C52D8B470
:101110008DEF08F01B06000E1C5A1FA091EF08F07F
:1011200012001E50206243EF09F01D502162A1EF12
:1011300008F0500E1B6EC30E1C6E1F721F8643EF0D
:1011400009F01D502262B4EF08F0D00E1B6E070E9E
:101150001C6E720EB961B2EF08F0B92B1F9AE3DE74
:101160001F861F8843EF09F01D502362C7EF08F068
:10117000D00E1B6E070E1C6EB953D8B4C5EF08F025
:10118000B9071F9AD0DE1F861F8843EF09F01D5054
:101190002662D9EF08F02F0EB46F750EB56F1F7A67
:1011A000200E1B6E4E0E1C6E1F861F88F7DE43EF4F
:1011B00009F01D5025620EEF09F0A153D8A4E5EF08
:1011C00008F0050E276EFAEF08F0A12DECEF08F0FD
:1011D000060E276EFAEF08F0020EA163F4EF08F096
:1011E000070E276EFAEF08F0030EA163FAEF08F07E
:1011F000080E276EB753D8B401EF09F0B70703EF15
:1012000009F027C0B7F01F861F88580E1B6E1B0EF3
:101210001C6E17EC05F075DE43EF09F01D502462DB
:1012200042EF09F0A153D8A41AEF09F0050E276E7A
:101230002FEF09F0A12D21EF09F0060E276E2FEFF9
:1012400009F0020EA16329EF09F0070E276E2FEFB8
:1012500009F0030EA1632FEF09F0080E276E275047
:10126000B76136EF09F0B72B37EF09F0B76B1F8680
:101270001F88580E1B6E1B0E1C6E17EC05F041DE0E
:1012800043EF09F01F801D50380A0BE01D50390A4A
:1012900011E01D503A0A18E01D503B0A1AE01F8069
:1012A00012001FAC0FD01F9C4ED802E21F860AD03E
:1012B0001F8C08D01FBC06D01F8C45D802E21F86A9
:1012C00001D01F9C1F8012000AD807E21F921F86C0
:1012D00004D015D802E21F821F861F8012003AEC4C
:1012E00004F00CE2B00E276E4DEC04F0030E276EF6
:1012F0004DEC04F0276A4DEC04F0120012003AECB9
:1013000004F00DE2B00E276E4DEC04F0030E276ED4
:101310004DEC04F0010E276E4DEC04F012001200AB
:101320003AEC04F00FE2B00E276E4DEC04F0200E04
:10133000276E4DEC04F0E86A1FBC010E276E4DECE1
:1013400004F012001200ECDF08E2740EA96EE86AE5
:101350001FBC010ED1EC00F012001200800E016ED5
:10136000800E33EC00F0500E76EC00F0720E76EC4E
:1013700000F0650E76EC00F0730E76EC00F0650E72
:1013800076EC00F0740E76EC00F0200E76EC00F0B7
:10139000200E76EC00F0200E76EC00F0200E76ECBD
:1013A00000F0200E76EC00F0200E76EC00F0200E1F
:1013B00076EC00F0200E76EC00F0200E76EC00F0DB
:1013C000200E76EC00F00201FF0E5B6F00013FEC97
:1013D0000EF03FEC0EF0C00E33EC00F0100E186E65
:1013E000200E76EC00F0182EFBD79AEC0DF00101E0
:1013F000726B1FBC722B0001EBEC07F000011FB6F3
:101400001F96E86A1FBC010E01017219000102E07B
:10141000AEEF09F09AA318EF0AF01FACFBEF09F04A
:101420001F9C91DF02E2AEEF09F01F8CFBEF09F089
:101430009AA526EF0AF01FBCFBEF09F01F8C83DF93
:1014400002E2AEEF09F01F9CFBEF09F01F96E86A7D
:101450009ABB010E186EE86A9AB9010E1812010EB5
:101460001FB2E86A1812D8B4C6D78EEC0DF000018E
:1014700012000101010BCD6F000101019D6B9C6BFE
:101480009E6B9F6BAE6BAF6B986B996B97519A6F1E
:10149000CDB103D002014C9102D002014C934E9188
:1014A0004F6B516B0001800E33EC00F0500E76EC68
:1014B00000F0420E76EC00F00101CD51310F000139
:1014C00076EC00F00101010ECDB1020E971501E19D
:1014D0004AD0A5EC0FF0045214E10101CE6BD46B9D
:1014E000D06B0B0ED0610AD0D05110D905E0CE2BB5
:1014F000080ED06101D0D42BD02BF3D7D4534AE0BF
:1015000072D002EC0DF00001200E76EC00F0020E1D
:10151000046212D06C0E76EC00F06F0E76EC00F0E8
:10152000730E76EC00F0740E76EC00F00101080EFC
:101530009B6F000144D90ED06F0E76EC00F06C0E5C
:1015400076EC00F0640E76EC00F00101090E9B6F62
:10155000000135D9C00E33EC00F00101100E9B6F75
:1015600000012DD942D101010D0E9B6F000127D939
:10157000C00E33EC00F06E0E76EC00F02F0E76EC21
:1015800000F0610E76EC00F001010D0E9B6F000182
:1015900016D92BD1200E76EC00F04F0E76EC00F031
:1015A0004B0E76EC00F099EC0CF0C00E33EC00F032
:1015B0000101CF6B080ED06F0B0ED06107D0D05158
:1015C000A5D8D16F01E0A9D8D02BF6D7CF5302E12F
:1015D000100E04D0CF51E824CF25110801019B6FD4
:1015E0000001EDD802D1210E76EC00F00101CF6BA5
:1015F000D06B0B0ED06119D0040ECF6116D0D05134
:1016000085D8D16F10E00001200E76EC00F00101CA
:10161000D351A0D8000176EC00F00101D1510001B6
:101620006DD90101CF2BD02BE4D7CF51E824CF25A2
:101630000C089B6F0001C3D8C00E33EC00F0010111
:10164000050ECE6105D0100E9B6F0001B8D8CDD02D
:101650000101CF6BD26BD06B0B0ED0610FD0050E9A
:10166000CF610CD0D05152D8D16F06E0040ED261B8
:1016700002D0D22B01D051D8D02BEED70A0ECE619A
:1016800008D0CF51E824CF2511089B6F000197D8CF
:10169000ACD000012E0E76EC00F02E0E76EC00F0B1
:1016A000A4D00101D36F000ED36701D01200D3077D
:1016B000010ED36701D01200D307040ED36701D007
:1016C0001200D307050ED36701D01200D307060E10
:1016D000D36701D01200D307080ED36701D01200E0
:1016E000D307090ED36701D01200D3070A0ED367C0
:1016F00001D01200D307020ED36701D01200D30726
:10170000030ED36701D01200070E1200CADFD36F99
:1017100018D8D351E350010112000101CF5304E066
:101720000001200E76EC00F00101D35113D8000126
:1017300076EC00F00101D1510001E0D80101CF2B7E
:1017400012000101CDB103D011EE80F0120011EEB4
:101750008BF012000101D36F490ED36701D0120044
:10176000D307440ED36701D01200D307530ED367BB
:1017700001D01200D307420ED36701D01200D30765
:10178000520ED36701D01200D307410ED36701D0A8
:101790001200D307500ED36701D01200D3074F0EAB
:1017A000D36701D01200D307560ED36701D01200C1
:1017B000D307570ED36701D01200580E1200010153
:1017C0009B5307E00001200E76EC00F001019B2FF7
:1017D000F9D700011200C00E33EC00F00101100E29
:1017E0009B6F0001DFEC0BF01200F286B8EC05F005
:1017F000000130EC02F0B7EC07F0D9EC0EF082EC0F
:1018000008F000010101985199114FE101019CA3D9
:1018100017D0AF0705E10AEC0FF001019C9310D03F
:101820009CA508D09F0706E1010E9EB1020E9D13F4
:101830009C9500D0000E986F5A0E996F00013AD017
:101840000101CD51010B966F14EC0DF027E29CA520
:1018500008D09F0714E1010E9EB1020E9D139C95C6
:101860000ED0010E96B1020E9D1509E19651010BA5
:101870009E6F040E9F6F9C85000178DA01019651DE
:10188000010BAE6F100EAF6F9C8300016DDA01018A
:10189000000E986F5A0E996F00010CD00101000ED6
:1018A000986F5A0E996F000105D0985101E1990780
:1018B0009807000101019CB105D0B3B503D0975141
:1018C0009A1907E097519A6F9C91B395000153EFD5
:1018D0000AF000011F96E86A9ABB010E186EE86ACA
:1018E0009AB9010E1812010E1FB2E86A1812D8B484
:1018F0007CD70001120076EC00F012000F0B046E92
:1019000010E00F0E046011D00A0E046005D0300EF6
:10191000042476EC00F01200370E042476EC00F07C
:101920001200200E76EC00F012002B0E76EC00F088
:1019300012000101CDB125D002014BA14DD0200EE6
:1019400076EC00F0760E76EC00F0020145510001D5
:101950004AD82E0E76EC00F002014651000143D821
:10196000200E76EC00F0780E76EC00F00201475184
:10197000546F5439000137D802014751000133D860
:1019800024D002014BA328D0200E76EC00F0760E76
:1019900076EC00F002014851000125D82E0E76ECBD
:1019A00000F00201495100011ED8200E76EC00F033
:1019B000780E76EC00F002014A51546F5439000160
:1019C00012D802014A5100010ED80101010E9B6F8D
:1019D0000001DFEC0BF0120001010A0E9B6F000109
:1019E000DFEC0BF012000F0B046E0A0E046005D042
:1019F000300E042476EC00F01200370E042476EC4E
:101A000000F012000101CDB107D002014B914C91C1
:101A10004EB308D04E9106D002014B934C934EA387
:101A200001D04E910001120002014EB12FD00101F0
:101A30009CB339D09CB537D096B109D097A133D09B
:101A400002014BB130D04CB12ED04E9308D097A3A9
:101A50002AD002014BB327D04CB325D04E8350512E
:101A60001F0BE8244D6F4EB34D8156EC0DF01BE279
:101A700002014F0E516F040E4F6F4E81502B200EFE
:101A8000506301D0506B0001D88012004F5305E025
:101A90004F0703E00001D88012004EB302D04C8102
:101AA00001D04C834E910001D89012003AEC04F022
:101AB00017E2B10E02014EB3B20E0001276E4DECDB
:101AC00004F00EE2250E276E4DEC04F009E202014F
:101AD0004D510001276E4DEC04F002E2D890120047
:101AE0000001D880120002EE20F0250E0F6EEE6A83
:101AF0000F2EFDD702EE55F0080E0F6EEE6A0F2E78
:101B0000FDD7000112000201596B5A6B4087120089
:101B10000201596B43515A6F408712000201406B1A
:101B20003E6B3F6B576B586B436B446B556B566BFF
:101B3000EADF1200F3DF0001010EBF6312001FA2F3
:101B4000120002014085000112000001010EBF6376
:101B50001200B6EC0DF0F6EC0DF004EC0EF03FECDC
:101B60000EF002E28DEC0EF000011200020140A521
:101B7000120040B31200412B200E416301D0416B93
:101B80004151426F42474247429300011FBC03D07C
:101B90000201429102D002014281DDEC0DF00BE224
:101BA0000201408340954099409D3E6B3F6B000E83
:101BB000576F400E586F000112003AEC04F013E228
:101BC000B10E276E4DEC04F00EE2260E276E4DECA2
:101BD00004F009E2020142510001276E4DEC04F0CD
:101BE00002E2D89012000001D8801200020140A346
:101BF0001200575305E1585305E0580757071200E4
:101C0000570712008BDF1200020140A11200110ED3
:101C10003E6101D0120040B71200555305E1565302
:101C200005E056075507120055071200000E556FC4
:101C3000080E566F445302E0440712003E51F00F65
:101C40005C6F40BB0ED043515C6304D0436B060E07
:101C5000446F13D0432B43515C630FD0030E446F8A
:101C60000CD0435305E15C51436F060E446F05D021
:101C70004307435302E1030E446F4ADF120002019F
:101C80005C6B0101030EB06104D0030EB16101D0A1
:101C900002D002015C8100011FBC01D002D0020110
:101CA0005C8300011FBE01D002D002015C850201ED
:101CB0005C515B19010B12E000018E0E33EC00F059
:101CC0000201200E5CB12A0E000176EC00F0020148
:101CD0005B915CB15B810001D88012005C515B19A3
:101CE000060B18E000018F0E33EC00F00201210E0C
:101CF0005CB503D0410E5CB3420E000176EC00F0FF
:101D000002015B935B955CB35B835CB55B85000113
:101D1000D88012000001D8901200020140A71200E2
:101D20000001C00E02015925000133EC00F0020150
:101D3000200E40A10DD05A5159255C6F3E515C6177
:101D400006D002EE20F05C51E926EF5001D0200EC3
:101D5000000176EC00F00201592B100E596302D0FD
:101D6000596B409700011200210E03D0220E01D0C2
:101D7000FBD71C6E3AEC04F013E2B10E010196B1F0
:101D8000B20E0001276E4DEC04F00AE21C50276EE3
:101D90004DEC04F005E2276A4DEC04F001E212007C
:101DA00001011C50210A02E09C9501D09C93000186
:101DB00012000101B52B02E0000112001FA239D070
:101DC0000001040EBF6112000101B3B10CD023EC7D
:101DD0000FF037E20101B381200EB66FB393B4B1B7
:101DE000B38300011200B65303E0B60700011200EE
:101DF00006D8B391B66BB385B4710001120001012E
:101E0000B3B304D00F0EB063B02B12000F0EB1634A
:101E1000B12B12000101B3859C81CDB105D00F0E0D
:101E2000B063B02B000112000F0EB163B12B0001A3
:101E300012000101B06BB16BB26BB36BB46BB56BDD
:101E4000B66B0001120000019751966314D03AEC72
:101E500004F00FE2B10E0101B4B1B20E0001276E21
:101E60004DEC04F0230E276E4DEC04F0276A4DEC88
:101E700004F000011200D88012000101B3B502D0B5
:101E80000001120000011FA21200010EBF6301D069
:101E90001200040EBF611200030EBF6303D0A453EF
:101EA00001E012000101B76B030EB061B781030EB0
:101EB000B161B783B7A103D0B15301E0B78301018A
:101EC000B96BF2BEB92B0001F29E800E016ECC0EF2
:101ED00033EC00F00101030EB7630ED00001210EB8
:101EE00076EC00F0310E76EC00F0200E76EC00F08F
:101EF000320E76EC00F022D00101B75312E000015F
:101F0000200E76EC00F0200E76EC00F0210E76EC40
:101F100000F00101310EB7B3320E000176EC00F093
:101F20000DD00001200E76EC00F0200E76EC00F0D3
:101F3000200E76EC00F0200E76EC00F00101B95393
:101F400001E0F28EB39500011200046A0101CDB1E7
:101F500002D0B0510AD0030EB06102D0B15105D009
:101F6000B15302E0B05101D0B151B96F0A0EB9615D
:101F700009D0030EB96102D000011200010E046EF7
:101F800000011200020E046E00011200040EA7638D
:101F9000DAEF0FF0100E206E320E216E330E226E2D
:101FA000340E236E350E266E360E246E370E256ED9
:101FB000EBEF0FF0030EA763EBEF0FF0206A0C0EB0
:101FC000216E100E226E110E236E200E246E210E35
:101FD000256E0D0E266E1200A2C029F0A3C02AF0B5
:101FE000A5C027F0800E016EC00E33EC00F002ECAD
:101FF00006F0EBEC07F0000E9A53D8A4010E186E11
:10200000E86A1FB6010E1812D8B4F3D79A31E83235
:10201000D8A013EF10F0A551A46312EF10F0A56B38
:1020200013EF10F0A52BD8969AA5D886D8B622EF34
:1020300010F0A553D8A421EF10F0A4C0A5F022EF12
:1020400010F0A5071200566F6C756D653A202020C0
:10205000202020202020496E7075743A20202020F6
:1020600020202020202053657475702020202020FF
:1020700020202020202001EE80F0180E0F6EEE6A46
:102080000F2EFDD701019D6B9C6B9E6B9F6BAE6B02
:10209000AF6BB06BB16BB26BB36BB46BB56B73EC16
:1020A0000DF0000194928B920A0E1B6E1C6A7D8AC1
:1020B000F290F2969D8AF28EF28C966B976B986BEB
:1020C000996B1F94A66B1D6A1D6A1E6A9B6B9C6BA5
:1020D00000EEC1F0060EEE6AE82EFDD700EEC7F066
:1020E000060EEE6AE82EFDD700EECDF0060EEE6A83
:1020F000E82EFDD700EED3F0060EEE6AE82EFDD7EF
:1021000000EED9F0060EEE6AE82EFDD700EEDFF005
:10211000060EEE6AE82EFDD7326A1F961F98A96850
:10212000020ED1EC00F0700ECBEC00F0276E010E29
:10213000275CD8B4A1EF10F0700EA96E010ED1EC9F
:1021400000F0710ECBEC00F0276E070E275CD8B4C0
:10215000AFEF10F0710EA96E070ED1EC00F0BC6B62
:10216000BE6BBD6BB46BB56BB36BB26BB16BB06B6D
:1021700002EE45F0100E046EEE6A042EFDD7010E3D
:102180000F6E2C0EDFEC00F026EC00F0C80EDEEC3B
:1021900000F085EC06F00001BA5106E0BA6B010EC2
:1021A000A96EE86AD1EC00F0740ECBEC00F01F9C35
:1021B000010A01E11F8C010E0F6EF40EDFEC00F03E
:1021C000800E016E33EC00F02B0EF76EC20EF66E31
:1021D0006EEC00F0800E016EC00E33EC00F0800E4D
:1021E000016E2B0EF76ED20EF66E6EEC00F0030E43
:1021F0000F6EE80EDFEC00F0800EB86FB96FA76FBE
:10220000A16FA86BA96B016E33EC00F0030EF76EA3
:10221000100EF66E6EEC00F0EBEC0BF094928B82ED
:102220000F0E0F6EA00EDFEC00F0B8EC05F0000111
:10223000040EA96103D0A84BA92B04D09ABBFF00C0
:102240009AB9FF001FEC07F0C80EDEEC00F030EC8E
:1022500002F0B7EC07F0800EB85DD8A4010E186E3E
:10226000800EB95DD8A4010E1816800EA75DD8A403
:10227000010E1816800EA15DD8A4010E1816D8B450
:10228000D4D7610E9D6FEA0E9E6F9F6BA06B1F9A55
:10229000010E326E1FA2A1EF11F01F96BF53D8A4FA
:1022A00056EF11F037EC12F07EEF11F00001BF2D68
:1022B0005EEF11F0AEEC09F07EEF11F0020EBF639D
:1022C00066EF11F064EC15F07EEF11F0030EBF63C2
:1022D0006EEF11F0DAEC12F07EEF11F0040EBF6336
:1022E00077EF11F0000E39EC0AF07EEF11F0050ED9
:1022F000BF637EEF11F0010E39EC0AF0D8969AAB6D
:10230000D886D8B68CEF11F0050EBF638BEF11F0B5
:10231000BF6B8CEF11F0BF2BD8969AA9D886D8B690
:102320009BEF11F0BF53D8A49AEF11F0050EBF6FC9
:102330009BEF11F0BF07B8EC05F01FB2AED729EF45
:1023400012F01F92DCEC07F026EC00F0800E016E1C
:1023500033EC00F0030EF76E220EF66E6EEC00F01A
:10236000EBEC07F01F96000E9A53D8A4010E186EDE
:10237000E86A1FB2010E1812D8B4F2D7B36BB26B71
:10238000B16BB06B1F82DCEC07F0800E016E33EC9A
:1023900000F0030EF76E340EF66E6EEC00F0EBEC10
:1023A0000BF094928B82130E0F6E880EDFEC00F010
:1023B0001F920101736B0001A86BA96BB8EC05F0CB
:1023C0000001040EA96103D0A84BA92B04D09ABB2D
:1023D000FF009AB9FF0000011FEC07F0C80EDEEC09
:1023E00000F030EC02F0B7EC07F0800EB85DD8A436
:1023F000010E186E800EB95DD8A4010E1816800E5D
:10240000A75DD8A4010E1816800EA15DD8A4010EF8
:102410001816185214E10101732B080E7363CED7FE
:10242000736BAB98AE50AE50AB880001966B976B58
:10243000986B996BA66BAC6B2F6A306ABFD70101A2
:10244000736BB06BB16BB26BB36BB46BB56B0001FC
:102450001F82DCEC07F001E3ACD7610E9D6FEA0E42
:102460009E6F9F6BA06B1F9A010E326E13D7800E6A
:10247000016E33EC00F0BFC027F0200E2A6E460E2E
:10248000296E02EC06F0800E016E870E33EC00F030
:102490001FBA79EF12F0600EB96157EF12F02D0EEE
:1024A00076EC00F0B9516008276E66EF12F0600E0E
:1024B000B96360EF12F0600EB95D276E66EF12F03F
:1024C0002B0E76EC00F0600EB95D276E800E016E6B
:1024D00027503CEC00F02E0E76EC00F0300E76EC3F
:1024E00000F0030EF76E460EF66E6EEC00F07FEF16
:1024F00012F0030EF76E540EF66E6EEC00F0B7C0DD
:1025000027F02A0E2A6E380E296E800E016EC00E3C
:1025100033EC00F002EC06F0800E016E8F0E33EC0F
:1025200000F0410E1FBC420E1FBE210E76EC00F0E3
:10253000EBEC07F09A31E832D8A0A7EF12F0720E58
:10254000B961A4EF12F0B92B1F9A93EC07F0D8965B
:102550009AA5D886D8B6B5EF12F0B953D8B4B2EF71
:1025600012F0B9071F9A93EC07F0D8969AA7D8866D
:10257000D8B6C2EF12F01F7A2F0EB46F750EB56F7A
:10258000CEEC07F01F96E86A9ABB010E186EE86A57
:102590009AB9010E1812010E1FB2E86A1812D8B4C7
:1025A00072D71200424C2054696D656F75742020FB
:1025B00020202020800E016E33EC00F0020E276EEA
:1025C000200E2A6E460E296E02EC06F0BAC027F0E5
:1025D000250E2A6EA40E296EBAC0A5F0A46B800E3B
:1025E000016EC00E33EC00F002EC06F0EBEC07F0ED
:1025F0001FA6FCEF12F01F96D8969AA7D886D8B6D9
:1026000004EF13F062EC13F0010E1FB2E86A186ECB
:10261000E86A9AB7010E1812E86A9ABB010E1812FE
:10262000E86A9AB9010E1812D8B4C4D71200EB2D7B
:1026300023EF13F0EF6B080EEE6F910EED6F3A0E75
:10264000EC6F41EF13F0020EEB6330EF13F0EF6B22
:10265000220EEE6F440EED6FEB0EEC6F41EF13F0B8
:10266000030EEB633DEF13F0EF6B550EEE6FAC0E08
:10267000ED6F440EEC6F41EF13F0EF6BEE6BED6B13
:10268000EC6B12004F666620286E6F2074696D65D2
:102690006F7574293330207365632020202020203B
:1026A0002020202032206D696E2020202020202034
:1026B0002020202035206D696E2020202020202021
:1026C00020202020BAC027F0250E2A6EA40E296EE5
:1026D000800E016E33EC00F002EC06F0030EA46FE6
:1026E000260EA36F840EA26FEBC0A5F0ECEC0FF0EA
:1026F0001F96E86A9AB3010E186EE86A9AB5010E41
:102700001812D8B487EF13F0A5C0EBF090DFE86A99
:102710009AB7010E186E010E1FB2E86A1812D8B4EB
:10272000E3D7B8EC05F01200536F75726365204370
:1027300048313A2020202020536F75726365204372
:1027400048323A2020202020536F75726365204361
:1027500048333A2020202020536F75726365204350
:1027600048343A2020202020536F7572636520433F
:1027700048353A2020202020536F7572636520432E
:1027800048363A2020202020555342617564696FF5
:102790003A202020202020204C6566742020202014
:1027A00020202020202020205269676874202020CB
:1027B00020202020202020204C2B522020202020B0
:1027C00020202020202020204C2D5220202020209E
:1027D00020202020202020204341542F41455320F9
:1027E0002020202020202020532F50444946202004
:1027F0002020202020202020800E016E33EC00F0CD
:10280000BAC027F0250E2A6EA40E296E02EC06F03F
:10281000C0C027F0270E2A6E280E296E800E016E8A
:10282000C00E33EC00F002EC06F0060EC06167EF5C
:1028300014F0C053D8A424EF14F000EEC1F0BA5144
:10284000EB50A56F58EF14F0C02D2EEF14F000EEF2
:10285000C7F0BA51EB50A56F58EF14F0020EC063E9
:1028600039EF14F000EECDF0BA51EB50A56F58EFF0
:1028700014F0030EC06344EF14F000EED3F0BA512D
:10288000EB50A56F58EF14F0040EC0634FEF14F037
:1028900000EED9F0BA51EB50A56F58EF14F0050EC9
:1028A000C06358EF14F000EEDFF0BA51EB50A56FA3
:1028B000030EA46FA5C027F0270E2A6E980E296E6E
:1028C000800E016ECB0E33EC00F079EF14F000EEC9
:1028D000E5F0BA51EB50A56F010EA46FA5C027F02B
:1028E000270E2A6ED80E296E800E016EC90E33ECAB
:1028F00000F002EC06F0EBEC07F01FA685EF14F0F9
:102900001F961FA285EF14F077D79A31E832D8A02E
:1029100094EF14F0A551A46391EF14F0A56B92EF1E
:1029200014F0A52BCFEC14F0D8969AA5D886D8B67B
:10293000A5EF14F0A553D8A4A2EF14F0A4C0A5F0FD
:10294000A3EF14F0A507CFEC14F0D8969AABD88675
:10295000D8B6B3EF14F0060EC063B2EF14F0C06B3C
:10296000B3EF14F0C02BD8969AA9D886D8B6C2EF88
:1029700014F0C053D8A4C1EF14F0060EC06FC2EF1C
:1029800014F0C007E86A9AB7010E186E010E1FB264
:10299000E86A1812D8B43CD7B8EC05F01200B8ECCD
:1029A00005F0060EC06116EF15F0C053D8A4E0EF95
:1029B00014F000EEC1F0BA51A5C0EBFF14EF15F012
:1029C000C02DEAEF14F000EEC7F0BA51A5C0EBFF3E
:1029D00014EF15F0020EC063F5EF14F000EECDF029
:1029E000BA51A5C0EBFF14EF15F0030EC06300EF62
:1029F00015F000EED3F0BA51A5C0EBFF14EF15F0BF
:102A0000040EC0630BEF15F000EED9F0BA51A5C06B
:102A1000EBFF14EF15F0050EC06314EF15F000EE98
:102A2000DFF0BA51A5C0EBFF1BEF15F000EEE5F0AB
:102A3000BA51A5C0EBFF12004175746F2044657454
:102A40006563742020202020532F504449462020C5
:102A500020202020202020205553422041756469E9
:102A60006F2020202020202041455320202020209E
:102A700020202020202020204F70746963616C206A
:102A80002020202020202020416E616C6F6775651A
:102A90002031202020202020416E616C6F677565F9
:102AA0002032202020202020416E616C6F677565E8
:102AB0002033202020202020416E616C6F677565D7
:102AC0002034202020202020800E016E33EC00F0E6
:102AD000010E276E200E2A6E460E296E02EC06F0BD
:102AE000B7C027F02A0E2A6E380E296EB7C0A5F09F
:102AF000A153D8A480EF15F0050EA46F95EF15F043
:102B0000A12D87EF15F0060EA46F95EF15F0020EBC
:102B1000A1638FEF15F0070EA46F95EF15F0030E6C
:102B2000A16395EF15F0080EA46F800E016EC00E24
:102B300033EC00F002EC06F0EBEC07F01FA6A6EF7A
:102B400015F01F961FA2A6EF15F0BED79A31E832F6
:102B5000D8A0BBEF15F0A551A463B2EF15F0A56B9B
:102B6000B3EF15F0A52BB8EC05F0A5C0B7F017EC46
:102B700005F081EC07F0D8969AA5D886D8B6D2EFA2
:102B800015F0A553D8A4C9EF15F0A4C0A5F0CAEF5D
:102B900015F0A507B8EC05F0A5C0B7F017EC05F0E7
:102BA00081EC07F0E86A9ABB010E186EE86A9AB9E0
:102BB000010E1812010E1FB2E86A1812D8B490D78D
:102BC00012004669726D776172652056312E373278
:102BD0000000526576207833392032303236303575
:102BE00033310000FFFFFFFFFFFFFFFFFFFFFFFF8D
:102BF000FFFFFFFFFFFFFFFFFFFFFFFFFFFFFFFFE5
:102C0000FFFFFFFFFFFFFFFFFFFFFFFFFFFFFFFFD4
:102C1000FFFFFFFFFFFFFFFFFFFFFFFFFFFFFFFFC4
:102C2000FFFFFFFFFFFFFFFFFFFFFFFFFFFFFFFFB4
:1077B000444C43504354524C010732392026053182
:1077C000FFFFFFFFFFFFFFFFFFFFFFFFFFFFFFFFC9
:1077D000FFFFFFFFFFFFFFFFFFFFFFFFFFFFFFFFB9
:1077E000FFFFFFFFFFFFFFFFFFFFFFFFFFFFFFFFA9
:1077F000FFFFFFFFFFFFFFFFFFFFFFFFFFFFFFFF99
:107800007FEF3DF00D6E030E02D00D6E040E076E7D
:107810000E500C5C02E10D500B5C040ED8B0010E52
:10782000D8B4020E0714D8A4010E1200800E016E07
:10783000FE0E00D9010EFED8750E0C6E300E41D131
:10784000016A018E166EFE0EF5D81650F3D0056A49
:10785000800E1B6E00D00F6A106A116A116A079AB7
:10786000EDD8D8A01200D30FD8B4078A2D0FC60FB9
:1078700003E20A0FF5E305D0F30FF2E2060FF0E39F
:107880000A0F0D6E040E0E6ED8900F36103611369C
:1078900012360E2EF9D70D500F1205060EE0CED877
:1078A000D8A01200C60F03E20A0F07E3EAD7F30FCE
:1078B00004E2060F02E30A0FE4D707AA0BD00F1E5B
:1078C000101E111E121E0F2AD8B4102AD8B4112A65
:1078D000D8B4122A0F50D8801200056A0F6E106AB1
:1078E00000960550D8B40086040E046E103805D8F2
:1078F000105003D80F3801D80F500F0BF60FD8B027
:10790000070F0A0F00D00B6E044E0096055003E0DF
:10791000045CD8B007D00B50D8A4009600B602D0B3
:10792000300F88D012000F6E0450D8B412000FC070
:10793000E9FF10C0EAFFEF50D8B412007BD80F4A1D
:10794000102A0406F1D7A66AA68E0900F55002E0B7
:1079500002D8FBD71200146E8A98899A9398929A4B
:10796000F00E9316145000B21ED03A0E0C6E980E04
:10797000A8D8330E136E2AD8130E0C6E880EA1D819
:1079800025D8640E9DD822D8640E9AD8220E136E84
:107990001DD8280E07D80C0E05D8060E03D8008275
:1079A000145001D00080136E00A00AD0899A0308F9
:1079B0000BE30AD8070E0C6ED00E83D8D8801200C5
:1079C0000080FE0811E0898A133A00A000908A889E
:1079D000F00E811613500F0B81128A98133A00B0E3
:1079E000F5D7320E6DD8D88014501200ABB2AB98D8
:1079F000AB8802C00BF006C00CF00D6A0E6A0000E6
:107A000000D000009EBA0ED0E8680D260E220B2290
:107A10000C22D8A012000D480E3CF1D7B70E0D6E07
:107A20000E6AEFD7AE50D88012009EA8FED7AD6E7A
:107A3000D880120001BE8FD701B4F7D71B52D6E011
:107A4000D8801BBEEE501200A96EA66AA680A85070
:107A5000A92A1200A86EA66AA684550EA76EAA0EC1
:107A6000A76EA682A6B2FED7A694A92A1200F56E2A
:107A70000C00F6281F0B09E1840EA66E550EA76EAA
:107A8000AA0EA76EA68200D0A694F64AF72A120084
:107A9000F66E940EA66E550EA76EAA0EA76EA6825F
:107AA0000000A69412000E6A0D6EFF0E0D260E2227
:107AB00000D0D8A01200030E0C6EE50E02D8F5D748
:107AC0000C6AFA0F0B6E000003E300D00B06FEE217
:107AD0000B060C06FBE200001200F34E02D0E65249
:107AE000FCD7E6CFEEFFE82EFCD71200426F6F7492
:107AF0006C6F61646572206D6F6465200000F86AC8
:107B0000006A050EAF6E200EAC6E900EAB6E0001DB
:107B1000DF0E926E3C0E936EBD0E946E7B6A7A6A97
:107B20007E6A7F6A0F0EC16E050EBDDF460E766F50
:107B3000570E776F5F0E786F550E796F700E7A6FF4
:107B4000640E7B6F939C8A9C8293DBD98231E832EE
:107B500015E2FF0E79DF1F6E1F2C06D0A968770E85
:107B600079DF20EF00F009D0020E1F6206D0FE0E72
:107B7000A96E010E6FDF20EF00F003D0A968000EA0
:107B800069DFAC8AAB88AB8E51DE94928B82800E1B
:107B9000016E56DE7A0EF76EEC0EF66ED4DE00EE57
:107BA00024F01F0EEE6AE82EFDD7F29E400E1D6EE9
:107BB0001E6A206A216A086A00EE76F00850EB50CF
:107BC000196E00EE7CF0085019C0EBFF082A08502F
:107BD0000608F2E145D900EE43F02E0EEE6AE82EDB
:107BE000FDD7F40E026E010E066E00DFE4E33A08E4
:107BF000FCE110EE43F0FADEDEE30D0802E1E66A96
:107C000004D0AE50E66E01E0F6D782911F6A060EF0
:107C10001F600BD000EE43F01F50EB50086E300E8B
:107C2000085C01E082811F2AF2E1823101E293D1F6
:107C3000226A236A1F6A140E1F601CD000EE71F0C6
:107C400010EE43F01F50020DF3CF19F0F4CF1AF0ED
:107C50001928F36E020E41DFEF6A00EE71F027EC97
:107C60003CF0196E10C01AF0195022261A50232227
:107C70001F2AE1E12250FF08196EFF0E23541A6EED
:107C8000010E1924226E000E1A20236E00EE71F0F0
:107C900010EE43F0290EF36E020E1FDFEF6A00EEC6
:107CA00071F027EC3CF0206E10C021F020502262D1
:107CB000D6D02166D4D000EE71F010EE43F0030E62
:107CC000F36E040E0ADFEF6A00EE71F027EC3CF071
:107CD0001D6E10C01EF03F0E1D14086E096A09507B
:107CE000081002E0000E01D0010E1C6E1DC00BF04A
:107CF0001EC00CF0770E0E6EC00E05EC3CF01C168C
:107D00001DC00BF01EC00CF00E6A400E02EC3CF0E1
:107D10001C1607E01E501D1004E01EC0F7FF1D508A
:107D2000B7DE1DC00BF01EC00CF0770E0E6EC00E3D
:107D300005EC3CF01C6E1DC00BF01EC00CF00E6A72
:107D4000400E02EC3CF01C162DE01F6A080E1F606E
:107D500029D000EE71F010EE43F01F50040DF3CF68
:107D600019F0F4CF1AF0090E1924F36E040EB5DEE3
:107D7000EF6A00EE71F027EC3CF0206E10C021F0AD
:107D80001F50020DF3CF19F0F4CF1AF019501D2433
:107D9000F66E1A501E20F76E215069DE205067DE05
:107DA0001F2AD4E13A0E41DE040E016E020E056E6A
:107DB00022506EEC3CF00D0E38DE0A0E36DE1D5001
:107DC000400A1E1024E1080E1F6E100E1F601CD00A
:107DD00000EE71F010EE43F01F50020DF3CF19F0DA
:107DE000F4CF1AF0090E1924F36E020E76DEEF6A54
:107DF00000EE71F027EC3CF0086E00EE24F01F500E
:107E000008C0EBFF1F2AE1E1A968000E23DE1D5028
:107E1000500A1E1024E11F6A100E1F601FD000EED2
:107E200071F010EE43F01F50020DF3CF19F0F4CFB4
:107E30001AF0090E1924F36E020E4FDEEF6A100ECF
:107E40001F24086E00EE71F027EC3CF00A6E00EE85
:107E500024F008500AC0EBFF1F2ADEE11BD8BBD676
:107E60000D0E15EC3DF00A0E15EC3DF00C0E15EC68
:107E70003DF03A0E15EC3DF0040E016E060E046E58
:107E8000106A7C0E93EC3CF00D0E15EC3DF00A0EE2
:107E900015EF3DF0F66AF76AFCDDF66AF76A000E48
:107EA00037EC3DF0EF0E37EC3DF0020EF66EF76A60
:107EB0003C0E37EC3DF0F00E37EC3DF0040EF66E64
:107EC000F76AFF0E37EC3DF0FF0E37EC3DF0060E83
:107ED000F66EF76AFF0E37EC3DF0FF0E37EC3DF023
:107EE000080E1F6E200E1F600BD01FC0F6FFF76A32
:107EF00000EE24F01F50EB5037EC3DF01F2AF2E16A
:107F000012001F6A0B0E1F6025D0010E82B0E86AB6
:107F10001C6E010E80B4E86A1C16E86A80B2010E7D
:107F20001C1613E0010E0E6EF40E54EC3DF0010E23
:107F300082B0E86A1C6E010E80B4E86A1C16E86A1A
:107F400080B2010E1C1601E082830A0E53EC3DF054
:107F50001F2AD8E112009EDF94928B92A968010E2D
:107F60002AEC3DF0010E0E6E2C0E54EC3DF0FF009D
:107F7000FFFFFFFFFFFFFFFFFFFFFFFFFFFFFFFF11
:107F8000FFFFFFFFFFFFFFFFFFFFFFFFFFFFFFFF01
:107F9000FFFFFFFFFFFFFFFFFFFFFFFFFFFFFFFFF1
:107FA000FFFFFFFFFFFFFFFFFFFFFFFFFFFFFFFFE1
:107FB000FFFFFFFFFFFFFFFFFFFFFFFFFFFFFFFFD1
:107FC000FFFFFFFFFFFFFFFFFFFFFFFFFFFFFFFFC1
:107FD000FFFFFFFFFFFFFFFFFFFFFFFFFFFFFFFFB1
:107FE000FFFFFFFFFFFFFFFFFFFFFFFFFFFFFFFFA1
:107FF000FFFFFFFFFFFFFFFFFFFFFFFFFFFFFFFF91
:020000040020DA
:08000000FFFFFFFFFFFFFFFF00
:020000040030CA
:0E000000FF011F00FF0080FFFFFFFFFFFFFF5B
:0200000400F00A
:1000000000000000000000000000000000000000F0
:1000100000000000000101010101010101010101D5
:1000200001010101010101000000000000000000C9
:10003000000000FFFFFFFFFFFFFFFFFFFFFFFFFFCD
:10004000FFFFFFFFFFFFFFFFFFFFFFFFFFFFFFFFC0
:10005000FFFFFFFFFFFFFFFFFFFFFFFFFFFFFFFFB0
:10006000FFFFFFFFFFFFFFFFFFFFFFFFFFFFFFFFA0
:1000700001073201FFFFFFFFFFFFFFFFFFFFFFFF51
:10008000FFFFFFFFFFFFFFFFFFFFFFFFFFFFFFFF80
:10009000FFFFFFFFFFFFFFFFFFFFFFFFFFFFFFFF70
:1000A000FFFFFFFFFFFFFFFFFFFFFFFFFFFFFFFF60
:1000B000FFFFFFFFFFFFFFFFFFFFFFFFFFFFFFFF50
:1000C000FFFFFFFFFFFFFFFFFFFFFFFFFFFFFFFF40
:1000D000FFFFFFFFFFFFFFFFFFFFFFFFFFFFFFFF30
:1000E000FFFFFFFFFFFFFFFFFFFFFFFFFFFFFFFF20
:1000F000FFFFFFFFFFFFFFFFFFFFFFFFFFFFFF020D
:00000001FF
